:020000040800F2
:10000000000003201D4F00089D4E00089F4E000871
:10001000A14E0008A34E0008A54E000800000000F5
:100020000000000000000000000000006D4F00080C
:10003000A74E0008000000006D4F0008A94E000800
:100040006D4F00086D4F00086D4F00086D4F0008A0
:100050006D4F00086D4F00086D4F00086D4F000890
:100060006D4F00086D4F00086D4F00086D4F000880
:100070006D4F00086D4F00086D4F00086D4F000870
:100080006D4F00086D4F00086D4F00086D4F000860
:100090006D4F00086D4F00086D4F00086D4F000850
:1000A0006D4F00086D4F00086D4F00086D4F000840
:1000B0006D4F0008B14E00086D4F00086D4F0008ED
:1000C0006D4F00086D4F00086D4F00086D4F000820
:1000D0006D4F00086D4F00086D4F00086D4F000810
:1000E0006D4F00086D4F00086D4F00086D4F000800
:1000F0006D4F00086D4F00086D4F00086D4F0008F0
:100100006D4F00086D4F00086D4F00086D4F0008DF
:100110006D4F00086D4F00086D4F00086D4F0008CF
:100120006D4F00086D4F00086D4F00086D4F0008BF
:100130006D4F00086D4F00086D4F00086D4F0008AF
:100140006D4F00086D4F00086D4F00086D4F00089F
:100150006D4F00086D4F00086D4F00086D4F00088F
:100160006D4F00086D4F00086D4F00086D4F00087F
:100170006D4F00086D4F00086D4F00080000000033
:100180006D4F00086D4F00086D4F00086D4F00085F
:100190006D4F00086D4F00086D4F00086D4F00084F
:0C01A000C14E00086D4F00086D4F0008B4
:1001AC0010B5054C237833B9044B13B10448AFF3A5
:1001BC0000800123237010BDB4000020000000005B
:1001CC0020E2000808B5034B1BB103490348AFF309
:1001DC00008008BD00000000B800002020E20008EC
:1001EC0053B94AB9002908BF00281CBF4FF0FF3192
:1001FC004FF0FF3000F072B9ADF1080C6DE904CE90
:10020C0000F006F8DDF804E0DDE9022304B07047E5
:10021C002DE9F047089E04468846002B4BD18A42B4
:10022C00154667D9B2FA82F24AB1C2F1200701FA37
:10023C0002F320FA07F7954047EA030894404FEA87
:10024C00154E230CB8FBFEF71FFA85FC0EFB178826
:10025C0043EA084307FB0CF1994209D9EB1807F163
:10026C00FF3080F01B81994240F21881023F2B44F1
:10027C005B1AA4B2B3FBFEF00EFB103344EA03444A
:10028C0000FB0CFCA44509D92C1900F1FF3380F0BC
:10029C000781A44540F2048102382C4440EA07400F
:1002AC00A4EB0C0400271EB1D4400023C6E9004384
:1002BC003946BDE8F0878B4209D9002E00F0EB805F
:1002CC000027C6E9000138463946BDE8F087B3FA85
:1002DC0083F7002F47D18B4202D3824200F2FA807F
:1002EC00841A61EB030301209846002EE0D0C6E986
:1002FC000048DDE702B9FFDEB2FA82F2002A40F0D4
:10030C008F80491B4FEA154E1FFA85F80127B1FB68
:10031C00FEFC230C0EFB1C1143EA014308FB0CF101
:10032C00994207D9EB180CF1FF3002D2994200F236
:10033C00CD808446591AA3B2B1FBFEF00EFB10140B
:10034C0043EA044408FB00F8A04507D92C1900F136
:10035C00FF3302D2A04500F2B6801846A4EB080485
:10036C0040EA0C409FE7C7F1200CBB4022FA0CFE80
:10037C004EEA030E01FA07F420FA0CF521FA0CF3FD
:10038C004FEA1E482543B3FBF8F92C0C08FB193334
:10039C001FFA8EFA44EA034309FB0AF49C4202FA60
:1003AC0007F200FA07F10BD91EEB030309F1FF303A
:1003BC0080F087809C4240F28480A9F1020973444A
:1003CC001B1BADB2B3FBF8F008FB103345EA03443A
:1003DC0000FB0AFAA24508D91EEB040400F1FF3316
:1003EC006BD2A24569D90238744440EA0940A0FB9B
:1003FC000289A4EB0A044C45C2464B4654D351D057
:10040C00002E69D0B1EB0A0564EB030404FA0CFC72
:10041C00FD40FC404CEA0505C6E90054002747E7BF
:10042C00C2F1200320FA03F7954001FA02F021FAF9
:10043C0003F34FEA154E3843010CB3FBFEF71FFADA
:10044C0085F80EFB173341EA034107FB08F38B4297
:10045C0004FA02F407D9691807F1FF3C2FD28B423A
:10046C002DD9023F2944CB1A81B2B3FBFEF00EFB0F
:10047C00103341EA034100FB08F38B4207D969189A
:10048C0000F1FF3C17D28B4215D902382944C91A06
:10049C0040EA07473BE73746304609E70746E7E6B9
:1004AC001846FBE64145ABD2B8EB020A69EB0E02EB
:1004BC0001381346A4E76046E9E7184695E7674616
:1004CC00D1E781467CE702382C4447E7ACF1020CBB
:1004DC002B442FE7384608E73746E9E6704700BF5C
:1004EC0008B500F03FFE08BD08B500F01FFE08BDC2
:1004FC0008B500F0B5FDCA20FFF7F2FFC320FFF7E7
:10050C00F3FF0820FFF7F0FF5020FFF7EDFFCF209F
:10051C00FFF7E6FF0020FFF7E7FFC120FFF7E4FF3E
:10052C003020FFF7E1FFED20FFF7DAFF6420FFF743
:10053C00DBFF0320FFF7D8FF1220FFF7D5FF812048
:10054C00FFF7D2FFE820FFF7CBFF8520FFF7CCFFAA
:10055C000020FFF7C9FF7820FFF7C6FFCB20FFF77D
:10056C00BFFF3920FFF7C0FF2C20FFF7BDFF002095
:10057C00FFF7BAFF3420FFF7B7FF0220FFF7B4FFF5
:10058C00F720FFF7ADFF2020FFF7AEFFEA20FFF7C3
:10059C00A7FF0020FFF7A8FF0020FFF7A5FFB12061
:1005AC00FFF79EFF0020FFF79FFF1B20FFF79CFF2C
:1005BC00B620FFF795FF0A20FFF796FFA220FFF762
:1005CC0093FFC020FFF78CFF1020FFF78DFFC12099
:1005DC00FFF786FF1020FFF787FFC520FFF780FF8E
:1005EC004520FFF781FF1520FFF77EFFC720FFF79F
:1005FC0077FF9020FFF778FF3620FFF771FFC820B8
:10060C00FFF772FFF220FFF76BFF0020FFF76CFF84
:10061C00B020FFF765FFC220FFF766FFB620FFF79B
:10062C005FFF0A20FFF760FFA720FFF75DFF272081
:10063C00FFF75AFF0420FFF757FF2A20FFF750FF60
:10064C000020FFF751FF0020FFF74EFF0020FFF7BF
:10065C004BFFEF20FFF748FF2B20FFF741FF002057
:10066C00FFF742FF0020FFF73FFF0120FFF73CFFA1
:10067C003F20FFF739FFF620FFF732FF0120FFF78D
:10068C0033FF0020FFF730FF0620FFF72DFF2C2053
:10069C00FFF726FFC82000F081FD2620FFF720FF82
:1006AC000120FFF721FFE020FFF71AFF0F20FFF7D3
:1006BC001BFF2920FFF718FF2420FFF715FF0C2044
:1006CC00FFF712FF0E20FFF70FFF0920FFF70CFFBB
:1006DC004E20FFF709FF7820FFF706FF3C20FFF7BD
:1006EC0003FF0920FFF700FF1320FFF7FDFE052095
:1006FC00FFF7FAFE1720FFF7F7FE1120FFF7F4FEC5
:10070C000020FFF7F1FEE120FFF7EAFE0020FFF7E3
:10071C00EBFE1620FFF7E8FE1B20FFF7E5FE04209A
:10072C00FFF7E2FE1120FFF7DFFE0720FFF7DCFEEC
:10073C003120FFF7D9FE3320FFF7D6FE4220FFF71A
:10074C00D3FE0520FFF7D0FE0C20FFF7CDFE0A20CC
:10075C00FFF7CAFE2820FFF7C7FE2F20FFF7C4FEC5
:10076C000F20FFF7C1FE1120FFF7BAFEC82000F0E2
:10077C0015FD2920FFF7B4FE2C20FFF7B1FE08BDB4
:10078C000023012B06D8054AD25C824203D00133E8
:10079C00DBB2F6E7FF231846704700BFD0000020FD
:1007AC0008B52AB9CAB21121C0B200F003FD08BDC8
:1007BC00CAB21021C0B200F0FDFCF8E710B5C4B20B
:1007CC0002220321204600F0F5FC0A2000F0FEFC7A
:1007DC0000220321204600F0EDFC022000F0F6FC84
:1007EC0010BD000010B50446FFF7CAFFFF2800D06B
:1007FC0010BD0020FFF7C4FF0128F9D8034B1C548F
:10080C0000F0D0FC2046FFF7D9FFF1E7D000002024
:10081C0038B5044600F0C6FCE4B20021204600F0D6
:10082C00CDFC05020121204600F0C8FC00B2284393
:10083C0080B238BD10B50C461221C0B200F0BEFC1F
:10084C00E4B2204010BD10B50C460D21C0B200F032
:10085C00B5FCE4B2204010BD10B5C4B24021204616
:10086C0000F0ACFC10F0800F0CD101224B21204683
:10087C0000F0A0FC00224B21204600F09BFC002342
:10088C00184610BD4C21204600F098FC0346002869
:10089C00F6D00123F4E770B582B00E461546C4B20B
:1008AC0004230DEB0302D721204600F08BFC9DF8AE
:1008BC0004209DF805301B0443EA02639DF80620D2
:1008CC0043EA02239DF8072013431A0D3280C3F329
:1008DC000B232B8001224B21204600F06BFC0022C5
:1008EC004B21204600F066FC02B070BD10B5C4B2BE
:1008FC000921204600F062FC40F00102D2B209212D
:10090C00204600F057FC10BD10B5C4B2092120469A
:10091C0000F054FC00F0FE020921204600F04AFCD5
:10092C0010BD38B50C46C5B20A21284600F046FC6D
:10093C0040EA0402D2B20A21284600F03BFC38BD42
:10094C0010B5044600F032FC80212046FFF7E9FF89
:10095C002046FFF7CBFF10BD10B5044600F026FC77
:10096C001F212046FFF7DDFF2046FFF7BFFF10BD1C
:10097C0038B50C46C5B20A21284600F01FFC20EA07
:10098C000402D2B20A21284600F014FC38BD10B57E
:10099C000446FFF7B9FF80212046FFF7E9FF10BDA1
:1009AC0010B50446FFF7B0FF1F212046FFF7E0FF0C
:1009BC0010BD38B50D46C4B20921204600F0FEFB2F
:1009CC0000F0FB022A430921204600F0F3FB38BD5E
:1009DC0038B50D46C4B20921204600F0EFFB00F0FB
:1009EC00FD022A430921204600F0E4FB38BD10B576
:1009FC000C460B21C0B200F0E1FB204010BD08B545
:100A0C001F21FFF7F4FF08BD08B50A460B21C0B241
:100A1C0000F0D0FB08BD38B504460D468021FFF729
:100A2C00F3FFE4B2EDB22A460D21204600F0C2FBE2
:100A3C002A461421204600F0BDFB2A4615212046EB
:100A4C0000F0B8FB2A461621204600F0B3FB38BD57
:100A5C0008B51F21FFF7D8FF08BD70B50C46164628
:100A6C00C5B21321284600F0A9FB3EB920EA0402C6
:100A7C00D2B21321284600F09DFB70BDE2B20243B6
:100A8C00D2B2F6E738B50C46C5B21721284600F0AD
:100A9C0095FBE4B20443E2B21721284600F08AFB2E
:100AAC0038BD70B504460E46C5B20421284600F088
:100ABC0085FB00F0FA020421284600F07BFBF1B222
:100ACC002046FFF7DFFF70BD38B50C46C5B21721C5
:100ADC00284600F073FB20EA0402D2B21721284604
:100AEC0000F068FB38BD70B50646C4B20421204640
:100AFC0000F064FB054600F0FB020421204600F0E8
:100B0C0059FBF0213046FFF7DFFF05F0F802042116
:100B1C00204600F04FFB49222021204600F04AFBE2
:100B2C00022000F053FB01222121204600F042FB61
:100B3C009A224121204600F03DFB01224A21204609
:100B4C0000F038FB01224B21204600F033FB002241
:100B5C004B21204600F02EFB01225621204600F0AE
:100B6C0029FB01225821204600F024FB01224021C0
:100B7C00204600F01FFBFF220B21204600F01AFB41
:100B8C00022000F023FB70BD2DE9F0410E46174604
:100B9C00C5B21621284600F011FB804615212846C7
:100BAC0000F00CFBF44364B204EA0802D2B2044035
:100BBC00E4B217F0010F01D0F3B21A4317F0020F91
:100BCC0001D0F6B234431621284600F0F3FA22463F
:100BDC001521284600F0EEFABDE8F08138B50C4638
:100BEC00C5B20C21284600F0E9FAE4B20443E2B2A3
:100BFC000C21284600F0DEFA38BD38B504460D4607
:100C0C00052A64D8DFE802F003080D23394E0022D0
:100C1C00FFF723FF002038BD0122FFF71EFF002045
:100C2C00F9E7FFF78DFE29462046FFF7D7FF002294
:100C3C0029462046FFF711FF02212046FFF7C8FE88
:100C4C00022229462046FFF79FFF0020E3E7FFF72B
:100C5C0077FE29462046FFF7C1FF00222946204691
:100C6C00FFF7FBFE02212046FFF7B2FE01222946C8
:100C7C002046FFF789FF0020CDE7FFF761FE2946EC
:100C8C002046FFF7ABFF002229462046FFF7E5FE82
:100C9C0000212046FFF79CFE00212046FFF789FE2D
:100CAC000020B8E7FFF74CFE29462046FFF796FFD9
:100CBC00002229462046FFF7D0FE00212046FFF7F0
:100CCC0087FE04212046FFF774FE0020A3E71046A0
:100CDC00A1E7000000B589B000210191124B5A6CBC
:100CEC0042F480125A645A6C02F480120192019AF6
:100CFC0002911A6B42F020021A631B6B03F0200363
:100D0C000293029B4FF460730393022304930593A5
:100D1C00012306930523079303A9044800F03AFE28
:100D2C0009B05DF804FB00BF00380240001402401B
:100D3C0002682A4B9A4200D0704730B589B0002522
:100D4C000095274C236B43F004032363236B03F0C0
:100D5C0004030093009B0195236B43F00103236371
:100D6C00236B03F001030193019B4FF480730393F6
:100D7C00122304930595022306930423079303A9D6
:100D8C00184800F007FE4FF40073039303A91648AC
:100D9C0000F000FE0295236C43F400032364236CE3
:100DAC0003F400030293029B236A43F400032362BF
:100DBC00236A23F4000323622A460F21482000F003
:100DCC006DFC482000F09EFC2A460F21492000F0C3
:100DDC0065FC492000F096FC09B030BD005C004079
:100DEC0000380240000002400008024010B586B0F6
:100DFC00002400940F4B1A6B42F001021A631B6B18
:100E0C0003F001030093009B4FF400430193012373
:100E1C0003930494084B029301A9084800F0BAFD0F
:100E2C0022460F21282000F039FC282000F06AFC13
:100E3C0006B010BD00380240000021100000024036
:100E4C0010B5104802F03CFD00B110BD0D4C0E4B1E
:100E5C0023601823E3610023A36063612361A36211
:100E6C000722E262E36023624FF40072A2616362C4
:100E7C004FF4827363602046FFF72CFF204602F08C
:100E8C00D4FBE2E7D40000200050014008B5034831
:100E9C0002F012FCFFF7D4FF08BD00BFD400002005
:100EAC0000B583B002A921F8020D064B1B68012284
:100EBC00054802F017FC10B903B05DF804FBFFF70E
:100ECC00E5FFF9E754000020D400002010B50D48D0
:100EDC0001F052FB00B110BD0A4C0B4B23600B4BC5
:100EEC0063600023A360E3604FF48042226163617E
:100EFC00A361E36123622046FFF71AFF204601F04D
:100F0C0061F8E8E7008E0220005C0040A08601003A
:100F1C0008B5034801F0E5F8FFF7D8FF08BD00BF9E
:100F2C00008E022010B586B006AC04F8012D084BDB
:100F3C005B6802930123019300940A46014605481D
:100F4C0001F0E8F808B906B010BDFFF7E1FFFAE7C9
:100F5C0054000020008E022000B587B006AA0023A2
:100F6C0002F8013D094B5B68029301230193009247
:100F7C000A460146064801F08BF920B99DF8170086
:100F8C0007B05DF804FBFFF7C3FFF7E75400002040
:100F9C00008E022010B584B0094C64680294019351
:100FAC00009201230A460146064801F071F910B976
:100FBC00002004B010BDFFF7ABFF0120F9E700BF24
:100FCC0054000020008E022030B589B0034670B169
:100FDC00012818D100220292164A116B41F04001EF
:100FEC001163126B02F040020292029A0BE0002293
:100FFC000192104A116B41F040011163126B02F027
:10100C0040020192019A0C4A32F8135003950122C6
:10101C000492059202220692084C04EB830403A965
:10102C00A06800F0B7FC00222946A06800F0A2FDE1
:10103C0009B030BD0038024038E2000854000020EE
:10104C0008B5054B03EB8003044A32F8101098687E
:10105C0000F096FD08BD00BF5400002038E20008E7
:10106C002F4B93F8583003B170472DE9F04188B0FD
:10107C0001262B4B83F8586000250095294C236BD7
:10108C0043F008032363236B03F008030093009BD6
:10109C004FF400530393049605954FF00208CDF8D6
:1010AC001880214F03A9384600F074FC0195236B7E
:1010BC0043F008032363236B03F008030193019BA4
:1010CC004FF48053039304960595CDF8188003A92B
:1010DC00384600F05FFC0295236B43F00403236356
:1010EC00236B03F004030293029B042703970496DB
:1010FC000595CDF81880A4F5405403A9204600F0BE
:10110C0049FC2A463946204600F034FD3246394621
:10111C00204600F02FFDFFF793FE08B0BDE8F081EC
:10112C00D400002000380240000C024038B50546BF
:10113C0001224FF40051094800F01CFD084C00221C
:10114C000421204600F016FD2846FFF7A9FE0122D7
:10115C000421204600F00EFD38BD00BF000C0240FB
:10116C000008024038B5054600224FF400510948EA
:10117C0000F000FD084C00220421204600F0FAFC8F
:10118C002846FFF78DFE01220421204600F0F2FCD8
:10119C0038BD00BF000C02400008024008B500F04A
:1011AC0057FA08BD08B5FFF791FE08BD08B5FFF763
:1011BC001DFE08BD08B5FFF7B5FE08BD08B5FFF765
:1011CC00CBFE08BD08B5FFF7E5FE08BD08B500F07D
:1011DC003FFA08BD2DE9F04782B082464FF0000877
:1011EC00CDF80480214C0126266008276760A66094
:1011FC00C4F80C8004F110054FF6FF722146284606
:10120C0002F082F9304600F023FA02232360676073
:10121C00A660C4F80C804FF6FF722146284602F0F7
:10122C0073F90323236067604FF00409C4F8089036
:10123C00C4F80C804FF6FF722146284602F064F980
:10124C004FF40C730193C4F800906760A660019B87
:10125C00E3604FF6FF722146284602F055F95146DD
:10126C00284602F06EF902B0BDE8F087300100208C
:10127C00002800F0B48070B58EB0064600240194AE
:10128C00574B9A6B42F001029A639A6B02F001027F
:10129C000192019A02941A6B42F480021A631A6B3F
:1012AC0002F480020292029A03941A6B42F0020238
:1012BC001A631A6B02F002020392039A04941A6BDB
:1012CC0042F004021A631A6B02F004020492049AAC
:1012DC0005941A6B42F008021A631A6B02F00802AA
:1012EC000592059A06941A6B42F010021A631A6B57
:1012FC0002F010020692069A07941A6B42F0200232
:10130C001A631A6B02F020020792079A08941A6B60
:10131C0042F040021A631B6B03F040030893089BD6
:10132C0002230A930C930B940C230D930EAD6023A4
:10133C0045F8143D29462B4800F02CFB012309935A
:10134C002946294800F026FB4CF2037309932946E1
:10135C00264800F01FFB4FF6837309932946244857
:10136C0000F018FB4FF63F0309932946214800F083
:10137C0011FB48F23313099329461F4800F00AFB6E
:10138C001E4B9C648022DA644FF400721A654FF491
:10139C0080625A654FF480529A654FF48042DA6548
:1013AC001C664FF400325A669C660322DA661C6790
:1013BC005C671D46124A45F8442F3563DE672846A4
:1013CC0000F08EFA284600F025FA22460F2138202C
:1013DC0000F064F9382000F095F90EB070BD70473C
:1013EC00003802400004024000080240000C024099
:1013FC00001002400014024000180240300100208E
:10140C001064024038B5204C204B23610223C4F8F1
:10141C00A4300721C4F8A8100422C4F8AC20C4F8E6
:10142C00B010C4F8B430C4F8B830C4F8BC300123E0
:10143C0063610021A161E261102323624023636296
:10144C004FF4C073A362E1624FF4006323636163E2
:10145C004FF40053A36304F110052846FFF708FF6F
:10146C0004F1A401284602F030F848B9084B0022D8
:10147C001A7040F26A50FFF7ADFE054B187838BD74
:10148C00034B01221A70F4E730010020400100A048
:10149C006800002010B50C4B188059800B4B5B6812
:1014AC008220984740F6110398420BD1064C074B0B
:1014BC0063601B68822098476368DB6882209847CA
:1014CC00002010BD0120FCE7500200202C00002061
:1014DC0030B583B00446324B5B681B698220984759
:1014EC0080B2208000284AD02D4B5B685B6901AA32
:1014FC000DF1060182209847BDF80430A3F5B473B2
:10150C009BB2284AA2FB0323DB0805D0244A52884D
:10151C009A4201D2531E9BB2BDF8062040F6B83158
:10152C008A422ED8C2F571620E32ADF80620BDF893
:10153C0006201D49A1FB0212D20805D018490988C2
:10154C00914201D24A1E92B21046154989688A42CC
:10155C001DD989B2521A92B21D461149C9688B42E3
:10156C0019D989B25B1A9BB21A44052A02DD0C4BBD
:10157C009860DD600A4B9A686280DB68A38003B0D8
:10158C0030BDC2F56D620832ADF80620CFE789B2E6
:10159C008A1A92B2E0E789B2CB1A9BB2E4E700BF99
:1015AC0050020020A38B2EBA8988888870470000CF
:1015BC0010B504460E4B18784FF47A73B3FBF0F366
:1015CC000C4A1068B0FBF3F000F0A8F868B90F2CC7
:1015DC0001D901200AE0002221464FF0FF3000F033
:1015EC005DF8034B5C60002000E0012010BD00BFE3
:1015FC006C0000207400002008B50B4B1A6842F4F4
:10160C0000721A601A6842F480621A601A6842F416
:10161C0080721A60032000F02FF80F20FFF7C8FF2C
:10162C00FFF7C4FF002008BD003C0240034A1168CC
:10163C00034B1B780B441360704700BF548E022081
:10164C006C000020014B1868704700BF548E0220BC
:10165C0038B50446FFF7F6FF0546B4F1FF3F02D05C
:10166C00044B1B781C44FFF7EDFF401BA042FAD340
:10167C0038BD00BF6C000020074AD36823F4E06338
:10168C001B041B0C000200F4E060184340F0BF6028
:10169C0040F40030D060704700ED00E030B4174BE0
:1016AC00DB68C3F30223C3F10704042C28BF042412
:1016BC001D1D062D18D9033B4FF0FF3505FA04F418
:1016CC0021EA0401994005FA03F322EA03031943C2
:1016DC0000280BDB0901C9B200F1604000F5614044
:1016EC0080F8001330BC70470023E5E700F00F00D2
:1016FC000901C9B2024B1954F4E700BF00ED00E038
:10170C0014ED00E000F01F02400901239340024A4F
:10171C0042F82030704700BF00E100E00138B0F122
:10172C00807F0AD2064B5860064AF02182F82310BB
:10173C000020986007221A6070470120704700BF94
:10174C0010E000E000ED00E00268D3B2103B0B4962
:10175C00A1FB03131B090A49C95CC165032B06D8FD
:10176C0022F47F7222F003028265806D704722F4AE
:10177C007F7222F0030204328265F6E7ABAAAAAAB2
:10178C0044E20008836A826992B9012B0AD01BB12A
:10179C00022B01D000207047C36A13F0807F2CD13C
:1017AC0000207047C36AB3F1C07F28D00020704777
:1017BC00B2F5005F05D0022B29D9032B15D00020E0
:1017CC007047032B03D8DFE803F01C041C0A00202D
:1017DC007047C36A13F0807F15D100207047C36A2D
:1017EC00B3F1C07F11D000207047C36A13F0807F23
:1017FC0001D0012070470020704701207047012064
:10180C00704701207047012070470120704701206C
:10181C007047000070B50446FFF714FF002C5BD036
:10182C000546002384F83430022384F835302268CE
:10183C00136823F00103136023681A6812F0010F78
:10184C000AD0FFF7FFFE401B0528F5D9202363655E
:10185C00032084F8350070BD1A6820481040616878
:10186C00A2680A43E1680A4321690A4361690A4391
:10187C00A1690A43E1690A43216A0A430243616A86
:10188C0004291ED01A602668756925F00705636A5D
:10189C001D43042B07D1A36A1D43E36A1BB12046E9
:1018AC00FFF770FF90B975612046FFF74DFFE26DB1
:1018BC003F239340836000206065012384F835301A
:1018CC00C9E7E16A206B01430A43DBE74023636508
:1018DC00012084F83500BEE70120BCE73F8010F002
:1018EC0030B338B5044690F83530DBB2022B21D03A
:1018FC000268136823F001031360036800251D6060
:10190C0003685D6003689D600368DD6003681D61AA
:10191C00036821225A61FFF717FFE26D3F239340C2
:10192C008360656584F8355084F83450284638BD9A
:10193C00012070470220FAE748B310B5044690F82E
:10194C003930FBB1022384F839302268136823F450
:10195C00403361680B4313602268536B23F0070319
:10196C00A1680B4353632268136C23F47F5323F059
:10197C003F03E1680B4313640020E063012384F808
:10198C00393010BD80F8383002F018FADAE701204F
:10199C007047000000230F2B00F2E380F0B482B0FC
:1019AC0039E0092200E00022B2403A4302346D4E85
:1019BC0046F824206C4A1468EA4302EA04064F688D
:1019CC0017F4803F01D045EA0406674C2660646832
:1019DC0002EA04064F6817F4003F01D045EA0406FA
:1019EC00614C6660A46802EA04064F6817F4801F15
:1019FC0001D045EA04065C4CA660E46822404E68BF
:101A0C0016F4001F01D045EA0402574CE260013382
:101A1C000F2B00F2A38001229A400C6804EA020505
:101A2C00AA42F4D14C68022C01D0122C10D1DE0841
:101A3C00083650F826C003F00704A7000F24BC405A
:101A4C002CEA040C0C69BC4044EA0C0440F8264017
:101A5C0004685F000326BE40F64306EA040C4C689B
:101A6C0004F00304BC4044EA0C0404604C6804F128
:101A7C00FF3CBCF1010F03D9112C01D0122C10D159
:101A8C00846806EA040CCC68BC4044EA0C0484600C
:101A9C00446824EA02024C68C4F300149C401443CA
:101AAC004460C26816408A68BA403243C2604A68D1
:101ABC0012F0805FABD0002201922C4A546C44F49B
:101ACC0080445464526C02F480420192019A9C0846
:101ADC00A61C244A52F8267003F0030296000F222B
:101AEC00B24027EA0207224A90423FF45CAF02F56B
:101AFC008062904222D002F58062904220D002F5A2
:101B0C00806290421ED002F5806290421CD002F599
:101B1C00806290421AD002F58062904218D002F591
:101B2C008062904216D002F58062904214D002F589
:101B3C00806290423FF435AF0A2235E7012233E749
:101B4C00022231E703222FE704222DE705222BE79F
:101B5C00062229E7072227E7082225E702B0F0BC76
:101B6C007047704700380140003C0140003802408B
:101B7C000000024012B9090481617047816170470D
:101B8C00436959404161704703685A6912F4806F88
:101B9C000DD06FF480625A61042303640023036345
:101BAC00202280F83D2080F83C3001207047002036
:101BBC007047F8B506460C4617461D461EE02DB17B
:101BCC00FFF740FD069BC01AA84217D900233363C8
:101BDC00202286F83D2086F83E3086F83C300320E3
:101BEC001AE033685B6924EA03039BB2B3FA83F30C
:101BFC005B099F420FD1B5F1FF3FE0D1C4F307431E
:101C0C00012BEED033689B6924EA03039BB2B3FA31
:101C1C0083F35B09EDE70020F8BDF8B504460D46EB
:101C2C0016461F4632E01A6842F400721A602368A6
:101C3C006FF480625A6104232364002323632022FF
:101C4C0084F83D2084F83C3001202DE026B1FFF7CC
:101C5C00F9FCC01BB04219D900232363202284F85D
:101C6C003D2084F83C3003201EE023685B6925EAA4
:101C7C0003039BB2003318BF0123A3B123685A6935
:101C8C0012F4806FCFD1B6F1FF3FDFD1C5F307431C
:101C9C00012BEAD023689B6925EA03039BB200332E
:101CAC0018BF0123E9E70020F8BD70B504460D46C6
:101CBC00164623685B6913F0800F19D12046FFF795
:101CCC0063FFB8B9B5F1FF3FF3D025B1FFF7BAFC0C
:101CDC00801BA842EDD9236C43F02003236400231E
:101CEC002363202284F83D2084F83C30032000E05C
:101CFC00002070BD0120FCE72DE9F04184B00446C2
:101D0C000E46174698460B9D0268136843F4807381
:101D1C00136000950A9B00224FF00111FFF749FF59
:101D2C00002847D1236806F0FE061E612B460A9A4E
:101D3C0026492046FFF771FF20B1236C042B3ED1BE
:101D4C00012338E00023039323685A6903929B69AB
:101D5C000393039B2A460A992046FFF7A6FF0346E6
:101D6C0048B1236C042B2CD12268136843F4007304
:101D7C00136001231FE0B8F1010F13D023683A0A56
:101D8C001A612A460A992046FFF78FFF034668B16D
:101D9C00236C042B17D12268136843F4007313606F
:101DAC00012308E02268FFB2176104E02268FFB249
:101DBC00176100E00323184604B0BDE8F08103234B
:101DCC00F9E70323F7E70323F5E700BF020001005F
:101DDC002DE9F04184B004460E46174698460B9DFB
:101DEC000268136843F4806313600268136843F459
:101DFC008073136000950A9B00224FF00111FFF7CE
:101E0C00D8FE002874D1F6B2236806F0FE021A61DF
:101E1C002B460A9A3F492046FFF7FFFE20B1236C60
:101E2C00042B6AD1012364E00023039323685A69CD
:101E3C0003929B690393039B2A460A992046FFF75A
:101E4C0034FF48B1236C042B59D12268136843F436
:101E5C000073136001234CE0B8F1010F12D1236819
:101E6C00FFB21F612A460A992046FFF71EFF00B3F6
:101E7C00236C042B47D12268136843F4007313605E
:101E8C00012336E023683A0A1A612A460A99204649
:101E9C00FFF70BFF48B1236C042B32D12268136877
:101EAC0043F400731360012323E02368FFB21F6126
:101EBC00D8E72268136843F48073136000950A9B7B
:101ECC0000224FF001112046FFF773FEE8B923689A
:101EDC0046F001061E612B460A9A0E492046FFF772
:101EEC009CFE034628B1236C042B10D1012300E087
:101EFC000323184604B0BDE8F0810323F9E703235C
:101F0C00F7E70323F5E70323F3E70323F1E70323C1
:101F1C00EFE700BF0200010070B504460D461646FF
:101F2C0023685B6913F0040F19D12046FFF72CFED0
:101F3C00B8B9B5F1FF3FF3D025B1FFF783FB801B98
:101F4C00A842EDD9236C43F02003236400232363C0
:101F5C00202284F83D2084F83C30032000E000204F
:101F6C0070BD0120FCE770B505460C4616462B6883
:101F7C005A6912F0400F22D15A6912F0100F11D188
:101F8C0024B1FFF75FFB801BA042F0D92B6C43F010
:101F9C0020032B64202385F83D30002385F83C304A
:101FAC00032070BD6FF010025A6100232B642B6369
:101FBC00202285F83D2085F83C300120F1E70020F7
:101FCC00EFE77047002800F0828010B5044690F8C7
:101FDC003D30002B41D0242384F83D302268136817
:101FEC0023F00103136001F02BF93A4BA3FB002300
:101FFC009B0C226853606168374A914232D8013396
:10200C00226813626368344A934235D85B00B0FB94
:10201C00F3F0C0F30B03032B00D804202368D86122
:10202C00E369216A22680B4313602369E168226823
:10203C000B4393606369A16922680B43D3602268E8
:10204C00136843F00103136000202064202384F8FC
:10205C003D30206384F83E0010BD80F83C30FFF723
:10206C00B0FFB8E74FF4967202FB03F31B4AA2FBD6
:10207C0003239B090133C3E7A16889B903EB43022E
:10208C00B0FBF2F2C2F30B02B2FA82F25209E2B9DD
:10209C0091B903EB4303B0FBF3F040F40040BDE710
:1020AC0003EB830202EB8202B0FBF2F2C2F30B02EF
:1020BC00B2FA82F25209EAE703EB830303EB8303E0
:1020CC00B0FBF3F040F44040A8E70120A6E7012064
:1020DC00704700BF83DE1B43A0860100D34D621006
:1020EC007047A8B110B50446242380F83D3002682F
:1020FC00136823F001031360FFF7F2FF0020206444
:10210C0084F83D00206384F83E0084F83C0010BD48
:10211C00012070472DE9F04182B004460E46174667
:10212C009846FFF78FFA94F83D30DBB2202B04D0A1
:10213C000223184602B0BDE8F08105460090192331
:10214C00012251492046FFF734FD002840F09380CE
:10215C0094F83C30012B00F09080012384F83C3043
:10216C0023681A6812F0010F03D11A6842F00102B9
:10217C001A602268136823F400631360212384F827
:10218C003D30402384F83E3000232364089B636277
:10219C00BDF8243063853D4BE362638D2385019547
:1021AC000A9B009343463A4631462046FFF7A4FD6E
:1021BC00B0B1236C042B04D1002384F83C300123F0
:1021CC00B7E7002384F83C300323B2E7236C042BDD
:1021DC0055D12268136843F4007313600123A8E7F8
:1021EC00238D002B28D02A460A992046FFF75DFD47
:1021FC000028EBD1636A5A1C626222681B78136157
:10220C00238D013B9BB22385628D013A92B262858C
:10221C002268516911F0040FE2D0002BE0D0636A00
:10222C00591C61621B781361238D013B2385638DDF
:10223C00013B9BB26385D3E72A460A992046FFF7F8
:10224C006BFE034648B1236C042B1AD12268136829
:10225C0043F40073136001236BE721680A6842F4AE
:10226C0000720A60202284F83D20002284F83E206F
:10227C0084F83C205DE702235BE7022359E7032344
:10228C0057E7032355E700BF020010000000FFFFD3
:10229C002DE9F04186B004460E4617469846FFF7E6
:1022AC00D1F994F83D30DBB2202B04D00226304615
:1022BC0006B0BDE8F08105460090192301228B4938
:1022CC002046FFF776FC002840F04B8194F83C3018
:1022DC00012B00F04881012384F83C3023681A68F4
:1022EC0012F0010F03D11A6842F001021A60226841
:1022FC00136823F400631360222384F83D304023D9
:10230C0084F83E30002323640C9B6362BDF83430A8
:10231C006385774BE362638D238501950E9B009358
:10232C0043463A4631462046FFF752FD064660B119
:10233C00236C042B04D1002384F83C300126B6E72F
:10234C00002384F83C300326B1E7238D5BB902935C
:10235C0023685A6902929A690292029A1A6842F4A4
:10236C0000721A6075E0012B0AD0022B1AD00023E0
:10237C00059323685A6905929B690593059B68E050
:10238C002268136823F4806313600023039323688B
:10239C005A6903929A690392039A1A6842F400727A
:1023AC001A6056E02268136823F480631360226875
:1023BC00136843F4006313600023049323685A6981
:1023CC0004929B690493049B43E02A460E99204691
:1023DC00FFF7C9FD68B923681A69636A591C616201
:1023EC001A70238D013B2385638D013B9BB2638562
:1023FC002FE0236C202B01D0012658E7032656E74B
:10240C0000950E9B00223B492046FFF7D2FB00288B
:10241C0040F0AB802268136843F4007313602368A8
:10242C001A69636A591C61621A70238D013B2385FA
:10243C00638D013B9BB2638523681A69636A591CDF
:10244C0061621A70238D013B2385638D013B9BB226
:10245C006385238D002B7BD0032B4DD8012BB4D05F
:10246C00022BCDD000950E9B002222492046FFF76F
:10247C00A0FB00287BD12268136823F480631360CF
:10248C0023681A69636A591C61621A70238D013BB7
:10249C002385638D013B9BB2638500950E9B0022C7
:1024AC0014492046FFF785FB002862D12268136887
:1024BC0043F40073136023681A69636A591C6162E0
:1024CC001A70238D013B2385638D013B9BB2638581
:1024DC0023681A69636A591C61621A70238D013B67
:1024EC002385638D013B9BB26385B2E7020010002C
:1024FC000000FFFF040001002A460E992046FFF75A
:10250C0032FDF0B923681A69636A591C61621A704A
:10251C00238D013B2385638D013B9BB2638523682F
:10252C005A6912F0040F94D01A69636A591C6162DB
:10253C001A70238D013B2385638D013B9BB2638510
:10254C0087E7236C202B01D00126B0E60326AEE6EC
:10255C00202384F83D30002384F83E3084F83C304E
:10256C00A5E60226A3E60226A1E603269FE603269D
:10257C009DE603269BE600BF90F83D007047F0B443
:10258C004D680468E368C3F30B431D44D201144443
:10259C00D4F8883003F47043C4F888300B680468AE
:1025AC00E668C6F30B4633440133144443EA05434F
:1025BC00C4F88830CD680468E368C3F30A031D448B
:1025CC001444D4F88C3003F47043C4F88C308B680A
:1025DC000468E668C6F30A0633440133144443EA3C
:1025EC000543C4F88C3003681344D3F8944024F0AA
:1025FC000704C3F89440036813440C69C3F894406F
:10260C0091F831C091F832708E6905681544D5F88F
:10261C009C300024C5F89C4091F8303043EA0C23E0
:10262C0043EA07430568154443EA0663C5F89C3042
:10263C0003681344D3F8985025F0FF05C3F898505D
:10264C00036813444D69C3F8985003681344D3F8D6
:10265C00A05025F4E06525F00705C3F8A050CD691E
:10266C000E6A036813443543C3F8A050036813443F
:10267C00D3F8AC50C3F8AC40036813444C6AC3F8AD
:10268C00AC400B696BB1012B3CD0042B3CD0022B22
:10269C0008D0032B3AD0072B01D0012302E00223F0
:1026AC0000E0042304681444D4F8B05005F0E0258D
:1026BC00C4F8B0508C6A03FB04F54C680E68A41B7C
:1026CC0003FB04F303330468144443EA0543C4F8DE
:1026DC00B03003681344D3F8B44024F4FF6424F0FE
:1026EC000704C3F8B44003681344C96AC3F8B410B0
:1026FC0003681A44D2F8843043F00103C2F88430E2
:10270C00F0BC70470323CDE70223CBE70223C9E7D4
:10271C00002872D038B5044690F8A130002B67D051
:10272C00022384F8A1302268936923F070439361EB
:10273C0021688A696368A0680343E06803432069E1
:10274C00034313438B6121688A682D4B1A408A60BE
:10275C00656920688268A16941EA05410A43826083
:10276C002168CA681A40CA60E5692068C268216A93
:10277C0041EA05410A43C26021680A691A400A61AC
:10278C00656A20680269A16A41EA05410A4302614F
:10279C0021684A6913404B61E06A21684B69226BDE
:1027AC0042EA004213434B6194F8350094F83630FA
:1027BC001B042168CA6A02F07F42CA622168CA6A95
:1027CC0043EA002394F8340003431343CB6222689A
:1027DC00536B43F0060353632268936943F0010380
:1027EC0093610020C4F8A400012384F8A13038BD03
:1027FC0080F8A03001F0F4FA92E70120704700BF96
:10280C0000F800F010B5044601F08CFB0020C4F871
:10281C00A40084F8A10084F8A00010BD7047704794
:10282C0070B5044603689D6B5E6B15F0040F02D007
:10283C0016F0040F12D115F0020F02D016F0020F91
:10284C0021D115F0010F02D016F0010F32D115F085
:10285C00080F02D016F0080F3DD170BD5A6B22F054
:10286C0004025A6303680422DA63D0F8A43043F0FC
:10287C000103C0F8A43080F8A120002380F8A03018
:10288C00FFF7CCFFD7E72268536B23F002035363A7
:10289C0023680222DA63D4F8A4301343C4F8A430BA
:1028AC00042384F8A130002384F8A0302046FFF7DD
:1028BC00B5FFC6E72268536B23F00103536322680C
:1028CC000123D36384F8A130002384F8A030204680
:1028DC0001F034FBBBE72268536B23F0080353630E
:1028EC0023680822DA63012384F8A130002384F8DA
:1028FC00A0302046FFF793FFAFE790F8A030012BF4
:10290C0027D02DE9F04194460F4606464FF00108BA
:10291C0080F8A080022380F8A130342404FB020448
:10292C0038340D460FCD0FC40FCD0FC40FCD0FC4CF
:10293C002B682360624639463046FFF720FE336829
:10294C00C3F8248086F8A180002086F8A000BDE89A
:10295C00F0810220704790F8A030012B1DD030B4CC
:10296C00012480F8A040022380F8A1300368D20132
:10297C001344D3F8905005F07F45C3F8905003688A
:10298C001A44C2F8901003685C6280F8A1400023DE
:10299C0080F8A030184630BC704702207047F0B465
:1029AC0090F8A040012C36D0012480F8A0400224DD
:1029BC0080F8A140002612E006EB06140F68FDB269
:1029CC0045EA046407F47F452C4307F47F073C4336
:1029DC000431056805EBC315C5F8C44001369642B1
:1029EC0010D2342404FB0304A46C062CE4D00D6830
:1029FC00ECB244EA066405F47F473C4305F47F05DA
:102A0C002C43E5E7012380F8A130002380F8A030A7
:102A1C001846F0BC70470220FBE790F8A030012B61
:102A2C0017D0012280F8A020022380F8A13003687F
:102A3C0003EBC111D1F8843043F00203C1F88430A8
:102A4C0003685A6280F8A120002380F8A030184651
:102A5C0070470220704790F8A030012B17D001224C
:102A6C0080F8A020022380F8A130036803EBC11189
:102A7C00D1F8843023F00203C1F8843003685A6221
:102A8C0080F8A120002380F8A0301846704702205F
:102A9C00704790F8A030012B17D0012280F8A020AD
:102AAC00022380F8A130036803EBC111D1F8843004
:102ABC0043F01003C1F8843003685A6280F8A120F7
:102ACC00002380F8A0301846704702207047F8B5F4
:102ADC0090F8A040012C21D00446012580F8A0508C
:102AEC00022084F8A100342000FB03F000F1380729
:102AFC0020448163066E0E44C6630264466E324403
:102B0C0042641A46E1192046FFF739FD23685D62DD
:102B1C0084F8A150002084F8A000F8BD0220FCE746
:102B2C0038B590F8A030012B19D00446012580F857
:102B3C00A050022380F8A130342303FB02F303F1ED
:102B4C0038002344D96421182046FFF718FD236868
:102B5C005D6284F8A150002084F8A00038BD0220EA
:102B6C00FCE738B590F8A030012B19D004460125AC
:102B7C0080F8A050022380F8A130342303FB02F329
:102B8C0003F138002344D96521182046FFF7F7FCE0
:102B9C0023685D6284F8A150002084F8A00038BD41
:102BAC000220FCE790F8A030012B1AD010B40122BF
:102BBC0080F8A020022380F8A1300468636B23F016
:102BCC0001036363084B196401684B6B13434B633C
:102BDC0080F8A120002380F8A03018465DF8044B43
:102BEC0070470220704700BF0068014010B582B0EA
:102BFC0000230193194B1A6C42F080521A641B6C1F
:102C0C0003F080530193019B154B01221A60FEF7D0
:102C1C0019FD0446134B5B6813F4803F08D1FEF793
:102C2C0011FD001BB0F57A7FF4D9032002B010BD62
:102C3C000D4B01221A60FEF705FD0446094B5B683B
:102C4C0013F4003F07D1FEF7FDFC001BB0F57A7FB3
:102C5C00F4D90320EAE70020E8E700BF003802407F
:102C6C0040000E420070004044000E42002800F06C
:102C7C00BB8170B582B00446036813F0010F3BD0E2
:102C8C00A74B9B6803F00C03042B2CD0A44B9B6824
:102C9C0003F00C03082B21D06368B3F5803F4FD0B1
:102CAC00B3F5A02F52D09E4B1A6822F480321A60D2
:102CBC001A6822F480221A606368002B50D0FEF749
:102CCC00C1FC0546964B1B6813F4003F14D1FEF76C
:102CDC00B9FC401B6428F5D903208AE1904B5B6852
:102CEC0013F4800FD8D08E4B1B6813F4003F03D025
:102CFC006368002B00F07A81236813F0020F55D023
:102D0C00874B9B6813F00C0F3ED0854B9B6803F0F0
:102D1C000C03082B33D0E368002B68D0814B0122C5
:102D2C001A60FEF78FFC05467D4B1B6813F0020FF3
:102D3C0054D1FEF787FC401B0228F5D9032058E13B
:102D4C00774A136843F480331360B5E7744B1A6801
:102D5C0042F480221A601A6842F480321A60ABE79F
:102D6C00FEF770FC05466E4B1B6813F4003FC3D096
:102D7C00FEF768FC401B6428F5D9032039E1684B49
:102D8C005B6813F4800FC6D1654B1B6813F0020F00
:102D9C0004D0E368012B01D001202AE1604A1368BA
:102DAC0023F0F803216943EAC1031360236813F08D
:102DBC00080F40D0636963B35B4B01221A60FEF7C6
:102DCC0041FC0546564B5B6F13F0020F33D1FEF7F7
:102DDC0039FC401B0228F5D903200AE1504A13683C
:102DEC0023F0F803216943EAC1031360DEE74D4B7E
:102DFC0000221A60FEF726FC0546494B1B6813F0AF
:102E0C00020FD3D0FEF71EFC401B0228F5D903207D
:102E1C00EFE0454B00221A60FEF714FC0546404BD0
:102E2C005B6F13F0020F06D0FEF70CFC401B022860
:102E3C00F5D90320DDE0236813F0040F79D0384B6B
:102E4C001B6C13F0805F33D100230193344B1A6C4D
:102E5C0042F080521A641B6C03F080530193019B67
:102E6C000125324B1B6813F4807F23D0A368012B00
:102E7C0034D0052B38D02A4B1A6F22F001021A6776
:102E8C001A6F22F004021A67A368002B36D0FEF7E3
:102E9C00D9FB0646224B1B6F13F0020F48D1FEF7ED
:102EAC00D1FB801B41F288339842F3D90320A0E078
:102EBC000025D6E71D4A136843F480731360FEF7B0
:102ECC00C1FB0646194B1B6813F4807FCED1FEF76D
:102EDC00B9FB801B0228F5D903208AE0104A136F36
:102EEC0043F001031367CFE70D4B1A6F42F0040256
:102EFC001A671A6F42F001021A67C5E7FEF7A2FBC8
:102F0C000646074B1B6F13F0020F11D0FEF79AFB0E
:102F1C00801B41F288339842F3D9032069E000BF4B
:102F2C000038024000004742800E474200700040CB
:102F3C00E5B9A369002B5BD0304A926802F00C0211
:102F4C00082A58D0022B17D02D4B00221A60FEF7FE
:102F5C0079FB0446294B1B6813F0007F42D0FEF727
:102F6C0071FB001B0228F5D9032042E0234A136CA5
:102F7C0023F080531364DCE7214B00221A60FEF728
:102F8C0061FB05461D4B1B6813F0007F06D0FEF756
:102F9C0059FB401B0228F5D903202AE0E369226A79
:102FAC001343626A43EA8213A26A5208013A43EA63
:102FBC000243E26A43EA0263104A5360104B012257
:102FCC001A60FEF73FFB04460C4B1B6813F0007FA6
:102FDC0006D1FEF737FB001B0228F5D9032008E0C9
:102FEC00002006E0002004E001207047012000E0F2
:102FFC00002002B070BD0120FBE700BF003802408A
:10300C0060004742324B9B6803F00C03042B5CD0EE
:10301C00082B01D02F4870472DE9F04B2C4B5A68E8
:10302C0002F03F025B6813F4800F2BD0284B5B68D7
:10303C00C3F388131E4600275C010025E41A65EBD8
:10304C000705A90141EA9461A001001B61EB050190
:10305C00CB0043EA5073C400A01943EB07014B02A9
:10306C0043EAD0534402204619460023FDF7B8F832
:10307C00174B5B68C3F3014301335B00B0FBF3F008
:10308C00BDE8F08B124B5B68C3F388131E46002718
:10309C005C010025E41A65EB0705A90141EA94617E
:1030AC00A001001B61EB0501CB0043EA5073C40087
:1030BC00A01943EB07018B0243EA9053840220468C
:1030CC0019460023FDF78CF8D2E70348704700BF80
:1030DC00003802400024F40000127A00002800F0AE
:1030EC009D8070B504464F4B1B6803F00F038B4259
:1030FC0009D2CBB24B4A1370136803F00F038B4207
:10310C0001D0012070BD236813F0020F17D013F00B
:10311C00040F04D0444A936843F4E053936023684B
:10312C0013F0080F04D0404A936843F46043936053
:10313C003D4A936823F0F003A068034393600D4667
:10314C00236813F0010F32D06368012B21D09A1E33
:10315C00012A25D9344A126812F0020F60D0324984
:10316C008A6822F0030213438B60FEF76BFA064663
:10317C002D4B9B6803F00C036268B3EB820F16D0E7
:10318C00FEF760FA801B41F288339842F0D9032095
:10319C00B8E7254A126812F4003FE0D10120B1E7EC
:1031AC00214A126812F0007FD9D10120AAE71D4BE9
:1031BC001B6803F00F03AB4209D9EAB2194B1A7022
:1031CC001B6803F00F03AB4201D001209AE7236880
:1031DC0013F0040F06D0144A936823F4E053E1680B
:1031EC000B439360236813F0080F07D00E4A9368C3
:1031FC0023F46043216943EAC1039360FFF702FFA4
:10320C00094B9B68C3F30313084AD35CD840084BA3
:10321C0018600F20FEF7CCF9002073E701207047EF
:10322C0001206FE7003C0240003802404CE20008ED
:10323C0074000020014B1868704700BF7400002018
:10324C0008B5FFF7F7FF044B9B68C3F38223034ACF
:10325C00D35CD84008BD00BF003802405CE20008D7
:10326C0030B583B00446036813F0030F14D1236800
:10327C0013F00C0F5AD1236813F0200F40F0AF80DD
:10328C00236813F0100F00F0118194F82C20884B58
:10329C001A60002003B030BD864B00221A60FEF786
:1032AC00D1F90546844B1B6813F0006F06D0FEF76E
:1032BC00C9F9401B0228F5D90320EBE7236813F06A
:1032CC00010F07D06268A3681B0743EA82137A4A8E
:1032DC00C2F88430236813F0020F15D0764AD2F866
:1032EC0084106068E3681B0643EA801301F0E04138
:1032FC000B43C2F88430D2F88C3023F01F03E16901
:10330C0001390B43C2F88C306A4B01221A60FEF76C
:10331C0099F90546684B1B6813F0006FA7D1FEF7AF
:10332C0091F9401B0228F5D90320B3E7634B002227
:10333C001A60FEF787F905465F4B1B6813F0005FB8
:10334C0006D0FEF77FF9401B0228F5D90320A1E730
:10335C00236813F0040F16D0574AD2F8881020694E
:10336C0063691B0643EA801301F0E0410B43C2F88A
:10337C008830D2F88C3023F4F853216A013943EAAF
:10338C000123C2F88C30236813F0080F14D04A4A7A
:10339C00D2F88830216903F0706343EA8113A16984
:1033AC0043EA0173C2F88830D2F88C3023F44033EE
:1033BC00616A0B43C2F88C30404B01221A60FEF755
:1033CC0041F905463C4B1B6813F0005F7FF453AF8B
:1033DC00FEF738F9401B0228F4D903205AE70023E2
:1033EC000193354B1A6C42F080521A641B6C03F03B
:1033FC0080530193019B324A136843F4807313602A
:10340C00FEF720F905462E4B1B6813F4807F06D17E
:10341C00FEF718F9401B0228F5D903203AE7264B92
:10342C001B6F13F4407312D0A26A02F440729A42DA
:10343C000DD0214B1A6F22F44072224901200860F2
:10344C00002008601A671B6F13F0010F12D1A36ADA
:10345C0003F44072B2F5407F1DD0174A936823F4F1
:10346C00F813936014490B6FA26AC2F30B02134357
:10347C000B6705E7FEF7E6F805460F4B1B6F13F0DD
:10348C00020FE4D1FEF7DEF8401B41F2883398427C
:10349C00F3D90320FEE608498A6822F4F81223F0D7
:1034AC00704323F4407313438B60DBE70020F1E699
:1034BC00E011474268004742003802407000474222
:1034CC0000700040400E47427047D8B138B50446F2
:1034DC000D4690F82C3083B1022384F82C30211D3A
:1034EC00206800F038FB62682946206800F06FFB0A
:1034FC00012384F82C30002038BD80F82D30FFF7E4
:10350C00E3FFE9E70120704738B590F82C30DBB2C7
:10351C00022B14D00D460446022380F82C30006890
:10352C0000F0A0FB2B68022B04D0012384F82C3074
:10353C00002038BD052384F82C300020F9E7022048
:10354C00F7E790F82C30DBB2022B0CD010B5044608
:10355C00022380F82C30006800F0AEFB012384F8C5
:10356C002C30002010BD02207047F8B505460F46E0
:10357C0016461C463BE02CB1FEF764F8069BC01ABD
:10358C00A04234D32A68536823F0E00353606B687D
:10359C00B3F5827F0BD0AB6AB3F5005F14D0012377
:1035AC0085F85130002385F85030032027E0AB68B4
:1035BC00B3F5004F02D0B3F5806FECD12A681368D5
:1035CC0023F040031360E6E72A68136823F40053E2
:1035DC001B041B0C13602A68136843F4005313601C
:1035EC00DDE70123B34209D0B4F1FF3FC3D12B680F
:1035FC009B6837EA0303F4D00023F3E70020F8BDFF
:10360C0010B582B0044600920B4600228021FFF7D1
:10361C00ACFF034610B9184602B010BD636D43F001
:10362C00200363650323F6E77047002841D010B5EB
:10363C00044690F85130002B32D0022384F85130DC
:10364C002268136823F0400313606368A268134375
:10365C00E26813432269134362691343A26902F4BB
:10366C0000721343E2691343226A1343A16A22686E
:10367C000B431360638B03F00403616A22680B43F2
:10368C005360A36AB3F5005F0FD02268D36923F4AB
:10369C000063D36100206065012384F8513010BDB4
:1036AC0080F85030FFF7C0FFC7E72368E26A1A6161
:1036BC00EBE701207047704790B110B50446022328
:1036CC0080F851300268136823F040031360FFF751
:1036DC00F2FF0020606584F8510084F8500010BDA2
:1036EC00012070472DE9F04184B01E4690F850300F
:1036FC00012B00F0E38004460D469046012380F830
:10370C005030FDF79FFF074694F85130DBB2012B88
:10371C000AD00223012284F85120002284F8502080
:10372C00184604B0BDE8F081002D00F0BF80B8F160
:10373C00000F00F0BD80032384F851300023636533
:10374C002563A4F83480A4F83680A363A387E387A9
:10375C0063642364A368B3F5004F1FD0A36AB3F569
:10376C00005F21D023681A6812F0400F03D11A6849
:10377C0042F040021A60E368B3F5006F21D0636831
:10378C001BB1E38E9BB2012B4BD1236815F8012B97
:10379C001A73E38E013B9BB2E38642E02268136806
:1037AC0043F480431360D9E72268136823F4005371
:1037BC001B041B0C13602268136843F40053136042
:1037CC00D0E763681BB1E38E9BB2012B0DD123684C
:1037DC0035F8022BDA60E38E013B9BB2E38604E002
:1037EC00002E67D0B6F1FF3F0FD1E38E9BB27BB3B7
:1037FC0023689A6812F0020FF2D035F8022BDA60C7
:10380C00E38E013B9BB2E386EFE7FDF71BFFC01B8A
:10381C00B042EAD303237DE7002E4DD0B6F1FF3F33
:10382C000FD1E38E9BB29BB123689A6812F0020F02
:10383C00F2D015F8012B1A73E38E013B9BB2E38691
:10384C00EFE7FDF7FFFEC01BB042EAD3032361E7AD
:10385C0000973346012202212046FFF786FE08B16D
:10386C00032357E73A4631462046FFF7C9FE034685
:10387C0018B12023636501234CE7A26832B9039287
:10388C002268D168039192680392039AA26AB2F5F6
:10389C00005F05D0626D002A3FF43CAF012339E78D
:1038AC0021680A6842F480520A60F3E7012331E789
:1038BC0001232FE703232DE703232BE702232FE715
:1038CC0090F8510070470268D36843F00103D3604D
:1038DC000268136843F001031360002070477047BF
:1038EC0070477047704710B5044603681A6912F0A8
:1038FC00020F11D0DA6812F0020F0DD06FF0020235
:10390C001A610123037603689B6913F0030F70D0CF
:10391C00FFF7E6FF0023237623681A6912F0040FE1
:10392C0012D0DA6812F0040F0ED06FF004021A6194
:10393C000223237623689B6913F4407F5FD02046D3
:10394C00FFF7CEFF0023237623681A6912F0080FC5
:10395C0012D0DA6812F0080F0ED06FF008021A615C
:10396C00042323762368DB6913F0030F4ED0204623
:10397C00FFF7B6FF0023237623681A6912F0100FA5
:10398C0012D0DA6812F0100F0ED06FF010021A611C
:10399C00082323762368DB6913F4407F3DD020464F
:1039AC00FFF79EFF0023237623681A6912F0010F9C
:1039BC0003D0DA6812F0010F36D123681A6912F0BD
:1039CC00800F03D0DA6812F0800F34D123681A69A3
:1039DC0012F0400F03D0DA6812F0400F32D1236896
:1039EC001A6912F0200F03D0DA6812F0200F30D1D0
:1039FC0010BDFFF774FF2046FFF773FF8AE72046E0
:103A0C00FFF76DFF2046FFF76CFF9BE72046FFF7A3
:103A1C0066FF2046FFF765FFACE72046FFF75FFF28
:103A2C002046FFF75EFFBDE76FF001021A612046EA
:103A3C0001F02AFAC1E76FF080021A61204600F00B
:103A4C0089F8C3E76FF040021A612046FFF74AFF7E
:103A5C00C5E76FF020021A61204600F07AF8C7E73C
:103A6C0003682E4A904212D0B0F1804F0FD0A2F5CD
:103A7C007C4290420BD002F58062904207D002F556
:103A8C008062904203D002F57842904203D123F039
:103A9C0070034A681343214A90422AD0B0F1804FF8
:103AAC0027D0A2F57C42904223D002F5806290424E
:103ABC001FD002F5806290421BD002F578429042F2
:103ACC0017D002F57052904213D002F580629042EA
:103ADC000FD002F5806290420BD0A2F59832904242
:103AEC0007D002F58062904203D002F580629042CA
:103AFC0003D123F44073CA68134303608B68C36219
:103B0C000B688362054B984203D003F5806398429F
:103B1C0001D10B690363012343617047000001402D
:103B2C00A8B110B5044690F839305BB1022384F883
:103B3C003930211D2068FFF793FF012384F83930B9
:103B4C00002010BD80F8383001F036F9EEE7012086
:103B5C0070477047704730B40B68012B1AD002685D
:103B6C0022F4FF4222F07F024B688C682343CC681E
:103B7C0023430C6923434C6923438C692343CC694D
:103B8C0023430C6A2343496A0B431343036000200D
:103B9C0030BC7047026822F4F842CB690C6A1C43B3
:103BAC004B6A1C431443426822F4FF4222F07F020A
:103BBC004B688D682B43CD682B430D692B434D69A6
:103BCC002B4389690B43134304604360DFE730B434
:103BDC00012A21D0826802F070420B68013B4C68CC
:103BEC00013C43EA04138C68013C43EA0423CC688F
:103BFC00013C43EA04330C69013C43EA04434C693D
:103C0C00013C43EA04538969013943EA01631343D4
:103C1C008360002030BC7047846824F4700424F462
:103C2C007044CA68551E4B695A1E120542EA053289
:103C3C002243C46804F070440B68013B4D68013D9D
:103C4C0043EA05138D68013D43EA05230D69013DE7
:103C5C0043EA05438969013943EA016323438260DE
:103C6C00C360D6E770B582B00446154600230193B5
:103C7C000B684A6813438A68013A43EA4213CA68DC
:103C8C0043EA42230193019B0361FDF7DBFC0646EB
:103C9C00A36913F0200F0AD0B5F1FF3FF8D04DB156
:103CAC00FDF7D0FC801BA842F2D9032000E00020D5
:103CBC0002B070BD0320FBE7436943EA4101416157
:103CCC00002070477047000008B506F0C9F90A4893
:103CDC0006F0EAFB04F024FEA0F1640404F034FEC8
:103CEC00143800EBD07004EBD4744210611003480C
:103CFC0006F08CF8FEE700BF80EE000864E20008D6
:103D0C0008B54FF41631034807F0ACFD024806F035
:103D1C00A1F908BD60020020FCE2000810B582B0D9
:103D2C000024009400F040FE02B010BD10B582B02B
:103D3C000024009400F01EFE02B010BD10B582B03D
:103D4C000024009400F030FE02B010BD10B582B01B
:103D5C000024009400F00EFE02B010BD10B582B02D
:103D6C000224009400F020FE02B010BD10B582B009
:103D7C000224009400F0FEFD02B010BD10B582B01C
:103D8C000324009400F010FE02B010BD10B582B0F8
:103D9C000324009400F0EEFD02B010BD10B582B00B
:103DAC000424009400F000FE02B010BD10B582B0E7
:103DBC000424009400F0DEFD02B010BD82B000239C
:103DCC000193064B1A6B42F400021A631B6B03F44B
:103DDC0000030193019B02B0704700BF0038024002
:103DEC0070B58CB000240094474B5A6C42F0806242
:103DFC005A645A6C02F080620092009A01941A6B19
:103E0C0042F001021A631A6B02F001020192019A4C
:103E1C0002941A6B42F002021A631A6B02F002024D
:103E2C000292029A03941A6B42F004021A631A6B00
:103E3C0002F004020392039A04941A6B42F00802F3
:103E4C001A631A6B02F008020492049A05941A6B16
:103E5C0042F020021A631A6B02F020020592059AB6
:103E6C0006941A6B42F040021A631B6B03F040037A
:103E7C000693069B41F65803079302230893099473
:103E8C000A930E230B9307A92048FDF783FD4FF4EB
:103E9C00706307931E4E07A93046FDF77BFD4FF468
:103EAC009863079307A91B48FDF774FD48230793F4
:103EBC0007A91948FDF76EFD4FF48063079307A916
:103ECC001648FDF767FD4FF40C630793144D07A9D3
:103EDC002846FDF75FFD0323079309230B9307A9DE
:103EEC003046FDF757FD4FF4A053079307A928461A
:103EFC00FDF750FD22460F215820FDF7CFFB58202F
:103F0C00FDF700FC0CB070BD003802400000024010
:103F1C000004024000080240000C02400014024061
:103F2C0000180240044B5A6A42F080625A625A6A84
:103F3C0022F080625A6270470038024070B5064623
:103F4C00002424B100213046FEF72CFE70BDC4EBDA
:103F5C00C4039A00124B13445B6C002B01DA01343E
:103F6C00EFE70F4D1544286CE96C2B6D03FB01F149
:103F7C006B6C03FB01F3696D224601FB03013046B8
:103F8C00FEF7EFFD3268536A43F001035362696C2C
:103F9C00204605F091FE4FF0FF336B64DFE700BF66
:103FAC00605A022070B500F0CFF900231A4641493F
:103FBC00414805F0AFFF002004F0A4FC88B1F022CA
:103FCC004FF4A071002004F0C7FBF0224FF4A07155
:103FDC00002004F0A7FB394B394A1A6400246CB159
:103FEC0070BD4FF4A072F021002004F0B5FB4FF42B
:103FFC00A072F021002004F095FBECE7E3001B1B02
:10400C009A002E4D15442B4BAB654FF0FF336B6470
:10401C002646296C204604F06DFB204604F03AFC41
:10402C00C0106865274A2121204604F0FDFB264A72
:10403C002321204604F0F8FB204600F0DFF9042889
:10404C0026D9204600F0DAF902282CD01F49204846
:10405C0007F0D8FE1F49204807F012FD1F492048E1
:10406C0007F03EFE1F49204807F074FC1F4920480A
:10407C0007F08EFD1F4805F0AFFC1F4805F0E4FF6C
:10408C001E4805F0B1FC1E4805F0B6FC0134A6E74D
:10409C001C4A1921204604F0C7FB1B4A2521204647
:1040AC0004F0C2FBCDE7194A2421304604F0BCFBD6
:1040BC00CCE700BF1CFC00088CFA0008605A0220F8
:1040CC00000020D0454500088D450008993D0008AA
:1040DC00893D0008793D0008693D0008B93D00089C
:1040EC00A93D0008593D0008493D0008393D00082C
:1040FC00293D0008354900082948000811470008E7
:10410C00E9490008CD450008BD4B0008ED4A000800
:10411C0070B582B00446154601390D2900F2A48011
:10412C00DFE801F007A20C2830386860407DA284DB
:10413C00921F00F0A1F8002002B070BDC200121A4C
:10414C0091004B4B0B441E6C6868DA6C02FB00F060
:10415C00596D224601FB00614648FEF702FD002026
:10416C00EAE71168C0EBC004A200414B1344596448
:10417C000020E1E70346012229463E48FEF70FFCEA
:10418C000020D9E73B4B1A68936943F00103936114
:10419C000020D1E7374B1A68936923F00103936130
:1041AC000020C9E71368012B11D0324B1B6803EBBD
:1041BC00C014D4F8843023F00103C4F884302D4BA0
:1041CC001A68536A43F0010353620020B4E7294B89
:1041DC001B6803EBC014D4F8843043F00103C4F81B
:1041EC008430ECE70346526829682248FEF76FFCDE
:1041FC000020A1E76A4601A905F06EFC2868E200E0
:10420C00121B91001A4B0B44D8646A681A6523463A
:10421C00009A01991748FEF75AFC00208CE70246D9
:10422C0029681448FEF77CFC002085E713682BB145
:10423C0001461048FEF7F1FB00207DE701460D48D2
:10424C00FEF709FC002077E71368C3F3074103F47A
:10425C007F4211431B0403F47F03024619430548B4
:10426C00FEF779FB002067E74FF0FF3064E700BFF3
:10427C00605A0220588E022000B17047F0B58FB002
:10428C00054600240194F027029703944FF4A0767E
:10429C00049600F0B3F80590C5EBC5039A00244BC7
:1042AC0013441B6C0A93FF23069307948DF8344038
:1042BC008DF835408DF836404FF4C06308930723D2
:1042CC0009930B970C962A4601A91A48FEF715FB81
:1042DC00284604F0DFFA08280ADDC5EBC5039A006E
:1042EC00134B13449A6D144B9A4206D00FB0F0BD89
:1042FC0029461048FEF7CDFBF8E729460D48FEF796
:10430C00C8FB2C4609E00D4B5B68204698470C4BCC
:10431C0003EB8403C3F86C0B0134FF2CF3D92B464D
:10432C004FF4807207490348FEF739FBDEE700BF04
:10433C00605A0220588E022064FC00087CFC0008A5
:10434C00507C0220BC87022038B5274C2046FEF753
:10435C0059FAFCF7CDF8092363610123A3611D23EE
:10436C00E3610323236240F24313A36240F20D1373
:10437C00636240F24713236340F21713E362002594
:10438C0084F8345084F8355084F836501748082394
:10439C00C0F86C3FC023C0F87C3F0423C0F8843FB6
:1043AC004FF40033C0F8903F00F66C70FEF758FFE6
:1043BC006560A560E56025610D4B23602046FEF726
:1043CC00A7F929462046FEF7EDFB0A484FF4403387
:1043DC00436002238360C560074B0360FDF7ACFAB2
:1043EC0000B1FEE738BD00BF588E0220507C022081
:1043FC0000680140605A022000B00240F0B9C0EBE6
:10440C00C0029100164A0A44926D16498A4217D08E
:10441C00154B9A4215D0154B9A4214D0144B9A4214
:10442C0013D0144B9A4212D0134B9A4211D0134B07
:10443C009A4210D0124B9A420FD0FEE700207047E0
:10444C0070470120704702207047032070470420FA
:10445C00704705207047062070470720704700BF43
:10446C00605A02201CFC0008D4FB0008ECFB00087E
:10447C004CFC000834FC00087CFC000894FC000890
:10448C0064FC000870B50E4615461C46FFF7B6FFD7
:10449C000C4A4FF400731360D660D563059B13610F
:1044AC00069B1364D061BDF8103043EA0443536497
:1044BC00136843F001031360024B1B6813F0010FE8
:1044CC00FAD170BD00B0024070B50E4615461C46C0
:1044DC00FFF794FF0B490C4B0B60059B8B63CE6372
:1044EC00049B0B644863A4B244EA05444C640B6817
:1044FC0043F001030B60034B1B6813F0010FFAD15F
:10450C0070BD00BF00B002400002030010B40949A6
:10451C00C3001C1AA2000A44D46C126D02FB04F2F4
:10452C001B1A98000144486D00FB02F05DF8044B27
:10453C00704700BF605A02202DE9F04184B0064656
:10454C0088461746FFF7E2FF0C4DF400A31B9A00B8
:10455C002A44116CD36C126D0092002202920192CB
:10456C0000FB071200FB08113046FFF78BFFA41B62
:10457C00A3001D44AF6404B0BDE8F081605A022072
:10458C00F0B585B00B9EC400241AA7000B4D3D441A
:10459C002F6CEC6C02FB04116D6D0A9A02FB043259
:1045AC00A41B029401940C9B0093334602FB0572EE
:1045BC0005FB0171FFF766FF05B0F0BD605A0220E4
:1045CC002DE9F04182B006460C4690461D4605F09A
:1045DC0097FE01282ED02D1B0135089BA3EB080755
:1045EC0001373046FFF792FFDFF870E04FEAC60C58
:1045FC00ACEB060293007344196CDA6C08FB0244B2
:10460C00D3F85480ACEB06034FEA830CE644DEF897
:10461C00483000FB03F008FB0404521B099B019378
:10462C0000923B462A4621443046FFF74DFF02B02C
:10463C00BDE8F08100221921304604F0F5F8089B02
:10464C002A464146204604F0D7FB034A192130463E
:10465C0004F0EAF8EBE700BFCD450008605A0220F1
:10466C00064BD8620139090289B241F00101D961C6
:10467C00DA6942F02002DA61704700BF00B00240F4
:10468C0030B40468230403F47F0304F47F452B4304
:10469C00C4F307452B43E44304F07F4423430B60EE
:1046AC0004300431013AECD130BC7047036883F01C
:1046BC007F430B6004300431013AF7D1704700009E
:1046CC0030B40E4C0E4D2560E0606161E263002257
:1046DC002261A2612264E261626262631B0443F0A4
:1046EC0001036364236843F001032360034B1B68DD
:1046FC0013F0010FFAD130BC704700BF00B002407C
:10470C000002020080B489B000AFF860B9601346B3
:10471C00FB71BB6803F07F43B3F17F4F01D1FB68A2
:10472C0039E0FB6883F07F43FB61BB6883F07F4318
:10473C00BB611C4B1C4A1A601A4A07F11C03D3605C
:10474C00184A07F118035361164A07F11403D3638F
:10475C00FB791B06134A43F48033D361FB79C3F115
:10476C00FF03104A1B0653620E4B00225A630D4B7B
:10477C004FF001125A640B4B1B680A4A43F00103B9
:10478C00136000BF074B1B6803F00103002BF9D12A
:10479C007B6983F07F4318462437BD465DF8047B64
:1047AC00704700BF00B002400002020080B485B028
:1047BC0000AFF860B9607A603B60174B4FF4813200
:1047CC001A60154AFB68D360134ABB68D363124B5B
:1047DC0000221A61104B00221A640F4A7B68D361C5
:1047EC000D4A3B685363BB691B040B4A43F001033E
:1047FC005364094B1B68084A43F00103136000BF64
:10480C00054B1B6803F00103002BF9D100BF1437D3
:10481C00BD465DF8047B704700B0024080B586B0A1
:10482C0000AFF860B9607A6000237B61BB68DB88FD
:10483C00082B19D12521786804F0BAF838613B6946
:10484C00002B0ED0BB68DB68002B07D0BB68DB6885
:10485C001B79002B0AD001237B6107E001237B61CC
:10486C0004E001237B6101E001237B617B69002B68
:10487C0004D0F86804F05CF903460EE0FB68986815
:10488C00FB681B681A460749FFF7FAFEFB681B68B2
:10489C0019460448FFF7E4FE024B18461837BD468C
:1048AC0080BD00BFBC5A022080B485B000AFF86058
:1048BC00B9607A60FB701A4B1A4A1A60184AFB6886
:1048CC00D360174ABB685361154A7B68D363FB7886
:1048DC001B06134A43F48033D361FB78C3F1FF0307
:1048EC000F4A1B0653620E4B00225A63BB691B0412
:1048FC000B4A43F001035364094B1B68084A43F00D
:10490C000103136000BF064B1B6803F00103002B6F
:10491C00F9D100BF1437BD465DF8047B704700BF6A
:10492C0000B002400002020080B584B000AFF86015
:10493C00B9607A603B603A680B49F868FFF7B6FEDD
:10494C003A680A49B868FFF7B1FE3B68084A07495C
:10495C000548FFF7B5FE3A6879680548FFF7A6FEEB
:10496C0000BF1037BD4680BDBC690220BC78022058
:10497C00BC5A022080B586B002AFF860B9607A608C
:10498C00FB707B6800930023BA690649F868FFF74F
:10499C000DFF7A68B9680348FFF772FE00BF103745
:1049AC00BD4680BDBC5A022080B586B002AFF8600F
:1049BC00B9607A60FB707A680749F868FFF760FEA7
:1049CC007B680093BB690022B9680348FFF7EEFED1
:1049DC0000BF1037BD4680BDBC5A022080B588B0E0
:1049EC0002AFF860B9607A603B6000237B6130E015
:1049FC00BA6A1C49F868FFF759FEBA6A1A49B868CE
:104A0C00FFF754FE97F83020BB6A00931346174A01
:104A1C0015491448FFF748FFBA6A79681348FFF73D
:104A2C0045FEBA6A3B6813449B00FA681344FB606A
:104A3C00BA6A3B6A13449B00BA681344BB60BA6AF7
:104A4C007B6A13449B007A6813447B607B69013357
:104A5C007B617B69FA6A9A42CAD800BF1837BD4697
:104A6C0080BD00BFBC690220BC780220BC5A022069
:104A7C0080B485B000AFF860B9607A603B60174BCA
:104A8C004FF481321A60154AFB68D360134ABB6835
:104A9C00D363124A7B681361104A3B6813640F4B53
:104AAC000522DA610D4ABB695363FB691A040B4991
:104ABC003B6A13434B64094B1B68084A43F00103E0
:104ACC00136000BF054B1B6803F00103002BF9D1E9
:104ADC0000BF1437BD465DF8047B704700B0024040
:104AEC00B0B58CB004AFF860B9607A603B60FB681D
:104AFC001846FFF70BFDF8612C49FA681346DB00EA
:104B0C009B1A9B000B441B681C462849FA681346E9
:104B1C00DB009B1A9B000B440C331B687A6802FB6E
:104B2C0003F2BB68D1182148FA681346DB009B1AC4
:104B3C009B00034414331B6803FB01F318461B4909
:104B4C00FA681346DB009B1A9B000B4408331B6866
:104B5C001A46FB6903FB02F303442344BB61BB6BA2
:104B6C00DA0F13445B101A463B6BD31A7B610F4967
:104B7C00FA681346DB009B1A9B000B440C331A6833
:104B8C003B6BD31A3B61F868BC693D6B7B6B7A69F4
:104B9C0039690291019200932B4622463968FFF73E
:104BAC0071FC00BF2037BD46B0BD00BFA05A02202B
:104BBC0090B58FB004AFF860B9607A603B60FB6869
:104BCC001846FFF7A3FC78622C49FA681346DB0001
:104BDC009B1A9B000B441B681C462849FA68134619
:104BEC00DB009B1A9B000B440C331B687A6802FB9E
:104BFC0003F2BB68D1182148FA681346DB009B1AF4
:104C0C009B00034414331B6803FB01F318461B4938
:104C1C00FA681346DB009B1A9B000B4408331B6895
:104C2C001A467B6A03FB02F3034423443B623A6C4F
:104C3C00BB6BD31AFB611149FA681346DB009B1A54
:104C4C009B000B440C331A68BB6BD31ABB61FB681B
:104C5C001846FFF7D3FB7861396AF869BC69BB6BFE
:104C6C00FA6B029201937B690093234602463868E3
:104C7C00FFF7FEFE00BF2C37BD4690BDA05A0220A8
:104C8C0000B583B00020FCF79FF90120FCF79CF9DC
:104C9C00FCF7B8FB4FF4A071F020FCF7FBFB0023F2
:104CAC000193064B1A6B42F480521A631B6B03F48C
:104CBC0080530193019B03B05DF804FB0038024064
:104CCC0030B595B0002401941D4B1A6C42F0805203
:104CDC001A641B6C03F080530193019B0294194BD3
:104CEC001A6842F440421A601B6803F44043029372
:104CFC00029B012303934FF48033049302250995FF
:104D0C004FF480030A9308230B934FF4B4730C9362
:104D1C000D9507230E9303A8FDF7A8FFFDF766FF7B
:104D2C000F230F93109511944FF4A05312934FF43B
:104D3C008053139305210FA8FEF7D0F915B030BDA1
:104D4C00003802400070004008B5FCF755FCFFF736
:104D5C0097FFFFF7B5FF134B1B68134AA2FB032306
:104D6C009B0B013B114A13601148124A026040F23E
:104D7C00F312C2604360002303618360FEF7D0FE30
:104D8C0000B1FEE70A48FEF79EFD00B1FEE705F014
:104D9C00B3F9064B01221A71042000F069F9FEF7F1
:104DAC0093FFFEE7740000205917B7D1EC8B02205B
:104DBC00008F02200004004000B583B00021019157
:104DCC00094B1A6C42F002021A641B6C03F00203CA
:104DDC000193019B01221D20FCF760FC1D20FCF7B8
:104DEC0091FC03B05DF804FB0038024030B587B08D
:104DFC0001A8FCF76DFBBDF804108DF81410174BCF
:104E0C005B89BDF80650AB4222D95B1B9BB2134A9F
:104E1C009289BDF80840A2421DD9121B92B2A9B1C9
:104E2C000E480089814203D1032B01D8032A0DD9E6
:104E3C000B4B01AA92E8030083E8030000238DF8D2
:104E4C0015300395049403A804F00EFE07B030BD92
:104E5C00EB1A9BB2DBE7A21A92B2E0E7EC8B0220D2
:104E6C00F48B022008B50020FCF7EAF80120FCF7CF
:104E7C00E7F8044B1B79012B00D008BDFFF7B6FFF8
:104E8C00FBE700BFEC8B022008B5FFF7EBFF08BD7A
:104E9C007047FEE7FEE7FEE7FEE7704708B5FCF754
:104EAC00C5FB08BD08B50248FEF71DFD08BD00BFD7
:104EBC00008F022008B50248FDF7B2FC08BD00BF08
:104ECC00588E02200F49D1F8883043F47003C1F892
:104EDC0088300D4B1A6842F001021A60002098606D
:104EEC001A6822F0847222F480321A60074A5A60DF
:104EFC001A6822F480221A60D8604FF000638B602D
:104F0C00704700BF00ED00E0003802401030002474
:104F1C00DFF834D0002103E00C4B5B5843500431D4
:104F2C000B480C4B42189A42F6D30B4A02E0002372
:104F3C0042F8043B094B9A42F9D3FFF7C3FF09F03F
:104F4C0009F9FFF701FF704700000320001001086A
:104F5C0000000020B4000020B4000020F8900220D3
:104F6C00FEE70000034A044B1268527C53F82200FF
:104F7C00704700BF98000020448F022001289ABF80
:104F8C00024B53F820000020704700BF448F0220D2
:104F9C002DE9F043044687B010B907B0BDE8F083A3
:104FAC0006F08EFB034603C804AD85E8030001A898
:104FBC0001931F6AD3F8288006F094FB204607F073
:104FCC00C1F806460028E8D0204606F06FFB18F022
:104FDC00020FD0F818901ED1204606F071FB0190FC
:104FEC00484606F06DFB0390304606F069FB0399CA
:104FFC00019ACD6907620346156201A8CC61029340
:10500C0006F070FB03A806F06DFB02A806F06AFB25
:10501C0007B0BDE8F083284649463A4600F0DAFF6F
:10502C00DAE700BF08B5034610B106F03FFBC369D1
:10503C00184608BD08B5034610B106F037FB836966
:10504C00184608BD00F07CBB10B5044682B001B117
:10505C0008B902B010BD019106F028FB80690199D6
:10506C000028F6D08C6002B0BDE8104007F0A0B864
:10507C00024B1A6818601046704700BF748F0220EC
:10508C002DE9F84F1E4A1F4D1F4BDFF8A4B0DFF877
:10509C00A4A0DFF8A490DFF8A4801C49DFF8A0C01E
:1050AC001B4E1C4F1C4800240C60146054601C6088
:1050BC005C6021462B68CBF80040CAF80040C9F868
:1050CC000040C8F8004018228CF8004034603C6066
:1050DC009847124B124A1C6014605C6021462B6886
:1050EC001048102298472B680F48214610229847E9
:1050FC002B680E48214610229847BDE8F88F00BF58
:10510C00548F022080000020888F0220848F022080
:10511C00048C0220208C0220088C0220448F022058
:10512C00508F0220E8900220D8900220C8900220D4
:10513C00808F0220948F0220408F0220748F0220D7
:10514C00248C0220F0B5044685B00E461746002884
:10515C0033D0204606F0B4FA846A0090A20726D514
:10516C00002F42D002AD01463A46284604F0FCF826
:10517C003046294605F06CF900282ED0E30700983C
:10518C001DD4002F45D0B7F90230B0F902209A4255
:10519C00B8BF1A46B6F902309A422BDDBDF80A3078
:1051AC00B6F906101AB2914201DB013BF380046A96
:1051BC00684606F097FA002CCBD105B0F0BDC46957
:1051CC00002CF4D0204631462A46FFF7BBFF204680
:1051DC0006F06CFA046A002CF4D10098046A684654
:1051EC0006F080FA002CB4D1E7E703C802AD85E8DD
:1051FC000300BDE7BDF80E30B6F906101AB29142A5
:10520C00D5DD046AF380684606F06CFA002CA0D158
:10521C00D3E7B0F90220BDE72DE9F041044684B094
:10522C000F469046002848D000260CE0E30730D407
:10523C00BDF80C30009801333B800126046A6846A7
:10524C0006F050FAE4B1204606F03AFA846A00906F
:10525C00A207F3D5B8F1000F16D002AD01464246B5
:10526C00284604F081F83846294605F0F1F8002864
:10527C00DCD10098046A684606F034FA002CE2D1BE
:10528C00304604B0BDE8F08103C802AD85E80300E8
:10529C00E9E70098C469002CD0D0204639462A464C
:1052AC00FFF7BAFF0028204618BF012606F0FEF9CA
:1052BC00046A002CF1D10098DCE70646E0E700BF59
:1052CC00F0B5044685B00E46174660B926E0E307F4
:1052DC002BD4BDF808300098013BB380046A6846B3
:1052EC0006F000FAD4B1204606F0EAF9846A009080
:1052FC00A207F3D5A7B102AD01463A46284604F001
:10530C0033F83046294605F0A3F80028DFD1009881
:10531C00046A684606F0E6F9002CE4D105B0F0BD4D
:10532C0003C802AD85E80300EBE70098C469002CC4
:10533C00D4D0204631462A46FFF7C2FF204606F05D
:10534C00B5F9046A002CF4D10098E1E7F0B50446F5
:10535C0085B00F46002836D0002502AE204606F058
:10536C00AFF9846A0090A20708D503C886E8030049
:10537C003846314605F06CF848B90098046A68461E
:10538C0006F0B0F9002CE9D1284605B0F0BDE307D2
:10539C0006D4BDF80C30009801333B800125EDE7B5
:1053AC000098C469002CE9D0204639463246FFF7F4
:1053BC0033FF0028204618BF012506F077F9046A50
:1053CC00002CF1D1D9E70546DEE700BF70B50446E5
:1053DC0084B00E46B0B102AD204606F071F9846A75
:1053EC000190A20708D503C885E80300304629467A
:1053FC0005F02EF840B90198046A01A806F072F97C
:10540C00002CE9D104B070BDE307019818D4B6F9AB
:10541C000230B0F902209A4209DDBDF80A30B6F923
:10542C0006101AB29142E7DB013BF380E4E7BDF8CA
:10543C000E30B6F906101AB29142DDDDF380DBE7CF
:10544C00C469002CD8D0204631462A46FFF77AFE94
:10545C00204606F02BF9046A002CF4D1CBE700BFF0
:10546C00F0B585B016460C46054606F01FF9836A62
:10547C0001909A0755D5B4F90010B4F90420914263
:10548C004FDCB4F90210B4F90620914249DC40F625
:10549C0001021A40012A44D0284606F011F902AF45
:1054AC000346024621463846019303F05DFFBDF9E1
:1054BC000820BDF90C309A4230DCBDF90A20BDF948
:1054CC000E309A422ADC019A946A44F2200323405B
:1054DC004BBB194B97E80300B3F800E0344302F1DF
:1054EC0008070EF1010687E803001E80946200E0B5
:1054FC001D46284606F0DAF88369002BF8D10F4BCD
:10550C001A68954216D05B689D420CBF022300239B
:10551C000B4A11680B43136004F076FA01A806F0ED
:10552C00E1F805B0F0BD02F1080001463A4604F07E
:10553C00EDFEF3E70123EBE75C8F0220448F0220A2
:10554C006C8F02202DE9F041434F3B6893F85420B7
:10555C0086B0002A39D1986CDFF8008106F0B0F8DB
:10556C00034603C802AE86E803006846009306F0C3
:10557C00B9F8D8F80040002C4ED13C68636C002B75
:10558C0061D018685968D8F8002004AD2B4603C3C5
:10559C00CAB1104606F094F806ACB0F9001044F805
:1055AC00140DB0F90220284604F0E2FE204606F065
:1055BC0099F82846314603F0B7FE284603F080F8E8
:1055CC0006B0BDE8F081A26CE3E75A6C002A3ED02D
:1055DC00224C10685168246804AD2A4603C2CCB131
:1055EC00204606F06DF806ACB0F9001044F8100D2A
:1055FC00B0F90220284604F0BBFE204606F072F8F3
:10560C002846174903F090FE284603F059F806B0D7
:10561C00BDE8F0819C6CE3E704AD07E003F084FE89
:10562C00049B9C69284654B106F05CF8204606F0B1
:10563C0047F8826A0490930701463046EED4284618
:10564C0006F050F899E7304603F03AF8B8E704480A
:10565C0003F036F8B4E700BF98000020408F02201A
:10566C00108C022070B50C4684B0054609B904B004
:10567C0070BD06F025F803460022846120461A62AC
:10568C00019306F01DF8019BC46902909E6A002CE0
:10569C0029D0204606F014F8310703903AD4836AD7
:1056AC001A0729D402A806F01DF803A806F01AF868
:1056BC00204605F0FBFF046A03902CB905620DE04F
:1056CC00046A0390002CF9D0204605F0EFFF836AA2
:1056DC001B07F5D5039A019B15621C6201A806F005
:1056EC0001F804B070BDC56101A805F0FBFF02A86C
:1056FC0005F0F8FF04B070BD019A029B146201A87A
:10570C00DD6105F0EFFF02A805F0ECFF03A805F042
:10571C00E9FFACE702A805F0E5FF03A805F0E2FFFE
:10572C00204605F0C3FF036A0390002BC6D0184631
:10573C0005F0BCFF036A0390002BF8D1BEE700BF55
:10574C00094B1B6810B5044653B1834202D109E0E2
:10575C009C4207D0184605F0A9FF4369002BF7D1EE
:10576C00002010BD012010BD608F02202DE9F04FEC
:10577C0004468FB010B90FB0BDE8F08F05F0A0FF54
:10578C00826A0590920740F13C81406A40B1A04B7F
:10579C001B68A34204D002F003F8059B00225A6256
:1057AC002046FFF73FFC0390002800F02A81DFF829
:1057BC006082039805F084FF836A06909B0740F192
:1057CC001581406A48B1D8F80030039A9A4204D047
:1057DC0001F0E6FF069B00225A620398FFF722FCB9
:1057EC000290002800F00281029805F069FF836A9C
:1057FC0007909F0740F1EF80406A48B1D8F800301D
:10580C00029A9A4204D001F0CBFF079B00225A6205
:10581C000298FFF707FC8346002800F0DC8058460E
:10582C0005F04EFF836A08909E0740F1C880406ADD
:10583C0040B1D8F800309B4504D001F0B1FF089B73
:10584C0000225A625846FFF7EDFB8246002800F012
:10585C00B680504605F034FF836A09909D0740F1ED
:10586C00A280406A40B1D8F800309A4504D001F0CB
:10587C0097FF099B00225A625046FFF7D3FB019019
:10588C00002800F09080019805F01AFF836A0A90B6
:10589C009C077DD5406A48B1D8F80030019A9A42ED
:1058AC0004D001F07DFF0A9B00225A620198FFF799
:1058BC00B9FB064600286BD0304605F001FF836A21
:1058CC000B9099075BD5406A40B1D8F800309E42E6
:1058DC0004D001F065FF0B9B00225A623046FFF7A3
:1058EC00A1FB054600284AD0284605F0E9FE836A4C
:1058FC000C909A073AD5406A40B1D8F800309D42D6
:10590C0004D001F04DFF0C9B00225A622846FFF791
:10591C0089FB4FF00009044640B3204605F0D0FE49
:10592C00836A0D909B0718D5406A40B1D8F80030B7
:10593C009C4204D001F034FF0D9BC3F82490204608
:10594C00FFF770FB074640B13846FFF70FFF3846AC
:10595C0005F0ACFE076A002FF6D10DA805F0C2FECB
:10596C00204605F0A3FE046A002CD6D10CA805F045
:10597C00B9FE284605F09AFE056A002DB4D10BA895
:10598C0005F0B0FE304605F091FE066A002E93D16C
:10599C000AA805F0A7FE019805F088FE006A0190A0
:1059AC0000287FF470AF09A805F09CFE504605F066
:1059BC007DFED0F820A0BAF1000F7FF44AAF08A802
:1059CC0005F090FE584605F071FED0F820B0BBF102
:1059DC00000F7FF424AF07A805F084FE029805F0B1
:1059EC0065FE006A029000287FF4FEAE06A805F062
:1059FC0079FE039805F05AFE006A039000287FF4A4
:105A0C00D9AE05A805F06EFE0FB0BDE8F08F00BF53
:105A1C00908F02202DE9F04F9FB00D460192044665
:105A2C0010B91FB0BDE8F08F05F04AFE836A0390F1
:105A3C009B0740F15481024629460CA803F094FCC4
:105A4C00002800F04C8103A805F04CFE20460CA960
:105A5C00019AFFF705FD2046FFF7E4FA04460028FB
:105A6C00DFD0204605F02CFE836A04909F0740F19E
:105A7C003C8102460CA90EA803F076FC002800F02D
:105A8C00348104A805F02EFE20460EA9019AFFF7DA
:105A9C00E7FC2046FFF7C6FA0546002800F0178100
:105AAC00284605F00DFE836A05909E0740F128817B
:105ABC0002460EA910A803F057FC002800F0208124
:105ACC0005A805F00FFE284610A9019AFFF7C8FC9F
