:020000040800F2
:100000000000032039480008B9470008BB47000832
:10001000BD470008BF470008C147000800000000B6
:1000200000000000000000000000000089480008F7
:10003000C34700080000000089480008C5470008C1
:10004000894800088948000889480008894800084C
:10005000894800088948000889480008894800083C
:10006000894800088948000889480008894800082C
:10007000894800088948000889480008894800081C
:10008000894800088948000889480008894800080C
:1000900089480008894800088948000889480008FC
:1000A00089480008894800088948000889480008EC
:1000B00089480008CD470008894800088948000899
:1000C00089480008894800088948000889480008CC
:1000D00089480008894800088948000889480008BC
:1000E00089480008894800088948000889480008AC
:1000F000894800088948000889480008894800089C
:10010000894800088948000889480008894800088B
:10011000894800088948000889480008894800087B
:10012000894800088948000889480008894800086B
:10013000894800088948000889480008894800085B
:10014000894800088948000889480008894800084B
:10015000894800088948000889480008894800083B
:10016000894800088948000889480008894800082B
:1001700089480008894800088948000800000000F4
:10018000894800088948000889480008894800080B
:1001900089480008894800088948000889480008FB
:0C01A000DD470008894800088948000875
:1001AC0010B5054C237833B9044B13B10448AFF3A5
:1001BC0000800123237010BD3802002000000000D5
:1001CC00E83E010808B5034B1BB103490348AFF3E4
:1001DC00008008BD000000003C020020E83E010841
:1001EC0053B94AB9002908BF00281CBF4FF0FF3192
:1001FC004FF0FF3000F072B9ADF1080C6DE904CE90
:10020C0000F006F8DDF804E0DDE9022304B07047E5
:10021C002DE9F047089E04468846002B4BD18A42B4
:10022C00154667D9B2FA82F24AB1C2F1200701FA37
:10023C0002F320FA07F7954047EA030894404FEA87
:10024C00154E230CB8FBFEF71FFA85FC0EFB178826
:10025C0043EA084307FB0CF1994209D9EB1807F163
:10026C00FF3080F01B81994240F21881023F2B44F1
:10027C005B1AA4B2B3FBFEF00EFB103344EA03444A
:10028C0000FB0CFCA44509D92C1900F1FF3380F0BC
:10029C000781A44540F2048102382C4440EA07400F
:1002AC00A4EB0C0400271EB1D4400023C6E9004384
:1002BC003946BDE8F0878B4209D9002E00F0EB805F
:1002CC000027C6E9000138463946BDE8F087B3FA85
:1002DC0083F7002F47D18B4202D3824200F2FA807F
:1002EC00841A61EB030301209846002EE0D0C6E986
:1002FC000048DDE702B9FFDEB2FA82F2002A40F0D4
:10030C008F80491B4FEA154E1FFA85F80127B1FB68
:10031C00FEFC230C0EFB1C1143EA014308FB0CF101
:10032C00994207D9EB180CF1FF3002D2994200F236
:10033C00CD808446591AA3B2B1FBFEF00EFB10140B
:10034C0043EA044408FB00F8A04507D92C1900F136
:10035C00FF3302D2A04500F2B6801846A4EB080485
:10036C0040EA0C409FE7C7F1200CBB4022FA0CFE80
:10037C004EEA030E01FA07F420FA0CF521FA0CF3FD
:10038C004FEA1E482543B3FBF8F92C0C08FB193334
:10039C001FFA8EFA44EA034309FB0AF49C4202FA60
:1003AC0007F200FA07F10BD91EEB030309F1FF303A
:1003BC0080F087809C4240F28480A9F1020973444A
:1003CC001B1BADB2B3FBF8F008FB103345EA03443A
:1003DC0000FB0AFAA24508D91EEB040400F1FF3316
:1003EC006BD2A24569D90238744440EA0940A0FB9B
:1003FC000289A4EB0A044C45C2464B4654D351D057
:10040C00002E69D0B1EB0A0564EB030404FA0CFC72
:10041C00FD40FC404CEA0505C6E90054002747E7BF
:10042C00C2F1200320FA03F7954001FA02F021FAF9
:10043C0003F34FEA154E3843010CB3FBFEF71FFADA
:10044C0085F80EFB173341EA034107FB08F38B4297
:10045C0004FA02F407D9691807F1FF3C2FD28B423A
:10046C002DD9023F2944CB1A81B2B3FBFEF00EFB0F
:10047C00103341EA034100FB08F38B4207D969189A
:10048C0000F1FF3C17D28B4215D902382944C91A06
:10049C0040EA07473BE73746304609E70746E7E6B9
:1004AC001846FBE64145ABD2B8EB020A69EB0E02EB
:1004BC0001381346A4E76046E9E7184695E7674616
:1004CC00D1E781467CE702382C4447E7ACF1020CBB
:1004DC002B442FE7384608E73746E9E6704700BF5C
:1004EC00034613F8012B002AFBD1181A0138704768
:1004FC0008B500F0F3FD08BD08B500F0D3FD08BD4C
:10050C0008B500F069FDCA20FFF7F2FFC320FFF722
:10051C00F3FF0820FFF7F0FF5020FFF7EDFFCF208F
:10052C00FFF7E6FF0020FFF7E7FFC120FFF7E4FF2E
:10053C003020FFF7E1FFED20FFF7DAFF6420FFF733
:10054C00DBFF0320FFF7D8FF1220FFF7D5FF812038
:10055C00FFF7D2FFE820FFF7CBFF8520FFF7CCFF9A
:10056C000020FFF7C9FF7820FFF7C6FFCB20FFF76D
:10057C00BFFF3920FFF7C0FF2C20FFF7BDFF002085
:10058C00FFF7BAFF3420FFF7B7FF0220FFF7B4FFE5
:10059C00F720FFF7ADFF2020FFF7AEFFEA20FFF7B3
:1005AC00A7FF0020FFF7A8FF0020FFF7A5FFB12051
:1005BC00FFF79EFF0020FFF79FFF1B20FFF79CFF1C
:1005CC00B620FFF795FF0A20FFF796FFA220FFF752
:1005DC0093FFC020FFF78CFF1020FFF78DFFC12089
:1005EC00FFF786FF1020FFF787FFC520FFF780FF7E
:1005FC004520FFF781FF1520FFF77EFFC720FFF78F
:10060C0077FF9020FFF778FF3620FFF771FFC820A7
:10061C00FFF772FFF220FFF76BFF0020FFF76CFF74
:10062C00B020FFF765FFC220FFF766FFB620FFF78B
:10063C005FFF0A20FFF760FFA720FFF75DFF272071
:10064C00FFF75AFF0420FFF757FF2A20FFF750FF50
:10065C000020FFF751FF0020FFF74EFF0020FFF7AF
:10066C004BFFEF20FFF748FF2B20FFF741FF002047
:10067C00FFF742FF0020FFF73FFF0120FFF73CFF91
:10068C003F20FFF739FFF620FFF732FF0120FFF77D
:10069C0033FF0020FFF730FF0620FFF72DFF2C2043
:1006AC00FFF726FFC82000F035FD2620FFF720FFBE
:1006BC000120FFF721FFE020FFF71AFF0F20FFF7C3
:1006CC001BFF2920FFF718FF2420FFF715FF0C2034
:1006DC00FFF712FF0E20FFF70FFF0920FFF70CFFAB
:1006EC004E20FFF709FF7820FFF706FF3C20FFF7AD
:1006FC0003FF0920FFF700FF1320FFF7FDFE052085
:10070C00FFF7FAFE1720FFF7F7FE1120FFF7F4FEB4
:10071C000020FFF7F1FEE120FFF7EAFE0020FFF7D3
:10072C00EBFE1620FFF7E8FE1B20FFF7E5FE04208A
:10073C00FFF7E2FE1120FFF7DFFE0720FFF7DCFEDC
:10074C003120FFF7D9FE3320FFF7D6FE4220FFF70A
:10075C00D3FE0520FFF7D0FE0C20FFF7CDFE0A20BC
:10076C00FFF7CAFE2820FFF7C7FE2F20FFF7C4FEB5
:10077C000F20FFF7C1FE1120FFF7BAFEC82000F0D2
:10078C00C9FC2920FFF7B4FE2C20FFF7B1FE08BDF1
:10079C000023012B06D8054AD25C824203D00133D8
:1007AC00DBB2F6E7FF231846704700BF5402002067
:1007BC0008B52AB9CAB21121C0B200F0B7FC08BD05
:1007CC00CAB21021C0B200F0B1FCF8E710B5C4B247
:1007DC0002220321204600F0A9FC0A2000F0B2FC02
:1007EC0000220321204600F0A1FC022000F0AAFC0C
:1007FC0010BD000010B50446FFF7CAFFFF2800D05B
:10080C0010BD0020FFF7C4FF0128F9D8034B1C547E
:10081C0000F084FC2046FFF7D9FFF1E754020020DA
:10082C0038B5044600F07AFCE4B20021204600F012
:10083C0081FC05020121204600F07CFC00B228431B
:10084C0080B238BD10B50C461221C0B200F072FC5B
:10085C00E4B2204010BD10B50C460D21C0B200F022
:10086C0069FCE4B2204010BD10B5C4B24021204652
:10087C0000F060FC10F0800F0CD101224B212046BF
:10088C0000F054FC00224B21204600F04FFC0023CA
:10089C00184610BD4C21204600F04CFC03460028A5
:1008AC00F6D00123F4E770B582B00E461546C4B2FB
:1008BC0004230DEB0302D721204600F03FFC9DF8EA
:1008CC0004209DF805301B0443EA02639DF80620C2
:1008DC0043EA02239DF8072013431A0D3280C3F319
:1008EC000B232B8001224B21204600F01FFC002201
:1008FC004B21204600F01AFC02B070BD10B5C4B2FA
:10090C000921204600F016FC40F00102D2B2092168
:10091C00204600F00BFC10BD10B5C4B209212046D6
:10092C0000F008FC00F0FE020921204600F0FEFB5E
:10093C0010BD38B50C46C5B20A21284600F0FAFBAA
:10094C0040EA0402D2B20A21284600F0EFFB38BD7F
:10095C0010B5044600F0E6FB80212046FFF7E9FFC6
:10096C002046FFF7CBFF10BD10B5044600F0DAFBB4
:10097C001F212046FFF7DDFF2046FFF7BFFF10BD0C
:10098C0038B50C46C5B20A21284600F0D3FB20EA44
:10099C000402D2B20A21284600F0C8FB38BD10B5BB
:1009AC000446FFF7B9FF80212046FFF7E9FF10BD91
:1009BC0010B50446FFF7B0FF1F212046FFF7E0FFFC
:1009CC0010BD38B50D46C4B20921204600F0B2FB6B
:1009DC0000F0FB022A430921204600F0A7FB38BD9A
:1009EC0038B50D46C4B20921204600F0A3FB00F037
:1009FC00FD022A430921204600F098FB38BD10B5B2
:100A0C000C460B21C0B200F095FB204010BD08B580
:100A1C001F21FFF7F4FF08BD08B50A460B21C0B231
:100A2C0000F084FB08BD38B504460D468021FFF765
:100A3C00F3FFE4B2EDB22A460D21204600F076FB1E
:100A4C002A461421204600F071FB2A461521204627
:100A5C0000F06CFB2A461621204600F067FB38BDDF
:100A6C0008B51F21FFF7D8FF08BD70B50C46164618
:100A7C00C5B21321284600F05DFB3EB920EA040202
:100A8C00D2B21321284600F051FB70BDE2B20243F2
:100A9C00D2B2F6E738B50C46C5B21721284600F09D
:100AAC0049FBE4B20443E2B21721284600F03EFBB6
:100ABC0038BD70B504460E46C5B20421284600F078
:100ACC0039FB00F0FA020421284600F02FFBF1B2AA
:100ADC002046FFF7DFFF70BD38B50C46C5B21721B5
:100AEC00284600F027FB20EA0402D2B21721284640
:100AFC0000F01CFB38BD70B50646C4B2042120467C
:100B0C0000F018FB054600F0FB020421204600F023
:100B1C000DFBF0213046FFF7DFFF05F0F802042152
:100B2C00204600F003FB49222021204600F0FEFA6B
:100B3C00022000F007FB01222121204600F0F6FAEA
:100B4C009A224121204600F0F1FA01224A21204646
:100B5C0000F0ECFA01224B21204600F0E7FA0022CB
:100B6C004B21204600F0E2FA01225621204600F0EB
:100B7C00DDFA01225821204600F0D8FA012240214A
:100B8C00204600F0D3FAFF220B21204600F0CEFACB
:100B9C00022000F0D7FA70BD2DE9F0410E46174641
:100BAC00C5B21621284600F0C5FA80461521284604
:100BBC0000F0C0FAF44364B204EA0802D2B2044072
:100BCC00E4B217F0010F01D0F3B21A4317F0020F81
:100BDC0001D0F6B234431621284600F0A7FA22467B
:100BEC001521284600F0A2FABDE8F08138B50C4674
:100BFC00C5B20C21284600F09DFAE4B20443E2B2DF
:100C0C000C21284600F092FA38BD38B504460D4642
:100C1C00052A64D8DFE802F003080D23394E0022C0
:100C2C00FFF723FF002038BD0122FFF71EFF002035
:100C3C00F9E7FFF78DFE29462046FFF7D7FF002284
:100C4C0029462046FFF711FF02212046FFF7C8FE78
:100C5C00022229462046FFF79FFF0020E3E7FFF71B
:100C6C0077FE29462046FFF7C1FF00222946204681
:100C7C00FFF7FBFE02212046FFF7B2FE01222946B8
:100C8C002046FFF789FF0020CDE7FFF761FE2946DC
:100C9C002046FFF7ABFF002229462046FFF7E5FE72
:100CAC0000212046FFF79CFE00212046FFF789FE1D
:100CBC000020B8E7FFF74CFE29462046FFF796FFC9
:100CCC00002229462046FFF7D0FE00212046FFF7E0
:100CDC0087FE04212046FFF774FE0020A3E7104690
:100CEC00A1E7000000B589B000210191124B5A6CAC
:100CFC0042F480125A645A6C02F480120192019AE6
:100D0C0002911A6B42F020021A631B6B03F0200352
:100D1C000293029B4FF46073039302230493059395
:100D2C00012306930523079303A9044800F096FBBF
:100D3C0009B05DF804FB00BF00380240001402400B
:100D4C0002682A4B9A4200D0704730B589B0002512
:100D5C000095274C236B43F004032363236B03F0B0
:100D6C0004030093009B0195236B43F00103236361
:100D7C00236B03F001030193019B4FF480730393E6
:100D8C00122304930595022306930423079303A9C6
:100D9C00184800F063FB4FF40073039303A9164843
:100DAC0000F05CFB0295236C43F400032364236C7A
:100DBC0003F400030293029B236A43F400032362AF
:100DCC00236A23F4000323622A460F21482000F0F3
:100DDC00C1FA482000F0F2FA2A460F21492000F00F
:100DEC00B9FA492000F0EAFA09B030BD005C0040C5
:100DFC0000380240000002400008024010B586B0E6
:100E0C00002400940F4B1A6B42F001021A631B6B07
:100E1C0003F001030093009B4FF400430193012363
:100E2C0003930494084B029301A9084800F016FBA5
:100E3C0022460F21282000F08DFA282000F0BEFA5F
:100E4C0006B010BD00380240000021100000024026
:100E5C0010B5104802F043FA00B110BD0D4C0E4B0A
:100E6C0023601823E3610023A36063612361A36201
:100E7C000722E262E36023624FF40072A2616362B4
:100E8C004FF4827363602046FFF72CFF204602F07C
:100E9C00DBF8E2E7580200200050014008B5034897
:100EAC0002F019F9FFF7D4FF08BD00BF580200206B
:100EBC0000B583B002A921F8020D064B1B68012274
:100ECC00054802F01EF910B903B05DF804FBFFF7FA
:100EDC00E5FFF9E7540000205802002010B50D483A
:100EEC0001F0AAF800B110BD0A4C0B4B23600B4B60
:100EFC0063600023A360E3604FF48042226163616E
:100F0C00A361E36123622046FFF71AFF204600F03D
:100F1C00B9FDE8E7DC8E0220005C0040A0860100F1
:100F2C0008B5034800F03DFEFFF7D8FF08BD00BF31
:100F3C00DC8E022010B586B006AC04F8012D084BEF
:100F4C005B6802930123019300940A46014605480D
:100F5C0000F040FE08B906B010BDFFF7E1FFFAE75C
:100F6C0054000020DC8E022000B587B006AA0023B6
:100F7C0002F8013D094B5B68029301230193009237
:100F8C000A460146064800F0E3FE20B99DF817001A
:100F9C0007B05DF804FBFFF7C3FFF7E75400002030
:100FAC00DC8E022010B584B0094C64680294019365
:100FBC00009201230A460146064800F0C9FE10B90A
:100FCC00002004B010BDFFF7ABFF0120F9E700BF14
:100FDC0054000020DC8E02202F4B93F8583003B1C4
:100FEC0070472DE9F04188B001262B4B83F85860EF
:100FFC0000250095294C236B43F008032363236BD6
:10100C0003F008030093009B4FF4005303930496E2
:10101C0005954FF00208CDF81880214F03A93846EA
:10102C0000F01CFA0195236B43F008032363236B38
:10103C0003F008030193019B4FF480530393049630
:10104C000595CDF8188003A9384600F007FA0295EB
:10105C00236B43F004032363236B03F00403029319
:10106C00029B0427039704960595CDF81880A4F5E8
:10107C00405403A9204600F0F1F92A46394620468F
:10108C0000F0DCFA32463946204600F0D7FAFFF77A
:10109C00DFFE08B0BDE8F0815802002000380240A5
:1010AC00000C024038B5054601224FF400510948A6
:1010BC0000F0C4FA084C00220421204600F0BEFACD
:1010CC002846FFF7F5FE01220421204600F0B6FA6F
:1010DC0038BD00BF000C02400008024038B5054680
:1010EC0000224FF40051094800F0A8FA084C0022E5
:1010FC000421204600F0A2FA2846FFF7D9FE01226F
:10110C000421204600F09AFA38BD00BF000C0240C2
:10111C000008024008B500F0F7F808BD08B5FFF765
:10112C00DDFE08BD08B5FFF769FE08BD08B5FFF781
:10113C0001FF08BD08B5FFF717FF08BD08B5FFF79D
:10114C0031FF08BD08B500F0DFF808BD10B50C4B39
:10115C00188059800B4B5B688220984740F611032E
:10116C0098420BD1064C074B63601B688220984752
:10117C006368DB6882209847002010BD0120FCE7E3
:10118C00B40200202C00002030B583B00446324B52
:10119C005B681B698220984780B2208000284AD067
:1011AC002D4B5B685B6901AA0DF106018220984703
:1011BC00BDF80430A3F5B4739BB2284AA2FB0323F9
:1011CC00DB0805D0244A52889A4201D2531E9BB2A6
:1011DC00BDF8062040F6B8318A422ED8C2F57162AD
:1011EC000E32ADF80620BDF806201D49A1FB0212F7
:1011FC00D20805D018490988914201D24A1E92B2F0
:10120C001046154989688A421DD989B2521A92B280
:10121C001D461149C9688B4219D989B25B1A9BB218
:10122C001A44052A02DD0C4B9860DD600A4B9A6863
:10123C006280DB68A38003B030BDC2F56D620832FA
:10124C00ADF80620CFE789B28A1A92B2E0E789B2EC
:10125C00CB1A9BB2E4E700BFB4020020A38B2EBADA
:10126C00898888887047000010B504460E4B1878A2
:10127C004FF47A73B3FBF0F30C4A1068B0FBF3F045
:10128C0000F0A8F868B90F2C01D901200AE000225F
:10129C0021464FF0FF3000F05DF8034B5C600020FE
:1012AC0000E0012010BD00BF68000020700000208D
:1012BC0008B50B4B1A6842F400721A601A6842F4B3
:1012CC0080621A601A6842F480721A60032000F07F
:1012DC002FF80F20FFF7C8FFFFF7C4FF002008BD51
:1012EC00003C0240034A1168034B1B780B4413600B
:1012FC00704700BF308F022068000020014B186837
:10130C00704700BF308F022038B50446FFF7F6FF58
:10131C000546B4F1FF3F02D0044B1B781C44FFF789
:10132C00EDFF401BA042FAD338BD00BF680000207F
:10133C00074AD36823F4E0631B041B0C000200F47F
:10134C00E060184340F0BF6040F40030D06070475C
:10135C0000ED00E030B4174BDB68C3F30223C3F19C
:10136C000704042C28BF04241D1D062D18D9033B8B
:10137C004FF0FF3505FA04F421EA0401994005FA0F
:10138C0003F322EA0303194300280BDB0901C9B25A
:10139C0000F1604000F5614080F8001330BC7047EC
:1013AC000023E5E700F00F000901C9B2024B195404
:1013BC00F4E700BF00ED00E014ED00E000F01F02C8
:1013CC00400901239340024A42F82030704700BF85
:1013DC0000E100E00138B0F1807F0AD2064B586082
:1013EC00064AF02182F823100020986007221A6028
:1013FC0070470120704700BF10E000E000ED00E0F6
:10140C0048B310B5044690F83930FBB1022384F888
:10141C0039302268136823F4403361680B4313603E
:10142C002268536B23F00703A1680B4353632268B4
:10143C00136C23F47F5323F03F03E1680B431364D5
:10144C000020E063012384F8393010BD80F8383077
:10145C0002F046F9DAE701207047000000230F2B59
:10146C0000F2E380F0B482B039E0092200E00022FF
:10147C00B2403A4302346D4E46F824206C4A14684C
:10148C00EA4302EA04064F6817F4803F01D045EAAC
:10149C000406674C2660646802EA04064F6817F479
:1014AC00003F01D045EA0406614C6660A46802EA7C
:1014BC0004064F6817F4801F01D045EA04065C4C03
:1014CC00A660E46822404E6816F4001F01D045EA7D
:1014DC000402574CE26001330F2B00F2A38001226F
:1014EC009A400C6804EA0205AA42F4D14C68022C1A
:1014FC0001D0122C10D1DE08083650F826C003F0AB
:10150C000704A7000F24BC402CEA040C0C69BC4057
:10151C0044EA0C0440F8264004685F000326BE40F1
:10152C00F64306EA040C4C6804F00304BC4044EA9D
:10153C000C0404604C6804F1FF3CBCF1010F03D9AE
:10154C00112C01D0122C10D1846806EA040CCC6842
:10155C00BC4044EA0C048460446824EA02024C68EF
:10156C00C4F300149C4014434460C26816408A685B
:10157C00BA403243C2604A6812F0805FABD000229E
:10158C0001922C4A546C44F480445464526C02F41E
:10159C0080420192019A9C08A61C244A52F826709B
:1015AC0003F0030296000F22B24027EA0207224AF8
:1015BC0090423FF45CAF02F58062904222D002F57B
:1015CC008062904220D002F5806290421ED002F5DB
:1015DC00806290421CD002F5806290421AD002F5D3
:1015EC008062904218D002F58062904216D002F5CB
:1015FC008062904214D002F5806290423FF435AF85
:10160C000A2235E7012233E7022231E703222FE7D2
:10161C0004222DE705222BE7062229E7072227E7DC
:10162C00082225E702B0F0BC704770470038014033
:10163C00003C0140003802400000024012B909048D
:10164C00816170478161704703685A6912F4806F39
:10165C000DD06FF480625A6104230364002303638A
:10166C00202280F83D2080F83C300120704700207B
:10167C007047F8B506460C4617461D461EE02DB1C0
:10168C00FFF73CFE069BC01AA84217D90023336310
:10169C00202286F83D2086F83E3086F83C30032028
:1016AC001AE033685B6924EA03039BB2B3FA83F351
:1016BC005B099F420FD1B5F1FF3FE0D1C4F3074363
:1016CC00012BEED033689B6924EA03039BB2B3FA77
:1016DC0083F35B09EDE70020F8BDF8B504460D4631
:1016EC0016461F4632E01A6842F400721A602368EC
:1016FC006FF480625A610423236400232363202245
:10170C0084F83D2084F83C3001202DE026B1FFF711
:10171C00F5FDC01BB04219D900232363202284F8A5
:10172C003D2084F83C3003201EE023685B6925EAE9
:10173C0003039BB2003318BF0123A3B123685A697A
:10174C0012F4806FCFD1B6F1FF3FDFD1C5F3074361
:10175C00012BEAD023689B6925EA03039BB2003373
:10176C0018BF0123E9E70020F8BD70B504460D460B
:10177C00164623685B6913F0800F19D12046FFF7DA
:10178C0063FFB8B9B5F1FF3FF3D025B1FFF7B6FD54
:10179C00801BA842EDD9236C43F020032364002363
:1017AC002363202284F83D2084F83C30032000E0A1
:1017BC00002070BD0120FCE72DE9F04184B0044607
:1017CC000E46174698460B9D0268136843F48073C7
:1017DC00136000950A9B00224FF00111FFF749FF9F
:1017EC00002847D1236806F0FE061E612B460A9A94
:1017FC0026492046FFF771FF20B1236C042B3ED104
:10180C00012338E00023039323685A6903929B69F0
:10181C000393039B2A460A992046FFF7A6FF03462B
:10182C0048B1236C042B2CD12268136843F4007349
:10183C00136001231FE0B8F1010F13D023683A0A9B
:10184C001A612A460A992046FFF78FFF034668B1B2
:10185C00236C042B17D12268136843F400731360B4
:10186C00012308E02268FFB2176104E02268FFB28E
:10187C00176100E00323184604B0BDE8F081032390
:10188C00F9E70323F7E70323F5E700BF02000100A4
:10189C002DE9F04184B004460E46174698460B9D40
:1018AC000268136843F4806313600268136843F49E
:1018BC008073136000950A9B00224FF00111FFF713
:1018CC00D8FE002874D1F6B2236806F0FE021A6125
:1018DC002B460A9A3F492046FFF7FFFE20B1236CA6
:1018EC00042B6AD1012364E00023039323685A6913
:1018FC0003929B690393039B2A460A992046FFF7A0
:10190C0034FF48B1236C042B59D12268136843F47B
:10191C000073136001234CE0B8F1010F12D123685E
:10192C00FFB21F612A460A992046FFF71EFF00B33B
:10193C00236C042B47D12268136843F400731360A3
:10194C00012336E023683A0A1A612A460A9920468E
:10195C00FFF70BFF48B1236C042B32D122681368BC
:10196C0043F400731360012323E02368FFB21F616B
:10197C00D8E72268136843F48073136000950A9BC0
:10198C0000224FF001112046FFF773FEE8B92368DF
:10199C0046F001061E612B460A9A0E492046FFF7B7
:1019AC009CFE034628B1236C042B10D1012300E0CC
:1019BC000323184604B0BDE8F0810323F9E70323A1
:1019CC00F7E70323F5E70323F3E70323F1E7032307
:1019DC00EFE700BF0200010070B504460D46164645
:1019EC0023685B6913F0040F19D12046FFF72CFE16
:1019FC00B8B9B5F1FF3FF3D025B1FFF77FFC801BE1
:101A0C00A842EDD9236C43F0200323640023236305
:101A1C00202284F83D2084F83C30032000E0002094
:101A2C0070BD0120FCE770B505460C4616462B68C8
:101A3C005A6912F0400F22D15A6912F0100F11D1CD
:101A4C0024B1FFF75BFC801BA042F0D92B6C43F058
:101A5C0020032B64202385F83D30002385F83C308F
:101A6C00032070BD6FF010025A6100232B642B63AE
:101A7C00202285F83D2085F83C300120F1E700203C
:101A8C00EFE77047002800F0828010B5044690F80C
:101A9C003D30002B41D0242384F83D30226813685C
:101AAC0023F00103136001F02BF93A4BA3FB002345
:101ABC009B0C226853606168374A914232D80133DB
:101ACC00226813626368344A934235D85B00B0FBDA
:101ADC00F3F0C0F30B03032B00D804202368D86168
:101AEC00E369216A22680B4313602369E168226869
:101AFC000B4393606369A16922680B43D36022682E
:101B0C00136843F00103136000202064202384F841
:101B1C003D30206384F83E0010BD80F83C30FFF768
:101B2C00B0FFB8E74FF4967202FB03F31B4AA2FB1B
:101B3C0003239B090133C3E7A16889B903EB430273
:101B4C00B0FBF2F2C2F30B02B2FA82F25209E2B922
:101B5C0091B903EB4303B0FBF3F040F40040BDE755
:101B6C0003EB830202EB8202B0FBF2F2C2F30B0234
:101B7C00B2FA82F25209EAE703EB830303EB830325
:101B8C00B0FBF3F040F44040A8E70120A6E70120A9
:101B9C00704700BF83DE1B43A0860100D34D62104B
:101BAC007047A8B110B50446242380F83D30026874
:101BBC00136823F001031360FFF7F2FF0020206489
:101BCC0084F83D00206384F83E0084F83C0010BD8E
:101BDC00012070472DE9F04182B004460E461746AD
:101BEC009846FFF78BFB94F83D30DBB2202B04D0EA
:101BFC000223184602B0BDE8F08105460090192377
:101C0C00012251492046FFF734FD002840F0938013
:101C1C0094F83C30012B00F09080012384F83C3088
:101C2C0023681A6812F0010F03D11A6842F00102FE
:101C3C001A602268136823F400631360212384F86C
:101C4C003D30402384F83E3000232364089B6362BC
:101C5C00BDF8243063853D4BE362638D238501958C
:101C6C000A9B009343463A4631462046FFF7A4FDB3
:101C7C00B0B1236C042B04D1002384F83C30012335
:101C8C00B7E7002384F83C300323B2E7236C042B22
:101C9C0055D12268136843F4007313600123A8E73D
:101CAC00238D002B28D02A460A992046FFF75DFD8C
:101CBC000028EBD1636A5A1C626222681B7813619C
:101CCC00238D013B9BB22385628D013A92B26285D2
:101CDC002268516911F0040FE2D0002BE0D0636A46
:101CEC00591C61621B781361238D013B2385638D25
:101CFC00013B9BB26385D3E72A460A992046FFF73E
:101D0C006BFE034648B1236C042B1AD1226813686E
:101D1C0043F40073136001236BE721680A6842F4F3
:101D2C0000720A60202284F83D20002284F83E20B4
:101D3C0084F83C205DE702235BE7022359E7032389
:101D4C0057E7032355E700BF020010000000FFFF18
:101D5C002DE9F04186B004460E4617469846FFF72B
:101D6C00CDFA94F83D30DBB2202B04D0022630465D
:101D7C0006B0BDE8F08105460090192301228B497D
:101D8C002046FFF776FC002840F04B8194F83C305D
:101D9C00012B00F04881012384F83C3023681A6839
:101DAC0012F0010F03D11A6842F001021A60226886
:101DBC00136823F400631360222384F83D3040231E
:101DCC0084F83E30002323640C9B6362BDF83430EE
:101DDC006385774BE362638D238501950E9B00939E
:101DEC0043463A4631462046FFF752FD064660B15F
:101DFC00236C042B04D1002384F83C300126B6E775
:101E0C00002384F83C300326B1E7238D5BB90293A1
:101E1C0023685A6902929A690292029A1A6842F4E9
:101E2C0000721A6075E0012B0AD0022B1AD0002325
:101E3C00059323685A6905929B690593059B68E095
:101E4C002268136823F480631360002303932368D0
:101E5C005A6903929A690392039A1A6842F40072BF
:101E6C001A6056E02268136823F4806313602268BA
:101E7C00136843F4006313600023049323685A69C6
:101E8C0004929B690493049B43E02A460E992046D6
:101E9C00FFF7C9FD68B923681A69636A591C616246
:101EAC001A70238D013B2385638D013B9BB26385A7
:101EBC002FE0236C202B01D0012658E7032656E790
:101ECC0000950E9B00223B492046FFF7D2FB0028D1
:101EDC0040F0AB802268136843F4007313602368EE
:101EEC001A69636A591C61621A70238D013B238540
:101EFC00638D013B9BB2638523681A69636A591C25
:101F0C0061621A70238D013B2385638D013B9BB26B
:101F1C006385238D002B7BD0032B4DD8012BB4D0A4
:101F2C00022BCDD000950E9B002222492046FFF7B4
:101F3C00A0FB00287BD12268136823F48063136014
:101F4C0023681A69636A591C61621A70238D013BFC
:101F5C002385638D013B9BB2638500950E9B00220C
:101F6C0014492046FFF785FB002862D122681368CC
:101F7C0043F40073136023681A69636A591C616225
:101F8C001A70238D013B2385638D013B9BB26385C6
:101F9C0023681A69636A591C61621A70238D013BAC
:101FAC002385638D013B9BB26385B2E70200100071
:101FBC000000FFFF040001002A460E992046FFF79F
:101FCC0032FDF0B923681A69636A591C61621A7090
:101FDC00238D013B2385638D013B9BB26385236875
:101FEC005A6912F0040F94D01A69636A591C616221
:101FFC001A70238D013B2385638D013B9BB2638556
:10200C0087E7236C202B01D00126B0E60326AEE631
:10201C00202384F83D30002384F83E3084F83C3093
:10202C00A5E60226A3E60226A1E603269FE60326E2
:10203C009DE603269BE600BF90F83D007047F0B488
:10204C004D680468E368C3F30B431D44D201144488
:10205C00D4F8883003F47043C4F888300B680468F3
:10206C00E668C6F30B4633440133144443EA054394
:10207C00C4F88830CD680468E368C3F30A031D44D0
:10208C001444D4F88C3003F47043C4F88C308B684F
:10209C000468E668C6F30A0633440133144443EA81
:1020AC000543C4F88C3003681344D3F8944024F0EF
:1020BC000704C3F89440036813440C69C3F89440B4
:1020CC0091F831C091F832708E6905681544D5F8D5
:1020DC009C300024C5F89C4091F8303043EA0C2326
:1020EC0043EA07430568154443EA0663C5F89C3088
:1020FC0003681344D3F8985025F0FF05C3F89850A3
:10210C00036813444D69C3F8985003681344D3F81B
:10211C00A05025F4E06525F00705C3F8A050CD6963
:10212C000E6A036813443543C3F8A0500368134484
:10213C00D3F8AC50C3F8AC40036813444C6AC3F8F2
:10214C00AC400B696BB1012B3CD0042B3CD0022B67
:10215C0008D0032B3AD0072B01D0012302E0022335
:10216C0000E0042304681444D4F8B05005F0E025D2
:10217C00C4F8B0508C6A03FB04F54C680E68A41BC1
:10218C0003FB04F303330468144443EA0543C4F823
:10219C00B03003681344D3F8B44024F4FF6424F043
:1021AC000704C3F8B44003681344C96AC3F8B410F5
:1021BC0003681A44D2F8843043F00103C2F8843027
:1021CC00F0BC70470323CDE70223CBE70223C9E71A
:1021DC00002872D038B5044690F8A130002B67D097
:1021EC00022384F8A1302268936923F07043936131
:1021FC0021688A696368A0680343E0680343206927
:10220C00034313438B6121688A682D4B1A408A6003
:10221C00656920688268A16941EA05410A438260C8
:10222C002168CA681A40CA60E5692068C268216AD8
:10223C0041EA05410A43C26021680A691A400A61F1
:10224C00656A20680269A16A41EA05410A43026194
:10225C0021684A6913404B61E06A21684B69226B23
:10226C0042EA004213434B6194F8350094F836303F
:10227C001B042168CA6A02F07F42CA622168CA6ADA
:10228C0043EA002394F8340003431343CB622268DF
:10229C00536B43F0060353632268936943F00103C5
:1022AC0093610020C4F8A400012384F8A13038BD48
:1022BC0080F8A03001F026FA92E70120704700BFA9
:1022CC0000F800F010B5044601F0BEFA0020C4F886
:1022DC00A40084F8A10084F8A00010BD70477047DA
:1022EC0070B5044603689D6B5E6B15F0040F02D04D
:1022FC0016F0040F12D115F0020F02D016F0020FD7
:10230C0021D115F0010F02D016F0010F32D115F0CA
:10231C00080F02D016F0080F3DD170BD5A6B22F099
:10232C0004025A6303680422DA63D0F8A43043F041
:10233C000103C0F8A43080F8A120002380F8A0305D
:10234C00FFF7CCFFD7E72268536B23F002035363EC
:10235C0023680222DA63D4F8A4301343C4F8A430FF
:10236C00042384F8A130002384F8A0302046FFF722
:10237C00B5FFC6E72268536B23F001035363226851
:10238C000123D36384F8A130002384F8A0302046C5
:10239C0001F066FABBE72268536B23F00803536322
:1023AC0023680822DA63012384F8A130002384F81F
:1023BC00A0302046FFF793FFAFE790F8A030012B39
:1023CC0027D02DE9F04194460F4606464FF0010800
:1023DC0080F8A080022380F8A130342404FB02048E
:1023EC0038340D460FCD0FC40FCD0FC40FCD0FC415
:1023FC002B682360624639463046FFF720FE33686F
:10240C00C3F8248086F8A180002086F8A000BDE8DF
:10241C00F0810220704790F8A030012B1DD030B411
:10242C00012480F8A040022380F8A1300368D20177
:10243C001344D3F8905005F07F45C3F890500368CF
:10244C001A44C2F8901003685C6280F8A140002323
:10245C0080F8A030184630BC704702207047F0B4AA
:10246C0090F8A040012C36D0012480F8A040022422
:10247C0080F8A140002612E006EB06140F68FDB2AE
:10248C0045EA046407F47F452C4307F47F073C437B
:10249C000431056805EBC315C5F8C44001369642F6
:1024AC0010D2342404FB0304A46C062CE4D00D6875
:1024BC00ECB244EA066405F47F473C4305F47F051F
:1024CC002C43E5E7012380F8A130002380F8A030ED
:1024DC001846F0BC70470220FBE790F8A030012BA7
:1024EC0017D0012280F8A020022380F8A1300368C5
:1024FC0003EBC111D1F8843043F00203C1F88430EE
:10250C0003685A6280F8A120002380F8A030184696
:10251C0070470220704790F8A030012B17D0012291
:10252C0080F8A020022380F8A130036803EBC111CE
:10253C00D1F8843023F00203C1F8843003685A6266
:10254C0080F8A120002380F8A030184670470220A4
:10255C00704790F8A030012B17D0012280F8A020F2
:10256C00022380F8A130036803EBC111D1F8843049
:10257C0043F01003C1F8843003685A6280F8A1203C
:10258C00002380F8A0301846704702207047F8B539
:10259C0090F8A040012C21D00446012580F8A050D1
:1025AC00022084F8A100342000FB03F000F138076E
:1025BC0020448163066E0E44C6630264466E324448
:1025CC0042641A46E1192046FFF739FD23685D6223
:1025DC0084F8A150002084F8A000F8BD0220FCE78C
:1025EC0038B590F8A030012B19D00446012580F89D
:1025FC00A050022380F8A130342303FB02F303F133
:10260C0038002344D96421182046FFF718FD2368AD
:10261C005D6284F8A150002084F8A00038BD02202F
:10262C00FCE738B590F8A030012B19D004460125F1
:10263C0080F8A050022380F8A130342303FB02F36E
:10264C0003F138002344D96521182046FFF7F7FC25
:10265C0023685D6284F8A150002084F8A00038BD86
:10266C000220FCE790F8A030012B1AD010B4012204
:10267C0080F8A020022380F8A1300468636B23F05B
:10268C0001036363084B196401684B6B13434B6381
:10269C0080F8A120002380F8A03018465DF8044B88
:1026AC0070470220704700BF0068014010B582B02F
:1026BC0000230193194B1A6C42F080521A641B6C64
:1026CC0003F080530193019B154B01221A60FEF716
:1026DC0015FE0446134B5B6813F4803F08D1FEF7DC
:1026EC000DFE001BB0F57A7FF4D9032002B010BDAB
:1026FC000D4B01221A60FEF701FE0446094B5B6884
:10270C0013F4003F07D1FEF7F9FD001BB0F57A7FFB
:10271C00F4D90320EAE70020E8E700BF00380240C4
:10272C0040000E420070004044000E42002800F0B1
:10273C00BB8170B582B00446036813F0010F3BD027
:10274C00A74B9B6803F00C03042B2CD0A44B9B6869
:10275C0003F00C03082B21D06368B3F5803F4FD0F6
:10276C00B3F5A02F52D09E4B1A6822F480321A6017
:10277C001A6822F480221A606368002B50D0FEF78E
:10278C00BDFD0546964B1B6813F4003F14D1FEF7B4
:10279C00B5FD401B6428F5D903208AE1904B5B689A
:1027AC0013F4800FD8D08E4B1B6813F4003F03D06A
:1027BC006368002B00F07A81236813F0020F55D068
:1027CC00874B9B6813F00C0F3ED0854B9B6803F036
:1027DC000C03082B33D0E368002B68D0814B01220B
:1027EC001A60FEF78BFD05467D4B1B6813F0020F3C
:1027FC0054D1FEF783FD401B0228F5D9032058E184
:10280C00774A136843F480331360B5E7744B1A6846
:10281C0042F480221A601A6842F480321A60ABE7E4
:10282C00FEF76CFD05466E4B1B6813F4003FC3D0DE
:10283C00FEF764FD401B6428F5D9032039E1684B91
:10284C005B6813F4800FC6D1654B1B6813F0020F45
:10285C0004D0E368012B01D001202AE1604A1368FF
:10286C0023F0F803216943EAC1031360236813F0D2
:10287C00080F40D0636963B35B4B01221A60FEF70B
:10288C003DFD0546564B5B6F13F0020F33D1FEF73F
:10289C0035FD401B0228F5D903200AE1504A136884
:1028AC0023F0F803216943EAC1031360DEE74D4BC3
:1028BC0000221A60FEF722FD0546494B1B6813F0F7
:1028CC00020FD3D0FEF71AFD401B0228F5D90320C6
:1028DC00EFE0454B00221A60FEF710FD0546404B19
:1028EC005B6F13F0020F06D0FEF708FD401B0228A9
:1028FC00F5D90320DDE0236813F0040F79D0384BB1
:10290C001B6C13F0805F33D100230193344B1A6C92
:10291C0042F080521A641B6C03F080530193019BAC
:10292C000125324B1B6813F4807F23D0A368012B45
:10293C0034D0052B38D02A4B1A6F22F001021A67BB
:10294C001A6F22F004021A67A368002B36D0FEF728
:10295C00D5FC0646224B1B6F13F0020F48D1FEF735
:10296C00CDFC801B41F288339842F3D90320A0E0C0
:10297C000025D6E71D4A136843F480731360FEF7F5
:10298C00BDFC0646194B1B6813F4807FCED1FEF7B5
:10299C00B5FC801B0228F5D903208AE0104A136F7E
:1029AC0043F001031367CFE70D4B1A6F42F004029B
:1029BC001A671A6F42F001021A67C5E7FEF79EFC10
:1029CC000646074B1B6F13F0020F11D0FEF796FC57
:1029DC00801B41F288339842F3D9032069E000BF91
:1029EC000038024000004742800E47420070004011
:1029FC00E5B9A369002B5BD0304A926802F00C0257
:102A0C00082A58D0022B17D02D4B00221A60FEF743
:102A1C0075FC0446294B1B6813F0007F42D0FEF76F
:102A2C006DFC001B0228F5D9032042E0234A136CED
:102A3C0023F080531364DCE7214B00221A60FEF76D
:102A4C005DFC05461D4B1B6813F0007F06D0FEF79E
:102A5C0055FC401B0228F5D903202AE0E369226AC1
:102A6C001343626A43EA8213A26A5208013A43EAA8
:102A7C000243E26A43EA0263104A5360104B01229C
:102A8C001A60FEF73BFC04460C4B1B6813F0007FEE
:102A9C0006D1FEF733FC001B0228F5D9032008E011
:102AAC00002006E0002004E001207047012000E037
:102ABC00002002B070BD0120FBE700BF00380240CF
:102ACC0060004742324B9B6803F00C03042B5CD034
:102ADC00082B01D02F4870472DE9F04B2C4B5A682E
:102AEC0002F03F025B6813F4800F2BD0284B5B681D
:102AFC00C3F388131E4600275C010025E41A65EB1E
:102B0C000705A90141EA9461A001001B61EB0501D5
:102B1C00CB0043EA5073C400A01943EB07014B02EE
:102B2C0043EAD0534402204619460023FDF758FBD4
:102B3C00174B5B68C3F3014301335B00B0FBF3F04D
:102B4C00BDE8F08B124B5B68C3F388131E4600275D
:102B5C005C010025E41A65EB0705A90141EA9461C3
:102B6C00A001001B61EB0501CB0043EA5073C400CC
:102B7C00A01943EB07018B0243EA905384022046D1
:102B8C0019460023FDF72CFBD2E70348704700BF22
:102B9C00003802400024F40000127A00002800F0F3
:102BAC009D8070B504464F4B1B6803F00F038B429E
:102BBC0009D2CBB24B4A1370136803F00F038B424C
:102BCC0001D0012070BD236813F0020F17D013F051
:102BDC00040F04D0444A936843F4E0539360236891
:102BEC0013F0080F04D0404A936843F46043936099
:102BFC003D4A936823F0F003A068034393600D46AD
:102C0C00236813F0010F32D06368012B21D09A1E78
:102C1C00012A25D9344A126812F0020F60D03249C9
:102C2C008A6822F0030213438B60FEF767FB0646AB
:102C3C002D4B9B6803F00C036268B3EB820F16D02C
:102C4C00FEF75CFB801B41F288339842F0D90320DD
:102C5C00B8E7254A126812F4003FE0D10120B1E731
:102C6C00214A126812F0007FD9D10120AAE71D4B2E
:102C7C001B6803F00F03AB4209D9EAB2194B1A7067
:102C8C001B6803F00F03AB4201D001209AE72368C5
:102C9C0013F0040F06D0144A936823F4E053E16850
:102CAC000B439360236813F0080F07D00E4A936808
:102CBC0023F46043216943EAC1039360FFF702FFE9
:102CCC00094B9B68C3F30313084AD35CD840084BE9
:102CDC0018600F20FEF7C8FA002073E70120704738
:102CEC0001206FE7003C024000380240543F0108CD
:102CFC0070000020014B1868704700BF7000002066
:102D0C0008B5FFF7F7FF044B9B68C3F38223034A14
:102D1C00D35CD84008BD00BF00380240643F0108B6
:102D2C0030B583B00446036813F0030F14D1236845
:102D3C0013F00C0F5AD1236813F0200F40F0AF8022
:102D4C00236813F0100F00F0118194F82C20884B9D
:102D5C001A60002003B030BD864B00221A60FEF7CB
:102D6C00CDFA0546844B1B6813F0006F06D0FEF7B6
:102D7C00C5FA401B0228F5D90320EBE7236813F0B2
:102D8C00010F07D06268A3681B0743EA82137A4AD3
:102D9C00C2F88430236813F0020F15D0764AD2F8AB
:102DAC0084106068E3681B0643EA801301F0E0417D
:102DBC000B43C2F88430D2F88C3023F01F03E16946
:102DCC0001390B43C2F88C306A4B01221A60FEF7B2
:102DDC0095FA0546684B1B6813F0006FA7D1FEF7F8
:102DEC008DFA401B0228F5D90320B3E7634B002270
:102DFC001A60FEF783FA05465F4B1B6813F0005F01
:102E0C0006D0FEF77BFA401B0228F5D90320A1E778
:102E1C00236813F0040F16D0574AD2F88810206993
:102E2C0063691B0643EA801301F0E0410B43C2F8CF
:102E3C008830D2F88C3023F4F853216A013943EAF4
:102E4C000123C2F88C30236813F0080F14D04A4ABF
:102E5C00D2F88830216903F0706343EA8113A169C9
:102E6C0043EA0173C2F88830D2F88C3023F4403333
:102E7C00616A0B43C2F88C30404B01221A60FEF79A
:102E8C003DFA05463C4B1B6813F0005F7FF453AFD3
:102E9C00FEF734FA401B0228F4D903205AE700232A
:102EAC000193354B1A6C42F080521A641B6C03F080
:102EBC0080530193019B324A136843F4807313606F
:102ECC00FEF71CFA05462E4B1B6813F4807F06D1C7
:102EDC00FEF714FA401B0228F5D903203AE7264BDB
:102EEC001B6F13F4407312D0A26A02F440729A4220
:102EFC000DD0214B1A6F22F4407222490120086038
:102F0C00002008601A671B6F13F0010F12D1A36A1F
:102F1C0003F44072B2F5407F1DD0174A936823F436
:102F2C00F813936014490B6FA26AC2F30B0213439C
:102F3C000B6705E7FEF7E2F905460F4B1B6F13F025
:102F4C00020FE4D1FEF7DAF9401B41F288339842C4
:102F5C00F3D90320FEE608498A6822F4F81223F01C
:102F6C00704323F4407313438B60DBE70020F1E6DE
:102F7C00E011474268004742003802407000474267
:102F8C0000700040400E4742F8B505460F46164605
:102F9C001C463BE02CB1FEF7B1F9069BC01AA042CF
:102FAC0034D32A68536823F0E00353606B68B3F59D
:102FBC00827F0BD0AB6AB3F5005F14D0012385F888
:102FCC005130002385F85030032027E0AB68B3F56F
:102FDC00004F02D0B3F5806FECD12A68136823F050
:102FEC0040031360E6E72A68136823F400531B04BC
:102FFC001B0C13602A68136843F400531360DDE75D
:10300C000123B34209D0B4F1FF3FC3D12B689B68B5
:10301C0037EA0303F4D00023F3E70020F8BD10B522
:10302C0082B0044600920B4600228021FFF7ACFFD1
:10303C00034610B9184602B010BD636D43F020036F
:10304C0063650323F6E77047002841D010B50446AA
:10305C0090F85130002B32D0022384F85130226882
:10306C00136823F0400313606368A2681343E2689B
:10307C0013432269134362691343A26902F4007279
:10308C001343E2691343226A1343A16A22680B4378
:10309C001360638B03F00403616A22680B43536073
:1030AC00A36AB3F5005F0FD02268D36923F40063E1
:1030BC00D36100206065012384F8513010BD80F885
:1030CC005030FFF7C0FFC7E72368E26A1A61EBE7ED
:1030DC0001207047704790B110B50446022380F868
:1030EC0051300268136823F040031360FFF7F2FFBE
:1030FC000020606584F8510084F8500010BD012058
:10310C0070472DE9F04184B01E4690F85030012BE9
:10311C0000F0E38004460D469046012380F85030C1
:10312C00FEF7ECF8074694F85130DBB2012B0AD0CD
:10313C000223012284F85120002284F850201846E2
:10314C0004B0BDE8F081002D00F0BF80B8F1000F95
:10315C0000F0BD80032384F85130002363652563A0
:10316C00A4F83480A4F83680A363A387E387636450
:10317C002364A368B3F5004F1FD0A36AB3F5005FB7
:10318C0021D023681A6812F0400F03D11A6842F05C
:10319C0040021A60E368B3F5006F21D063681BB17D
:1031AC00E38E9BB2012B4BD1236815F8012B1A73BC
:1031BC00E38E013B9BB2E38642E02268136843F442
:1031CC0080431360D9E72268136823F400531B046F
:1031DC001B0C13602268136843F400531360D0E790
:1031EC0063681BB1E38E9BB2012B0DD1236835F8BC
:1031FC00022BDA60E38E013B9BB2E38604E0002EE7
:10320C0067D0B6F1FF3F0FD1E38E9BB27BB323683F
:10321C009A6812F0020FF2D035F8022BDA60E38EC6
:10322C00013B9BB2E386EFE7FEF768F8C01BB042A8
:10323C00EAD303237DE7002E4DD0B6F1FF3F0FD12B
:10324C00E38E9BB29BB123689A6812F0020FF2D006
:10325C0015F8012B1A73E38E013B9BB2E386EFE763
:10326C00FEF74CF8C01BB042EAD3032361E700978A
:10327C003346012202212046FFF786FE08B10323C4
:10328C0057E73A4631462046FFF7C9FE034618B1C8
:10329C002023636501234CE7A26832B903922268AC
:1032AC00D168039192680392039AA26AB2F5005F07
:1032BC0005D0626D002A3FF43CAF012339E7216849
:1032CC000A6842F480520A60F3E7012331E70123D4
:1032DC002FE703232DE703232BE702232FE790F897
:1032EC00510070470268D36843F00103D360026851
:1032FC00136843F001031360002070477047704758
:10330C007047704710B5044603681A6912F0020F33
:10331C0011D0DA6812F0020F0DD06FF002021A61B0
:10332C000123037603689B6913F0030F70D0FFF73A
:10333C00E6FF0023237623681A6912F0040F12D0DB
:10334C00DA6812F0040F0ED06FF004021A61022337
:10335C00237623689B6913F4407F5FD02046FFF7E8
:10336C00CEFF0023237623681A6912F0080F12D0BF
:10337C00DA6812F0080F0ED06FF008021A610423FD
:10338C0023762368DB6913F0030F4ED02046FFF73A
:10339C00B6FF0023237623681A6912F0100F12D09F
:1033AC00DA6812F0100F0ED06FF010021A610823B9
:1033BC0023762368DB6913F4407F3DD02046FFF76A
:1033CC009EFF0023237623681A6912F0010F03D0A5
:1033DC00DA6812F0010F36D123681A6912F0800FE7
:1033EC0003D0DA6812F0800F34D123681A6912F016
:1033FC00400F03D0DA6812F0400F32D123681A69FB
:10340C0012F0200F03D0DA6812F0200F30D110BD6B
:10341C00FFF774FF2046FFF773FF8AE72046FFF79C
:10342C006DFF2046FFF76CFF9BE72046FFF766FF1A
:10343C002046FFF765FFACE72046FFF75FFF20460D
:10344C00FFF75EFFBDE76FF001021A61204601F045
:10345C00A9F9C1E76FF080021A61204600F08AF8E2
:10346C00C3E76FF040021A612046FFF74AFFC5E739
:10347C006FF020021A61204600F07BF8C7E70000CD
:10348C0003682E4A904212D0B0F1804F0FD0A2F5B3
:10349C007C4290420BD002F58062904207D002F53C
:1034AC008062904203D002F57842904203D123F01F
:1034BC0070034A681343214A90422AD0B0F1804FDE
:1034CC0027D0A2F57C42904223D002F58062904234
:1034DC001FD002F5806290421BD002F578429042D8
:1034EC0017D002F57052904213D002F580629042D0
:1034FC000FD002F5806290420BD0A2F59832904228
:10350C0007D002F58062904203D002F580629042AF
:10351C0003D123F44073CA68134303608B68C362FE
:10352C000B688362054B984203D003F58063984285
:10353C0001D10B6903630123436170470000014013
:10354C00A8B110B5044690F839305BB1022384F869
:10355C003930211D2068FFF793FF012384F839309F
:10356C00002010BD80F8383001F0B2F8EEE70120F1
:10357C00704770477047704710B5044603681D2BA1
:10358C0004D0262B07D005F023FC03E00021406873
:10359C0001F072FF10BD806803F038F8E26840F665
:1035AC0003039842F6D1012A12D0022AF2D108F074
:1035BC0073F9A0F1640408F06FF9143800EBD070C3
:1035CC0004EBD474421061100A480AF059F8E1E790
:1035DC0008F062F9A0F1640408F05EF9143800EB0D
:1035EC00D07004EBD4744210611003480AF048F810
:1035FC00D0E700BF743F01086C3F010800B583B0F1
:10360C0002F092FF0023019300930346034A032127
:10361C00034801F08BFF03B05DF804FB853500080F
:10362C00003F010808B54FF4163103480CF058F868
:10363C0002480AF011FB08BDC40200202840010812
:10364C0010B582B00024009400F040FE02B010BD12
:10365C0010B582B00024009400F01EFE02B010BD24
:10366C0010B582B00024009400F030FE02B010BD02
:10367C0010B582B00024009400F00EFE02B010BD14
:10368C0010B582B00224009400F020FE02B010BDF0
:10369C0010B582B00224009400F0FEFD02B010BD03
:1036AC0010B582B00324009400F010FE02B010BDDF
:1036BC0010B582B00324009400F0EEFD02B010BDF2
:1036CC0010B582B00424009400F000FE02B010BDCE
:1036DC0010B582B00424009400F0DEFD02B010BDE1
:1036EC0082B000230193064B1A6B42F400021A635A
:1036FC001B6B03F400030193019B02B0704700BFE6
:10370C000038024070B58CB000240094474B5A6CC2
:10371C0042F080625A645A6C02F080620092009A05
:10372C0001941A6B42F001021A631A6B02F0010247
:10373C000192019A02941A6B42F002021A631A6BFC
:10374C0002F002020292029A03941A6B42F00402F3
:10375C001A631A6B02F004020392039A04941A6B14
:10376C0042F008021A631A6B02F008020492049ADF
:10377C0005941A6B42F020021A631A6B02F02002B5
:10378C000592059A06941A6B42F040021A631B6B61
:10379C0003F040030693069B41F65803079302235C
:1037AC00089309940A930E230B9307A92048FDF75D
:1037BC0055FE4FF4706307931E4E07A93046FDF774
:1037CC004DFE4FF49863079307A91B48FDF746FE7F
:1037DC004823079307A91948FDF740FE4FF480636F
:1037EC00079307A91648FDF739FE4FF40C630793AE
:1037FC00144D07A92846FDF731FE0323079309232F
:10380C000B9307A93046FDF729FE4FF4A0530793FD
:10381C0007A92846FDF722FE22460F215820FDF766
:10382C0099FD5820FDF7CAFD0CB070BD0038024060
:10383C00000002400004024000080240000C02405C
:10384C000014024000180240044B5A6A42F0806295
:10385C005A625A6A22F080625A62704700380240FB
:10386C0070B50646002424B100213046FEF7FAFE5E
:10387C0070BDC4EBC4039A00124B13445B6C002B59
:10388C0001DA0134EFE70F4D1544286CE96C2B6D10
:10389C0003FB01F16B6C03FB01F3696D224601FB29
:1038AC0003013046FEF7BDFE3268536A43F0010354
:1038BC005362696C204609F07BFD4FF0FF336B645B
:1038CC00DFE700BFC45A022070B500F0CFF9002327
:1038DC001A46414941480AF01FF9002007F0CEFF73
:1038EC0088B1F0224FF4A071002007F0D5FEF02231
:1038FC004FF4A071002007F0B5FE394B394A1A6419
:10390C0000246CB170BD4FF4A072F021002007F0C0
:10391C00C3FE4FF4A072F021002007F0A3FEECE7E9
:10392C00E3001B1B9A002E4D15442B4BAB654FF03F
:10393C00FF336B642646296C204607F07BFE20463D
:10394C0007F064FFC0106865274A2121204607F064
:10395C000BFF264A2321204607F006FF204600F0E5
:10396C00DFF9042826D9204600F0DAF902282CD0F9
:10397C001F4920480CF01CFA1F4920480CF056F83F
:10398C001F4920480CF082F91F4920480BF0B8FF62
:10399C001F4920480CF0D2F81F4809F0B9FA1F480B
:1039AC000AF054F91E4809F0BBFA1E4809F0C0FA97
:1039BC000134A6E71C4A1921204607F0D5FE1B4A04
:1039CC002521204607F0D0FECDE7194A24213046A8
:1039DC0007F0CAFECCE700BF40520108B050010806
:1039EC00C45A0220000020D0693E0008B13E0008F5
:1039FC00BD360008AD3600089D3600088D3600082F
:103A0C00DD360008CD3600087D3600086D3600081E
:103A1C005D3600084D360008594200084D4100083B
:103A2C00354000080D430008F13E0008E144000851
:103A3C001144000870B582B00446154601390D29B1
:103A4C0000F2A480DFE801F007A20C28303868608F
:103A5C00407DA284921F00F0A1F8002002B070BD3E
:103A6C00C200121A91004B4B0B441E6C6868DA6C46
:103A7C0002FB00F0596D224601FB00614648FEF73F
:103A8C00D0FD0020EAE71168C0EBC004A200414B56
:103A9C00134459640020E1E70346012229463E48BD
:103AAC00FEF7DDFC0020D9E73B4B1A68936943F025
:103ABC00010393610020D1E7374B1A68936923F017
:103ACC00010393610020C9E71368012B11D0324B1D
:103ADC001B6803EBC014D4F8843023F00103C4F842
:103AEC0084302D4B1A68536A43F001035362002053
:103AFC00B4E7294B1B6803EBC014D4F8843043F0B3
:103B0C000103C4F88430ECE7034652682968224864
:103B1C00FEF73DFD0020A1E76A4601A909F03CFB38
:103B2C002868E200121B91001A4B0B44D8646A6897
:103B3C001A652346009A01991748FEF728FD0020C4
:103B4C008CE7024629681448FEF74AFD002085E7F9
:103B5C0013682BB101461048FEF7BFFC00207DE72F
:103B6C0001460D48FEF7D7FC002077E71368C3F336
:103B7C00074103F47F4211431B0403F47F03024605
:103B8C0019430548FEF747FC002067E74FF0FF306C
:103B9C0064E700BFC45A0220348F022000B1704782
:103BAC00F0B58FB0054600240194F02702970394DA
:103BBC004FF4A076049600F0B3F80590C5EBC5035E
:103BCC009A00244B13441B6C0A93FF23069307940F
:103BDC008DF834408DF835408DF836404FF4C06385
:103BEC000893072309930B970C962A4601A91A48A8
:103BFC00FEF7E3FB284607F009FE08280ADDC5EBB3
:103C0C00C5039A00134B13449A6D144B9A4206D079
:103C1C000FB0F0BD29461048FEF79BFCF8E729468B
:103C2C000D48FEF796FC2C4609E00D4B5B682046D0
:103C3C0098470C4B03EB8403C3F86C0B0134FF2C3B
:103C4C00F3D92B464FF4807207490348FEF707FC63
:103C5C00DEE700BFC45A0220348F022088520108CC
:103C6C00A0520108B47C02202088022038B5274CD1
:103C7C002046FEF727FBFCF743FC09236361012375
:103C8C00A3611D23E3610323236240F24313A36268
:103C9C0040F20D13636240F24713236340F2171393
:103CAC00E362002584F8345084F8355084F836509B
:103CBC0017480823C0F86C3FC023C0F87C3F04238E
:103CCC00C0F8843F4FF40033C0F8903F00F66C709E
:103CDC00FFF726F86560A560E56025610D4B236054
:103CEC002046FEF775FA29462046FEF7BBFC0A482B
:103CFC004FF44033436002238360C560074B03607D
:103D0C00FDF77EFB00B1FEE738BD00BF348F02200B
:103D1C00B47C022000680140C45A022000B002406A
:103D2C00F0B9C0EBC0029100164A0A44926D1649D4
:103D3C008A4217D0154B9A4215D0154B9A4214D083
:103D4C00144B9A4213D0144B9A4212D0134B9A42F2
:103D5C0011D0134B9A4210D0124B9A420FD0FEE75F
:103D6C0000207047704701207047022070470320E5
:103D7C0070470420704705207047062070470720C5
:103D8C00704700BFC45A022040520108F851010884
:103D9C00105201087052010858520108A052010833
:103DAC00B85201088852010870B50E4615461C46DB
:103DBC00FFF7B6FF0C4A4FF400731360D660D5635F
:103DCC00059B1361069B1364D061BDF8103043EA68
:103DDC0004435364136843F001031360024B1B68E4
:103DEC0013F0010FFAD170BD00B0024070B50E4651
:103DFC0015461C46FFF794FF0B490C4B0B60059BBB
:103E0C008B63CE63049B0B644863A4B244EA054401
:103E1C004C640B6843F001030B60034B1B6813F0FD
:103E2C00010FFAD170BD00BF00B0024000020300C8
:103E3C0010B40949C3001C1AA2000A44D46C126DB8
:103E4C0002FB04F21B1A98000144486D00FB02F0BF
:103E5C005DF8044B704700BFC45A02202DE9F041B5
:103E6C0084B0064688461746FFF7E2FF0C4DF40077
:103E7C00A31B9A002A44116CD36C126D0092002281
:103E8C000292019200FB071200FB08113046FFF76B
:103E9C008BFFA41BA3001D44AF6404B0BDE8F081EC
:103EAC00C45A0220F0B585B00B9EC400241AA7009A
:103EBC000B4D3D442F6CEC6C02FB04116D6D0A9A9A
:103ECC0002FB0432A41B029401940C9B0093334616
:103EDC0002FB057205FB0171FFF766FF05B0F0BD33
:103EEC00C45A02202DE9F04182B006460C46904699
:103EFC001D460AF00BF801282ED02D1B0135089B0E
:103F0C00A3EB080701373046FFF792FFDFF870E0AC
:103F1C004FEAC60CACEB060293007344196CDA6CD6
:103F2C0008FB0244D3F85480ACEB06034FEA830C35
:103F3C00E644DEF8483000FB03F008FB0404521B97
:103F4C00099B019300923B462A4621443046FFF7D9
:103F5C004DFF02B0BDE8F08100221921304607F078
:103F6C0003FC089B2A464146204607F063FF034AA0
:103F7C001921304607F0F8FBEBE700BFF13E0008D3
:103F8C00C45A0220064BD8620139090289B241F0A9
:103F9C000101D961DA6942F02002DA61704700BF91
:103FAC0000B0024030B40468230403F47F0304F42B
:103FBC007F452B43C4F307452B43E44304F07F4474
:103FCC0023430B6004300431013AECD130BC704710
:103FDC00036883F07F430B6004300431013AF7D15E
:103FEC007047000030B40E4C0E4D2560E0606161EE
:103FFC00E26300222261A2612264E2616262626376
:10400C001B0443F001036364236843F00103236042
:10401C00034B1B6813F0010FFAD130BC704700BF83
:10402C0000B002400002020080B489B000AFF8601A
:10403C00B9601346FB71BB6803F07F43B3F17F4F4C
:10404C0001D1FB6839E0FB6883F07F43FB61BB68FF
:10405C0083F07F43BB611C4B1C4A1A601A4A07F160
:10406C001C03D360184A07F118035361164A07F171
:10407C001403D363FB791B06134A43F48033D361D7
:10408C00FB79C3F1FF03104A1B0653620E4B00224F
:10409C005A630D4B4FF001125A640B4B1B680A4AC2
:1040AC0043F00103136000BF074B1B6803F00103CF
:1040BC00002BF9D17B6983F07F4318462437BD462A
:1040CC005DF8047B704700BF00B0024000020200A4
:1040DC0080B485B000AFF860B9607A603B60174B74
:1040EC004FF481321A60154AFB68D360134ABB68DF
:1040FC00D363124B00221A61104B00221A640F4A30
:10410C007B68D3610D4A3B685363BB691B040B4A44
:10411C0043F001035364094B1B68084A43F0010345
:10412C00136000BF054B1B6803F00103002BF9D192
:10413C0000BF1437BD465DF8047B704700B00240E9
:10414C0080B586B000AFF860B9607A6000237B61FF
:10415C00BB68DB88082B19D12521786807F0E4FBB4
:10416C0038613B69002B0ED0BB68DB68002B07D095
:10417C00BB68DB681B79002B0AD001237B6107E04D
:10418C0001237B6104E001237B6101E001237B615E
:10419C007B69002B04D0F86807F0C0FC03460EE0E6
:1041AC00FB689868FB681B681A460749FFF7FAFE1C
:1041BC00FB681B6819460448FFF7E4FE024B1846DF
:1041CC001837BD4680BD00BF205B022080B485B08F
:1041DC0000AFF860B9607A60FB701A4B1A4A1A602B
:1041EC00184AFB68D360174ABB685361154A7B6851
:1041FC00D363FB781B06134A43F48033D361FB78FB
:10420C00C3F1FF030F4A1B0653620E4B00225A6385
:10421C00BB691B040B4A43F001035364094B1B6835
:10422C00084A43F00103136000BF064B1B6803F000
:10423C000103002BF9D100BF1437BD465DF8047B98
:10424C00704700BF00B002400002020080B584B08D
:10425C0000AFF860B9607A603B603A680B49F86867
:10426C00FFF7B6FE3A680A49B868FFF7B1FE3B683B
:10427C00084A07490548FFF7B5FE3A6879680548CA
:10428C00FFF7A6FE00BF1037BD4680BD206A022096
:10429C0020790220205B022080B586B002AFF86046
:1042AC00B9607A60FB707B6800930023BA69064999
:1042BC00F868FFF70DFF7A68B9680348FFF772FEDC
:1042CC0000BF1037BD4680BD205B022080B586B094
:1042DC0002AFF860B9607A60FB707A680749F868D9
:1042EC00FFF760FE7B680093BB690022B968034846
:1042FC00FFF7EEFE00BF1037BD4680BD205B0220ED
:10430C0080B588B002AFF860B9607A603B6000237A
:10431C007B6130E0BA6A1C49F868FFF759FEBA6A4B
:10432C001A49B868FFF754FE97F83020BB6A00931F
:10433C001346174A15491448FFF748FFBA6A7968BB
:10434C001348FFF745FEBA6A3B6813449B00FA68B2
:10435C001344FB60BA6A3B6A13449B00BA6813446B
:10436C00BB60BA6A7B6A13449B007A6813447B6017
:10437C007B6901337B617B69FA6A9A42CAD800BFB8
:10438C001837BD4680BD00BF206A0220207902206C
:10439C00205B022080B485B000AFF860B9607A6011
:1043AC003B60174B4FF481321A60154AFB68D3609F
:1043BC00134ABB68D363124A7B681361104A3B688B
:1043CC0013640F4B0522DA610D4ABB695363FB6919
:1043DC001A040B493B6A13434B64094B1B68084A8C
:1043EC0043F00103136000BF054B1B6803F001038E
:1043FC00002BF9D100BF1437BD465DF8047B704724
:10440C0000B00240B0B58CB004AFF860B9607A600F
:10441C003B60FB681846FFF70BFDF8612C49FA6806
:10442C001346DB009B1A9B000B441B681C46284957
:10443C00FA681346DB009B1A9B000B440C331B6879
:10444C007A6802FB03F2BB68D1182148FA6813465C
:10445C00DB009B1A9B00034414331B6803FB01F322
:10446C0018461B49FA681346DB009B1A9B000B4449
:10447C0008331B681A46FB6903FB02F3034423440D
:10448C00BB61BB6BDA0F13445B101A463B6BD31A40
:10449C007B610F49FA681346DB009B1A9B000B44A7
:1044AC000C331A683B6BD31A3B61F868BC693D6BE3
:1044BC007B6B7A6939690291019200932B462246F3
:1044CC003968FFF771FC00BF2037BD46B0BD00BF97
:1044DC00045B022090B58FB004AFF860B9607A60CD
:1044EC003B60FB681846FFF7A3FC78622C49FA681E
:1044FC001346DB009B1A9B000B441B681C46284987
:10450C00FA681346DB009B1A9B000B440C331B68A8
:10451C007A6802FB03F2BB68D1182148FA6813468B
:10452C00DB009B1A9B00034414331B6803FB01F351
:10453C0018461B49FA681346DB009B1A9B000B4478
:10454C0008331B681A467B6A03FB02F303442344BB
:10455C003B623A6CBB6BD31AFB611149FA68134688
:10456C00DB009B1A9B000B440C331A68BB6BD31AF1
:10457C00BB61FB681846FFF7D3FB7861396AF869B1
:10458C00BC69BB6BFA6B029201937B690093234667
:10459C0002463868FFF7FEFE00BF2C37BD4690BDC3
:1045AC00045B022000B583B04FF4A071F020FCF73F
:1045BC00CDFD00230193064B1A6B42F480521A6313
:1045CC001B6B03F480530193019B03B05DF804FB58
:1045DC000038024030B595B0002401941D4B1A6C84
:1045EC0042F080521A641B6C03F080530193019BC0
:1045FC000294194B1A6842F440421A601B6803F487
:10460C0040430293029B012303934FF480330493A2
:10461C00022509954FF480030A9308230B934FF45A
:10462C00B4730C930D9507230E9303A8FEF77EF835
:10463C00FEF73CF80F230F93109511944FF4A053F1
:10464C0012934FF48053139305210FA8FEF7A6FA8B
:10465C0015B030BD003802400070004008B5FCF7C2
:10466C0027FEFFF79FFFFFF7B5FF144B1B68144A9B
:10467C00A2FB03239B0B013B124A13601248134A03
:10468C00026040F2F312C260436000230361836056
:10469C00FEF756FF00B1FEE70B48FEF723FE00B114
:1046AC00FEE709F02BFB074B01221A71042002F0E4
:1046BC009DF809F0D7FAFEF7A1FFFEE77000002085
:1046CC005917B7D1508C0220DC8F02200004004017
:1046DC0000B583B000210191094B1A6C42F0020223
:1046EC001A641B6C03F002030193019B01221D2031
:1046FC00FCF730FE1D20FCF761FE03B05DF804FBF7
:10470C000038024030B587B001A8FCF73DFDBDF87C
:10471C0004008DF81400BDF80640BDF80830C3F550
:10472C00A0739BB2ADF80630ADF80840144A52891C
:10473C0093421FD2D21A92B211498989A1421CD933
:10474C00091B89B2A0B10E4D2D89A84203D1032AB1
:10475C0001D803290CD90B4A01A903C982E803002B
:10476C0000228DF815200393049403A808F0C6FCCE
:10477C0007B030BD9A1A92B2DEE7611A89B2E1E74E
:10478C00508C0220588C022008B5054B1B79012B4C
:10479C0000D008BDFFF7B6FF09F016FCF9E700BF23
:1047AC00508C022008B5FFF7EFFF08BD7047FEE7FD
:1047BC00FEE7FEE7FEE7704708B5FCF793FD08BD82
:1047CC0008B50248FEF79EFD08BD00BFDC8F022035
:1047DC0008B50248FDF784FD08BD00BF348F0220E8
:1047EC000F49D1F8883043F47003C1F888300D4B71
:1047FC001A6842F001021A60002098601A6822F0D0
:10480C00847222F480321A60074A5A601A6822F4C1
:10481C0080221A60D8604FF000638B60704700BF35
:10482C0000ED00E00038024010300024DFF834D0F6
:10483C00002103E00C4B5B58435004310B480C4BEC
:10484C0042189A42F6D30B4A02E0002342F8043B8A
:10485C00094B9A42F9D3FFF7C3FF0FF0D7FAFFF7D2
:10486C00FDFE704700000320D45F0108000000200B
:10487C003802002038020020D4910220FEE700000C
:10488C00024B42861B680186C3627047740000208D
:10489C0030B50C4683B0054608B903B030BD0AF0FC
:1048AC0093FD428E019004EA0201A14204D014430C
:1048BC004486284603F084FD01A80AF097FD03B056
:1048CC0030BD00BF30B50C4683B0054608B903B007
:1048DC0030BD0AF079FD428E019022EA0404A24216
:1048EC0003D04486284603F06BFD01A80AF07EFD38
:1048FC0003B030BD2DE9F0410D4684B0074620B918
:10490C000124204604B0BDE8F0810AF05DFD2B685F
:10491C000290162B064600F08C8026DD1F2B78D0DB
:10492C004DDD312B33D0B3F5407F44D1EB68C26AF7
:10493C0019681568C36202A86D1A0AF057FD38464B
:10494C000AF042FD04AC6942009544F8040D2B4674
:10495C000A4601F051F920460AF048FD384603F0AA
:10496C002FFD029E00245EB9CBE7112B57D03CDD06
:10497C00142B11D0152B1ED1B0F93030EB60002464
:10498C0002A80AF033FD204604B0BDE8F0810024F3
:10499C00EC60002EF4D1B4E7EC68214603F096FCF1
:1049AC00F36A204621461A6807F0ACFE029E0024EA
:1049BC00002EE5D1A5E70124002EE1D1A1E71E2BA5
:1049CC00F9D1D5F80C80B8F1010F36D1438E03F034
:1049DC001004A4B2002C4FD102A80AF007FD029ECD
:1049EC00C5F80C80002ECBD18BE70D2BE3D1EB68F7
:1049FC00DB68002BDFD01B7A002BDCD002A80AF07E
:104A0C00F5FC384602F0BAF8029E0024002EB7D10D
:104A1C0077E7438EC3F30013EB600024B0E7438EBB
:104A2C00DB0604D5EB6813B11B7A002B36D10124BD
:104A3C00A6E7EB6803860024A2E7448E38460AF00A
:104A4C00C3FC438E039024F001049C4203D04486A3
:104A5C00384603F0B5FC03A80AF0C8FC092402A8E8
:104A6C000AF0C4FC2146384601F06EFE029E00247A
:104A7C00EC60002E84D144E7384643F001040AF080
:104A8C00A3FC438E0390A34203D04486384603F024
:104A9C0097FC03A80AF0AAFC0824E0E702A80AF095
:104AAC00A5FC384601F0AAFE029E0124002E7FF4DC
:104ABC0067AF26E730B5456885B004460146284601
:104ACC00FFF718FFB8B123680F2B16D0B3F5107F82
:104ADC0040D00B2B0CD128460AF076FC04AD0346D3
:104AEC0045F8083D44300AF029FE28460AF07EFCC1
:104AFC00204604F06DF905B030BD28460AF064FC80
:104B0C000090806B07F046FD009B586B09F046FB4C
:104B1C00284601F067F940B3009B5B6CABB10220F7
:104B2C0009F060FB02A801F0E1FC009B586C0AF054
:104B3C004BFC009B0190B3F9482093F8403002A93C
:104B4C0008F084FE01A80AF051FC68460AF04EFCFD
:104B5C0005B030BDE3687BB11B7A002B0CBF022182
:104B6C000121284601F0F0FDC2E7009BD86B07F04D
:104B7C0009FD09F077F8CFE70321F2E72DE9F043BF
:104B8C000446D0F81880B4F91070B4F90CC0B4F91C
:104B9C000EE0B0F90A00244D87B00326009108F10D
:104BAC00200103910196029510440CEB030172460F
:104BBC003B462689678A656803F05AFC044600B3B5
:104BCC001DB32846FBF78CFC01300AF001FE814630
:104BDC00E8B90DF1140820460AF0F6FB31B20022B8
:104BEC000590FFF74DFE114B059E0FCB06F13405DA
:104BFC00C6F84490A6F8487085E80F0040460AF0C5
:104C0C00F5FB204607B0BDE8F083A946E1E70AF0C2
:104C1C00DBFB0DF11808294648F8040D0FF055F987
:104C2C0040460AF0E3FBD6E7C14A000878000020B2
:104C3C0070B58AB00C4606460AF0C6FB0AABC26DCC
:104C4C0043F8280D684695680AF0D0FB0196032CB2
:104C5C0005D8DFE804F00F0C0902172302936B68E8
:104C6C0001A898470AB070BD15230293F7E71623E5
:104C7C000293F4E718230293F1E700BF2DE9F04308
:104C8C00456887B00446284601F0E2FC07460AF066
:104C9C009BFB034606A85E6E40F8143DD3F8488093
:104CAC00D3F880900AF0A2FB23680E3B232B3FD84D
:104CBC00DFE803F035463E3E3E3E12123E123E3ECB
:104CCC003E3E3E3E18243E3E2B3E3E3E3E3E3E3E4B
:104CDC003E3E3E3E3E3E3E30204604F079F807B064
:104CEC00BDE8F083E368002BF9D0B9F1000F3BD09D
:104CFC00A94539D0484601F081FDF0E738462146F8
:104D0C00FFF7F8FD07B0BDE8F083C4F80C8007B0DE
:104D1C00BDE8F0830023E36007B0BDE8F083E368EF
:104D2C005A68002A04DD1B68092B1DD00A2B1FD0E2
:104D3C00002ED1D067602046B04707B0BDE8F083A5
:104D4C006FF07043984504D0404607F01BFC08F008
:104D5C0089FF002EC3D094E80F0002AC84E80F004A
:104D6C0020460395B047BAE7284601F081F8B6E72C
:104D7C00284601F041F8B2E708B50346408E00F032
:104D8C00200080B210B1B3F9540000B108BD586BCB
:104D9C0009F0D0F8023008BD2DE9F04782B09246F8
:104DAC00044689460AF010FB034602A8D96D40F868
:104DBC00083D8D68B3F800805F8868460AF016FBE2
:104DCC002B682046002198470646204601F00CFC33
:104DDC00044678B30FFA88F83FB207E001A80AF04E
:104DEC0005FB204601F024FC044618B320460AF0CB
:104DFC00EBFAB0F902500190ED1BB54201888288A4
:104E0C00ECD1836A09B212B21B06C8EB0101C8EBE4
:104E1C00020207D5DAF800309942DFDC0139CAF812
:104E2C000010DBE7D9F800309A42A4BF0132C9F870
:104E3C000020D3E702B0BDE8F08700BF2DE9F04FAA
:104E4C0089B005460C460AF0BFFAC36D05909E6802
:104E5C000121336828469847336803218046284649
:104E6C0098473368022182462846984733680021C8
:104E7C008146284698470746059801F041FE83462F
:104E8C00059801F045FE059B5A8E02F0200292B265
:104E9C000146CAB1B3F85460B3F858C0002E50D0D4
:104EAC00B6B2B2B2D86E94441FFA8CFC88B102919F
:104EBC000392CDF804C001F049FE80B2034602997A
:104ECC00039ADDF804C005E094461646D86E002817
:104EDC00EDD103461FFA87FE0BF1FF3BCAEB0B0A21
:104EEC00F44401390EF1FF3E9C449644C9EB010198
:104EFC001FFA8AFA1FFA88F861816080A4F806C04C
:104F0C00A4F812E0A4F808A0A4F810A0A4F8048057
:104F1C00A4F80C802680E78105A80AF067FAB4F99A
:104F2C000C20B4F910300692284607AA06A907935C
:104F3C00FFF732FF069A079BA281238209B0BDE8D6
:104F4C00F08F586B0291CDF804C008F0F3FFDDF838
:104F5C0004C0059B0299023086B2B4441FFA8CFC43
:104F6C003246B3E72DE9F047466886B00546304631
:104F7C000AF02AFAC26D0090D0F88840D0F8807000
:104F8C00D0F86880B0F87C90002A63D0D2F800A0EA
:104F9C0068460AF02BFA14B909E024683CB163683E
:104FAC00284698470028F8D006B0BDE8F0872B6853
:104FBC00172B00F0A4801DDC0F2B00F08C807CDC08
:104FCC000B2B00F0BE800D2B0AD119F0080F07D166
:104FDC00EB68DB6823B11B7A13B1304601F00EFC91
:104FEC0030462946FFF786FC0028DDD0284603F022
:104FFC00EFFED9E7262B74D02EDC1E2B00F0AD80F3
:10500C00202BEDD1EC68002CEAD06068314600F022
:10501C007FFD002800F0BA8030460AF0D5F9B0F8D0
:10502C007C300190190740F1228101A80AF0DEF9C9
:10503C006068314600F05CFD0028D1D030460AF0A3
:10504C00C3F903466268019001A8C3F880200AF0F6
:10505C00CDF9C5E792469BE72A2B65D0B3F5107FB7
:10506C00BED13046D5F80C800AF0AEF906ACB0F8DB
:10507C007C7044F8140D20460AF0B8F9EB68002B4C
:10508C0092D098F80830002B00F0A580390740F139
:10509C00B180304601F072FD07F48873B3F5887F58
:1050AC0082D107F080039BB2002B7FF47DAF30469A
:1050BC004146052200F024FF76E7112B22D0142B59
:1050CC008ED1304601A9FFF7B9FE02AB03CBEB68DA
:1050DC001860596068E7BAF1000F81D03046D047AC
:1050EC007EE7EB68022B7FF45FAF06A9272241F81D
:1050FC00142DA8680396049300F026FD54E7C5F818
:10510C000C8051E73046EC680AF05EF90190238977
:10511C00012B05D1B0F87C3043F48073A0F87C30BF
:10512C0001A80AF063F95BE730460AF04DF9EB6829
:10513C000090002B62D0C0F8843068460AF056F913
:10514C0032E730460AF040F90346703000930AF01B
:10515C00F5FA68460AF04AF942E7EC68012C51D09E
:10516C00002E3FF421AF30460AF02EF9B0F87C3017
:10517C0001901C0706D523F00803A0F87C303046BC
:10518C0003F01EF901A80AF031F90DE730460AF0D8
:10519C001BF9B0F87C3001901A0706D523F00803F0
:1051AC00A0F87C30304603F00BF901A80AF01EF988
:1051BC002068314600F09CFC00283FF411AF3046CB
:1051CC000AF002F903462268019001A8C3F8802076
:1051DC000AF00CF904E730460AF0F6F8B0F87C2037
:1051EC000190034622F480722046A3F87C200AF03A
:1051FC00FDF8D9E6304601F001FB4AE7D0F88430DF
:10520C00EB609AE7384601F06DFAF8B1384601F0D8
:10521C00F5FA384601F03EFA88B926B9002F7FF42A
:10522C00C3AEEF60C0E630460AF0CEF8B0F87C3082
:10523C0001901A0723D501A80AF0D8F8EEE7214609
:10524C003846FFF725FB002EE8D0ECE7404600F08F
:10525C000FFE074630460AF0B7F803466846C3F817
:10526C00807000930AF0C2F8002ED7D0DBE743F031
:10527C000803A0F87C30304603F0A2F8D5E643F0E2
:10528C000803A0F87C30304603F09AF8D3E700BF4F
:10529C0070B588B006460AF097F8034608A89C6ECD
:1052AC0040F81C3DDD6E0AF0A1F884B96DB13046B2
:1052BC0002A9FFF7C3FDBDF90E20BDF90A30BDF9F7
:1052CC000C102846D21A01F00FFA08B070BD304607
:1052DC0002A9FFF7B3FD2046BDF90C10BDF90E2055
:1052EC0001F002FABDF91000BDF90C10BDF9122045
:1052FC00BDF90E30411AD21A20460131013201F0AB
:10530C00D3FA002DD7D108B070BD00BF2DE9F04FF6
:10531C000446D0F81880B4F90CC0B0F90A00B4F9FE
:10532C000EE0B4F91070464D8DB04FF480560091DC
:10533C0008F1600103910196029510440CEB0301F6
:10534C0072463B46B4F812902589D4F804A003F0B9
:10535C008FF8064618B930460DB0BDE8F08F0AF04C
:10536C0033F829B2374D04903022FFF789FA0DF14A
:10537C0030080FCD58F8207DDFF8D0B007F1340499
:10538C000FC40FCD0FC495E80300DBF80030169A5C
:10539C00002584E803007A66FB65C7F88050FD663B
:1053AC00C7F88850A7F87C9040460AF01FF83046A2
:1053BC0007A9FFF743FDBDF92210BDF92000BDF987
:1053CC002420BDF92630204C03955B1A121A41F2A9
:1053DC0082750132013302940096019503F048F86E
:1053EC00DBF8003004465B6830469847304609F0DD
:1053FC00EBFF034640469C66049309F0F7FF3046EA
:10540C0000F0E8FF304609F0DFFF036F059005A8B8
:10541C00069309F0EBFF514606A807F083F9002824
:10542C0099D0304609F0D0FF069A0267034605A8CA
:10543C00059309F0DBFF304602F0C2FF8BE700BF9B
:10544C00714F000888000020894C0008B000002033
:10545C0010B5044682B058B109F0B6FF02ABB0F8F3
:10546C007C4043F8040D1846C4F3C00409F0BEFF99
:10547C00204602B010BD00BF2DE9F0430C4683B0AE
:10548C00804610B903B0BDE8F08309F09DFF009091
:10549C00438E002C40D123F02009994536D0A0F83A
:1054AC0032904046FFF7F4FE009EF5690DB3284696
:1054BC0009F08AFFB6F90220B0F902700190034698
:1054CC0001A81C6ABF1A09F091FFB6F956309F4229
:1054DC0002D06CB12546EAE7B36E9D42F9D0738ECB
:1054EC0013F0200F28461AD001F0B6FA002CF1D197
:1054FC00009EB6F87C305B0605D519F0200F4046AF
:10550C0010D001F0A9FA404602F05AFF684609F0A3
:10551C006DFF03B0BDE8F08343F02009BDE701F057
:10552C00CFFAD6E701F0CCFAEDE700BF2DE9F04752
:10553C0082B0994604460D4616460A9F002B37D07A
:10554C0000963A460B9B266820464946B047824651
:10555C0018B9504602B0BDE8F08700F0D5FF618A5B
:10556C0007465046FFF794F9504601F075FA013D95
:10557C00384601F071FA002DC8BF4FF0000804DC6A
:10558C001AE001F069FA013D16D054F81C6FCDF801
:10559C0000800022204613463946B04706460028B4
:1055AC00EFD1504603F052F8304602B0BDE8F08718
:1055BC0000F0BAFF8146C3E738461D2101F000F91F
:1055CC00B9F1FF3FC5D001F017F830B9D1450CD077
:1055DC00504600F04DFC5046BCE709F0EBFE8069EC
:1055EC005045B7D00028F8D1F2E74846B2E700BFE3
:1055FC0070B5456882B0044601462846FFF77AF933
:10560C0068B123680F2B59D00BDD282B45D0B3F58F
:10561C00107F3CD0112B49D0204603F0D9FB02B0AF
:10562C0070BD0B2B20D00E2BF6D1E3681A6859688D
:10563C000D2A53D0202A31D1002928464FF48071ED
:10564C007DDDFFF725F9284609F0BEFE02AB846A22
:10565C0043F8040D184609F0C9FEA207DFD5284609
:10566C00012101F071F8DAE7284609F0ADFE02AD30
:10567C000346683001930AF061F855F8040D0321D4
:10568C006C300AF077F8284609F0B0FEC4E7324BCC
:10569C00284621461B689847C1E7E368002BBBD11D
:1056AC0028464FF48071FFF70DF9B5E72B4B1B68BB
:1056BC00002BB4D0284621469847B0E7284609F07D
:1056CC0083FE02AB43F8040D426E1468184609F0D1
:1056DC008DFE002CA3D02846A047A0E70029DDDDD5
:1056EC004FF480712846FFF7D3F8284609F06CFE7A
:1056FC0002AC866A44F8040D204609F077FEB10727
:10570C0003D52846012101F01FF828464FF480717B
:10571C00FFF7D8F8284609F057FE034620461E8EA0
:10572C009C6A019309F062FE304607F01DFEA30748
:10573C007FF575AF2846022101F006F86FE7FFF7F9
:10574C00C1F8284609F040FE02AB846A43F8040D08
:10575C00068E1846E6E700BFB4000020648C0220D9
:10576C0070B582B00C46064609F02EFE02AB458E93
:10577C0043F8080D684609F039FEE368002B37D072
:10578C001B7A1BB9E90519D402B070BDEC05FBD42A
:10579C004FF480713046FFF77BF8304609F014FE69
:1057AC0002AB846A43F8040D184609F01FFEA007EB
:1057BC00EAD53046012100F0C7FFE5E74FF48071D0
:1057CC003046FFF77FF8304609F0FEFD02AB846AE5
:1057DC0043F8040D058E184609F008FE284607F01C
:1057EC00C3FDA207D0D53046022100F0ADFFCBE7B8
:1057FC004FF480713046FFF765F8304609F0E4FD50
:10580C0002AB846A43F8040D184609F0EFFDA307B8
:10581C00BAD53046032100F097FFB5E72DE9F043E8
:10582C000446D0F81880B4F91070B0F90A00B4F935
:10583C000CC0B4F90EE02F4D87B00026009108F192
:10584C004C01039110440CEB030101963B4602956D
:10585C007246258902F00CFE074618B9384607B087
:10586C00BDE8F08309F0B0FD234E059029B210225B
:10587C00FFF706F80DF118080FCE58F804EDDFF815
:10588C007C900EF134050FC50FCE0FC596E80F00B6
:10589C00D9F8006085E80F00CEF86460404609F046
:1058AC00A5FDD9F8003038465B68984738466568DE
:1058BC0009F08AFD846E049004A8059409F096FD05
:1058CC004046294606F02EFF0028C7D0059B9C4277
:1058DC0009D0384609F078FD059A8266034604A87B
:1058EC00049309F083FD384602F06AFD384607B090
:1058FC00BDE8F083FD550008B8000020E80000204A
:10590C002DE9F04F85B00D46144609F053FDC069E2
:10591C000290002800F099802146A847029809F0CF
:10592C0049FDC0690390002800F087802146A847F4
:10593C00039809F03FFDD0F81C80B8F1000F74D02B
:10594C0040462146A847404609F034FDD0F81C904B
:10595C00B9F1000F61D048462146A847484609F0E6
:10596C0029FDD0F81CA0BAF1000F4ED050462146AC
:10597C00A847504609F01EFDD0F81CB0BBF1000F33
:10598C003BD058462146A847584609F013FDC0693C
:10599C000190002829D02146A847019809F00AFD5A
:1059AC00C669DEB130462146A847304609F002FDF3
:1059BC00C7696FB138462146A84738462946224662
:1059CC00FFF79EFF384609F0F5FC076A002FF1D16E
:1059DC00304609F0EFFC066A002EE3D1019809F07D
:1059EC00E9FC006A01900028D5D1584609F0E2FC88
:1059FC00D0F820B0BBF1000FC3D1504609F0DAFC4F
:105A0C00D0F820A0BAF1000FB0D1484609F0D2FC72
:105A1C00D0F82090B9F1000F9DD1404609F0CAFC96
:105A2C00D0F82080B8F1000F8AD1039809F0C2FC9D
:105A3C00006A039000287FF479AF029809F0BAFC51
:105A4C00006A029000287FF467AF05B0BDE8F08FC4
:105A5C00F0B5104D104C2B6854F82330074683B02A
:105A6C0018460BB903B0F0BD09F0AEFC0646019028
:105A7C0058B1866901A809F0B9FCB74206BF2B687A
:105A8C0054F82300002003B0F0BD01A809F0AEFCCF
:105A9C003046E7E7409002203090022010B50446D3
:105AAC0008B906E01C46204609F084FC036A002B6A
:105ABC00F8D1204610BD00BF38B5054600F0C8FD32
:105ACC0010B90024204638BD09F074FCC469002CC0
