:020000040800F2
:100000000000032011460008614600086146000810
:1000100061460008614600086146000800000000D3
:100020000000000000000000000000003D45000846
:1000300061460008000000003F45000841450008F7
:1000400061460008614600086146000861460008F4
:1000500061460008614600086146000861460008E4
:1000600061460008614600086146000861460008D4
:1000700061460008614600086146000861460008C4
:1000800061460008614600086146000861460008B4
:1000900061460008614600086146000861460008A4
:1000A0006146000861460008614600086146000894
:1000B0006146000861460008614600086146000884
:1000C0006146000861460008614600086146000874
:1000D0006146000861460008614600086146000864
:1000E0006146000861460008614600086146000854
:1000F0006146000861460008614600086146000844
:10010000614600084945000861460008614600084C
:10011000614600086146000859450008614600082C
:100120006146000861460008614600086146000813
:100130006146000861460008614600086146000803
:1001400061460008614600086146000861460008F3
:1001500061460008614600086146000861460008E3
:1001600061460008614600086146000861460008D3
:100170006146000861460008614600080000000072
:1001800061460008614600086146000861460008B3
:1001900061460008614600086146000861460008A3
:0C01A00061460008614600086146000846
:1001AC0010B5054C237833B9044B13B10448AFF3A5
:1001BC0000800123237010BD1000002000000000FF
:1001CC00AC46000808B5034B1BB103490348AFF319
:1001DC00008008BD0000000014000020AC460008A0
:1001EC0008B50B4B1A6842F400721A601A6842F494
:1001FC0080621A601A6842F480721A60032000F060
:10020C002FF8002004F056F904F00AF9002008BD7C
:10021C00003C0240034A1168034B1B780B441360EB
:10022C00704700BF6800002000000020014B1868D8
:10023C00704700BF6800002038B50446FFF7F6FF92
:10024C000546B4F1FF3F02D0044B1B781C44FFF76A
:10025C00EDFF401BA042FAD338BD00BF00000020C8
:10026C00074AD36823F4E0631B041B0C000200F460
:10027C00E060184340F0BF6040F40030D06070473D
:10028C0000ED00E030B4174BDB68C3F30223C3F17D
:10029C000704042C28BF04241D1D062D18D9033B6C
:1002AC004FF0FF3505FA04F421EA0401994005FAF0
:1002BC0003F322EA0303194300280BDB0901C9B23B
:1002CC0000F1604000F5614080F8001330BC7047CD
:1002DC000023E5E700F00F000901C9B2024B1954E5
:1002EC00F4E700BF00ED00E014ED00E000F01F02A9
:1002FC00400901239340024A42F82030704700BF66
:10030C0000E100E0704708B5FFF7FCFF08BD90F86E
:10031C003530DBB2022B03D08023436501207047BC
:10032C00052380F835300268136823F0010313604D
:10033C000020704700230F2B00F2E380F0B482B052
:10034C0039E0092200E00022B2403A4302346D4EFB
:10035C0046F824206C4A1468EA4302EA04064F6803
:10036C0017F4803F01D045EA0406674C26606468A8
:10037C0002EA04064F6817F4003F01D045EA040670
:10038C00614C6660A46802EA04064F6817F4801F8B
:10039C0001D045EA04065C4CA660E46822404E6835
:1003AC0016F4001F01D045EA0402574CE2600133F9
:1003BC000F2B00F2A38001229A400C6804EA02057C
:1003CC00AA42F4D14C68022C01D0122C10D1DE08B8
:1003DC00083650F826C003F00704A7000F24BC40D1
:1003EC002CEA040C0C69BC4044EA0C0440F826408E
:1003FC0004685F000326BE40F64306EA040C4C6812
:10040C0004F00304BC4044EA0C0404604C6804F19E
:10041C00FF3CBCF1010F03D9112C01D0122C10D1CF
:10042C00846806EA040CCC68BC4044EA0C04846082
:10043C00446824EA02024C68C4F300149C40144340
:10044C004460C26816408A68BA403243C2604A6847
:10045C0012F0805FABD0002201922C4A546C44F411
:10046C0080445464526C02F480420192019A9C08BC
:10047C00A61C244A52F8267003F0030296000F22A1
:10048C00B24027EA0207224A90423FF45CAF02F5E1
:10049C008062904222D002F58062904220D002F518
:1004AC00806290421ED002F5806290421CD002F510
:1004BC00806290421AD002F58062904218D002F508
:1004CC008062904216D002F58062904214D002F500
:1004DC00806290423FF435AF0A2235E7012233E7C0
:1004EC00022231E703222FE704222DE705222BE716
:1004FC00062229E7072227E7082225E702B0F0BCED
:10050C007047704700380140003C01400038024001
:10051C0000000240014B1868704700BF0C0000201F
:10052C0008B5FFF7F7FF044B9B68C3F38223034A1C
:10053C00D35CD84008BD00BF00380240A447000877
:10054C000F2303600B4B9A6802F0030242609A6817
:10055C0002F0F00282609A6802F4E052C2609B687A
:10056C00DB0803F4E0530361034B1B6803F00F0338
:10057C000B60704700380240003C024070B582B0FE
:10058C00044600230193006801F0B2FB054610B14C
:10059C00284602B070BD206801F0BDFB064610B3C2
:1005AC000023A3642E46DEB9019B5A1C01924FF620
:1005BC00FF72934244D00021206801F0C3FB002855
:1005CC0041D10021206801F0D5FB064600283DD121
:1005DC000021206801F0CBF9C00FE4D00646E2E719
:1005EC0000236364D4E70123A3640546EDB9019BA2
:1005FC005A1C01924FF6FF7293422AD000212068B8
:10060C0001F0A0FB05460028C2D14FF080412068C4
:10061C0001F0B0FB05460028BAD10021206801F09A
:10062C00A6F9C30FE2D01D46E0E710F0804F03D1CE
:10063C00002363643546ABE7012363643546A7E7C3
:10064C004FF08075A4E74FF08055A1E74FF080552F
:10065C009EE74FF080759BE770B50546866A0024CF
:10066C0005E0286801F05EF946F824000134072CF7
:10067C00F7D9AB6A2033AB62002070BD70B505466C
:10068C00066A002405E006EB8401286801F04DF9A8
:10069C000134072CF7D92B6A20332B62002070BD54
:1006AC0070B581B10D460446016D0904006801F076
:1006BC00BCFB064608B1304670BD0021206801F035
:1006CC0056F92860F7E74FF00066F4E72DE9F043A0
:1006DC0087B004460D4616461F46FFF7A7FD6DB1C1
:1006EC00804694F83430DBB2012B0DD0A36B43F071
:1006FC000053A363012007B0BDE8F083A36B43F064
:10070C000063A3630120F6E70023A363F319E26DF2
:10071C0093421BD8032384F8343023680022DA6216
:10072C00636C012B00D076024FF40071206801F04D
:10073C0035FA034680B1226840F2FF519163A06BF9
:10074C001843A063012084F83400D4E7A36B43F072
:10075C000073A3630120CEE74FF0FF3300937B02BD
:10076C000193902302930223039300230493012308
:10077C0005936946206801F0FFF9012F15D9022372
:10078C0023633146206801F039FA8146B9F1000F34
:10079C0025D0236840F2FF529A63A36B43EA090306
:1007AC00A363012084F83400A5E7012323633146B9
:1007BC00206801F00BFA8146E8E7206801F0B2F8F6
:1007CC0045F826000136072EF7D920350E9B93B13C
:1007DC00FFF72CFDA0EB08000E9B98420BD2206873
:1007EC00426B40F22A331A4212D1436B13F4004F7E
:1007FC00ECD04E46E7E7236840F2FF529A63A36BB6
:10080C0043F00043A363012384F83430032072E7E0
:10081C00436B13F4807F07D0012F05D9636C032B36
:10082C0002D001F033FA50BB23685A6B12F0080F58
:10083C0030D15A6B12F0020F37D15A6B12F0200FD5
:10084C003ED12068436B13F4001F44D001F06AF8CA
:10085C0045F8040B0E9B33B1FFF7E8FCA0EB080046
:10086C000E9B9842EDD3236840F2FF529A63A36B20
:10087C0043F00043A363012084F834003BE7236872
:10088C0040F2FF519963A36B0343A363012084F8E7
:10089C00340030E740F2FF529A63A36B43F0080335
:1008AC00A363012084F8340025E740F2FF529A63D9
:1008BC00A36B43F00203A363012084F834001AE70E
:1008CC0040F2FF529A63A36B43F02003A363012011
:1008DC0084F834000FE740F2FF538363012384F85C
:1008EC003430002007E72DE9F04387B004460D466D
:1008FC0016461F46FFF79AFC6DB1804694F83430CB
:10090C00DBB2012B0DD0A36B43F00053A36301208A
:10091C0007B0BDE8F083A36B43F00063A363012031
:10092C00F6E70023A363F319E26D934228D803235F
:10093C0084F8343023680022DA62636C012B00D017
:10094C0076024FF40071206801F028F90346E8B9EB
:10095C00012F26D9202323633146206801F07EF92C
:10096C008146B9F1000F24D0236840F2FF529A63FC
:10097C00A36B43EA0903A363012084F83400C7E79F
:10098C00A36B43F00073A3630120C1E7226840F21C
:10099C00FF519163A06B1843A063012084F83400CD
:1009AC00B6E7102323633146206801F03FF98146F6
:1009BC00D7E74FF0FF3300937B0201939023029310
:1009CC00002303930493012305936946206801F0E7
:1009DC00D3F811E005EB8601206800F0A6FF013684
:1009EC00072EF7D920350E9B93B1FFF71FFCA0EB18
:1009FC0008000E9B98420BD22068426B40F21A33CF
:100A0C001A4212D1436B13F4804FECD04E46E7E7F9
:100A1C00236840F2FF529A63A36B43EA0903A36372
:100A2C00012384F83430032072E7436B13F4807F86
:100A3C0007D0012F05D9636C032B02D001F026F9E6
:100A4C00B8B923685A6B12F0080F1DD15A6B12F00B
:100A5C00020F24D15A6B12F0100F2BD040F2FF5220
:100A6C009A63A36B43F01003A363012084F8340052
:100A7C004EE7236840F2FF519963A36B0343A363D2
:100A8C00012084F8340043E740F2FF529A63A36BD1
:100A9C0043F00803A363012084F8340038E740F2E4
:100AAC00FF529A63A36B43F00203A363012084F803
:100ABC0034002DE740F2FF529A63012384F834305E
:100ACC00002025E7704730B4436E9A0F0A70C3F3C9
:100ADC0083624A70C3F301638B7090F86630CB70FD
:100AEC0090F865300B7190F864304B7190F86B3066
:100AFC001B01CB80B0F86A30CC88C3F303122243BD
:100B0C00CA8003F00F030B7290F86930DA094A724D
:100B1C00C3F380128A72C3F34012CA72C3F3001279
:100B2C000A7300224A73426C002A40F092809B02A6
:100B3C0003F440630B61836E0A699B0003F47F73BB
:100B4C0013430B61C36E0A6942EA93720A61C3F3E1
:100B5C00C2620A75C3F302634B75C26EC2F30743DC
:100B6C00C2F342548C75C2F38242CA755B0003F027
:100B7C0006030B76C26EC2F307230C7EC2F3C0329F
:100B8C0022430A760A69013242650C7E023402FA6B
:100B9C0004F444650A7AD5B20122AA408265520A4D
:100BAC0002FB04F2C2654FF400720266C3F38012BA
:100BBC004A765B0003F07E038B76C36E8A7EC3F3AA
:100BCC00C01422438A7603F07F03CB76036F1A0E90
:100BDC00DC0F0C77C3F341744C77C3F382638B77D0
:100BEC00930003F00C03CB77036FCA7FC3F38154DC
:100BFC002243CA77C3F3405281F82020002281F8A7
:100C0C002120C3F3004381F82230036FC3F3C034B7
:100C1C0081F82340C3F3803481F82440C3F340347B
:100C2C0081F82540C3F3003481F82640C3F38124B6
:100C3C0081F82740C3F3012381F82830036FC3F3F5
:100C4C00460381F82930012381F82A30104630BC44
:100C5C007047012A0CD0036840F2FF529A63836BF1
:100C6C0043F080538363012280F834201046EEE772
:100C7C00836E1B0403F47C130B6190F86F200B69DB
:100C8C0043EA02230B610A6990F86E3013430B613F
:100C9C0090F86D300A69013292024265C2654FF4D8
:100CAC0000728265026681E770B590B0044601233C
:100CBC00ADF81230006800F041FE00286AD0636C79
:100CCC00032B43D1636C032B5BD1636C032B1DD0C3
:100CDC00BDF8121021650904206801F079F8054669
:100CEC00002859D10021206800F041FE60660421E3
:100CFC00206800F03CFEA0660821206800F037FE5A
:100D0C00E0660C21206800F032FE20670421206888
:100D1C0000F02DFE000DE06405A92046FFF7D3FE80
:100D2C00226D12040023206800F0CAFF054698BB10
:100D3C00234653F8106B93E807008DE80700043442
:100D4C0094E80E00304600F0D1FD25E0206801F05B
:100D5C002AF8054600BB0021206800F008FE6067F9
:100D6C000421206800F003FEA0670821206800F031
:100D7C00FEFDE0670C21206800F0F9FDC4F880004E
:100D8C00A0E70DF11201206801F037F805460028A4
:100D9C009BD001E04FF08065284610B070BD00007C
:100DAC0070B58AB005460024049405940694079403
:100DBC000894762309930AAB13E907008DE8070022
:100DCC0004AB0ECB286800F091FD124E34602868FD
:100DDC0000F0B0FD012333600220FFF72DFA284606
:100DEC00FFF7CCFB40B10246012085F83400AB6B19
:100DFC001343AB630AB070BD2846FFF755FF02469C
:100E0C0030B1012085F83400AB6B1343AB63F1E7D1
:100E1C000020EFE7A0802542A8B110B5044690F859
:100E2C00343063B1032384F834302046FFF7B8FF25
:100E3C000020A0632063012384F8343010BD0377B5
:100E4C0003F066FAEEE701207047436C0B60836C8D
:100E5C004B60C36C8B60036DCB60436D0B61836D1A
:100E6C004B61C36D8B61036ECB610020704710B575
:100E7C0082B0044602A9002341F8043DFFF710FCA0
:100E8C0018B10346A06B1843A0630198C0F343202C
:100E9C0002B010BD10B5846B236C0BB1002323641E
:100EAC00E36B03B110BD2046FFF7E1FF0023A36302
:100EBC00012384F834300538C0B29842F2D8206847
:100ECC0000F0E4FEA36B1843A063A36B1BB9204690
:100EDC00FFF7F8FDE6E7204602F041FCE2E710B52B
:100EEC00846BE36B0BB10023E363236C03B110BD84
:100EFC002046FFF7BCFF0023A363012384F83430A2
:100F0C000538C0B29842F2D8206800F0BFFEA36B3F
:100F1C001843A063A36B1BB92046FFF7D3FDE6E78C
:100F2C00204602F01CFCE2E710B5044603685A6B3D
:100F3C0012F4807F61D04FF480729A630268D36B95
:100F4C0023F44E7323F00203D363036B13F0080FE7
:100F5C002AD0036B13F0020F03D1036B13F0200F95
:100F6C0004D0206800F092FE034690B9236840F24A
:100F7C00FF529A63012384F83430236B13F0010F72
:100F8C0003D1236B13F0020F0AD0204602F0F1FBC1
:100F9C0010BDA26B1343A3632046FFF793FDE5E757
:100FAC00204602F0E1FBF3E7036B13F0800FEFD068
:100FBC00036B13F0200F13D1236B13F0010FE7D148
:100FCC00236B13F0020FE3D12268D36A23F00803DA
:100FDC00D362012384F83430204602F0C5FBD7E7F6
:100FEC00006800F053FE03460028E5D0A26B1343C3
:100FFC00A3632046FFF766FDDEE75A6B12F4804FC1
:10100C004CD15A6B12F4004F4ED1596B40F23A222C
:10101C001142BDD05A6B12F0020F03D0826B42F01A
:10102C00020282635A6B12F0080F03D0A26B42F0DB
:10103C000802A2635A6B12F0200F03D0A26B42F08D
:10104C002002A2635A6B12F0100F03D0A26B42F075
:10105C001002A2635A6B12F4007F03D0A26B42F011
:10106C000802A26340F2FF729A632268D36B23F4E6
:10107C004E7323F00203D363236B13F0800F30D035
:10108C00236CBBB11D4A1A65206CFFF740F9002890
:10109C003FF47EAF206CFFF7FDFE79E74FF4804202
:1010AC009A63FFF7EBFA73E74FF400429A63FFF78A
:1010BC00D3FA6DE7E36B5BB1114A1A65E06BFFF78E
:1010CC0026F900283FF464AFE06BFFF708FF5FE7F9
:1010DC000023A363012384F83430204602F03FFB45
:1010EC0056E7236B13F0080F3FF452AF012384F83B
:1010FC0034302046FFF7E6FC4AE700BFA10E00089B
:10110C00EB0E0008D8B138B504460D4690F82C30DB
:10111C0083B1022384F82C30211D206800F0FAF9E9
:10112C0062682946206800F031FA012384F82C30DB
:10113C00002038BD80F82D3002F040FDE9E7012099
:10114C00704738B590F82C30DBB2022B14D00D461A
:10115C000446022380F82C30006800F062FA2B68F9
:10116C00022B04D0012384F82C30002038BD052339
:10117C0084F82C300020F9E70220F7E790F82C30A7
:10118C00DBB2022B0CD010B50446022380F82C30B5
:10119C00006800F070FA012384F82C30002010BD98
:1011AC000220704770470268D36843F00103D36094
:1011BC000268136843F00103136000207047704706
:1011CC0070477047704710B5044603681A6912F0EF
:1011DC00020F11D0DA6812F0020F0DD06FF002027C
:1011EC001A610123037603689B6913F0030F70D017
:1011FC00FFF7E6FF0023237623681A6912F0040F29
:10120C0012D0DA6812F0040F0ED06FF004021A61DB
:10121C000223237623689B6913F4407F5FD020461A
:10122C00FFF7CEFF0023237623681A6912F0080F0C
:10123C0012D0DA6812F0080F0ED06FF008021A61A3
:10124C00042323762368DB6913F0030F4ED020466A
:10125C00FFF7B6FF0023237623681A6912F0100FEC
:10126C0012D0DA6812F0100F0ED06FF010021A6163
:10127C00082323762368DB6913F4407F3DD0204696
:10128C00FFF79EFF0023237623681A6912F0010FE3
:10129C0003D0DA6812F0010F36D123681A6912F004
:1012AC00800F03D0DA6812F0800F34D123681A69EA
:1012BC0012F0400F03D0DA6812F0400F32D12368DD
:1012CC001A6912F0200F03D0DA6812F0200F30D117
:1012DC0010BDFFF774FF2046FFF773FF8AE7204627
:1012EC00FFF76DFF2046FFF76CFF9BE72046FFF7EB
:1012FC0066FF2046FFF765FFACE72046FFF75FFF70
:10130C002046FFF75EFFBDE76FF001021A61204631
:10131C0002F0AEFEC1E76FF080021A61204600F0C9
:10132C0089F8C3E76FF040021A612046FFF74AFFC5
:10133C00C5E76FF020021A61204600F07AF8C7E783
:10134C0003682E4A904212D0B0F1804F0FD0A2F514
:10135C007C4290420BD002F58062904207D002F59D
:10136C008062904203D002F57842904203D123F080
:10137C0070034A681343214A90422AD0B0F1804F3F
:10138C0027D0A2F57C42904223D002F58062904295
:10139C001FD002F5806290421BD002F57842904239
:1013AC0017D002F57052904213D002F58062904231
:1013BC000FD002F5806290420BD0A2F59832904289
:1013CC0007D002F58062904203D002F58062904211
:1013DC0003D123F44073CA68134303608B68C36260
:1013EC000B688362054B984203D003F580639842E7
:1013FC0001D10B6903630123436170470000014075
:10140C00A8B110B5044690F839305BB1022384F8CA
:10141C003930211D2068FFF793FF012384F8393000
:10142C00002010BD80F83830FFF7BCFEEEE701203D
:10143C00704770477047000003460279002A57D066
:10144C000268002A61D0417901291CD019B1022906
:10145C0024D0002009E02E49486820EA02024A60A4
:10146C001A68086802430A6001209A79002A4ED053
:10147C0010B4022A27D0032A30D0012A18D0002019
:10148C005DF8044B70472249086820EA02020A60A2
:10149C001A68486802434A600120E6E71C4908685C
:1014AC0002430A601A68486802434A600120DCE77C
:1014BC001C68174AD16821EA0401D1601B68916845
:1014CC000B439360DCE71C68114A916821EA040124
:1014DC0091601B68D1680B43D360D1E719680C4A43
:1014EC009468214391601B68D1680B43D360C7E7B4
:1014FC000068074A116821EA0001116019685368F5
:10150C0023EA0103536001207047012070477047A4
:10151C00003C014030B40B68012B1AD0026822F455
:10152C00FF4222F07F024B688C682343CC68234334
:10153C000C6923434C6923438C692343CC692343B3
:10154C000C6A2343496A0B4313430360002030BCED
:10155C007047026822F4F842CB690C6A1C434B6A50
:10156C001C431443426822F4FF4222F07F024B6872
:10157C008D682B43CD682B430D692B434D692B4351
:10158C0089690B43134304604360DFE730B4012ADD
:10159C0021D0826802F070420B68013B4C68013C20
:1015AC0043EA04138C68013C43EA0423CC68013CF5
:1015BC0043EA04330C69013C43EA04434C69013CA3
:1015CC0043EA04538969013943EA01631343836095
:1015DC00002030BC7047846824F4700424F47044F8
:1015EC00CA68551E4B695A1E120542EA053222433F
:1015FC00C46804F070440B68013B4D68013D43EA3C
:10160C0005138D68013D43EA05230D69013D43EA4D
:10161C0005438969013943EA016323438260C3604E
:10162C00D6E770B582B004461546002301930B68CB
:10163C004A6813438A68013A43EA4213CA6843EA88
:10164C0042230193019B0361FEF7F0FD0646A3695B
:10165C0013F0200F0AD0B5F1FF3FF8D04DB1FEF7D3
:10166C00E5FD801BA842F2D9032000E0002002B067
:10167C0070BD0320FBE7436943EA4101416100204F
:10168C007047F0B40A6892FAA2F2B2FA82F218E049
:10169C000E69C46893FAA3F5B5FA85F56D000327B6
:1016AC0007FA05F524EA050493FAA3F5B5FA85F5CE
:1016BC006D0006FA05F52C43C4604C68022C36D03C
:1016CC0001320B6833FA02F464D0012494402340B5
:1016DC00F6D04E68046893FAA3F5B5FA85F56D005B
:1016EC00032707FA05F524EA050493FAA3F5B5FADE
:1016FC0085F56D0006FA05F52C4304604C68013C39
:10170C00012CC5D88E68846893FAA3F5B5FA85F5D3
:10171C006D0007FA05F524EA050493FAA3F5B5FA6A
:10172C0085F56D0006FA05F52C438460B0E793FA55
:10173C00A3F4B4FA84F4072C15D84D69046A93FA0F
:10174C00A3F6B6FA86F6B6000F2707FA06F624EAD1
:10175C00060493FAA3F3B3FA83F39B0005FA03F39D
:10176C0023430362ACE74C69456A1B0A93FAA3F660
:10177C00B6FA86F6B6000F2707FA06F625EA06052E
:10178C0093FAA3F3B3FA83F39B0004FA03F32B430A
:10179C00436295E74A68013A012A02D90120F0BC5C
:1017AC007047C968426822EA030201FB03F3134342
:1017BC004360F3E70C4B1B680C4AA2FB03235A0A49
:1017CC0041F2883303FB02F35A1E4BB1416B1346B3
:1017DC0011F0800FF8D040F2FF5383630020704764
:1017EC004FF00040704700BF0C000020D34D62103A
:1017FC00144B1B68144AA2FB03235A0A41F2883388
:10180C0003FB02F35A1ECBB1416B134611F0450F8B
:10181C00F8D0436B13F0040F08D1436B13F0010F96
:10182C0008D140F2FF538363002070470423836385
:10183C001846704701238363184670474FF00040E9
:10184C00704700BF0C000020D34D6210104B1B687A
:10185C00104AA2FB03235A0A41F2883303FB02F31A
:10186C005A1E8BB1416B134611F0450FF8D0436BE8
:10187C0013F0040F04D140F2FF5383630020704730
:10188C0004238363184670474FF00040704700BF35
:10189C000C000020D34D6210124B1B68124AA2FBA5
:1018AC0003235A0A41F2883303FB02F35A1EA3B1F5
:1018BC00416B134611F0450FF8D0436B13F0040F36
:1018CC0007D1436B13F0400F0AD0402383630020F1
:1018DC00704740238363042070474FF000407047EB
:1018EC00002070470C000020D34D621084B010B45F
:1018FC0002AC84E80E000B46039A1343049A13437C
:10190C00059A1343069A1343079A1343426822F429
:10191C00FD4222F07F021343436000205DF8044B2C
:10192C0004B07047D0F8800070470B68C0F8803066
:10193C00002070470323036000207047006800F00C
:10194C00030070470B6883604B688A681343CA684E
:10195C0013430A691343C26822F47F6222F00F0218
:10196C001343C360002070470069C0B2704782B057
:10197C0000230193143001440191019B186802B0BB
:10198C007047000038B5514B1B68514CA4FB034306
:10199C005B0A02FB03F2531E002A5ED0446B1A460C
:1019AC0014F0450FF7D0436B13F0040F07D1436BC2
:1019BC0013F0010F07D00123836318464FE0042373
:1019CC00836318464BE00D460446FFF7CDFFA84253
:1019DC0001D0012043E040F2FF53A36300212046D5
:1019EC00FFF7C5FF3B4B0340D3B300283ADB10F0A5
:1019FC00804F3AD110F0005F39D110F0805F38D1B0
:101A0C0010F0006F38D110F0806F38D110F0807F5B
:101A1C0038D110F4000F38D110F4800F38D110F4F5
:101A2C00001F38D110F4801F38D110F4802F38D11A
:101A3C0010F4003F38D110F4803F38D110F4004F2F
:101A4C0038D110F4804F38D110F4005F38D110F039
:101A5C00080F38D04FF4000001E04FF0004038BDC3
:101A6C000020FCE74FF00070F9E74020F7E78020FA
:101A7C00F5E74FF48070F2E74FF40070EFE74FF4A6
:101A8C008060ECE74FF40060E9E74FF48050E6E744
:101A9C004FF40050E3E74FF48040E0E74FF4004090
:101AAC00DDE74FF40030DAE74FF48020D7E74FF44E
:101ABC000020D4E74FF48010D1E74FF40010CEE7AC
:101ACC004FF48000CBE74FF48030C8E70C000020C7
:101ADC00D34D621008E0FFFD70B5254B1B68254CFB
:101AEC00A4FB03435C0A41F2883303FB04F35C1E42
:101AFC00A3B3456B234615F0450FF8D0436B13F099
:101B0C00040F07D1436B13F0010F07D0012383633C
:101B1C00184625E004238363184621E016460D463B
:101B2C000446FFF721FFA84201D0012018E040F243
:101B3C00FF53A36300212046FFF719FF10F4604FF9
:101B4C0008D010F4804F0CD110F4004F0CD04FF48F
:101B5C00805005E0000C3080002001E04FF0004088
:101B6C0070BD4FF40050FBE74FF48030F8E700BF36
:101B7C000C000020D34D62100B6843624B688362EB
:101B8C008B68CA6813430A6913434A691343C26AD0
:101B9C0022F0F7021343C3620020704730B587B0C0
:101BAC0005460191102402944023039300230493CF
:101BBC004FF48063059301A9FFF7C4FE41F288320C
:101BCC0021462846FFF7DEFE07B030BD30B587B0A2
:101BDC00054601911124029440230393002304939E
:101BEC004FF48063059301A9FFF7ACFE41F28832F4
:101BFC0021462846FFF7C6FE07B030BD30B587B08A
:101C0C00054601911224029440230393002304936C
:101C1C004FF48063059301A9FFF794FE41F28832DB
:101C2C0021462846FFF7AEFE07B030BD30B587B071
:101C3C000546019118240294402303930023049336
:101C4C004FF48063059301A9FFF77CFE41F28832C3
:101C5C0021462846FFF796FE07B030BD30B587B059
:101C6C000546019119240294402303930023049305
:101C7C004FF48063059301A9FFF764FE41F28832AB
:101C8C0021462846FFF77EFE07B030BD30B587B041
:101C9C000546002301930C240294402203920493E2
:101CAC004FF48063059301A9FFF74CFE034A2146CC
:101CBC002846FFF767FE07B030BD00BF00E1F50511
:101CCC0030B587B005460192072402944023039354
:101CDC00002304934FF48063059301A9FFF732FEB0
:101CEC0041F2883221462846FFF74CFE07B030BD42
:101CFC0010B586B00446002301930293039304931A
:101D0C004FF48063059301A9FFF71CFE2046FFF7F3
:101D1C0051FD06B010BD10B586B004464FF4D57316
:101D2C0001930823029340230393002304934FF45D
:101D3C008063059301A9FFF705FE2046FFF7ACFD74
:101D4C0006B010BD30B587B005460191372402941A
:101D5C0040230393002304934FF48063059301A95C
:101D6C00FFF7F0FD41F2883221462846FFF70AFEC4
:101D7C0007B030BD10B586B0044641F0004141F4C7
:101D8C008011019129230293402303930023049390
:101D9C004FF48063059301A9FFF7D4FD2046FFF7AC
:101DAC0055FD06B010BD10B586B004460023019356
:101DBC0002220292C022039204934FF48063059393
:101DCC0001A9FFF7BFFD2046FFF712FD06B010BDBD
:101DDC0010B586B00446019109230293C0230393E6
:101DEC00002304934FF48063059301A9FFF7AAFD28
:101DFC002046FFF7FDFC06B010BD70B586B0054659
:101E0C000E46002301930324029440220392049370
:101E1C004FF48063059301A9FFF794FD32462146E8
:101E2C002846FFF759FE06B070BD30B587B00546A1
:101E3C0001910D24029440230393002304934FF447
:101E4C008063059301A9FFF77DFD41F2883221469D
:101E5C002846FFF797FD07B030BD00000368304AF5
:101E6C00904212D0B0F1804F0FD0A2F57C4290423C
:101E7C000BD002F58062904207D002F5806290424E
:101E8C0003D002F57842904203D123F070034A68E4
:101E9C001343234A90422AD0B0F1804F27D0A2F5A9
:101EAC007C42904223D002F5806290421FD002F512
:101EBC00806290421BD002F57842904217D002F516
:101ECC007052904213D002F5806290420FD002F50E
:101EDC00806290420BD0A2F59832904207D002F566
:101EEC008062904203D002F58062904203D123F4C9
:101EFC004073CA68134303608B68C3620B888362A8
:101F0C00074B984203D003F58063984201D10B7CB8
:101F1C000363436943F0010343610120704700BF31
:101F2C0000000140054BA3FB003080090138044B35
:101F3C00586000229A6005221A607047D34D6210D7
:101F4C0010E000E0014B1860704700BF0C0000204F
:101F5C0008B5044B03EB8002526852680344187AAC
:101F6C00904708BD5400002008B5084B1B5C53B9C2
:101F7C00064B01221A5403EB800252681268184473
:101F8C00007A904708BD0020FCE700BF54000020F9
:101F9C0038B5044C04EB80056D68AD680444207AB8
:101FAC00A84738BD5400002038B5044C04EB80051C
:101FBC006D68ED680444207AA84738BD54000020B1
:101FCC0010B5044B03EB8004646824690344187A4D
:101FDC00A04710BD540000204278007840EA02204F
:101FEC007047C278837843EA0222437843EA02239B
:101FFC00007840EA032070470170090A417070476D
:10200C000170C1F307234370C1F307438370090EBA
:10201C00C170704713462AB10A7802700130013141
:10202C00013BF9D1704701700130013AFBD1704787
:10203C0030B4451C037808781B1A013A04D04C1CA8
:10204C0028462146002BF4D0184630BC704700E0DF
:10205C00013003780BB18B42FAD11846704700005F
:10206C0030B400252B4601E001250133012B15D896
:10207C001A01174CA258002AF6D00468A242F4D1D7
:10208C00134A02EB0312546882689442EDD1104A51
:10209C0002EB0312946842699442E6D1022B0AD0F7
:1020AC00A1B90B4A02EB03139B89B3F5807F07D0D0
:1020BC00002030BC70472DB9022905D10020F8E76B
:1020CC001020F6E70020F4E71220F2E71020F0E7EA
:1020DC002C000020002000E00130012804D803016E
:1020EC00034AD358002BF7D1023818BF0120704790
:1020FC002C00002070B4002300E00133012B13D816
:10210C001A01244CA45802689442F6D1214A02EBDD
:10211C000312546882689442EFD11E4A02EB0312F8
:10212C00946842699442E8D1022B29D021B1194A12
:10213C0002EB0312928952BB21BB164A02EB03122B
:10214C009189013189B2134A02EB03129181581C17
:10215C0070BC70470133012B04D81A010D4CA258E6
:10216C00002AF7D1022B10D006680A4D1C012A193F
:10217C002E51846854604069906000209081D5E7AE
:10218C000023E8E74FF48071DDE70020E0E7002052
:10219C00DEE700BF2C0000200138012815D80D4BBC
:1021AC0003EB00139B89B3F5807F03D01BB1013B7C
:1021BC009BB200E00023074A02EB0012938133B973
:1021CC0003010020034AD0507047022070470020C2
:1021DC00704700BF2C000020002303E05DF8044B87
:1021EC0070470133012B11D81A0109498A588242D0
:1021FC00F7D110B41A0100248C500133012BEDD807
:10220C001A0103498A588242F7D1F3E7704700BF9D
:10221C002C00002002398369023B8B4204D943898C
:10222C00C06A01FB030070470020704710B40468BB
:10223C00C26A0432A389B1FBF3F16389B1FBF3F1F8
:10224C00106830B1814202D3091A0832F8E750689D
:10225C0008445DF8044B704770B506460D4601F115
:10226C001A00FFF7B9FE3378032B00D070BD04467B
:10227C0005F11400FFF7B0FE44EA0040F6E770B534
:10228C0006460C46154691B204F11A00FFF7B4FE4F
:10229C003378032B00D070BD290C04F11400FFF728
:1022AC00ABFEF8E72DE9F84F82468B460F6800F13C
:1022BC0024090B2220214846FFF7B5FE00263346A1
:1022CC004FF008082CE001357B5D2F2BFBD05C2BED
:1022DC00F9D03D44CBF80050002E43D09AF824306E
:1022EC00E52B35D0202C37D804238AF82F3000204A
:1022FC0028E008264FF00B0811E014F0800F23D1D2
:10230C0021461948FFF7A3FE50BBA4F16103DBB2D1
:10231C00192B01D8203CE4B209F8064001362B46B3
:10232C005D1CFC5C202CD4D92F2CCDD05C2CCBD0BC
:10233C002E2C01D0B045E0D8B8F10B0F0ED02E2CBE
:10234C00D7D00620BDE8F88F803C084B1C5DD7E742
:10235C0005238AF82430C5E70023C6E70620F1E7F9
:10236C000620EFE70620EDE7AC470008C44600085E
:10237C00016809B10A4603E04FF0FF3308E001326F
:10238C001378202B01D93A2BF9D13A2B02D0002308
:10239C001846704710B44C1C0B78303B092B08D8EE
:1023AC00A24209D15BB90132026018465DF8044BB8
:1023BC0070474FF0FF33F8E74FF0FF33F5E74FF07E
:1023CC00FF33F2E738B50D4640B1044603682BB134
:1023DC001A781AB1D9888288914203D000232B60D5
:1023EC00092038BD5878FFF7B3FD10F0010FF5D177
:1023FC0023682B600020F4E7F8B5C3780BB90020F4
:10240C00F8BD0446056B00F1340701232A46394612
:10241C004078FFF7C9FDA8B90023E370636AEB1A93
:10242C00E269934210D2A678012E09D9E3691D44C2
:10243C0001232A4639466078FFF7B6FD013EF3E7E3
:10244C000020DDE70120DBE70020D9E770B5036B46
:10245C008B4212D004460D46FFF7CEFF064668B9F4
:10246C0001232A4604F134016078FFF791FD10B185
:10247C0001264FF0FF35256300E00026304670BD85
:10248C0010B504460023C3704FF0FF330363FFF70E
:10249C00DDFF18BB04F23220FFF79EFD4AF65523F0
:1024AC0098421DD194F83430E92B05D0636B03F0BE
:1024BC00FF130F4A934215D104F16A00FFF791FD07
:1024CC0020F07F400B4B98420ED004F18600FFF7B2
:1024DC0088FD094B984209D1002002E0042000E05D
:1024EC00032010BD0220FCE70020FAE70220F8E7E9
:1024FC00EB00900046415400464154332DE9F04F17
:10250C0087B00F46164600230B60FFF731FF051E00
:10251C00C0F26781C94B03EB85031C6A002C00F0E9
:10252C0064813C6006F0FE06237873B16078FFF797
:10253C000FFD10F0010F08D1002E00F0588110F0A3
:10254C00040F40F0568100204CE100232370E8B2C8
:10255C006070FFF709FD10F0010F40F04C811EB1C7
:10256C0010F0040F40F0498104F10C020221607854
:10257C00FFF726FD002840F04281A289A2F50073E6
:10258C009BB2B3F5606F00F23C81531E1A4201D02E
:10259C00012027E100212046FFF772FF022800F0FE
:1025AC00A0800025042800F02E81012800F22D8146
:1025BC0004F13F00FFF710FDA789B84240F02781D6
:1025CC0004F14A00FFF708FD804620B904F15800D9
:1025DC00FFF707FD8046C4F81C8094F84460A67091
:1025EC00731EDBB2012B00F2148108FB06F694F883
:1025FC004190A4F80A90B9F1000F00F00C8109F198
:10260C00FF3319EA030F40F0088104F14500FFF78E
:10261C00E3FC824620814FEA571BB0FBFBF30BFB1C
:10262C0013039BB2002B40F0FA8004F14700FFF734
:10263C00D3FC019020B904F15400FFF7D2FC0190B7
:10264C0004F14200FFF7C8FC0146002800F0E980C5
:10265C008219BAFBFBFB5A44019B9342C0F0E38006
:10266C009B1AB3FBF9F9B9F1000F00F0DE804FF6BD
:10267C00F57399454DD94FF0030B40F6F573994519
:10268C0001D84FF0010B09F10209C4F8189025622A
:10269C004B1963622A44E262BBF1030F3CD0BAF1DE
:1026AC00000F00F0C8803344A362BBF1020F68D165
:1026BC004FEA490942E0002006AB03EB850343F8DF
:1026CC00100C0135032D0ED804F134002B0103F549
:1026DC00DF7318440379002BEDD00830FFF781FC31
:1026EC00EAE70025EEE700260AE029462046FFF738
:1026FC00C7FE01287FF656AF0136032E3FF652AFC8
:10270C0006AB03EB860353F8105C002DEDD10320D0
:10271C00F2E74FF0020BB0E704F15E00FFF75CFC50
:10272C00002840F08480BAF1000F40F0828004F160
:10273C006000FFF756FCA0624FEA8909B94409F121
:10274C00FF33B3FBF7F747457ED84FF0FF33636198
:10275C00236180232371BBF1030F05D104F16400C5
:10276C00FFF73AFC012813D084F800B0334A938C5D
:10277C0001339BB29384E3802046FFF72DFD0020AC
:10278C0030E009EB490309F0010909EB5309D5E7DE
:10279C00691C2046FFF75AFE0028E5D1002323715F
:1027AC0004F23220FFF718FC4AF655239842DBD18D
:1027BC0004F13400FFF715FC214B9842D4D104F5F9
:1027CC000670FFF70EFC1F4B9842CDD104F5077035
:1027DC00FFF707FC606104F50870FFF702FC20614D
:1027EC00C2E70B2007B0BDE8F08F0C20FAE7002001
:1027FC00F8E70A20F6E70320F4E70A20F2E70120C5
:10280C00F0E70120EEE70120ECE70D20EAE70D20D0
:10281C00E8E70D20E6E70D20E4E70D20E2E70D20C8
:10282C00E0E70D20DEE70D20DCE70D20DAE70D20D8
:10283C00D8E70D20D6E70D20D4E700BF2C000020F0
:10284C0052526141727241610D20CBE72DE9F04784
:10285C00012940F2928083698B4240F290801746A6
:10286C000D4604460378022B4DD0032B64D0012B6C
:10287C0001D0022684E001EB5108416A8389B8FB40
:10288C00F3F31944FFF7E2FD0646002878D104F172
:10289C00340908F1010AA289B8FBF2F302FB138890
:1028AC0015F0010524D019F9083003F00F033A0193
:1028BC0002F47F621343DBB209F808300123E370A2
:1028CC00616AA389BAFBF3F319442046FFF7BEFDF6
:1028DC000646002854D1A289BAFBF2F302FB13AAD4
:1028EC0045B1C7F3071209F80A200123E37047E04A
:1028FC00FBB2E1E719F90A2022F00F02C7F3032714
:10290C003A43D2B2EFE7416A83895B08B5FBF3F334
:10291C001944FFF79BFD064690BB04F134006D0093
:10292C00A289B5FBF2F302FB1355B9B22844FFF7A9
:10293C0063FB0123E37023E0416A83899B08B5FBA9
:10294C00F3F31944FFF782FD0646C8B927F0704728
:10295C0004F13403A900A289B1FBF2F502FB1515B1
:10296C001D442846FFF73DFB00F0704139432846D3
:10297C00FFF746FB0123E37002E0022600E002268B
:10298C003046BDE8F087F8B5066801296AD9B36905
:10299C008B4269D90C463378022B35D0032B49D0A6
:1029AC00012B01D001205EE001EB5105716AB38966
:1029BC00B5FBF3F319443046FFF748FD002855D119
:1029CC006F1CB389B5FBF3F203FB1255354495F834
:1029DC003450716AB7FBF3F319443046FFF736FDF8
:1029EC00002846D1B289B7FBF2F302FB13773E44C1
:1029FC0096F8340045EA002014F0010F01D00009CC
:102A0C0031E0C0F30B002EE0716AB3895B08B4FBB4
:102A1C00F3F319443046FFF719FD68BB06F1340097
:102A2C006100B289B1FBF2F302FB13110844FFF70A
:102A3C00D3FA18E0716AB3899B08B4FBF3F3194419
:102A4C003046FFF703FDD0B906F13400A100B3897D
:102A5C00B1FBF3F403FB14110844FFF7C2FA20F0A6
:102A6C00704000E00120F8BD0120FCE74FF0FF3082
:102A7C00F9E74FF0FF30F6E74FF0FF30F3E74FF098
:102A8C00FF30F0E72DE9F0410768B1F5001F43D2A4
:102A9C0006460D4611F01F0F41D1716184681CB9B7
:102AAC003B78022B00D9BC6ACCB93B89B3EB551FE0
:102ABC0037D9BB6AF361B461F369002B39D0BA8999
:102ACC00B5FBF2F21344F36107F13403B989B5FB9A
:102ADC00F1F201FB12551D44356200201DE07B898B
:102AEC00B7F80C8008FB03F845450FD32146304658
:102AFC00FFF749FF0446B0F1FF3F14D0012814D969
:102B0C00BB69834213D9A5EB0805EDE7214638468E
:102B1C00FFF780FBF061CEE70220BDE8F0810220D8
:102B2C00FBE70220F9E70120F7E70220F5E7022096
:102B3C00F3E70220F1E72DE9F041074606688846E5
:102B4C0031B935698DB1B369AB420FD801250DE0B0
:102B5C00FFF719FF0346012847D9B0F1FF3F49D0D1
:102B6C00B269824246D8454600E001252C460CE06D
:102B7C0021463846FFF707FF034670B1012839D0CC
:102B8C00B0F1FF3F36D0AC4233D00134B369A3422D
:102B9C00EED8012D2BD90224EAE74FF0FF32214663
:102BAC003046FFF753FE034610B9B8F1000F0ED1B3
:102BBC00A3B934617269B369023B9A4201D8013AF4
:102BCC007261337943F001033371234612E02246DC
:102BDC0041463046FFF73AFE0346E9E7012B01D0A8
:102BEC00012307E04FF0FF3304E0012302E0002350
:102BFC0000E000231846BDE8F081F8B50E460568E4
:102C0C0001292ED907461146AB69B3422CD952B1D2
:102C1C004FF0FF322846FFF719FE844618B125E025
:102C2C002646A24222D931463846FFF7ACFE04466E
:102C3C00F0B101281FD0B0F1FF3F1FD00022314668
:102C4C002846FFF703FE844680B96B69AA69911E7A
:102C5C008B42E5D201336B612B7943F001032B716D
:102C6C00DEE74FF0020C01E04FF0020C6046F8BDBD
:102C7C004FF0000CFAE74FF0020CF7E74FF0010CA5
:102C8C00F4E72DE9F04106684569C369002B72D061
:102C9C002035B5F5001F70D20F460446B189B5FB3F
:102CAC00F1F201FB12523AB90133C3618169A1B946
:102CBC003389B3EB551F0CD9656106F13403B18927
:102CCC00B5FBF1F201FB12551D4425620020BDE855
:102CDC00F0810023C3610420F9E7B289B5FBF2F25D
:102CEC007389013B1A42E7D1FFF74DFE804601285C
:102CFC0045D9B0F1FF3F44D0B369834233D88FB18B
:102D0C00A1692046FFF717FF804600283BD0012819
:102D1C003BD0B0F1FF3F3AD03046FFF76DFB28B106
:102D2C000120D4E70023E3610420D0E7B28900211D
:102D3C0006F13400FFF777F941463046FFF76AFA9F
:102D4C003063002773899F420AD20123F370304607
:102D5C00FFF752FBE8B90137336B01333363F1E70B
:102D6C00336BDB1B3363C4F8188041463046FFF7E6
:102D7C0051FAE061A0E70420A9E70420A7E70220AC
:102D8C00A5E70120A3E70720A1E702209FE7012088
:102D9C009DE701209BE770B5044606680021FFF70C
:102DAC0071FE054640B1284670BD00212046FFF754
:102DBC0068FF05460028F6D1E1693046FFF746FB6F
:102DCC0005460028EFD1206A03787BB1C37A03F063
:102DDC003F03A371C37A13F0080FE6D10B2204F161
:102DEC002401FFF725F90028DFD1DCE70425DAE719
:102DFC0030B583B004460191056801E001330193BD
:102E0C00019B1A782F2AF9D05C2AF7D00022A260F5
:102E1C001B781F2B21D901A92046FFF743FA034643
:102E2C0018BB2046FFF7B7FF94F82F200346F8B9DC
:102E3C0012F0040F19D1A37913F0100F1FD005F164
:102E4C0034016069AA89B0FBF2F302FB1303194445
:102E5C002846FFF701FAA060DDE7802384F82F30C5
:102E6C0011462046FFF70EFE0346184603B030BD50
:102E7C000428FAD112F0040FF7D10523F5E7052346
:102E8C00F3E7F8B504460F4606680021FFF7FAFD94
:102E9C000346C0B9002508E00135BD4213D001211D
:102EAC002046FFF7EEFE034668B9E1693046FFF7AE
:102EBC00CDFA034638B9226A1278E52AECD0002AFA
:102ECC00EAD00025EBE7042B01D01846F8BD072308
:102EDC00FBE770B5044606680121FFF7D2FF0546F3
:102EEC0008B1284670BDE1693046FFF7AFFA0546D8
:102EFC000028F6D120220021206AFFF794F80B223B
:102F0C0004F12401206AFFF785F80123F370E8E748
:102F1C0070B50446FFF770FA054648B92378032BC1
:102F2C0008D0002211466078FFF74AF800B101255D
:102F3C00284670BD2379012BF3D104F13406A28904
:102F4C0000213046FFF76FF84AF6552104F2322083
:102F5C00FFF752F80E493046FFF752F80D4904F5C9
:102F6C000670FFF74DF8616904F50770FFF748F834
:102F7C00216904F50870FFF743F8226A01322263D5
:102F8C00012331466078FFF70FF800232371C8E75F
:102F9C00525261417272416170B584B001900091DE
:102FAC00164604A840F8041DFFF7E2F9041E1EDBC8
:102FBC00114B03EB84031D6A25B12846FFF70CF96E
:102FCC0000232B70019B0BB100221A70019B0A4845
:102FDC0000EB8400036263B1012E02D0002004B028
:102FEC0070BD002201A96846FFF788FAF7E70B20AD
:102FFC00F5E70020F3E700BF2C0000202DE9F0439B
:10300C0091B00191002800F012810546164602F09D
:10301C003F073A4603A901A8FFF770FA044630B1FE
:10302C000CB100232B60204611B0BDE8F083039B4C
:10303C000493019904A8FFF7DBFE044660B99DF9DF
:10304C003F30002B51DB37F0010314BF012100216D
:10305C0004A8FFF705F8044616F01C0F5BD0002CF3
:10306C004FD0042C43D047F00807002C62D117F046
:10307C00080F5FD000F0B6FB064601460C980E30E8
:10308C00FEF7BEFF31460C981630FEF7B9FF0C9BCD
:10309C002022DA72039EDDF8308041463046FFF77D
:1030AC00DBF88146002241463046FFF7E8F8002164
:1030BC000C981C30FEF7A4FF039B0122DA70B9F1C7
:1030CC00000F37D0039B1E6B0022494604A8FFF764
:1030DC0094FD044670BB31460398FFF7B7F90446DC
:1030EC0009F1FF33039A136124E00624B4E7FEF7D9
:1030FC00F1FF08B91224B6E704A8FFF7EAFE04466C
:10310C00B1E79DF8163013F0110F12D116F0040F21
:10311C00ABD008240EE06CB99DF8163013F0100FEC
:10312C004ED116F0020F05D013F0010F02D0072478
:10313C0016E00724A4B917F0080F01D047F0400798
:10314C00039B1B6B6B620C9BAB6237F0010314BFD0
:10315C000121002104A8FEF7CDFF2861002864D0CE
:10316C00002C7FF45DAF039EDDF830804146304685
:10317C00FFF772F8A86008F11C00FEF732FFE86058
:10318C000021E9622E60F388AB802F756975296286
:10319C00A96105F130084FF480524046FEF743FF19
:1031AC0017F0200F3FF43CAFEE68002E3FF438AF21
:1031BC00AE61039B5A899F8907FB02F7A96805E05A
:1031CC000424CDE7B1F1FF3F0BD0F61B5CB9BE4236
:1031DC0009D92846FFF7D7FB01460128F2D802246B
:1031EC00F0E70124F1E7E961002C7FF419AF039FAC
:1031FC00B7F80C90B6FBF9F309FB1363002B3FF403
:10320C000FAF3846FFF706F808B9022409E7B6FBFA
:10321C00F9F202442A62012341467878FEF7B8FE9F
:10322C0000283FF4FDAE0124FBE60224F8E6092455
:10323C00F9E62DE9F04F85B00446894615469846C7
:10324C000023C8F80030019003A9FFF7BBF807462C
:10325C00002840F0AE80677D002F40F0AA80237DCF
:10326C0013F0010F00F0BC80E668A369F61AAE42B9
:10327C0060D32E465EE0E36A1BB12046FEF7D6FF14
:10328C006CE0E1690198FFF77EFB67E00227677548
:10329C008FE0012767758CE00227677589E094F948
:1032AC001430002B04DB039B9B890AFB03FA36E0EA
:1032BC00206A009BC01A5045F5D2039B9B891A4685
:1032CC0004F1300103FB0090FEF7A4FEEBE7226A49
:1032DC00009B9A420DD094F91430002B6DDB012326
:1032EC00009A04F1300103984078FEF751FE002853
:1032FC0073D1009B2362039BB3F80CA0A169B1FBB3
:10330C00FAF30AFB1313AAEB030A564500D2B24692
:10331C0004F13001524619444846FEF77BFED14475
:10332C00A3695344A361D8F800305344C8F8003063
:10333C00A6EB0A06002E3CD0A169039A9589B1FB35
:10334C00F5F305FB1313002BD5D1B1FBF5F5538920
:10335C00013B1D4008D100298DD1A068012895D9C9
:10336C00B0F1FF3F95D0E061DDF80CB0E169584653
:10337C00FEF750FF00288FD02B180093BBF80CA041
:10338C00B6FBFAFABAF1000FA1D005EB0A03BBF8B1
:10339C000A20934201D9A2EB050A5346009A4946EA
:1033AC009BF80100FEF7F4FD00283FF478AF0127ED
:1033BC006775384605B0BDE8F08F012304F1300184
:1033CC009BF80100FEF7F0FD20B9237D03F07F038D
:1033DC00237584E701276775EBE701276775E8E735
:1033EC000727E6E72DE9F04F85B0044688461646D8
:1033FC0099460023C9F80030019003A9FEF7E2FFBB
:10340C000746002846D1677D002F43D1237D13F05A
:10341C00020F00F0DA80A369F342C0F0A880DE430B
:10342C00A5E0E36A002B39D02046FEF7FFFE00280A
:10343C0000F0C680012836D0B0F1FF3F36D0E061F5
:10344C00A36803B9A06094F91430002B31DBDDF8CC
:10345C000CB0E1695846FEF7DDFE00283AD02B1877
:10346C000093BBF80CA0B6FBFAFABAF1000F4CD0E3
:10347C0005EB0A03BBF80A20934201D9A2EB050A1B
:10348C005346009A41469BF80100FEF78DFD20B390
:10349C0001276775384605B0BDE8F08FE1690198E2
:1034AC00FFF749FBC3E702276775F3E70127677549
:1034BC00F0E70123226A04F1300103984078FEF70B
:1034CC0073FD20B9237D03F07F032375BFE701272C
:1034DC006775DFE702276775DCE7216A009BC91A6D
:1034EC00514504D3039B9B890AFB03FA2FE0039BF2
:1034FC009B891A4603FB018104F13000FEF78AFD1B
:10350C00237D03F07F032375ECE7236A009A934233
:10351C0003D0A269E3689A4245D3009B2362039BC4
:10352C00B3F80CA0A069B0FBFAF30AFB1303AAEBE7
:10353C00030A564500D2B24604F1300052464146C9
:10354C001844FEF767FD237D63F07F032375D04499
:10355C00A3695344A361E268934238BF1346E36006
:10356C00D9F800305344C9F80030A6EB0A063EB334
:10357C00A169039A9589B1FBF5F305FB1313002B95
:10358C00CDD1B1FBF5F55389013B1D407FF45BAF09
:10359C0000297FF446AFA06800287FF448AF01985B
:1035AC00FFF7C9FA43E70123009A04F130019BF8B5
:1035BC000100FEF7EDFC0028AFD00127677569E725
:1035CC00237D43F04003237564E7072762E770B55A
:1035DC0082B0044601A9FEF7F5FE034678B9227DB8
:1035EC0012F0400F0BD012F0800F0BD100F0FAF854
:1035FC000646616A0198FEF729FF034680B118461A
:10360C0002B070BD0123226A04F1300101984078A8
:10361C00FEF7CAFC48BB237D03F07F032375E5E767
:10362C00A56AEB7A43F02003EB72A2682946206866
:10363C00FEF725FEE16805F11C00FEF7E1FC3146C2
:10364C0005F11600FEF7DCFC002105F11200FEF777
:10365C00D3FC019B0122DA700198FFF759FC034659
:10366C00227D22F040022275C9E70123C7E710B57D
:10367C0082B00446FFF7ABFF034610B1184602B008
:10368C0010BD01A92046FEF79DFE03460028F5D18A
:10369C002069FEF781FD03460028EFD1002222604D
:1036AC00ECE70000104B5B7ADBB930B40E4B5D7A63
:1036BC00EDB200245C555D7A03EB85056860587AA1
:1036CC00184402725A7AD2B2501CC0B258723032BC
:1036DC000A703A234B702F238B70CC70204630BC71
:1036EC0070470120704700BF5400002008B500222D
:1036FC00FFF7D8FF08BD000000B583B00093134658
:10370C000A4601460348FCF7E1FF00B1012003B073
:10371C005DF804FB0C21002000B583B00093134628
:10372C000A4601460348FDF7DEF800B1012003B05C
:10373C005DF804FB0C21002008B50348FDF797FB4E
:10374C00043818BF012008BD0C21002008B5014623
:10375C000148FDF77AFB08BD0C210020704708B525
:10376C00FFF7FCFF08BD704708B5FFF7FCFF08BD6D
:10377C00704708B5FFF7FCFF08BD82B001238DF838
:10378C0007309DF8070002B07047000008B5FFF73E
:10379C00F4FF012801D0012008BD0248FDF73CFBD5
:1037AC00FAE700BF0C21002082B0064B1A6B42F4E2
:1037BC0080521A631B6B03F480530193019B02B07C
:1037CC00704700BF0038024008B503490348FFF7B3
:1037DC008DFF034B187008BD700000206447000873
:1037EC006C000020002070472E4B1B6803B1704703
:1037FC002DE9F04186B04FF001082A4BC3F8008048
:10380C0000240094284B9A6B42EA08029A639B6B43
:10381C0003EA08030093009B4FF63F030193022732
:10382C0002970394032604960C25059501A91F48BD
:10383C00FCF780FDCDF8048002970394049605955F
:10384C0001A91B48FCF776FD48F23313019302974C
:10385C0003940496059501A91648FCF76BFD4FF6E9
:10386C0083730193029703940496059501A912485A
:10387C00FCF760FD4CF203730193029703940496DA
:10388C00059501A90D48FCF755FD6023019302979E
:10389C0003940496059501A90948FCF74BFD06B065
:1038AC00BDE8F081600000200038024000140240A6
:1038BC00000802400018024000100240000C0240B8
:1038CC00000402402DE9F04186B000270197012544
:1038DC00029508260396049505971F4C4FF48052C9
:1038EC000DEB06012046FDF72CFC6420FCF7A4FC34
:1038FC00022302930396049505974FF480520DEB27
:10390C0006012046FDF71DFC0323029303964FF09E
:10391C000408CDF8108005974FF480520DEB06018A
:10392C002046FDF70EFC40F231230193CDF80880C0
:10393C0003960495019B05934FF480520DEB060101
:10394C002046FDF7FEFB40F26A512046FDF716FCBF
:10395C0006B0BDE8F08100BFD820002000239342C0
:10396C000AD210B40C7800F8234001330131934291
:10397C00F8D35DF8044B70477047002393420AD28A
:10398C0010B40C8820F83340013302319342F8D341
:10399C005DF8044B704770470023934209D230B452
:1039AC001C010D680551013304319342F8D330BC2E
:1039BC0070477047002393420AD210B410F823408A
:1039CC000C70013301319342F8D35DF8044B70470E
:1039DC007047002393420AD210B430F833400C8065
:1039EC00013302319342F8D35DF8044B70477047B2
:1039FC00002393420AD210B41C0104590C60013309
:103A0C0004319342F8D35DF8044B7047704700B50E
:103A1C00ADF60C6D002304E00DF6082242F82330BD
:103A2C000133FF2BF8DD4FF480720DF608214FF0B7
:103A3C005040FFF7B1FF4FF480720DF5C1614FF0AC
:103A4C005040FFF7D5FF00238DF80736FF2B42DCE3
:103A5C009DF80726B2B90DF5C16252F823100DF688
:103A6C00082252F82320914201D10133EEE79DF850
:103A7C000706C0B2431CDBB28DF807360DF60C6D91
:103A8C005DF804FB002304E00DF2044222F813302D
:103A9C000133FF2BF8DD4FF480720DF204414FF02F
:103AAC005040FFF76AFF4FF4807281A94FF05040ED
:103ABC00FFF78FFF0023FF2B2EDC9DF80726A2B902
:103ACC0081AA32F813100DF2044232F813209142FD
:103ADC0003D10133EFE70023DBE79DF80706C0B203
:103AEC00431CDBB28DF80736C8E7002302E041AA7D
:103AFC00D3540133FF2BFADD4FF4807241A94FF000
:103B0C005040FFF72BFF4FF4807201A94FF050404B
:103B1C00FFF750FF002302E00023EBE70133FF2BFC
:103B2C0010DC9DF807266AB901AAD15C41AAD25CC7
:103B3C009142F3D09DF80706C0B2431CDBB28DF85E
:103B4C0007369BE79DF80706C0B297E700B589B02A
:103B5C001748184B03600123436000238360042142
:103B6C00C16010220261402242614FF4C072826136
:103B7C00C3614FF40062026243624FF400538362EC
:103B8C0002230193072202920391049203220592CD
:103B9C00069307936944FDF7B5FA10B909B05DF8BF
:103BAC0004FB40F22711044800F06EFAF6E700BF60
:103BBC00D8200020400100A0F047000808B5FFF70E
:103BCC0013FE08BD2DE9F04F91B0A84B1A6B42F0D3
:103BDC0004021A631A6B02F004020792079A1A6B1A
:103BEC0042F020021A631A6B02F020020692069A27
:103BFC001A6B42F080021A631A6B02F08002059273
:103C0C00059A1A6B42F001021A631A6B02F0010258
:103C1C000492049A1A6B42F002021A631A6B02F0B5
:103C2C0002020392039A1A6B42F040021A631A6B57
:103C3C0002F040020292029A1A6B42F010021A63CE
:103C4C001A6B02F010020192019A1A6B42F00802F0
:103C5C001A631B6B03F008030093009BDFF824A28C
:103C6C004FF4B013CAF81830814E4FF40003B3610F
:103C7C004FF040537F4A93614FF0C04302F54062CE
:103C8C0093614FF460730A9302270B9700240C94F2
:103C9C000D940E9405230F93774D0AA92846FDF732
:103CAC00F0FC4FF480630A930B970C940D940E94D4
:103CBC004FF00E0BCDF83CB00AA92846FDF7E1FCFD
:103CCC0016230A9301250B950C940D940E940AA9B6
:103CDC005046FDF7D6FC41F658030A930B970C940B
:103CEC000D940E94CDF83CB00AA93046FDF7C9FCF2
:103CFC0080230A930B950C940D940E940AA93046CC
:103D0C00FDF7BFFC4FF00308CDF828800B970C94FF
:103D1C000D940E9409230F930AA95848FDF7B1FC92
:103D2C004FF00409CDF828900B940E940AA953482F
:103D3C00FDF7A7FC4FF470630A930B970C940D944A
:103D4C000E94CDF83CB00AA94C48FDF79AFC4FF400
:103D5C0050430A930B970C940D940E940C230F93D1
:103D6C000AA94648FDF78DFC4FF400530A930B94B7
:103D7C000E940AA94148FDF784FC4FF400630A93A2
:103D8C000B940E940AA93B48FDF77BFC4FF440536F
:103D9C000A930B950C940D940E940AA93548FDF7D3
:103DAC0070FC4FF40C630A930B970C940D940E94C7
:103DBC00CDF83CB00AA93248FDF763FC4FF4986388
:103DCC000A930B970C940D940E94CDF83CB00AA961
:103DDC005046FDF756FC4FF400730A930B970C9466
:103DEC000D950E95CDF83C900AA95046FDF749FC6F
:103DFC004FF480730A930B970C940D950E95CDF898
:103E0C003C900AA93046FDF73CFC4FF4C0630A9382
:103E1C000B97CDF830800D940E9407230F930AA9BD
:103E2C003046FDF72EFC48230A930B970C940D9407
:103E3C000E94CDF83CB00AA90E48FDF722FC4FF4C5
:103E4C00A0530A930B970C940D940E9409230F9383
:103E5C000AA90B48FDF715FC4FF4C0430A930B95C8
:103E6C000C940D940E940AA90EE000BF0038024089
:103E7C0000000240000C024000140240000402400A
:103E8C0000180240000802407748FDF7FAFB774B18
:103E9C009A6822F00F020F2191FAA1F19A609968A9
:103EAC0021F0F001F02292FAA2F09960996821F4C5
:103EBC0070614FF4706090FAA0F09960D96821F0AD
:103ECC00F00192FAA2F2B2FA82F207FA02F20A4373
:103EDC00DA605A6922F470424FF4704191FAA1F100
:103EEC005A6108958DF824508DF825508DF8265080
:103EFC0008A8FDF7A1FA08978DF824508DF82550E5
:103F0C008DF8265008A8FDF797FACDF820908DF87B
:103F1C0024508DF825508DF8265008A8FDF78CFA02
:103F2C004FF0200BCDF820B08DF824508DF8255093
:103F3C008DF826500DEB0B00FDF77EFA4FF4004484
:103F4C0008948DF824508DF825508DF826500DEBE3
:103F5C000B00FDF771FAF26895FAA5F3B3FA83F347
:103F6C00AB4008FA03F322EA030395FAA5F2F360D7
:103F7C00F26897FAA7F3B3FA83F3AB4008FA03F3AA
:103F8C0022EA030397FAA7F2F360F26899FAA9F30D
:103F9C00B3FA83F3AB4008FA03F322EA030399FA6A
:103FAC00A9F2F360DAF80C209BFAABF3B3FA83F3C3
:103FBC00AB4008FA03F322EA03039BFAABF2CAF80C
:103FCC000C30F26894FAA4F3B3FA83F3AB4008FA1A
:103FDC0003F322EA030394FAA4F2F360326895FA2D
:103FEC00A5F3B3FA83F3AB4008FA03F322EA030315
:103FFC0095FAA5F53360326897FAA7F3B3FA83F311
:10400C005B0008FA03F322EA030397FAA7F733607D
:10401C00326899FAA9F3B3FA83F35B0008FA03F355
:10402C0022EA030399FAA9F93360DAF800209BFA23
:10403C00ABF3B3FA83F35B0008FA03F322EA03034E
:10404C009BFAABFBCAF80030326894FAA4F3B3FACB
:10405C0083F35B0008FA03F822EA080294FAA4F44A
:10406C00326011B0BDE8F08F0018024000380140FA
:10407C0008B50268034B9A4200D008BDFCF7CAF899
:10408C00FBE700BF00100040FEE7000010B5394A06
:10409C00136823F00F0343F005031360136803F058
:1040AC000F03052B62D1344B1A6842F440421A605C
:1040BC001A6822F480321A60304A136843F4803351
:1040CC0013602E4B1B6813F4003FFAD02B4B5A682D
:1040DC002B4911402B4A0A435A605A6822F4403249
:1040EC005A605A6828491140284A0A435A601A688B
:1040FC0042F080721A60214B1B6813F0007FFAD0DB
:10410C001E4B9A6822F0F0029A609A6822F4E052F0
:10411C0042F4A0529A609A6822F4604242F400423F
:10412C009A609A6822F0030242F002029A60134BE2
:10413C009B6803F00C03082BF9D1154C2046FDF7B6
:10414C00F1FE144A136843F0040313602046FDF794
:10415C00F9FE0A4AD2F88C3023F08073C2F88C3006
:10416C000D4BDA68002283F8232010BD9F210B48E9
:10417C00FFF78AFF003C024000700040003802400C
:10418C000080BFFF042A40000080BFF0042A4007D3
:10419C00007A030A10E000E000ED00E0004800089F
:1041AC0000B583B0FCF71CF8FFF770FFFFF70AFDB2
:1041BC00FFF7FAFAFFF7CAFC00F0F6F900F094F8F2
:1041CC00FFF702FBFFF77EFBFFF721FCC0B28DF877
:1041DC0007009DF8073023B14FF0FF3003B05DF8B6
:1041EC0004FB00F0D3F8C0B28DF807009DF807303F
:1041FC00002BF1D1FEE7000008B5074B01221A7025
:10420C00FFF79AFA20B9044A137803F0FE031370EF
:10421C00014B187808BD00BF0800002010B50446FB
:10422C00074B01221A70FFF7B1FA10B1044B187842
:10423C0010BD2046FFF7E0FF014B1870F6E700BFFA
:10424C000800002008B5FFF7D7FF08BD08B50846E1
:10425C0011461A464FF0FF33FFF74EFA20B9FFF71D
:10426C006BFA0028FBD108BD0120FCE708B5084615
:10427C0011461A464FF0FF33FFF74EFA20B9FFF7FD
:10428C005BFA0028FBD108BD0120FCE7154B1B781D
:10429C0013F0010F21D110B588B0144603291ED894
:1042AC00DFE801F002050C13002008B010BD6846D1
:1042BC00FFF74CFA069B23600020F6E76846FFF7F1
:1042CC0045FA079B23800020EFE76846FFF73EFA8C
:1042DC00079B5B0A23600020E7E70320704704205C
:1042EC00E3E700BF0800002008B50748074B036050
:1042FC00002343608360C3600361436103238361D4
:10430C00FCF78AFD08BD00BF0C210020002C0140E9
:10431C0002681B4B9A4200D07047F0B587B000245E
:10432C00009403F586335A6C42F400625A645B6C59
:10433C0003F400630093009B4FF48853019302270E
:10434C0002970394032604960C25059501A90D48A4
:10435C00FBF7F0FF04230193029703940496059551
:10436C000DEB03010848FBF7E5FF224621463120FF
:10437C00FBF788FF3120FBF7B9FF07B0F0BD00BF9A
:10438C00002C014000080240000C024070B5ADF555
:10439C00025D88B0012220490DF583500430FEF7F0
:1043AC00FBFD20B100200DF5025D08B070BD02AE22
:1043BC001A4C94E8070086E807000A2231460DA83B
:1043CC00FEF71CFE05AB01931D460C3494E80F0060
:1043DC0007C52B800DF5025318330E2201990DA839
:1043EC00FFF700F80DA8FFF742F9112231460DA88E
:1043FC00FEF704FE0DF502531C330E2209A90DA87D
:10440C00FEF717FF0DA8FFF732F9002300E0013388
:10441C000D2BFCD9C6E700BF7000002078470008C0
:10442C0010B582B000240094214B5A6C42F48042A7
:10443C005A645A6C02F480420092009A01941A6CED
:10444C0042F080521A641B6C03F080530193019B61
:10445C000320FBF705FF224621466FF00B00FBF70C
:10446C0011FF224621466FF00A00FBF70BFF224694
:10447C0021466FF00900FBF705FF224621466FF03D
:10448C000400FBF7FFFE224621466FF00300FBF70A
:10449C00F9FE224621466FF00100FBF7F3FE22469F
:1044AC0021464FF0FF30FBF7EDFE02B010BD00BF10
:1044BC000038024010B588B0002201463620FBF7C8
:1044CC00E1FE3620FBF712FF00240194144B1A6C0A
:1044DC0042F010021A641B6C03F010030193019B51
:1044EC0002A903A8FCF72CF8FCF71AF843000D48B6
:1044FC00A0FB03239B0C013B0B480C4A026040F2CF
:10450C00E732C260436004618460FCF779FF10B14C
:10451C00012008B010BD0448FCF745FEF9E700BFC8
:10452C000038024083DE1B43902100200010004025
:10453C007047704708B5FBF7E6FE08BD08B50248A2
:10454C00FCF7F2FC08BD00BF0C21002008B50248A6
:10455C00FCF739FE08BD00BF902100200F49D1F8AF
:10456C00883043F47003C1F888300D4B1A6842F060
:10457C0001021A60002098601A6822F0847222F4FA
:10458C0080321A60074A5A601A6822F480221A6034
:10459C00D8604FF000638B60704700BF00ED00E007
:1045AC00003802401030002410B586B0134B5A6C02
:1045BC0042F001025A645B6C03F001030093009B10
:1045CC000023ADF804300293039304938DF8143058
:1045DC000B4C01A92046FDF741FCA36823F4804352
:1045EC0023F00703A360636823F070036360A36880
:1045FC0023F08003A36006B010BD00BF003802405A
:10460C0000000140DFF834D0002103E00C4B5B5874
:10461C00435004310B480C4B42189A42F6D30B4AC8
:10462C0002E0002342F8043B094B9A42F9D3FFF70E
:10463C0095FF00F011F8FFF7B3FD70470000032061
:10464C001848000800000020100000201000002076
:10465C00CC210020FEE7000070B50D4E0D4CA41BC4
:10466C00A4100025A54209D10B4E0C4C00F018F8F3
:10467C00A41BA4100025A54205D170BD56F8253009
:10468C0098470135EEE756F8253098470135F2E7A3
:10469C00104800081048000810480008144800088A
:1046AC00F8B500BFF8BC08BC9E467047F8B500BF13
:0846BC00F8BC08BC9E467047E3
:1046C4004355454141414143454545494949414196
:1046D4004592924F4F4F5555594F554F9C4F9E9F62
:1046E40041494F55A5A5A6A7A8A9AAABACADAEAFA5
:1046F400B0B1B2B3B4414141B8B9BABBBCBDBEBF9D
:10470400C0C1C2C3C4C54141C8C9CACBCCCDCECF38
:10471400D1D145454549494949D9DADBDCDD49DF91
:104724004FE14F4F4F4FE6E8E85555555959EEEFD5
:10473400F0F1F2F3F4F5F6F7F8F9FAFBFCFDFEFFFD
:104744000100020004000800100020000000000026
:1047540001000400100040000001000200000000FD
:1047640029420008514200085942000879420008D1
:10477400994200085752495445322E545854000067
:1047840048656C6C6F2C20776F726C6400000000BD
:1047940000000000000000000102030406070809ED
:1047A4000000000001020304222A2B2C3A3B3C3D6A
:1047B4003E3F5B5D7C7F0000EBFE904D53444F53C6
:1047C400352E30004E4F204E414D452020202046AE
:1047D40041543332202020004E4F204E414D45207D
:1047E4002020204641542020202020002E2E2F530C
:1047F40072632F666D632E63000000002E2E2F530C
:0C48040072632F6D61696E2E630000006E
:04481000D1010008CA
:04481400AD010008EA
:104818000100000010000000010000000024F40066
:040000050800461198
:00000001FF
