:020000040800F2
:1000000000000320EDC500083DC60008BDBF000884
:10001000BFBF0008C1BF0008C3BF00080000000048
:10002000000000000000000000000000C5BF000844
:10003000C7BF000800000000C9BF0008CBBF000810
:100040003DC600083DC600083DC600083DC6000884
:100050003DC600083DC600083DC600083DC6000874
:100060003DC600083DC600083DC600083DC6000864
:100070003DC600083DC600083DC600083DC6000854
:100080003DC600083DC600083DC600083DC6000844
:100090003DC600083DC600083DC600083DC6000834
:1000A0003DC600083DC600083DC600083DC6000824
:1000B0003DC600083DC60008D5BF00083DC6000883
:1000C0003DC600083DC600083DC600083DC6000804
:1000D0003DC600083DC600083DC600083DC60008F4
:1000E0003DC600083DC600083DC600083DC60008E4
:1000F0003DC600083DC600083DC600083DC60008D4
:100100003DC60008E9BF00083DC600083DC600081E
:100110003DC600083DC60008F9BF000809C0000838
:1001200019C0000829C000083DC6000839C00008F1
:100130003DC600083DC600083DC600083DC6000893
:100140003DC600083DC600083DC600083DC6000883
:100150003DC6000849C000083DC600083DC600086D
:1001600059C0000869C000083DC600083DC6000827
:100170003DC600083DC600083DC60008000000005E
:100180003DC600083DC600083DC600083DC6000843
:100190003DC600083DC600083DC600083DC6000833
:0C01A0003DC600083DC600083DC6000832
:1001AC0010B5054C237833B9044B13B10448AFF3A5
:1001BC0000800123237010BDD40200200000000039
:1001CC00C0A3010808B5034B1BB103490348AFF3A7
:1001DC00008008BD00000000D8020020C0A3010868
:1001EC0053B94AB9002908BF00281CBF4FF0FF3192
:1001FC004FF0FF3000F072B9ADF1080C6DE904CE90
:10020C0000F006F8DDF804E0DDE9022304B07047E5
:10021C002DE9F047089E04468846002B4BD18A42B4
:10022C00154667D9B2FA82F24AB1C2F1200701FA37
:10023C0002F320FA07F7954047EA030894404FEA87
:10024C00154E230CB8FBFEF71FFA85FC0EFB178826
:10025C0043EA084307FB0CF1994209D9EB1807F163
:10026C00FF3080F01B81994240F21881023F2B44F1
:10027C005B1AA4B2B3FBFEF00EFB103344EA03444A
:10028C0000FB0CFCA44509D92C1900F1FF3380F0BC
:10029C000781A44540F2048102382C4440EA07400F
:1002AC00A4EB0C0400271EB1D4400023C6E9004384
:1002BC003946BDE8F0878B4209D9002E00F0EB805F
:1002CC000027C6E9000138463946BDE8F087B3FA85
:1002DC0083F7002F47D18B4202D3824200F2FA807F
:1002EC00841A61EB030301209846002EE0D0C6E986
:1002FC000048DDE702B9FFDEB2FA82F2002A40F0D4
:10030C008F80491B4FEA154E1FFA85F80127B1FB68
:10031C00FEFC230C0EFB1C1143EA014308FB0CF101
:10032C00994207D9EB180CF1FF3002D2994200F236
:10033C00CD808446591AA3B2B1FBFEF00EFB10140B
:10034C0043EA044408FB00F8A04507D92C1900F136
:10035C00FF3302D2A04500F2B6801846A4EB080485
:10036C0040EA0C409FE7C7F1200CBB4022FA0CFE80
:10037C004EEA030E01FA07F420FA0CF521FA0CF3FD
:10038C004FEA1E482543B3FBF8F92C0C08FB193334
:10039C001FFA8EFA44EA034309FB0AF49C4202FA60
:1003AC0007F200FA07F10BD91EEB030309F1FF303A
:1003BC0080F087809C4240F28480A9F1020973444A
:1003CC001B1BADB2B3FBF8F008FB103345EA03443A
:1003DC0000FB0AFAA24508D91EEB040400F1FF3316
:1003EC006BD2A24569D90238744440EA0940A0FB9B
:1003FC000289A4EB0A044C45C2464B4654D351D057
:10040C00002E69D0B1EB0A0564EB030404FA0CFC72
:10041C00FD40FC404CEA0505C6E90054002747E7BF
:10042C00C2F1200320FA03F7954001FA02F021FAF9
:10043C0003F34FEA154E3843010CB3FBFEF71FFADA
:10044C0085F80EFB173341EA034107FB08F38B4297
:10045C0004FA02F407D9691807F1FF3C2FD28B423A
:10046C002DD9023F2944CB1A81B2B3FBFEF00EFB0F
:10047C00103341EA034100FB08F38B4207D969189A
:10048C0000F1FF3C17D28B4215D902382944C91A06
:10049C0040EA07473BE73746304609E70746E7E6B9
:1004AC001846FBE64145ABD2B8EB020A69EB0E02EB
:1004BC0001381346A4E76046E9E7184695E7674616
:1004CC00D1E781467CE702382C4447E7ACF1020CBB
:1004DC002B442FE7384608E73746E9E6704700BF5C
:1004EC0010F8012B11F8013B012A28BF9A42F7D0D2
:1004FC00D01A7047034613F8012B002AFBD1181AA7
:10050C000138704708B500F0F9FD08BD08B500F0DA
:10051C00D9FD08BD08B500F06FFDCA20FFF7F2FF4A
:10052C00C320FFF7F3FF0820FFF7F0FF5020FFF781
:10053C00EDFFCF20FFF7E6FF0020FFF7E7FFC1201C
:10054C00FFF7E4FF3020FFF7E1FFED20FFF7DAFFC4
:10055C006420FFF7DBFF0320FFF7D8FF1220FFF723
:10056C00D5FF8120FFF7D2FFE820FFF7CBFF8520D6
:10057C00FFF7CCFF0020FFF7C9FF7820FFF7C6FF7D
:10058C00CB20FFF7BFFF3920FFF7C0FF2C20FFF770
:10059C00BDFF0020FFF7BAFF3420FFF7B7FF0220A2
:1005AC00FFF7B4FFF720FFF7ADFF2020FFF7AEFFFA
:1005BC00EA20FFF7A7FF0020FFF7A8FF0020FFF7B6
:1005CC00A5FFB120FFF79EFF0020FFF79FFF1B2028
:1005DC00FFF79CFFB620FFF795FF0A20FFF796FF69
:1005EC00A220FFF793FFC020FFF78CFF1020FFF72E
:1005FC008DFFC120FFF786FF1020FFF787FFC52076
:10060C00FFF780FF4520FFF781FF1520FFF77EFFE6
:10061C00C720FFF777FF9020FFF778FF3620FFF712
:10062C0071FFC820FFF772FFF220FFF76BFF00206D
:10063C00FFF76CFFB020FFF765FFC220FFF766FFE6
:10064C00B620FFF75FFF0A20FFF760FFA720FFF738
:10065C005DFF2720FFF75AFF0420FFF757FF2A20E2
:10066C00FFF750FF0020FFF751FF0020FFF74EFF70
:10067C000020FFF74BFFEF20FFF748FF2B20FFF781
:10068C0041FF0020FFF742FF0020FFF73FFF012052
:10069C00FFF73CFF3F20FFF739FFF620FFF732FF53
:1006AC000120FFF733FF0020FFF730FF0620FFF794
:1006BC002DFF2C20FFF726FFC82000F03BFD262045
:1006CC00FFF720FF0120FFF721FFE020FFF71AFFC3
:1006DC000F20FFF71BFF2920FFF718FF2420FFF73F
:1006EC0015FF0C20FFF712FF0E20FFF70FFF09205C
:1006FC00FFF70CFF4E20FFF709FF7820FFF706FFEE
:10070C003C20FFF703FF0920FFF700FF1320FFF742
:10071C00FDFE0520FFF7FAFE1720FFF7F7FE11206C
:10072C00FFF7F4FE0020FFF7F1FEE120FFF7EAFEF1
:10073C000020FFF7EBFE1620FFF7E8FE1B20FFF76B
:10074C00E5FE0420FFF7E2FE1120FFF7DFFE072095
:10075C00FFF7DCFE3120FFF7D9FE3320FFF7D6FE82
:10076C004220FFF7D3FE0520FFF7D0FE0C20FFF749
:10077C00CDFE0A20FFF7CAFE2820FFF7C7FE2F2068
:10078C00FFF7C4FE0F20FFF7C1FE1120FFF7BAFEE2
:10079C00C82000F0CFFC2920FFF7B4FE2C20FFF777
:1007AC00B1FE08BD0023012B06D8054AD25C82425B
:1007BC0003D00133DBB2F6E7FF231846704700BFC6
:1007CC00F002002008B52AB9CAB21121C0B200F05B
:1007DC00BDFC08BDCAB21021C0B200F0B7FCF8E7EE
:1007EC0010B5C4B202220321204600F0AFFC0A204F
:1007FC0000F0B8FC00220321204600F0A7FC0220E8
:10080C0000F0B0FC10BD000010B50446FFF7CAFFA5
:10081C00FF2800D010BD0020FFF7C4FF0128F9D835
:10082C00034B1C5400F08AFC2046FFF7D9FFF1E77C
:10083C00F002002038B5044600F080FCE4B2002140
:10084C00204600F087FC05020121204600F082FCC6
:10085C0000B2284380B238BD10B50C461221C0B28C
:10086C0000F078FCE4B2204010BD10B50C460D2110
:10087C00C0B200F06FFCE4B2204010BD10B5C4B2A1
:10088C004021204600F066FC10F0800F0CD10122B4
:10089C004B21204600F05AFC00224B21204600F050
:1008AC0055FC0023184610BD4C21204600F052FC8C
:1008BC0003460028F6D00123F4E770B582B00E464B
:1008CC001546C4B204230DEB0302D721204600F0D9
:1008DC0045FC9DF804209DF805301B0443EA026397
:1008EC009DF8062043EA02239DF8072013431A0DB6
:1008FC003280C3F30B232B8001224B21204600F0C6
:10090C0025FC00224B21204600F020FC02B070BDDB
:10091C0010B5C4B20921204600F01CFC40F00102C5
:10092C00D2B20921204600F011FC10BD10B5C4B2A2
:10093C000921204600F00EFC00F0FE0209212046A1
:10094C0000F004FC10BD38B50C46C5B20A2128468F
:10095C0000F000FC40EA0402D2B20A21284600F062
:10096C00F5FB38BD10B5044600F0ECFB80212046A9
:10097C00FFF7E9FF2046FFF7CBFF10BD10B504468B
:10098C0000F0E0FB1F212046FFF7DDFF2046FFF7BC
:10099C00BFFF10BD38B50C46C5B20A21284600F081
:1009AC00D9FB20EA0402D2B20A21284600F0CEFB81
:1009BC0038BD10B50446FFF7B9FF80212046FFF77C
:1009CC00E9FF10BD10B50446FFF7B0FF1F2120460C
:1009DC00FFF7E0FF10BD38B50D46C4B20921204623
:1009EC0000F0B8FB00F0FB022A430921204600F07E
:1009FC00ADFB38BD38B50D46C4B20921204600F018
:100A0C00A9FB00F0FD022A430921204600F09EFBC1
:100A1C0038BD10B50C460B21C0B200F09BFB20403A
:100A2C0010BD08B51F21FFF7F4FF08BD08B50A4635
:100A3C000B21C0B200F08AFB08BD38B504460D4648
:100A4C008021FFF7F3FFE4B2EDB22A460D212046D8
:100A5C0000F07CFB2A461421204600F077FB2A4646
:100A6C001521204600F072FB2A461621204600F084
:100A7C006DFB38BD08B51F21FFF7D8FF08BD70B559
:100A8C000C461646C5B21321284600F063FB3EB94E
:100A9C0020EA0402D2B21321284600F057FB70BDA5
:100AAC00E2B20243D2B2F6E738B50C46C5B2172112
:100ABC00284600F04FFBE4B20443E2B2172128466B
:100ACC0000F044FB38BD70B504460E46C5B2042197
:100ADC00284600F03FFB00F0FA020421284600F003
:100AEC0035FBF1B22046FFF7DFFF70BD38B50C4681
:100AFC00C5B21721284600F02DFB20EA0402D2B221
:100B0C001721284600F022FB38BD70B50646C4B24A
:100B1C000421204600F01EFB054600F0FB020421D8
:100B2C00204600F013FBF0213046FFF7DFFF05F005
:100B3C00F8020421204600F009FB4922202120461E
:100B4C0000F004FB022000F00DFB012221212046C5
:100B5C0000F0FCFA9A224121204600F0F7FA01221B
:100B6C004A21204600F0F2FA01224B21204600F0E7
:100B7C00EDFA00224B21204600F0E8FA0122562122
:100B8C00204600F0E3FA01225821204600F0DEFA5C
:100B9C0001224021204600F0D9FAFF220B212046E9
:100BAC0000F0D4FA022000F0DDFA70BD2DE9F0411E
:100BBC000E461746C5B21621284600F0CBFA8046E1
:100BCC001521284600F0C6FAF44364B204EA080280
:100BDC00D2B20440E4B217F0010F01D0F3B21A43C1
:100BEC0017F0020F01D0F6B234431621284600F05C
:100BFC00ADFA22461521284600F0A8FABDE8F0818E
:100C0C0038B50C46C5B20C21284600F0A3FAE4B264
:100C1C000443E2B20C21284600F098FA38BD38B5EE
:100C2C0004460D46052A64D8DFE802F003080D23BC
:100C3C00394E0022FFF723FF002038BD0122FFF7B9
:100C4C001EFF0020F9E7FFF78DFE29462046FFF72F
:100C5C00D7FF002229462046FFF711FF022120462C
:100C6C00FFF7C8FE022229462046FFF79FFF00200F
:100C7C00E3E7FFF777FE29462046FFF7C1FF002286
:100C8C0029462046FFF7FBFE02212046FFF7B2FE65
:100C9C00012229462046FFF789FF0020CDE7FFF708
:100CAC0061FE29462046FFF7ABFF0022294620466D
:100CBC00FFF7E5FE00212046FFF79CFE00212046B1
:100CCC00FFF789FE0020B8E7FFF74CFE29462046C7
:100CDC00FFF796FF002229462046FFF7D0FE0021A1
:100CEC002046FFF787FE04212046FFF774FE002004
:100CFC00A3E71046A1E7000000B589B000210191DF
:100D0C00124B5A6C42F480125A645A6C02F48012E0
:100D1C000192019A02911A6B42F020021A631B6B2A
:100D2C0003F020030293029B4FF46073039302239E
:100D3C0004930593012306930523079303A9044801
:100D4C0002F05CF909B05DF804FB00BF003802400A
:100D5C000014024002682A4B9A4200D0704730B50A
:100D6C0089B000250095274C236B43F004032363C3
:100D7C00236B03F004030093009B0195236B43F05A
:100D8C0001032363236B03F001030193019B4FF4D5
:100D9C008073039312230493059502230693042373
:100DAC00079303A9184802F029F94FF40073039331
:100DBC0003A9164802F022F90295236C43F40003B0
:100DCC002364236C03F400030293029B236A43F411
:100DDC0000032362236A23F4000323622A460F21B3
:100DEC00482000F043FE482000F074FE2A460F21F4
:100DFC00492000F03BFE492000F06CFE09B030BDEC
:100E0C00005C004000380240000002400008024034
:100E1C0010B586B0002400940F4B1A6B42F00102FF
:100E2C001A631B6B03F001030093009B4FF4004308
:100E3C000193012303930494084B029301A90848DE
:100E4C0002F0DCF822460F21282000F00FFE2820AB
:100E5C0000F040FE06B010BD00380240000021102A
:100E6C000000024010B50D4803F089FD00B110BD23
:100E7C000A4C0B4B23600B4B63600023A360E360B5
:100E8C004FF4804222616361A361E36123622046D7
:100E9C00FFF760FF204602F0B3FDE8E7F0530220B5
:100EAC00005C0040A086010010B5104805F020FD44
:100EBC0000B110BD0D4C0E4B23601823E3610023D1
:100ECC00A36063612361A3620722E262E360236291
:100EDC004FF40072A26163624FF482736360204628
:100EEC00FFF70AFF204605F0DAFBE2E7F4020020E8
:100EFC000050014008B5034805F011FCFFF7D4FF82
:100F0C0008BD00BFF402002000B583B002A921F88F
:100F1C00020D064B1B680122054805F016FC10B9A2
:100F2C0003B05DF804FBFFF7E5FFF9E75400002080
:100F3C00F402002010B5064C204602F0EFFDFFF73E
:100F4C0091FF2268536843F48073536010BD00BF57
:100F5C00F053022010B586B006AC04F8012D084BF6
:100F6C001B6902930123019300940A46014605482C
:100F7C0002F0EEFD08B906B010BDFFF7DBFFFAE793
:100F8C0054000020F053022000B587B006AA0023BD
:100F9C0002F8013D094B1B69029301230193009256
:100FAC000A460146064802F091FE20B99DF817004A
:100FBC0007B05DF804FBFFF7BDFFF7E75400002016
:100FCC00F053022010B584B0094C246902940193AB
:100FDC00009201230A460146064802F077FE10B93A
:100FEC00002004B010BDFFF7A5FF0120F9E700BFFA
:100FFC0054000020F05302202F4B93F8583003B1CB
:10100C0070472DE9F04188B001262B4B83F85860CE
:10101C0000250095294C236B43F008032363236BB5
:10102C0003F008030093009B4FF4005303930496C2
:10103C0005954FF00208CDF81880214F03A93846CA
:10104C0001F0DCFF0195236B43F008032363236B52
:10105C0003F008030193019B4FF480530393049610
:10106C000595CDF8188003A9384601F0C7FF029505
:10107C00236B43F004032363236B03F004030293F9
:10108C00029B0427039704960595CDF81880A4F5C8
:10109C00405403A9204601F0B1FF2A4639462046A8
:1010AC0002F03AF932463946204602F035F9FFF79C
:1010BC00FBFE08B0BDE8F081F402002000380240CD
:1010CC00000C024038B5054601224FF40051094886
:1010DC0002F022F9084C00220421204602F01CF9EF
:1010EC002846FFF711FF01220421204602F014F9D3
:1010FC0038BD00BF000C02400008024038B5054660
:10110C0000224FF40051094802F006F9084C002265
:10111C000421204602F000F92846FFF7F5FE0122D3
:10112C000421204602F0F8F838BD00BF000C024044
:10113C000008024008B500F001FA08BD08B5FFF739
:10114C0091FE08BD08B5FFF763FE08BD08B5FFF7B3
:10115C0001FF08BD08B5FFF717FF08BD08B5FFF77D
:10116C0031FF08BD08B500F0E9F908BD2DE9F047DD
:10117C0082B082464FF00008CDF80480214C012645
:10118C00266008276760A660C4F80C8004F110057F
:10119C004FF6FF722146284605F0F1F9304600F073
:1011AC00CDF9022323606760A660C4F80C804FF66B
:1011BC00FF722146284605F0E2F90323236067609D
:1011CC004FF00409C4F80890C4F80C804FF6FF7275
:1011DC002146284605F0D3F94FF40C730193C4F85B
:1011EC0000906760A660019BE3604FF6FF7221469A
:1011FC00284605F0C4F95146284605F0DDF902B041
:10120C00BDE8F08750030020002800F08E8030B538
:10121C008FB000240194454B9A6B42F001029A6303
:10122C009A6B02F001020192019A02941A6B42F439
:10123C0080021A631A6B02F480020292029A0394DF
:10124C001A6B42F002021A631A6B02F0020203924A
:10125C00039A04941A6B42F004021A631A6B02F09C
:10126C0004020492049A05941A6B42F008021A6361
:10127C001A6B02F008020592059A06941A6B42F05A
:10128C0010021A631A6B02F010020692069A079467
:10129C001A6B42F020021A631A6B02F020020792BA
:1012AC00079A08941A6B42F040021A631B6B03F006
:1012BC0040030893089B02230A930C930B940C2372
:1012CC000D930EAD602345F8143D2946184801F0E6
:1012DC0095FE012309932946164801F08FFE4CF226
:1012EC00037309932946144801F088FE4FF6837363
:1012FC0009932946114801F081FE4FF63F030993EB
:10130C0029460F4801F07AFE48F233130993294617
:10131C000C4801F073FE22460F21382000F0A6FB8A
:10132C00382000F0D7FB0FB030BD704700380240BA
:10133C000004024000080240000C02400010024071
:10134C00001402400018024038B51D4C1D4B23619F
:10135C00022363640721A1640422E26421656365AE
:10136C00A365E365012363610021A161E2611023A0
:10137C002362402363624FF4C073A362E1624FF4B3
:10138C000063236361634FF40053A36304F11005FE
:10139C002846FFF739FF04F14401284605F0D0F840
:1013AC0048B9094B00221A7040F26A50FFF7DEFE72
:1013BC00054B187838BD044B01221A70F4E700BFB6
:1013CC0050030020400100A06800002010B50C4B19
:1013DC00188059800B4B5B688220984740F61103AC
:1013EC0098420BD1064C074B63601B6882209847D0
:1013FC006368DB6882209847002010BD0120FCE761
:10140C00100400202C00002030B583B00446324B71
:10141C005B681B698220984780B2208000284AD0E4
:10142C002D4B5B685B6901AA0DF106018220984780
:10143C00BDF80430A3F5B4739BB2284AA2FB032376
:10144C00DB0805D0244A52889A4201D2531E9BB223
:10145C00BDF8062040F6B8318A422ED8C2F571622A
:10146C000E32ADF80620BDF806201D49A1FB021274
:10147C00D20805D018490988914201D24A1E92B26D
:10148C001046154989688A421DD989B2521A92B2FE
:10149C001D461149C9688B4219D989B25B1A9BB296
:1014AC001A44052A02DD0C4B9860DD600A4B9A68E1
:1014BC006280DB68A38003B030BDC2F56D62083278
:1014CC00ADF80620CFE789B28A1A92B2E0E789B26A
:1014DC00CB1A9BB2E4E700BF10040020A38B2EBAFA
:1014EC008988888808B50B4B1A6842F400721A6018
:1014FC001A6842F480621A601A6842F480721A60A8
:10150C00032000F0A1FA00200AF014FD0AF0C8FC38
:10151C00002008BD003C0240034A1168034B1B78B5
:10152C000B441360704700BF483102206C00002050
:10153C00014B1868704700BF4831022038B504468B
:10154C00FFF7F6FF0546B4F1FF3F02D0044B1B78C2
:10155C001C44FFF7EDFF401BA042FAD338BD00BF7F
:10156C006C000020494B5A6822F440325A605A6889
:10157C0041680A435A600268536823F480735360CD
:10158C0002685368016943EA012353600268536897
:10159C0023F0407353600268536881680B435360B7
:1015AC000268936823F40063936002689368C168CF
:1015BC000B439360826A364B9A4249D00268936817
:1015CC0023F07063936002689368816A0B439360A5
:1015DC000268936823F04053936002689368C16A71
:1015EC000B4393600268936823F0020393600268D4
:1015FC009368816943EA41039360036A002B32D1FB
:10160C000268536823F4006353600268D36A23F4BE
:10161C007003D3620168CB6AC269013A43EA025390
:10162C00CB620268936823F400739360026893683A
:10163C00016B43EA412393600268936823F480634F
:10164C00936002689368416943EA81239360704711
:10165C000268936823F0706393600268936823F0C8
:10166C0040539360BEE70268536843F400635360D1
:10167C000268536823F46043536001684B68426A04
:10168C00013A43EA42334B60BFE700BF00230140FD
:10169C000100000F30B310B50446036C43B1236C4A
:1016AC0013F0100F0AD00120002384F83C3010BD39
:1016BC00436480F83C3008F011FFF0E7236C23F40E
:1016CC00885323F0020343F0020323642046FFF700
:1016DC0049FF00206064236C23F0030343F00103F3
:1016EC002364E1E70120704730B583B000230193F8
:1016FC0090F83C30012B00F08180012380F83C30C5
:10170C000468A36813F0010F13D1A36843F001031D
:10171C00A3603F4B1C683F4BA3FB0434A40C04EBAD
:10172C004404019402E0019C013C0194019C002CB6
:10173C00F9D103689C6814F0010F61D0046C24F497
:10174C00E06424F0010444F4807404645B6813F4D2
:10175C00806F05D0036C23F4405343F4805303642F
:10176C00036C13F4805F36D0436C23F006034364A0
:10177C0013460446002280F83C20826B2648D06336
:10178C00A26B26481064A26B2548D06422686FF0C7
:10179C00220010602568686840F0806068602568E9
:1017AC00A86840F48070A86020680A4600F14C01DB
:1017BC00A06B00F0C5FA1B4B5B6813F01F0F0DD12B
:1017CC0023689A6812F0405F1DD19A6842F08042FB
:1017DC009A60002015E000234364C9E72368124A8D
:1017EC00934201D000200CE09A6812F0405F0CD1BB
:1017FC009A6842F080429A60002002E0022000E0E9
:10180C00002003B030BD0020FBE70020F9E700BF4B
:10181C008400002083DE1B433B1800089F1800083F
:10182C00AB1800080023014000200140704708B5A8
:10183C00836B1A6C12F0500F03D09B6BDB6C9847C8
:10184C0008BD1A6C42F400721A641A68916811F09F
:10185C00405F19D19969B9B9D16A11F4700F03D0ED
:10186C00916811F4806F0FD1516821F02001516003
:10187C001A6C22F480721A641A6C12F4805F03D111
:10188C001A6C42F001021A641846FFF7CFFFD7E733
:10189C00704708B5806BFFF7FBFF08BD704708B5B4
:1018AC00806B40230364436C43F004034364FFF7F1
:1018BC00F5FF08BD30B482B00023019390F83C30A2
:1018CC00012B00F0B580012380F83C300B68092B0C
:1018DC003ED90568EA689BB203EB43031E3B072421
:1018EC0004FA03F322EA0303EB600568EA688C68E8
:1018FC000B8803EB43031E3B04FA03F31343EB6027
:10190C004B68062B3AD805686A6B03EB8303053BDF
:10191C001F2404FA03F322EA03036B6305686A6B62
:10192C004B6803EB8303053B0C8804FA03F3134366
:10193C006B6302683F4B9A4250D002683D4B9A420F
:10194C0055D0002380F83C30184602B030BC7047AC
:10195C0005682A699BB203EB4303072404FA03F3DB
:10196C0022EA03032B6105682A698C680B8803EB58
:10197C00430304FA03F313432B61C1E70C2B16D872
:10198C0005682A6B03EB8303233B1F2404FA03F340
:10199C0022EA03032B6305682A6B4B6803EB830372
:1019AC00233B0C8804FA03F313432B63C1E705684C
:1019BC00EA6A03EB8303413B1F2404FA03F322EA94
:1019CC000303EB620568EA6A4B6803EB8303413B54
:1019DC000C8804FA03F31343EB62AAE70B68122B8F
:1019EC00ABD1154A536843F480035360A5E70B68E9
:1019FC00124A934201D0112BA3D10F4A536843F4DE
:101A0C00000353600A680D4B9A429AD10C4B1B6829
:101A1C000C4AA2FB03239B0C03EB83035A00019299
:101A2C0002E0019B013B0193019B002BF9D188E75C
:101A3C0002208AE700200140002301401200001020
:101A4C008400002083DE1B43074AD36823F4E06341
:101A5C001B041B0C000200F4E060184340F0BF6054
:101A6C0040F40030D060704700ED00E030B4174B0C
:101A7C00DB68C3F30223C3F10704042C28BF04243E
:101A8C001D1D062D18D9033B4FF0FF3505FA04F444
:101A9C0021EA0401994005FA03F322EA03031943EE
:101AAC0000280BDB0901C9B200F1604000F5614070
:101ABC0080F8001330BC70470023E5E700F00F00FE
:101ACC000901C9B2024B1954F4E700BF00ED00E064
:101ADC0014ED00E000F01F02400901239340024A7C
:101AEC0042F82030704700BF00E100E000F01F0218
:101AFC004009012393402030014A42F820307047BE
:101B0C0000E100E00138B0F1807F0AD2064B58604A
:101B1C00064AF02182F823100020986007221A60F0
:101B2C0070470120704700BF10E000E000ED00E0BE
:101B3C00042805D0054A136823F00403136070478A
:101B4C00024A136843F004031360704710E000E08E
:101B5C00704708B5FFF7FCFF08BD68B110B5044627
:101B6C0043792BB10223637101236371002010BDF3
:101B7C00037108F063FDF5E70120704730B4056888
:101B8C002C6824F480242C60046863608368402BE8
:101B9C0005D0036899600368DA6030BC704703684D
:101BAC009A600368D960F8E70268D3B2103B0B491E
:101BBC00A1FB03131B090A49C95CC165032B06D899
:101BCC0022F47F7222F003028265806D704722F44A
:101BDC007F7222F0030204328265F6E7ABAAAAAA4E
:101BEC00D8A30108836A826992B9012B0AD01BB170
:101BFC00022B01D000207047C36A13F0807F2CD1D8
:101C0C0000207047C36AB3F1C07F28D00020704712
:101C1C00B2F5005F05D0022B29D9032B15D000207B
:101C2C007047032B03D8DFE803F01C041C0A0020C8
:101C3C007047C36A13F0807F15D100207047C36AC8
:101C4C00B3F1C07F11D000207047C36A13F0807FBE
:101C5C0001D00120704700207047012070470120FF
:101C6C007047012070470120704701207047012008
:101C7C007047000070B50446FFF75AFC002C5BD08F
:101C8C000546002384F83430022384F8353022686A
:101C9C00136823F00103136023681A6812F0010F14
:101CAC000AD0FFF745FC401B0528F5D920236365B6
:101CBC00032084F8350070BD1A6820481040616814
:101CCC00A2680A43E1680A4321690A4361690A432D
:101CDC00A1690A43E1690A43216A0A430243616A22
:101CEC0004291ED01A602668756925F00705636AF9
:101CFC001D43042B07D1A36A1D43E36A1BB1204685
:101D0C00FFF770FF90B975612046FFF74DFFE26D4C
:101D1C003F239340836000206065012384F83530B5
:101D2C00C9E7E16A206B01430A43DBE740236365A3
:101D3C00012084F83500BEE70120BCE73F8010F09D
:101D4C0038B5856D90F83440012C31D0012480F8E1
:101D5C00344090F83540E4B2012C04D0002380F8D4
:101D6C003430022038BD0446022084F835000020AF
:101D7C0060652046FFF702FFE26D3F239340AB60A6
:101D8C002268136843F0160313602268536943F00A
:101D9C0080035361236C23B12268136843F008035A
:101DAC0013602268136843F0010313600020D9E725
:101DBC000220D7E790F83530DBB2022B03D080231A
:101DCC00436501207047052380F83530026813689D
:101DDC0023F001031360002070470000F0B583B0BE
:101DEC00044600230193724B1D68724BA3FB05350F
:101DFC00AD0A876D3E68C26D08239340334210D004
:101E0C0003681A6812F0040F0BD01A6822F004024F
:101E1C001A60C26D08239340BB60436D43F001030D
:101E2C004365E26D01239340334209D02268526925
:101E3C0012F0800F04D0BB60636D43F00203636546
:101E4C00E26D04239340334209D02268126812F0E9
:101E5C00020F04D0BB60636D43F004036365E26D55
:101E6C0010239340334224D02268126812F0080FDA
:101E7C001FD0BB6023681A6812F4802F0DD01B682A
:101E8C0013F4002F04D1236C9BB12046984710E02B
:101E9C00A36C73B1204698470BE01A6812F4807F4C
:101EAC0003D11A6822F008021A60236C0BB1204689
:101EBC009847E26D20239340334255D02268126834
:101ECC0012F0100F50D0BB6094F83530DBB2052BFC
:101EDC000ED023681A6812F4802F33D01B6813F4C9
:101EEC00002F2AD1636C002B3ED0204698473BE054
:101EFC002268136823F0160313602268536923F0D9
:101F0C0080035361236CA3B12268136823F0080388
:101F1C001360E26D3F239340BB60002384F83430A0
:101F2C00012384F83530236D002B3FD02046984791
:101F3C003CE0A36C002BE7D1EBE7E36BA3B12046AD
:101F4C00984711E01A6812F4807F09D11A6822F0C0
:101F5C0010021A60002384F83430012384F83530E1
:101F6C00E36B0BB120469847636DFBB1636D13F0C7
:101F7C00010F17D0052384F835302268136823F03D
:101F8C0001031360019B01330193AB4204D8236816
:101F9C001B6813F0010FF5D1002384F834300123B2
:101FAC0084F83530E36C0BB12046984703B0F0BD94
:101FBC0084000020B5814E1B48B310B5044690F840
:101FCC003930FBB1022384F839302268136823F4CA
:101FDC00403361680B4313602268536B23F0070393
:101FEC00A1680B4353632268136C23F47F5323F0D3
:101FFC003F03E1680B4313640020E063012384F882
:10200C00393010BD80F8383008F088FBDAE7012051
:10201C007047000090F83830012B5BD030B40123AE
:10202C0080F83830022380F8393000EB0113DB697B
:10203C00A3F10902012A21D98A1C120184188258A1
:10204C0043EA0243626843EA026359BB0468656A67
:10205C00214A2A4013436362026800EB01139C6916
:10206C009461DB69093B012B13D9012380F83930CA
:10207C00002380F83830184630BC70478A1C120197
:10208C008418825843EA0243626802F07F42134389
:10209C00DBE7023100EB01114B68026823F07F4350
:1020AC009362E2E70468E5690B4A2A401343E36153
:1020BC00026800EB01139C691461DB69093B012B7D
:1020CC00D3D8023100EB01114B68026823F07F4337
:1020DC001362CAE702207047F0FFFC0010B40468DA
:1020EC0063608368402B06D0036899600368DA60EC
:1020FC005DF8044B704703689A600368D960F7E792
:10210C0038B58468802C17D0C46BD4B1446CC4B17E
:10211C00C46CB4B190F83440012C00F061870124F8
:10212C0080F8344090F83540E4B2012C0DD00023F7
:10213C0080F83430022007E04FF4807343650120AF
:10214C0002E040234365012038BD0446022084F898
:10215C003500002060652568286840F480202860E0
:10216C0020680361049B2046FFF7B8FF2368C64A2A
:10217C00934240F29880A2F58962934231D002F5E5
:10218C008062934274D0A2F56872934272D002F5C9
:10219C008062934270D0A2F5896293426ED002F5B0
:1021AC00806293426DD0A2F5687293426CD002F5B6
:1021BC00806293426BD0A2F5896293426AD002F599
:1021CC008062934269D0A2F56872934268D002F59E
:1021DC008062934202D04FF0006203E04FF4001291
:1021EC0000E02022A94BDA602368A74A934240F210
:1021FC00CE81A2F58962934200F0678102F580627C
:10220C00934200F0A981A2F56872934200F0A68176
:10221C0002F58062934200F0A381A2F58962934299
:10222C0000F0A08102F58062934200F09E81A2F53D
:10223C006872934200F09C8102F58062934200F038
:10224C009A81A2F58962934200F0988102F580622E
:10225C00934200F09681A2F56872934200F094814B
:10226C0002F58062934200F02D814FF080622DE1E7
:10227C002022B7E72022B5E72022B3E74FF4006213
:10228C00B0E74FF40062ADE74FF40062AAE74FF4F9
:10229C000062A7E74FF40012A4E74FF40012A1E785
:1022AC004FF400129EE77A4A934253D9A83A9342CC
:1022BC0031D002F58062934231D0A2F5687293421C
:1022CC002FD002F5806293422DD0A2F58962934201
:1022DC002BD002F5806293422AD0A2F56872934209
:1022EC0029D002F58062934228D0A2F589629342EC
:1022FC0027D002F58062934226D0A2F568729342F1
:10230C0025D002F58062934202D04FF0006303E0C7
:10231C004FF4001300E020235C4A936064E7202311
:10232C00FAE72023F8E72023F6E74FF40063F3E7FE
:10233C004FF40063F0E74FF40063EDE74FF40063F4
:10234C00EAE74FF40013E7E74FF40013E4E74FF428
:10235C000013E1E74F4A934253D9483A93422ED0A7
:10236C0002F5806293422ED0A2F5687293422CD073
:10237C0002F5806293422AD0A2F58962934228D05A
:10238C0002F58062934227D0A2F56872934226D060
:10239C0002F58062934225D0A2F58962934224D043
:1023AC0002F58062934223D0A2F56872934222D048
:1023BC0002F58062934221D14FF4001300E02023F8
:1023CC00354AD36010E72023FAE72023F8E72023CF
:1023DC00F6E74FF40063F3E74FF40063F0E74FF4D4
:1023EC000063EDE74FF40063EAE74FF40013E7E70F
:1023FC004FF40013E4E74FF40013E1E74FF00063F0
:10240C00DEE7264A93422ED002F5806293422ED00C
:10241C00A2F5687293422CD002F5806293422AD0C6
:10242C00A2F58962934228D002F58062934227D0AC
:10243C00A2F56872934233D002F58062934232D097
:10244C00A2F58962934231D002F58062934230D07A
:10245C00A2F5687293422FD002F5806293422ED17E
:10246C004FF4001300E020230B4A9360BCE62023BA
:10247C00FAE72023F8E72023F6E74FF40063F3E7AD
:10248C004FF40063F0E700BF586402400064024060
:10249C00B860024058600240006002401060024088
:1024AC004FF40063E0E74FF40063DDE74FF40013F3
:1024BC00DAE74FF40013D7E74FF40013D4E74FF0EB
:1024CC000063D1E74FF4801200E01022B24BDA60C7
:1024DC002368B24A934240F2CD81A2F589629342BD
:1024EC0000F0668102F58062934200F0A881A2F5AB
:1024FC006872934200F0A58102F58062934200F06D
:10250C00A281A2F58962934200F09F8102F580625C
:10251C00934200F09D81A2F56872934200F09B817A
:10252C0002F58062934200F09981A2F58962934290
:10253C0000F0978102F58062934200F09581A2F53C
:10254C006872934200F0938102F58062934200F02E
:10255C0020814FF000722CE11022B7E71022B5E772
:10256C001022B3E74FF48062B0E74FF48062ADE71E
:10257C004FF48062AAE74FF48062A7E74FF4801211
:10258C00A4E74FF48012A1E74FF480129EE7844A2F
:10259C00934253D9A83A934231D002F580629342C8
:1025AC0031D0A2F5687293422FD002F5806293422B
:1025BC002DD0A2F5896293422BD002F58062934212
:1025CC002AD0A2F56872934229D002F58062934218
:1025DC0028D0A2F58962934227D002F580629342FB
:1025EC0026D0A2F56872934225D002F58062934200
:1025FC0002D04FF0806303E04FF4801300E010230F
:10260C00654A936064E71023FAE71023F8E7102378
:10261C00F6E74FF48063F3E74FF48063F0E74FF491
:10262C008063EDE74FF48063EAE74FF48013E7E74C
:10263C004FF48013E4E74FF48013E1E7594A9342D7
:10264C0053D9483A93422ED002F5806293422ED051
:10265C00A2F5687293422CD002F5806293422AD084
:10266C00A2F58962934228D002F58062934227D06A
:10267C00A2F56872934226D002F58062934225D06F
:10268C00A2F58962934224D002F58062934223D052
:10269C00A2F56872934222D002F58062934221D156
:1026AC004FF4801300E010233F4AD36010E710234F
:1026BC00FAE71023F8E71023F6E74FF48063F3E70B
:1026CC004FF48063F0E74FF48063EDE74FF48063E1
:1026DC00EAE74FF48013E7E74FF48013E4E74FF495
:1026EC008013E1E74FF08063DEE7304A93422ED04F
:1026FC0002F5806293422ED0A2F5687293422CD0E0
:10270C0002F5806293422AD0A2F58962934228D0C6
:10271C0002F58062934227D0A2F56872934226D0CC
:10272C0002F58062934225D0A2F58962934224D0AF
:10273C0002F58062934223D0A2F56872934222D0B4
:10274C0002F58062934221D14FF4801300E01023F4
:10275C00154A9360BCE61023FAE71023F8E7102320
:10276C00F6E74FF48063F3E74FF48063F0E74FF440
:10277C008063EDE74FF48063EAE74FF48013E7E7FB
:10278C004FF48013E4E74FF48013E1E74FF08063DC
:10279C00DEE74FF400220CE0006402405864024073
:1027AC00B860024058600240006002401060024075
:1027BC000822B34BDA602368B24A934240F2CE81CE
:1027CC00A2F58962934200F0678102F58062934220
:1027DC0000F0A981A2F56872934200F0A68102F57F
:1027EC008062934200F0A381A2F58962934200F0CB
:1027FC00A08102F58062934200F09E81A2F568727E
:10280C00934200F09C8102F58062934200F09A8121
:10281C00A2F58962934200F0988102F5806293429E
:10282C0000F09681A2F56872934200F0948102F553
:10283C008062934200F020814FF080722DE10822DB
:10284C00B7E70822B5E70822B3E74FF40072B0E708
:10285C004FF40072ADE74FF40072AAE74FF4007228
:10286C00A7E74FF40022A4E74FF40022A1E74FF4AE
:10287C0000229EE7844A934253D9A83A934231D01E
:10288C0002F58062934231D0A2F5687293422FD048
:10289C0002F5806293422DD0A2F5896293422BD02F
:1028AC0002F5806293422AD0A2F56872934229D035
:1028BC0002F58062934228D0A2F58962934227D018
:1028CC0002F58062934226D0A2F56872934225D01D
:1028DC0002F58062934202D04FF0007303E04FF494
:1028EC00002300E00823664A936064E70823FAE7B4
:1028FC000823F8E70823F6E74FF40073F3E74FF4E7
:10290C000073F0E74FF40073EDE74FF40073EAE760
:10291C004FF40023E7E74FF40023E4E74FF40023E0
:10292C00E1E75A4A934253D9483A93422ED002F5E2
:10293C00806293422ED0A2F5687293422CD002F59D
:10294C00806293422AD0A2F58962934228D002F584
:10295C008062934227D0A2F56872934226D002F58A
:10296C008062934225D0A2F58962934224D002F56D
:10297C008062934223D0A2F56872934222D002F572
:10298C008062934221D14FF4002300E00823404A97
:10299C00D36010E70823FAE70823F8E70823F6E7E3
:1029AC004FF40073F3E74FF40073F0E74FF4007348
:1029BC00EDE74FF40073EAE74FF40023E7E74FF439
:1029CC000023E4E74FF40023E1E74FF00073DEE768
:1029DC00304A93422ED002F5806293422ED0A2F55B
:1029EC00687293422CD002F5806293422AD0A2F5F1
:1029FC008962934228D002F58062934227D0A2F5D7
:102A0C006872934226D002F58062934225D0A2F5DB
:102A1C008962934224D002F58062934223D0A2F5BE
:102A2C006872934222D002F58062934221D14FF416
:102A3C00002300E00823164A9360BCE60823FAE75B
:102A4C000823F8E70823F6E74FF40073F3E74FF495
:102A5C000073F0E74FF40073EDE74FF40073EAE70F
:102A6C004FF40023E7E74FF40023E4E74FF400238F
:102A7C00E1E74FF00073DEE74FF480220DE000BF7A
:102A8C000064024058640240B86002405860024042
:102A9C0000600240106002400422C24BDA602368DE
:102AAC00C14A934240F2A181A2F58962934200F09F
:102ABC005A8102F58062934200F08081A2F568721F
:102ACC00934200F07D8102F58062934200F07A819E
:102ADC00A2F58962934200F0778102F580629342FD
:102AEC0000F07481A2F56872934200F0718102F5D6
:102AFC008062934200F06E81A2F58962934200F0ED
:102B0C006B8102F58062934200F06981A2F56872D4
:102B1C00934200F0678102F58062934200F02081BD
:102B2C004FF4800220E10422B7E70422B5E7042227
:102B3C00B3E74FF48072B0E74FF48072ADE74FF417
:102B4C008072AAE74FF48072A7E74FF48022A4E7C3
:102B5C004FF48022A1E74FF480229EE7934A9342E0
:102B6C0053D9A83A934231D002F58062934231D0C6
:102B7C00A2F5687293422FD002F5806293422DD059
:102B8C00A2F5896293422BD002F5806293422AD03F
:102B9C00A2F56872934229D002F58062934228D044
:102BAC00A2F58962934227D002F58062934226D027
:102BBC00A2F56872934225D002F58062934202D04E
:102BCC004FF0807303E04FF4802300E00423754A38
:102BDC00936064E70423FAE70423F8E70423F6E799
:102BEC004FF48073F3E74FF48073F0E74FF4807386
:102BFC00EDE74FF48073EAE74FF48023E7E74FF4F7
:102C0C008023E4E74FF48023E1E7694A934253D9E8
:102C1C00483A93422ED002F5806293422ED0A2F510
:102C2C00687293422CD002F5806293422AD0A2F5AE
:102C3C008962934228D002F58062934227D0A2F594
:102C4C006872934226D002F58062934225D0A2F599
:102C5C008962934224D002F58062934223D0A2F57C
:102C6C006872934222D002F58062934221D14FF4D4
:102C7C00802300E004234F4AD36010E70423FAE7D3
:102C8C000423F8E70423F6E74FF48073F3E74FF4DB
:102C9C008073F0E74FF48073EDE74FF48073EAE74D
:102CAC004FF48023E7E74FF48023E4E74FF48023CD
:102CBC00E1E74FF08073DEE73F4A93422ED002F5F6
:102CCC00806293422ED0A2F5687293422CD002F50A
:102CDC00806293422AD0A2F58962934228D002F5F1
:102CEC008062934227D0A2F56872934226D002F5F7
:102CFC008062934225D0A2F58962934224D002F5DA
:102D0C008062934223D0A2F56872934222D002F5DE
:102D1C008062934221D14FF4802300E00423254AA2
:102D2C009360BCE60423FAE70423F8E70423F6E7F0
:102D3C004FF48073F3E74FF48073F0E74FF4807334
:102D4C00EDE74FF48073EAE74FF48023E7E74FF4A5
:102D5C008023E4E74FF48023E1E74FF08073DEE754
:102D6C004FF4803200E001220E4BDA6022681368C7
:102D7C0043F0160313602268536943F080035361D8
:102D8C00236C002B00F027812268136843F00803A2
:102D9C0013602268136843F0010313600020FFF7EF
:102DAC00D3B900BF0064024058640240B8600240CE
:102DBC005860024000600240106002400122D3E7DC
:102DCC000122D1E70122CFE74022CDE74022CBE719
:102DDC004022C9E74022C7E74FF48032C4E74FF4E2
:102DEC008032C1E74FF48032BEE77F4A93424FD91D
:102DFC00A83A934231D002F58062934231D0A2F5C9
:102E0C00687293422FD002F5806293422DD0A2F5C6
:102E1C00896293422BD002F58062934229D0A2F5AD
:102E2C006872934227D002F58062934225D0A2F5B6
:102E3C008962934223D002F58062934222D0A2F59C
:102E4C006872934221D002F58062934202D04FF413
:102E5C00800303E04FF4803300E00123634A936066
:102E6C0084E70123FAE70123F8E70123F6E740237F
:102E7C00F4E74023F2E74023F0E74023EEE74FF47A
:102E8C008033EBE74FF48033E8E74FF48033E5E72A
:102E9C00574A93424FD9483A93422ED002F580625A
:102EAC0093422ED0A2F5687293422CD002F5806228
:102EBC0093422AD0A2F58962934228D002F580620F
:102ECC00934226D0A2F56872934224D002F5806218
:102EDC00934222D0A2F58962934220D002F58062FF
:102EEC0093421FD0A2F5687293421ED002F5806205
:102EFC0093421DD14FF4803300E001233D4AD3604F
:102F0C0034E70123FAE70123F8E70123F6E740232E
:102F1C00F4E74023F2E74023F0E74023EEE74FF4D9
:102F2C008033EBE74FF48033E8E74FF48033E5E789
:102F3C004FF48003E2E7304A93422ED002F58062D0
:102F4C0093422ED0A2F5687293422CD002F5806287
:102F5C0093422AD0A2F58962934228D002F580626E
:102F6C00934226D0A2F56872934224D002F5806277
:102F7C00934222D0A2F58962934220D002F580625E
:102F8C0093421FD0A2F5687293421ED002F5806264
:102F9C0093421DD14FF4803300E00123154A936016
:102FAC00E4E60123FAE70123F8E70123F6E74023DF
:102FBC00F4E74023F2E74023F0E74023EEE74FF439
:102FCC008033EBE74FF48033E8E74FF48033E5E7E9
:102FDC004FF48003E2E7A36C002B7FF4D5AED8E668
:102FEC000220FFF7B1B800BFB86002400064024095
:102FFC0058600240006002401060024000230F2B1A
:10300C0000F2E380F0B482B039E0092200E0002243
:10301C00B2403A4302346D4E46F824206C4A146890
:10302C00EA4302EA04064F6817F4803F01D045EAF0
:10303C000406674C2660646802EA04064F6817F4BD
:10304C00003F01D045EA0406614C6660A46802EAC0
:10305C0004064F6817F4801F01D045EA04065C4C47
:10306C00A660E46822404E6816F4001F01D045EAC1
:10307C000402574CE26001330F2B00F2A3800122B3
:10308C009A400C6804EA0205AA42F4D14C68022C5E
:10309C0001D0122C10D1DE08083650F826C003F0EF
:1030AC000704A7000F24BC402CEA040C0C69BC409C
:1030BC0044EA0C0440F8264004685F000326BE4036
:1030CC00F64306EA040C4C6804F00304BC4044EAE2
:1030DC000C0404604C6804F1FF3CBCF1010F03D9F3
:1030EC00112C01D0122C10D1846806EA040CCC6887
:1030FC00BC4044EA0C048460446824EA02024C6834
:10310C00C4F300149C4014434460C26816408A689F
:10311C00BA403243C2604A6812F0805FABD00022E2
:10312C0001922C4A546C44F480445464526C02F462
:10313C0080420192019A9C08A61C244A52F82670DF
:10314C0003F0030296000F22B24027EA0207224A3C
:10315C0090423FF45CAF02F58062904222D002F5BF
:10316C008062904220D002F5806290421ED002F51F
:10317C00806290421CD002F5806290421AD002F517
:10318C008062904218D002F58062904216D002F50F
:10319C008062904214D002F5806290423FF435AFC9
:1031AC000A2235E7012233E7022231E703222FE717
:1031BC0004222DE705222BE7062229E7072227E721
:1031CC00082225E702B0F0BC704770470038014078
:1031DC00003C0140003802400000024000230F2B4D
:1031EC0000F29280F0B50AE0092500E0002505FA0E
:1031FC0002F2A2426FD001330F2B00F28480012225
:10320C009A4002EA0106B242F5D105685F00032438
:10321C00BC40E443254005604FEAD30C0CF1080C8C
:10322C0050F82CE003F00705AD000F2707FA05F561
:10323C002EEA050540F82C508568254085604568C8
:10324C0025EA02024260C2681440C4604FEA930C43
:10325C000CF102042D4A52F8244003F003029200B0
:10326C0097403C402A4DA842C0D005F58065A84245
:10327C0021D005F58065A8421FD005F58065A842D0
:10328C001DD005F58065A8421BD005F58065A842C8
:10329C0019D005F58065A84217D005F58065A842C0
:1032AC0015D005F58065A84213D005F58065A842B8
:1032BC009AD00A259BE7012599E7022597E7032574
:1032CC0095E7042593E7052591E706258FE7072564
:1032DC008DE708258BE70D4D0CF1020255F82240C5
:1032EC0024EA070745F822700A4C2568F24315407A
:1032FC002560656815406560A5681540A560E568A2
:10330C002A40E26077E7F0BD704700BF003801400B
:10331C0000000240003C014012B909048161704771
:10332C008161704790F83E30DBB2402B13D00369BB
:10333C00B3F5804F1ED0036D002B2DD0036D012BE8
:10334C0033D1436CC3F3C813026803F0060343F094
:10335C00F103136129E0036D2BB9436C026803F090
:10336C00FE03136121E0436C026843F00103DBB2FE
:10337C0013611AE090F83D30DBB2212B06D0436C80
:10338C00026843F00103DBB213610EE0436C026888
:10339C0003F0FE03136108E0436CC3F3C813026827
:1033AC0003F0060343F0F003136100207047436CF5
:1033BC000268DBB213610020704710B48BB090F838
:1033CC003E30DAB2C16A046B90F83D30DBB2222B8E
:1033DC000CD00023099303685A6909929B690993DD
:1033EC00099B00200BB05DF8044B7047036D0BB9C3
:1033FC00402A17D0036D1BB90369B3F5404F19D0A0
:10340C00438D9BB2002B25D1029303685A6902921B
:10341C009A690292029A1A6842F400721A600023A6
:10342C000365DEE7009303685A6900929B69009379
:10343C00009BD6E70023019303685A6901929A69AD
:10344C000192019A1A6842F480721A60036D01337A
:10345C000365C6E7438D9BB2012B1AD0438D9BB2FB
:10346C00022B6BD00268136843F48063136003680B
:10347C005A6812F4006F03D05A6842F480525A60B2
:10348C000023089303685A6908929B690893089B68
:10349C00C5E711F5803F16D004293DD008293BD053
:1034AC00122C39D0C36A022B30D00268136823F473
:1034BC00806313600023059303685A6905929B6926
:1034CC000593059BABE70268136823F480631360D4
:1034DC0003685A6812F4006F0CD01A6822F48062E8
:1034EC001A600023039303685A6903929B69039340
:1034FC00039B94E7002204925A6904929A690492FD
:10350C00049A1A6842F400721A6088E70268136819
:10351C0043F480631360CDE70268136823F480637F
:10352C0013600023069303685A6906929A690692FF
:10353C00069A1A6842F400721A6070E7C36A022B8A
:10354C001BD00268136823F480631360026813684D
:10355C0043F40063136003685A6812F4006F03D0DD
:10356C005A6842F480525A600023079303685A69E0
:10357C0007929B690793079B51E70268136843F412
:10358C0080631360E7E7438D9BB24BB1436A5A1CCF
:10359C00426202681B781361438D013B9BB24385E9
:1035AC0000207047438D9BB24BB103681A69436A84
:1035BC00591C41621A70438D013B9BB2438500201C
:1035CC00704703685A6912F4806F0DD06FF48062F3
:1035DC005A610423036400230363202280F83D20F6
:1035EC0080F83C300120704700207047F8B5064643
:1035FC000C4617461D461EE02DB1FDF799FF069BA4
:10360C00C01AA84217D900233363202286F83D2024
:10361C0086F83E3086F83C3003201AE033685B694C
:10362C0024EA03039BB2B3FA83F35B099F420FD1E5
:10363C00B5F1FF3FE0D1C4F30743012BEED0336863
:10364C009B6924EA03039BB2B3FA83F35B09EDE7AE
:10365C000020F8BDF8B504460D4616461F4632E06C
:10366C001A6842F400721A6023686FF480625A611F
:10367C000423236400232363202284F83D2084F850
:10368C003C3001202DE026B1FDF752FFC01BB042AB
:10369C0019D900232363202284F83D2084F83C3080
:1036AC0003201EE023685B6925EA03039BB2003309
:1036BC0018BF0123A3B123685A6912F4806FCFD1CC
:1036CC00B6F1FF3FDFD1C5F30743012BEAD02368E6
:1036DC009B6925EA03039BB2003318BF0123E9E77A
:1036EC000020F8BD70B504460D46164623685B698C
:1036FC0013F0800F19D12046FFF763FFB8B9B5F16D
:10370C00FF3FF3D025B1FDF713FF801BA842EDD985
:10371C00236C43F02003236400232363202284F8CA
:10372C003D2084F83C30032000E0002070BD0120D7
:10373C00FCE700002DE9F04184B004460E46174624
:10374C0098460B9D0268136843F4807313600095D0
:10375C000A9B00224FF00111FFF748FF002847D1C8
:10376C00236806F0FE061E612B460A9A264920465F
:10377C00FFF770FF20B1236C042B3ED1012338E0FE
:10378C000023039323685A6903929B690393039B59
:10379C002A460A992046FFF7A5FF034648B1236C39
:1037AC00042B2CD12268136843F40073136001239B
:1037BC001FE0B8F1010F13D023683A0A1A612A46A8
:1037CC000A992046FFF78EFF034668B1236C042B41
:1037DC0017D12268136843F400731360012308E0C7
:1037EC002268FFB2176104E02268FFB2176100E0A3
:1037FC000323184604B0BDE8F0810323F9E7032343
:10380C00F7E70323F5E700BF020001002DE9F041C3
:10381C0084B004460E46174698460B9D0268136802
:10382C0043F4806313600268136843F4807313607D
:10383C0000950A9B00224FF00111FFF7D7FE0028DC
:10384C0074D1F6B2236806F0FE021A612B460A9A6E
:10385C003F492046FFF7FEFE20B1236C042B6AD1B2
:10386C00012364E00023039323685A6903929B6944
:10387C000393039B2A460A992046FFF733FF48B16E
:10388C00236C042B59D12268136843F40073136022
:10389C0001234CE0B8F1010F12D12368FFB21F6174
:1038AC002A460A992046FFF71DFF00B3236C042B10
:1038BC0047D12268136843F400731360012336E088
:1038CC0023683A0A1A612A460A992046FFF70AFF2A
:1038DC0048B1236C042B32D12268136843F4007373
:1038EC001360012323E02368FFB21F61D8E722682D
:1038FC00136843F48073136000950A9B00224FF009
:10390C0001112046FFF772FEE8B9236846F0010664
:10391C001E612B460A9A0E492046FFF79BFE034672
:10392C0028B1236C042B10D1012300E0032318468B
:10393C0004B0BDE8F0810323F9E70323F7E7032381
:10394C00F5E70323F3E70323F1E70323EFE700BFD6
:10395C000200010070B504460D46164623685B69EB
:10396C0013F0040F19D12046FFF72BFEB8B9B5F1AF
:10397C00FF3FF3D025B1FDF7DBFD801BA842EDD94D
:10398C00236C43F02003236400232363202284F858
:10399C003D2084F83C30032000E0002070BD012065
:1039AC00FCE770B505460C4616462B685A6912F0B2
:1039BC00400F22D15A6912F0100F11D124B1FDF72A
:1039CC00B7FD801BA042F0D92B6C43F020032B6475
:1039DC00202385F83D30002385F83C30032070BD52
:1039EC006FF010025A6100232B642B63202285F8A0
:1039FC003D2085F83C300120F1E70020EFE7000086
:103A0C00002800F0828010B5044690F83D30002B61
:103A1C0041D0242384F83D302268136823F001033D
:103A2C00136001F0A3FD3A4BA3FB00239B0C22680F
:103A3C0053606168374A914232D80133226813626D
:103A4C006368344A934235D85B00B0FBF3F0C0F3A3
:103A5C000B03032B00D804202368D861E369216A87
:103A6C0022680B4313602369E16822680B4393605F
:103A7C006369A16922680B43D3602268136843F021
:103A8C000103136000202064202384F83D30206360
:103A9C0084F83E0010BD80F83C3007F005FAB8E71A
:103AAC004FF4967202FB03F31B4AA2FB03239B0900
:103ABC000133C3E7A16889B903EB4302B0FBF2F20F
:103ACC00C2F30B02B2FA82F25209E2B991B903EBDA
:103ADC004303B0FBF3F040F40040BDE703EB83027B
:103AEC0002EB8202B0FBF2F2C2F30B02B2FA82F2E8
:103AFC005209EAE703EB830303EB8303B0FBF3F018
:103B0C0040F44040A8E70120A6E70120704700BF21
:103B1C0083DE1B43A0860100D34D6210A8B110B503
:103B2C000446242380F83D300268136823F0010317
:103B3C00136007F003FA0020206484F83D00206332
:103B4C0084F83E0084F83C0010BD01207047000052
:103B5C002DE9F04182B004460E4617469846FDF713
:103B6C00E7FC94F83D30DBB2202B04D0022318463E
:103B7C0002B0BDE8F081054600901923012251499D
:103B8C002046FFF733FD002840F0938094F83C303A
:103B9C00012B00F09080012384F83C3023681A68D4
:103BAC0012F0010F03D11A6842F001021A60226868
:103BBC00136823F400631360212384F83D30402301
:103BCC0084F83E3000232364089B6362BDF82430E4
:103BDC0063853D4BE362638D238501950A9B0093BE
:103BEC0043463A4631462046FFF7A4FDB0B1236C5C
:103BFC00042B04D1002384F83C300123B7E70023C5
:103C0C0084F83C300323B2E7236C042B55D1226893
:103C1C00136843F4007313600123A8E7238D002B72
:103C2C0028D02A460A992046FFF75CFD0028EBD1E4
:103C3C00636A5A1C626222681B781361238D013BF4
:103C4C009BB22385628D013A92B2628522685169DA
:103C5C0011F0040FE2D0002BE0D0636A591C6162B2
:103C6C001B781361238D013B2385638D013B9BB234
:103C7C006385D3E72A460A992046FFF76BFE034675
:103C8C0048B1236C042B1AD12268136843F40073D7
:103C9C00136001236BE721680A6842F400720A6022
:103CAC00202284F83D20002284F83E2084F83C2019
:103CBC005DE702235BE7022359E7032357E703235E
:103CCC0055E700BF020010000000FFFF2DE9F04196
:103CDC0086B004460E4617469846FDF729FC94F824
:103CEC003D30DBB2202B04D00226304606B0BDE8B6
:103CFC00F08105460090192301228B492046FFF7DD
:103D0C0075FC002840F04B8194F83C30012B00F0FE
:103D1C004881012384F83C3023681A6812F0010FA3
:103D2C0003D11A6842F001021A602268136823F466
:103D3C0000631360222384F83D30402384F83E3026
:103D4C00002323640C9B6362BDF834306385774B8E
:103D5C00E362638D238501950E9B009343463A469F
:103D6C0031462046FFF752FD064660B1236C042B0A
:103D7C0004D1002384F83C300126B6E7002384F8F4
:103D8C003C300326B1E7238D5BB9029323685A6953
:103D9C0002929A690292029A1A6842F400721A60AC
:103DAC0075E0012B0AD0022B1AD00023059323684F
:103DBC005A6905929B690593059B68E02268136814
:103DCC0023F4806313600023039323685A690392DE
:103DDC009A690392039A1A6842F400721A6056E0C8
:103DEC002268136823F4806313602268136843F419
:103DFC00006313600023049323685A6904929B693F
:103E0C000493049B43E02A460E992046FFF7C9FD14
:103E1C0068B923681A69636A591C61621A70238D28
:103E2C00013B2385638D013B9BB263852FE0236CA3
:103E3C00202B01D0012658E7032656E700950E9B50
:103E4C0000223B492046FFF7D1FB002840F0AB8015
:103E5C002268136843F40073136023681A69636A59
:103E6C00591C61621A70238D013B2385638D013BC4
:103E7C009BB2638523681A69636A591C61621A7064
:103E8C00238D013B2385638D013B9BB26385238D81
:103E9C00002B7BD0032B4DD8012BB4D0022BCDD0D3
:103EAC0000950E9B002222492046FFF79FFB00281D
:103EBC007BD12268136823F48063136023681A692A
:103ECC00636A591C61621A70238D013B2385638DD3
:103EDC00013B9BB2638500950E9B00221449204642
:103EEC00FFF784FB002862D12268136843F4007347
:103EFC00136023681A69636A591C61621A70238DF6
:103F0C00013B2385638D013B9BB2638523681A6952
:103F1C00636A591C61621A70238D013B2385638D82
:103F2C00013B9BB26385B2E7020010000000FFFF6B
:103F3C00040001002A460E992046FFF732FDF0B925
:103F4C0023681A69636A591C61621A70238D013BDC
:103F5C002385638D013B9BB2638523685A6912F0FC
:103F6C00040F94D01A69636A591C61621A70238D0C
:103F7C00013B2385638D013B9BB2638587E7236CF3
:103F8C00202B01D00126B0E60326AEE6202384F8D0
:103F9C003D30002384F83E3084F83C30A5E6022600
:103FAC00A3E60226A1E603269FE603269DE603264A
:103FBC009BE600BF70477047704708B590F83D30DE
:103FCC00DAB2438D9BB273B1436A591C41620168EA
:103FDC001B780B61438D013B9BB24385438D9BB298
:103FEC000BB9292A01D0002008BD0268536823F4BC
:103FFC008063536021230363282380F83D30FFF74F
:10400C00DBFFF0E7704790F83D30DAB2438D9BB29E
:10401C00F3B110B503681969436A5C1C44621970EA
:10402C00438D013B9BB24385438D9BB20BB92A2A2E
:10403C0001D0002010BD0268536823F480635360E4
:10404C0022230363282380F83D30FFF7DBFFF0E7E2
:10405C0000207047704708B503689A6912F0040F86
:10406C0009D000219B6913F0800F06D0028BFFF75B
:10407C00F1FF002008BD0121F4E78289F7E77047C2
:10408C0008B590F83D30DBB2C26A042A01D0082A88
:10409C0001D1282B07D0212B1FD003686FF480622D
:1040AC005A61002008BD1A4BC3620268536823F49E
:1040BC00E063536003686FF480625A6102681368AE
:1040CC0023F48063136000230363202280F83D20D7
:1040DC0080F83E30FFF7D3FFE3E70D4BC36221239B
:1040EC000363202380F83D30002380F83E300268C3
:1040FC00536823F4E063536003686FF480625A6181
:10410C000268136823F480631360FFF755FFC8E758
:10411C000000FFFF704710B590F83D30DBB290F80F
:10412C003E20D2B2C46A018D09B9212B05D0212BB6
:10413C003CD0402A38D0002010BD042C04D0082CD0
:10414C0002D014F5803F19D10268536823F4E06360
:10415C0053600268136843F4007313600023036315
:10416C00202380F83D3090F83E30DBB2402B15D048
:10417C00002380F83E30FFF71DFFDCE70268536830
:10418C0023F4E063536011230363002380F83E3073
:10419C00202380F83D30FFF70DFFCCE7002380F89B
:1041AC003E30FFF7B7FFC6E7222BC4D1438D9BB23D
:1041BC007BB190F83E30DBB2402B10D0436A5A1CD6
:1041CC00426202681B781361438D013B9BB24385AD
:1041DC00B1E70268536823F480635360ABE7036D67
:1041EC009BB9C36C012B08D0836CC3F30723026803
:1041FC001361036D013303659DE7836C0268DBB2C9
:10420C001361036D0233036595E7036D012B17D022
:10421C00036D022B8FD190F83D30DBB2222B17D0DF
:10422C0090F83D30DBB2212B85D1436A5A1C426297
:10423C0002681B781361438D013B9BB243857AE77F
:10424C00836C0268DBB21361036D0133036572E7A3
:10425C000268136843F4807313606CE708B5C26A94
:10426C0090F83D30DBB2212B01D0002008BD438DEE
:10427C009BB203BB042A04D0082A02D012F5803F5B
:10428C0024D10268536823F4E06353600268136816
:10429C0043F40073136000230363202380F83D3044
:1042AC0090F83E30DBB2402B20D0002380F83E301B
:1042BC00FFF780FED9E7436A5A1C426202681B78FA
:1042CC001361438D013B9BB24385CEE70268536873
:1042DC0023F4E063536011230363002380F83E3022
:1042EC00202380F83D30FFF765FEBEE7002380F801
:1042FC003E30FFF70FFFB8E7704708B590F83D3038
:10430C00DBB2222B01D0002008BD438D9BB2032BC6
:10431C0013D903681A69436A591C41621A70438D98
:10432C00013B9BB24385438D9BB2032BEBD10268BF
:10433C00536823F480635360E5E7012BE3D80268EC
:10434C00136823F4806313600268536823F4E063FA
:10435C00536003681A69436A591C41621A70438D91
:10436C00013B9BB24385202380F83D30002303633F
:10437C0090F83E30DBB2402B05D0002380F83E3065
:10438C00FFF719FEBFE7002380F83E30FFF7B4FFBC
:10439C00B9E708B5C26A438D9BB2042B13D0438D89
:1043AC009BB2032B1FD0438D9BB2022B30D00368E2
:1043BC001A69436A591C41621A70438D013B9BB2C6
:1043CC004385002008BD0268536823F48063536062
:1043DC0003681A69436A591C41621A70438D013B88
:1043EC009BB24385EDE70268536823F48063536006
:1043FC000268136823F48063136003681A69436AC4
:10440C00591C41621A70438D013B9BB24385D8E71E
:10441C00013A012A2DD90268136843F40073136022
:10442C0003681A69436A591C41621A70438D013B37
:10443C009BB2438503681A69436A591C41621A701E
:10444C00438D013B9BB243850268536823F4407350
:10445C005360202380F83D300023036390F83E30F6
:10446C00DBB2402B10D0002380F83E30FFF7A3FDC9
:10447C00A7E70268136823F480631360026813686B
:10448C0043F480731360CBE7002380F83E30FFF7D2
:10449C0033FF96E77047704710B5044690F83D30EF
:1044AC00293B012B37D990F83D30DBB2602B07D07C
:1044BC0003685B6813F4006F02D1202380F83D3051
:1044CC000023236384F83E302268136823F40063CE
:1044DC00136023685A6812F4006F3FD05A6822F4B4
:1044EC0000625A60626B92F83530DBB2012B18D047
:1044FC003A4B1365606BFDF75DFC00283FD02268DA
:10450C00136823F001031360202384F83D30606BA3
:10451C00036D984733E000230363282380F83D3074
:10452C00D2E7A36B2D4A1A65A06BFDF743FC30B3A1
:10453C0023685A6912F0400F04D01A69636A591C37
:10454C0061621A702268136823F001031360202340
:10455C0084F83D30A06B036D984710E094F83D2033
:10456C00D2B2602A11D05A6912F0400F04D01A69E5
:10457C00636A591C61621A702046FFF78BFF94F82E
:10458C003D30DBB2282B17D010BD202284F83D2003
:10459C00002222645A6912F0400F04D01A69636A2F
:1045AC00591C61621A702268136823F001031360AE
:1045BC002046FFF770FFE2E7236C13F0040FE3D003
:1045CC00074BE36200232363202284F83D2084F808
:1045DC003E302046FFF753FDD6E700BF2D490008BB
:1045EC000000FFFF10B582B090F83D30DBB20168DF
:1045FC004A6822F4E0624A60002201920268516922
:10460C000191116841F001011160019A01680A6879
:10461C0022F480620A6001684A6812F4006F14D0B8
:10462C0090F83D20D2B2222A0AD090F83D20D2B286
:10463C002A2A05D0426B1268526892B2428504E075
:10464C00826B1268526892B24285428D92B2F2B17C
:10465C004A6912F0040F08D00969426A541C44627A
:10466C001170428D013A92B242850268516911F083
:10467C00400F08D01169426A541C44621170428D7B
:10468C00013A92B24285026C42F004020264026C5E
:10469C00A2B9282B15D02A2B13D0292B11D0026BA1
:1046AC00222A01D0222B17D100230363202280F869
:1046BC003D2080F83E30FFF7A5FC0DE0FFF7ECFE47
:1046CC000AE0074BC36200230363202280F83D20DD
:1046DC0080F83E30FFF7D3FC002002B010BD00BFC5
:1046EC000000FFFFF8B5054603689F695C695E68CA
:1046FC0090F83E30DBB2102B25D0402B23D04C4B06
:10470C00234013B116F4007F6ED14A4B234013B1F2
:10471C0016F4007F6BD1484B3B40002B6FD0474BBE
:10472C00234033B116F4806F03D0454B2340002B4C
:10473C0061D0434B234053B316F4007F27D0284657
:10474C00FEF721FF23E014F0011F02D016F4007FC6
:10475C001ED13C4B234013B116F4007F1CD1344BBB
:10476C00234013B116F4007F1AD1334B3B401BB3DB
:10477C00324B23402BB116F4806F02D0304B2340C8
:10478C0093B12F4B234013B116F4007F10D1F8BD19
:10479C002846FEF7C7FDE8E72846FEF708FEE4E7E3
:1047AC002846FEF70AFEE0E72846FFF7B4FCEEE7E2
:1047BC002846FFF753FDEAE7234B23402BB116F4B1
:1047CC00806F02D01E4B234053B11D4B2340002B56
:1047DC00DDD016F4007FDAD02846FFF7DAFDD6E7F5
:1047EC002846FFF78AFDD2E7FFF735FCCFE72846CE
:1047FC00FFF7F8FECBE72846FFF7DFFBC7E7124BC6
:10480C0023402BB116F4806F02D00D4B234053B1D3
:10481C000B4B2340002BBAD016F4007FB7D02846A0
:10482C00FEF7C0FEB3E72846FFF7EDFBAFE700BF8E
:10483C0002000100100001000400100080000100C3
:10484C0004000100080001004000010070B504469E
:10485C0003685D695E68314A154209D016F4807FA1
:10486C0006D0026C42F0010202646FF480725A614D
:10487C0015F4813F0AD016F4807F07D0236C43F0E7
:10488C000203236423686FF400725A6115F4823FAB
:10489C001AD016F4807F17D094F83E30DBB2628DBC
:1048AC0091B294F83D20D2B2206B202B1DD0236CFA
:1048BC0043F00403236494F83E30DBB2102B22D077
:1048CC0023686FF480625A6115F4843F0AD016F4A1
:1048DC00807F07D0236C43F00803236423686FF4B4
:1048EC0000625A61236CA3B970BD0029DFD1212A63
:1048FC0005D0292A03D0282AD9D12128D7D120465E
:10490C00FFF7BEFBE0E72268136843F40073136003
:10491C00D6E72046FFF7C0FDE6E700BF0001010027
:10492C0008B5806B0268136823F48063136000235E
:10493C004385426B1365826B136590F83D30DBB297
:10494C00602B0DD0202380F83D30002380F83E30C2
:10495C000268136823F001031360FFF79BFD08BD89
:10496C00202380F83D30002380F83E300364026839
:10497C00136823F001031360FFF78DFDEFE790F848
:10498C003D007047F0B44D680468E368C3F30B4313
:10499C001D44D2011444D4F8883003F47043C4F895
:1049AC0088300B680468E668C6F30B463344013361
:1049BC00144443EA0543C4F88830CD680468E368BE
:1049CC00C3F30A031D441444D4F88C3003F470432D
:1049DC00C4F88C308B680468E668C6F30A06334466
:1049EC000133144443EA0543C4F88C300368134480
:1049FC00D3F8944024F00704C3F89440036813449C
:104A0C000C69C3F8944091F831C091F832708E69FA
:104A1C0005681544D5F89C300024C5F89C4091F8E5
:104A2C00303043EA0C2343EA07430568154443EA54
:104A3C000663C5F89C3003681344D3F8985025F0EE
:104A4C00FF05C3F89850036813444D69C3F8985098
:104A5C0003681344D3F8A05025F4E06525F007054E
:104A6C00C3F8A050CD690E6A036813443543C3F8EC
:104A7C00A05003681344D3F8AC50C3F8AC4003689F
:104A8C0013444C6AC3F8AC400B696BB1012B3CD09E
:104A9C00042B3CD0022B08D0032B3AD0072B01D08F
:104AAC00012302E0022300E0042304681444D4F838
:104ABC00B05005F0E025C4F8B0508C6A03FB04F547
:104ACC004C680E68A41B03FB04F303330468144402
:104ADC0043EA0543C4F8B03003681344D3F8B44038
:104AEC0024F4FF6424F00704C3F8B44003681344AF
:104AFC00C96AC3F8B41003681A44D2F8843043F07E
:104B0C000103C2F88430F0BC70470323CDE70223C5
:104B1C00CBE70223C9E70000002872D038B5044661
:104B2C0090F8A130002B67D0022384F8A1302268C2
:104B3C00936923F07043936121688A696368A06864
:104B4C000343E06803432069034313438B612168EB
:104B5C008A682D4B1A408A60656920688268A16951
:104B6C0041EA05410A4382602168CA681A40CA605A
:104B7C00E5692068C268216A41EA05410A43C260BE
:104B8C0021680A691A400A61656A20680269A16A8B
:104B9C0041EA05410A43026121684A6913404B61AD
:104BAC00E06A21684B69226B42EA004213434B6175
:104BBC0094F8350094F836301B042168CA6A02F068
:104BCC007F42CA622168CA6A43EA002394F834001F
:104BDC0003431343CB622268536B43F006035363C6
:104BEC002268936943F0010393610020C4F8A40088
:104BFC00012384F8A13038BD80F8A03006F03AFAD1
:104C0C0092E70120704700BF00F800F010B5044691
:104C1C0006F0B4FA0020C4F8A40084F8A10084F8CB
:104C2C00A00010BD90F8A030012B27D02DE9F04149
:104C3C0094460F4606464FF0010880F8A0800223E8
:104C4C0080F8A130342404FB020438340D460FCD17
:104C5C000FC40FCD0FC40FCD0FC42B682360624659
:104C6C0039463046FFF78EFE3368C3F8248086F849
:104C7C00A180002086F8A000BDE8F08102207047DA
:104C8C0090F8A030012B1DD030B4012480F8A04046
:104C9C00022380F8A1300368D2011344D3F890505A
:104CAC0005F07F45C3F8905003681A44C2F8901081
:104CBC0003685C6280F8A140002380F8A03018469D
:104CCC0030BC704702207047F0B490F8A040012C23
:104CDC0036D0012480F8A040022480F8A1400026A0
:104CEC0012E006EB06140F68FDB245EA046407F403
:104CFC007F452C4307F47F073C430431056805EBE3
:104D0C00C315C5F8C4400136964210D2342404FBB6
:104D1C000304A46C062CE4D00D68ECB244EA0664DF
:104D2C0005F47F473C4305F47F052C43E5E701235D
:104D3C0080F8A130002380F8A0301846F0BC7047F2
:104D4C000220FBE790F8A030012B17D0012280F84D
:104D5C00A020022380F8A130036803EBC111D1F825
:104D6C00843043F00203C1F8843003685A6280F83F
:104D7C00A120002380F8A03018467047022070470D
:104D8C0090F8A030012B17D0012280F8A02002232C
:104D9C0080F8A130036803EBC111D1F8843023F003
:104DAC000203C1F8843003685A6280F8A120002302
:104DBC0080F8A030184670470220704790F8A03059
:104DCC00012B17D0012280F8A020022380F8A130FB
:104DDC00036803EBC111D1F8843043F01003C1F820
:104DEC00843003685A6280F8A120002380F8A03038
:104DFC001846704702207047F8B590F8A040012C77
:104E0C0021D00446012580F8A050022084F8A1008E
:104E1C00342000FB03F000F1380720448163066E58
:104E2C000E44C6630264466E324442641A46E1196B
:104E3C002046FFF7A7FD23685D6284F8A15000208F
:104E4C0084F8A000F8BD0220FCE738B590F8A0303B
:104E5C00012B19D00446012580F8A050022380F8BC
:104E6C00A130342303FB02F303F138002344D9644B
:104E7C0021182046FFF786FD23685D6284F8A15057
:104E8C00002084F8A00038BD0220FCE738B590F86B
:104E9C00A030012B19D00446012580F8A050022324
:104EAC0080F8A130342303FB02F303F138002344D0
:104EBC00D96521182046FFF765FD23685D6284F8EB
:104ECC00A150002084F8A00038BD0220FCE70000AF
:104EDC0090F8A030012B1AD010B4012280F8A02039
:104EEC00022380F8A1300468636B23F00103636331
:104EFC00084B196401684B6B13434B6380F8A1207A
:104F0C00002380F8A03018465DF8044B704702204F
:104F1C00704700BF0068014010B582B000230193B8
:104F2C00194B1A6C42F080521A641B6C03F08053BC
:104F3C000193019B154B01221A60FCF7F9FA044608
:104F4C00134B5B6813F4803F08D1FCF7F1FA001B9C
:104F5C00B0F57A7FF4D9032002B010BD0D4B0122BD
:104F6C001A60FCF7E5FA0446094B5B6813F4003F42
:104F7C0007D1FCF7DDFA001BB0F57A7FF4D90320DA
:104F8C00EAE70020E8E700BF0038024040000E428C
:104F9C000070004044000E42002800F0BB8170B548
:104FAC0082B00446036813F0010F3BD0A74B9B68FB
:104FBC0003F00C03042B2CD0A44B9B6803F00C03C4
:104FCC00082B21D06368B3F5803F4FD0B3F5A02FE9
:104FDC0052D09E4B1A6822F480321A601A6822F45E
:104FEC0080221A606368002B50D0FCF7A1FA0546AA
:104FFC00964B1B6813F4003F14D1FCF799FA401B35
:10500C006428F5D903208AE1904B5B6813F4800F78
:10501C00D8D08E4B1B6813F4003F03D06368002B71
:10502C0000F07A81236813F0020F55D0874B9B68F0
:10503C0013F00C0F3ED0854B9B6803F00C03082B30
:10504C0033D0E368002B68D0814B01221A60FCF747
:10505C006FFA05467D4B1B6813F0020F54D1FCF719
:10506C0067FA401B0228F5D9032058E1774A1368E8
:10507C0043F480331360B5E7744B1A6842F4802212
:10508C001A601A6842F480321A60ABE7FCF750FAE7
:10509C0005466E4B1B6813F4003FC3D0FCF748FA6F
:1050AC00401B6428F5D9032039E1684B5B6813F485
:1050BC00800FC6D1654B1B6813F0020F04D0E36858
:1050CC00012B01D001202AE1604A136823F0F80378
:1050DC00216943EAC1031360236813F0080F40D021
:1050EC00636963B35B4B01221A60FCF721FA054636
:1050FC00564B5B6F13F0020F33D1FCF719FA401BC0
:10510C000228F5D903200AE1504A136823F0F8036A
:10511C00216943EAC1031360DEE74D4B00221A609C
:10512C00FCF706FA0546494B1B6813F0020FD3D067
:10513C00FCF7FEF9401B0228F5D90320EFE0454BA4
:10514C0000221A60FCF7F4F90546404B5B6F13F034
:10515C00020F06D0FCF7ECF9401B0228F5D903200E
:10516C00DDE0236813F0040F79D0384B1B6C13F07F
:10517C00805F33D100230193344B1A6C42F0805280
:10518C001A641B6C03F080530193019B0125324B75
:10519C001B6813F4807F23D0A368012B34D0052B1C
:1051AC0038D02A4B1A6F22F001021A671A6F22F0BC
:1051BC0004021A67A368002B36D0FCF7B9F906462F
:1051CC00224B1B6F13F0020F48D1FCF7B1F9801B77
:1051DC0041F288339842F3D90320A0E00025D6E7AA
:1051EC001D4A136843F480731360FCF7A1F906465B
:1051FC00194B1B6813F4807FCED1FCF799F9801BF7
:10520C000228F5D903208AE0104A136F43F00103FA
:10521C001367CFE70D4B1A6F42F004021A671A6F2F
:10522C0042F001021A67C5E7FCF782F90646074B04
:10523C001B6F13F0020F11D0FCF77AF9801B41F2AF
:10524C0088339842F3D9032069E000BF003802404C
:10525C0000004742800E474200700040E5B9A36948
:10526C00002B5BD0304A926802F00C02082A58D00E
:10527C00022B17D02D4B00221A60FCF759F904466B
:10528C00294B1B6813F0007F42D0FCF751F9001B2F
:10529C000228F5D9032042E0234A136C23F08053F3
:1052AC001364DCE7214B00221A60FCF741F9054638
:1052BC001D4B1B6813F0007F06D0FCF739F9401B1F
:1052CC000228F5D903202AE0E369226A1343626AB3
:1052DC0043EA8213A26A5208013A43EA0243E26AA1
:1052EC0043EA0263104A5360104B01221A60FCF728
:1052FC001FF904460C4B1B6813F0007F06D1FCF71A
:10530C0017F9001B0228F5D9032008E0002006E05D
:10531C00002004E001207047012000E0002002B0D2
:10532C0070BD0120FBE700BF00380240600047421F
:10533C00324B9B6803F00C03042B5CD0082B01D080
:10534C002F4870472DE9F04B2C4B5A6802F03F0266
:10535C005B6813F4800F2BD0284B5B68C3F3881366
:10536C001E4600275C010025E41A65EB0705A90120
:10537C0041EA9461A001001B61EB0501CB0043EAFB
:10538C005073C400A01943EB07014B0243EAD053FE
:10539C004402204619460023FAF722FF174B5B689C
:1053AC00C3F3014301335B00B0FBF3F0BDE8F08BBA
:1053BC00124B5B68C3F388131E4600275C01002563
:1053CC00E41A65EB0705A90141EA9461A001001BF1
:1053DC0061EB0501CB0043EA5073C400A01943EB09
:1053EC0007018B0243EA905384022046194600239E
:1053FC00FAF7F6FED2E70348704700BF00380240C8
:10540C000024F40000127A00002800F09D8070B592
:10541C0004464F4B1B6803F00F038B4209D2CBB2EF
:10542C004B4A1370136803F00F038B4201D0012019
:10543C0070BD236813F0020F17D013F0040F04D0C3
:10544C00444A936843F4E0539360236813F0080FC5
:10545C0004D0404A936843F4604393603D4A936898
:10546C0023F0F003A068034393600D46236813F008
:10547C00010F32D06368012B21D09A1E012A25D945
:10548C00344A126812F0020F60D032498A6822F056
:10549C00030213438B60FCF74BF806462D4B9B68BD
:1054AC0003F00C036268B3EB820F16D0FCF740F8E4
:1054BC00801B41F288339842F0D90320B8E7254A83
:1054CC00126812F4003FE0D10120B1E7214A1268C2
:1054DC0012F0007FD9D10120AAE71D4B1B6803F005
:1054EC000F03AB4209D9EAB2194B1A701B6803F0CF
:1054FC000F03AB4201D001209AE7236813F0040F8D
:10550C0006D0144A936823F4E053E1680B4393608C
:10551C00236813F0080F07D00E4A936823F46043F6
:10552C00216943EAC1039360FFF702FF094B9B68B3
:10553C00C3F30313084AD35CD840084B186000200F
:10554C0006F0F8FC002073E70120704701206FE79C
:10555C00003C02400038024034A9010884000020BD
:10556C00014B1868704700BF8400002008B5FFF796
:10557C00F7FF044B9B68C3F38223034AD35CD840E8
:10558C0008BD00BF0038024044A901080F23036086
:10559C000B4B9A6802F0030242609A6802F0F00228
:1055AC0082609A6802F4E052C2609B68DB0803F4E4
:1055BC00E0530361034B1B6803F00F030B60704750
:1055CC0000380240003C024030B583B0044603680A
:1055DC0013F0030F14D1236813F00C0F5AD1236866
:1055EC0013F0200F40F0AF80236813F0100F00F081
:1055FC00118194F82C20884B1A60002003B030BD28
:10560C00864B00221A60FBF793FF0546844B1B6800
:10561C0013F0006F06D0FBF78BFF401B0228F5D967
:10562C000320EBE7236813F0010F07D06268A3682F
:10563C001B0743EA82137A4AC2F88430236813F0BA
:10564C00020F15D0764AD2F884106068E3681B0606
:10565C0043EA801301F0E0410B43C2F88430D2F8E6
:10566C008C3023F01F03E16901390B43C2F88C30F5
:10567C006A4B01221A60FBF75BFF0546684B1B68FF
:10568C0013F0006FA7D1FBF753FF401B0228F5D98D
:10569C000320B3E7634B00221A60FBF749FF054672
:1056AC005F4B1B6813F0005F06D0FBF741FF401BFC
:1056BC000228F5D90320A1E7236813F0040F16D0B4
:1056CC00574AD2F88810206963691B0643EA801395
:1056DC0001F0E0410B43C2F88830D2F88C3023F44F
:1056EC00F853216A013943EA0123C2F88C3023684C
:1056FC0013F0080F14D04A4AD2F88830216903F00D
:10570C00706343EA8113A16943EA0173C2F88830DC
:10571C00D2F88C3023F44033616A0B43C2F88C30DE
:10572C00404B01221A60FBF703FF05463C4B1B68FC
:10573C0013F0005F7FF453AFFBF7FAFE401B022817
:10574C00F4D903205AE700230193354B1A6C42F02D
:10575C0080521A641B6C03F080530193019B324AF4
:10576C00136843F480731360FBF7E2FE05462E4B7F
:10577C001B6813F4807F06D1FBF7DAFE401B02286E
:10578C00F5D903203AE7264B1B6F13F4407312D064
:10579C00A26A02F440729A420DD0214B1A6F22F485
:1057AC004072224901200860002008601A671B6FB4
:1057BC0013F0010F12D1A36A03F44072B2F5407FCB
:1057CC001DD0174A936823F4F813936014490B6F98
:1057DC00A26AC2F30B0213430B6705E7FBF7A8FEA3
:1057EC0005460F4B1B6F13F0020FE4D1FBF7A0FE25
:1057FC00401B41F288339842F3D90320FEE6084956
:10580C008A6822F4F81223F0704323F44073134394
:10581C008B60DBE70020F1E6E0114742680047426D
:10582C00003802407000474200700040400E474272
:10583C000E4B1B680E4AA2FB03231B0B9B0001683B
:10584C000A6822F480320A605A1E3BB10368196858
:10585C00134611F4803FF7D100207047D0F8843004
:10586C0043F04003C0F884300320704784000020CC
:10587C001BECCB95002800F0AD8070B5044690F879
:10588C0081309BB1022384F881302046FFF7D0FF92
:10589C00204600F0A7F8236A6BB963681BB3022B90
:1058AC0021D0236C012B2ED0002621E080F88030F3
:1058BC0005F05EFEE6E7204600F0A4F800EB800061
:1058CC004100236A5B02B1FBF3F1434BA3FB0123C1
:1058DC00DB08636203EB830042008A1A082ADCD9D6
:1058EC0001336362D9E7236C012B0AD04FF40076A5
:1058FC00A268012A6BD04AB1032A07D84FF4006082
:10590C0005E00026F4E74FF40076F1E7002021686B
:10591C000B68324A1A400A6021680A686368656B32
:10592C002B43A56B2B43E56B2B4333430343A06AFB
:10593C0003432069034360690343606A43EA0053ED
:10594C0013430B602268536823F4604323F00F0366
:10595C00536021684A68A369E06A0343206B0343E0
:10596C0013434B60226891681D4B0B409360206879
:10597C008268636C013B616D0B43E16C0B43216DE1
:10598C000B43A16C013943EA012313438360226862
:10599C00D36823F47D6323F00F031B041B0CD3602B
:1059AC002068C268A36DE16D0B43616E43EA01434D
:1059BC00216E013943EA01231343C3600020C4F86C
:1059CC008400012384F8813084F8800070BD4FF48A
:1059DC0080609CE701207047CDCCCCCC10C005FF7B
:1059EC000080F8FFC368012B07D0022B03D00022E4
:1059FC00034B1A6070472022FAE71022F8E700BF29
:105A0C000058014002682F4B9A422FD02E4AD2F8F0
:105A1C008C3023F44003C16943EA8103C2F88C3013
:105A2C00294B5B6813F4800F2AD1274B5A6802F07C
:105A3C003F02264BB3FBF2F3C2694AB3B2F5801FA7
:105A4C003BD1214AD2F88410C1F30361D2F884000F
:105A5C00C0F3881003FB00F0B0FBF1F0D2F88C30EF
:105A6C0003F01F030133B0FBF3F07047164AD2F872
:105A7C008C3023F44013C1690B43C2F88C30CFE750
:105A8C00114B5A6802F03F02114BB3FBF2F3D3E710
:105A9C000D4AD2F88810C1F30361D2F88800C0F324
:105AAC00881003FB00F0B0FBF1F0D2F88C30C3F39C
:105ABC0004230133B0FBF3F07047064B01221A604C
:105ACC000548704704580140003802400024F40097
