:020000040800F2
:1000000000000320499E0008999E0008A19A00085C
:10001000A39A0008A59A0008A79A0008000000000B
:10002000000000000000000000000000A99A000885
:10003000AB9A000800000000AD9A0008AF9A0008D3
:10004000999E0008999E0008999E0008999E0008B4
:10005000999E0008999E0008999E0008999E0008A4
:10006000999E0008999E0008999E0008999E000894
:10007000999E0008999E0008999E0008999E000884
:10008000999E0008999E0008999E0008999E000874
:10009000999E0008999E0008999E0008999E000864
:1000A000999E0008999E0008999E0008999E000854
:1000B000999E0008B99A0008999E0008999E000828
:1000C000999E0008999E0008999E0008999E000834
:1000D000999E0008999E0008999E0008999E000824
:1000E000999E0008999E0008999E0008999E000814
:1000F000999E0008999E0008999E0008999E000804
:10010000999E0008C99A0008999E0008999E0008C7
:10011000999E0008999E0008D99A0008E99A00085B
:10012000999E00083D9B0008999E00084D9B000881
:10013000999E0008999E0008999E0008999E0008C3
:10014000999E0008999E0008999E0008999E0008B3
:10015000999E00085D9B0008999E0008999E0008E2
:100160006D9B00087D9B0008999E0008999E0008E1
:10017000999E0008999E0008999E000800000000C2
:10018000999E0008999E0008999E0008999E000873
:10019000999E0008999E0008999E0008999E000863
:0C01A000999E0008999E0008999E000896
:1001B00010B5054C237833B9044B13B10448AFF3A1
:1001C00000800123237010BD6C020020000000009D
:1001D0002C67010808B5034B1BB103490348AFF373
:1001E000008008BD00000000700200202C6701089C
:1001F00081F0004102E000BF83F0004330B54FEAD8
:1002000041044FEA430594EA050F08BF90EA020F44
:100210001FBF54EA000C55EA020C7FEA645C7FEAD7
:10022000655C00F0E2804FEA5454D4EB5555B8BFFA
:100230006D420CDD2C4480EA020281EA030382EA6B
:10024000000083EA010180EA020281EA0303362DFD
:1002500088BF30BD11F0004F4FEA01314FF4801CD0
:100260004CEA113102D0404261EB410113F0004FE2
:100270004FEA03334CEA133302D0524263EB430399
:1002800094EA050F00F0A780A4F10104D5F1200E37
:100290000DDB02FA0EFC22FA05F2801841F1000192
:1002A00003FA0EF2801843FA05F359410EE0A5F166
:1002B00020050EF1200E012A03FA0EFC28BF4CF097
:1002C000020C43FA05F3C01851EBE37101F000454D
:1002D00007D54FF0000EDCF1000C7EEB00006EEB5A
:1002E0000101B1F5801F1BD3B1F5001F0CD34908E4
:1002F0005FEA30004FEA3C0C04F101044FEA44523B
:1003000012F5800F80F09A80BCF1004F08BF5FEAC1
:10031000500C50F1000041EB045141EA050130BDA1
:100320005FEA4C0C404141EB010111F4801FA4F144
:100330000104E9D191F0000F04BF01460020B1FA99
:1003400081F308BF2033A3F10B03B3F120020CDAD1
:100350000C3208DD02F1140CC2F10C0201FA0CF0AF
:1003600021FA02F10CE002F11402D8BFC2F1200C14
:1003700001FA02F120FA0CFCDCBF41EA0C019040CA
:10038000E41AA2BF01EB0451294330BD6FEA040413
:100390001F3C1CDA0C340EDC04F11404C4F12002FE
:1003A00020FA04F001FA02F340EA030021FA04F310
:1003B00045EA030130BDC4F10C04C4F1200220FA67
:1003C00002F001FA04F340EA0300294630BD21FAA5
:1003D00004F0294630BD94F0000F83F4801306BF6B
:1003E00081F480110134013D4EE77FEA645C18BF5F
:1003F0007FEA655C29D094EA050F08BF90EA020FF6
:1004000005D054EA000C04BF1946104630BD91EAED
:10041000030F1EBF0021002030BD5FEA545C05D1F0
:100420004000494128BF41F0004130BD14F580042F
:100430003CBF01F5801130BD01F0004545F0FE41A3
:1004400041F470014FF0000030BD7FEA645C1ABFD8
:10045000194610467FEA655C1CBF0B46024650EA0F
:10046000013406BF52EA033591EA030F41F400213B
:1004700030BD00BF90F0000F04BF0021704730B5C1
:100480004FF4806404F132044FF000054FF0000196
:1004900050E700BF90F0000F04BF0021704730B557
:1004A0004FF4806404F1320410F0004548BF40422C
:1004B0004FF000013EE700BF42004FEAE2014FEA81
:1004C00031014FEA02701FBF12F07F4393F07F4F5C
:1004D00081F06051704732F07F4208BF704793F05F
:1004E0007F4F04BF41F40021704730B54FF4607472
:1004F00001F0004521F000411CE700BF50EA010275
:1005000008BF704730B54FF000050AE050EA01021D
:1005100008BF704730B511F0004502D5404261EB8D
:1005200041014FF4806404F132045FEA915C3FF4CE
:10053000D8AE4FF003025FEADC0C18BF03325FEA6B
:10054000DC0C18BF033202EBDC02C2F1200300FA1C
:1005500003FC20FA02F001FA03FE40EA0E0021FA41
:1005600002F11444BDE600BF70B54FF0FF0C4CF42F
:10057000E06C1CEA11541DBF1CEA135594EA0C0FE1
:1005800095EA0C0F00F0DEF82C4481EA030621EA1C
:100590004C5123EA4C5350EA013518BF52EA033557
:1005A00041F4801143F4801338D0A0FB02CE4FF009
:1005B0000005E1FB02E506F00042E0FB03E54FF039
:1005C0000006E1FB03569CF0000F18BF4EF0010E31
:1005D000A4F1FF04B6F5007F64F5407404D25FEA2D
:1005E0004E0E6D4146EB060642EAC62141EA5551E0
:1005F0004FEAC52040EA5E504FEACE2EB4F1FD0C22
:1006000088BFBCF5E06F1ED8BEF1004F08BF5FEA9F
:10061000500E50F1000041EB045170BD06F0004651
:1006200046EA010140EA020081EA0301B4EB5C04FE
:10063000C2BFD4EB0C0541EA045170BD41F48011F6
:100640004FF0000E013C00F3AB8014F1360FDEBF1B
:10065000002001F0004170BDC4F10004203C35DAF7
:100660000C341BDC04F11404C4F1200500FA05F37A
:1006700020FA04F001FA05F240EA020001F000421B
:1006800021F0004110EBD37021FA04F642EB060191
:100690005EEA430E08BF20EAD37070BDC4F10C04BB
:1006A000C4F1200500FA04F320FA05F001FA04F27F
:1006B00040EA020001F0004110EBD37041F100016B
:1006C0005EEA430E08BF20EAD37070BDC4F1200576
:1006D00000FA05F24EEA020E20FA04F301FA05F2DE
:1006E00043EA020321FA04F001F0004121FA04F286
:1006F00020EA020000EBD3705EEA430E08BF20EA56
:10070000D37070BD94F0000F0FD101F0004640008F
:1007100041EB010111F4801F08BF013CF7D041EA11
:10072000060195F0000F18BF704703F00046520015
:1007300043EB030313F4801F08BF013DF7D043EAE6
:100740000603704794EA0C0F0CEA135518BF95EA9C
:100750000C0F0CD050EA410618BF52EA4306D1D123
:1007600081EA030101F000414FF0000070BD50EA42
:10077000410606BF1046194652EA430619D094EACC
:100780000C0F02D150EA013613D195EA0C0F05D1B6
:1007900052EA03361CBF104619460AD181EA03010A
:1007A00001F0004141F0FE4141F470014FF00000C2
:1007B00070BD41F0FE4141F4780170BD70B54FF05D
:1007C000FF0C4CF4E06C1CEA11541DBF1CEA1355DD
:1007D00094EA0C0F95EA0C0F00F0A7F8A4EB0504BF
:1007E00081EA030E52EA03354FEA013100F08880B6
:1007F0004FEA03334FF0805545EA131343EA12637F
:100800004FEA022245EA111545EA10654FEA002633
:100810000EF000419D4208BF964244F1FD0404F5EC
:10082000407402D25B084FEA3202B61A65EB030548
:100830005B084FEA32024FF480104FF4002CB6EB05
:10084000020E75EB030E22BFB61A754640EA0C0085
:100850005B084FEA3202B6EB020E75EB030E22BFC5
:10086000B61A754640EA5C005B084FEA3202B6EB06
:10087000020E75EB030E22BFB61A754640EA9C00C5
:100880005B084FEA3202B6EB020E75EB030E22BF95
:10089000B61A754640EADC0055EA060E18D04FEA53
:1008A000051545EA16754FEA06164FEAC30343EAF3
:1008B00052734FEAC2025FEA1C1CC0D111F4801FC0
:1008C0000BD141EA00014FF000004FF0004CB6E7B9
:1008D00011F4801F04BF01430020B4F1FD0C88BF58
:1008E000BCF5E06F3FF6AFAEB5EB030C04BFB6EB63
:1008F000020C5FEA500C50F1000041EB045170BD56
:100900000EF0004E4EEA113114EB5C04C2BFD4EB82
:100910000C0541EA045170BD41F480114FF0000E06
:10092000013C90E645EA060E8DE60CEA135594EA82
:100930000C0F08BF95EA0C0F3FF43BAF94EA0C0F85
:100940000AD150EA01347FF434AF95EA0C0F7FF4FA
:1009500025AF104619462CE795EA0C0F06D152EA4E
:1009600003353FF4FDAE1046194622E750EA410632
:1009700018BF52EA43067FF4C5AE50EA41047FF443
:100980000DAF52EA43057FF4EBAE12E74FEA4102A6
:1009900012F5001215D211D56FF47873B3EB6252D1
:1009A00012D94FEAC12343F0004343EA505311F0F8
:1009B000004F23FA02F018BF404270474FF000008A
:1009C000704750EA013005D111F0004008BF6FF0C8
:1009D000004070474FF00000704700BF53B94AB95C
:1009E000002908BF00281CBF4FF0FF314FF0FF3037
:1009F00000F072B9ADF1080C6DE904CE00F006F814
:100A0000DDF804E0DDE9022304B070472DE9F0478A
:100A1000089E04468846002B4BD18A42154667D96A
:100A2000B2FA82F24AB1C2F1200701FA02F320FAC7
:100A300007F7954047EA030894404FEA154E230C08
:100A4000B8FBFEF71FFA85FC0EFB178843EA084344
:100A500007FB0CF1994209D9EB1807F1FF3080F040
:100A60001B81994240F21881023F2B445B1AA4B2C9
:100A7000B3FBFEF00EFB103344EA034400FB0CFC16
:100A8000A44509D92C1900F1FF3380F00781A44552
:100A900040F2048102382C4440EA0740A4EB0C04E5
:100AA00000271EB1D4400023C6E900433946BDE803
:100AB000F0878B4209D9002E00F0EB800027C6E9B1
:100AC000000138463946BDE8F087B3FA83F7002FB6
:100AD00047D18B4202D3824200F2FA80841A61EB42
:100AE000030301209846002EE0D0C6E90048DDE768
:100AF00002B9FFDEB2FA82F2002A40F08F80491B71
:100B00004FEA154E1FFA85F80127B1FBFEFC230CB6
:100B10000EFB1C1143EA014308FB0CF1994207D973
:100B2000EB180CF1FF3002D2994200F2CD808446DE
:100B3000591AA3B2B1FBFEF00EFB101443EA0444B1
:100B400008FB00F8A04507D92C1900F1FF3302D2A9
:100B5000A04500F2B6801846A4EB080440EA0C4019
:100B60009FE7C7F1200CBB4022FA0CFE4EEA030EB1
:100B700001FA07F420FA0CF521FA0CF34FEA1E48AB
:100B80002543B3FBF8F92C0C08FB19331FFA8EFA36
:100B900044EA034309FB0AF49C4202FA07F200FA12
:100BA00007F10BD91EEB030309F1FF3080F08780BA
:100BB0009C4240F28480A9F1020973441B1BADB230
:100BC000B3FBF8F008FB103345EA034400FB0AFAD4
:100BD000A24508D91EEB040400F1FF336BD2A245F5
:100BE00069D90238744440EA0940A0FB0289A4EBA9
:100BF0000A044C45C2464B4654D351D0002E69D00E
:100C0000B1EB0A0564EB030404FA0CFCFD40FC4064
:100C10004CEA0505C6E90054002747E7C2F1200366
:100C200020FA03F7954001FA02F021FA03F34FEAA4
:100C3000154E3843010CB3FBFEF71FFA85F80EFB87
:100C4000173341EA034107FB08F38B4204FA02F42D
:100C500007D9691807F1FF3C2FD28B422DD9023FEB
:100C60002944CB1A81B2B3FBFEF00EFB103341EAEC
:100C7000034100FB08F38B4207D9691800F1FF3CE0
:100C800017D28B4215D902382944C91A40EA0747BE
:100C90003BE73746304609E70746E7E61846FBE6F6
:100CA0004145ABD2B8EB020A69EB0E02013813469C
:100CB000A4E76046E9E7184695E76746D1E781462D
:100CC0007CE702382C4447E7ACF1020C2B442FE7B9
:100CD000384608E73746E9E6704700BF034613F891
:100CE000012B002AFBD1181A0138704708B500F013
:100CF00043FA08BD08B500F023FA08BD08B500F0B6
:100D0000B9F9CA20FFF7F2FFC320FFF7F3FF08206D
:100D1000FFF7F0FF5020FFF7EDFFCF20FFF7E6FFD2
:100D20000020FFF7E7FFC120FFF7E4FF3020FFF7C7
:100D3000E1FFED20FFF7DAFF6420FFF7DBFF032080
:100D4000FFF7D8FF1220FFF7D5FF8120FFF7D2FF72
:100D5000E820FFF7CBFF8520FFF7CCFF0020FFF74F
:100D6000C9FF7820FFF7C6FFCB20FFF7BFFF392070
:100D7000FFF7C0FF2C20FFF7BDFF0020FFF7BAFFF1
:100D80003420FFF7B7FF0220FFF7B4FFF720FFF78B
:100D9000ADFF2020FFF7AEFFEA20FFF7A7FF0020FE
:100DA000FFF7A8FF0020FFF7A5FFB120FFF79EFF88
:100DB0000020FFF79FFF1B20FFF79CFFB620FFF7E7
:100DC00095FF0A20FFF796FFA220FFF793FFC020B0
:100DD000FFF78CFF1020FFF78DFFC120FFF786FF84
:100DE0001020FFF787FFC520FFF780FF4520FFF7A2
:100DF00081FF1520FFF77EFFC720FFF777FF9020C8
:100E0000FFF778FF3620FFF771FFC820FFF772FF6A
:100E1000F220FFF76BFF0020FFF76CFFB020FFF719
:100E200065FFC220FFF766FFB620FFF75FFF0A20CD
:100E3000FFF760FFA720FFF75DFF2720FFF75AFFAE
:100E40000420FFF757FF2A20FFF750FF0020FFF78D
:100E500051FF0020FFF74EFF0020FFF74BFFEF2070
:100E6000FFF748FF2B20FFF741FF0020FFF742FF6D
:100E70000020FFF73FFF0120FFF73CFF3F20FFF777
:100E800039FFF620FFF732FF0120FFF733FF002084
:100E9000FFF730FF0620FFF72DFF2C20FFF726FF7E
:100EA000C82000F085F92620FFF720FF0120FFF77A
:100EB00021FFE020FFF71AFF0F20FFF71BFF29207B
:100EC000FFF718FF2420FFF715FF0C20FFF712FF94
:100ED0000E20FFF70FFF0920FFF70CFF4E20FFF752
:100EE00009FF7820FFF706FF3C20FFF703FF0920EA
:100EF000FFF700FF1320FFF7FDFE0520FFF7FAFEC6
:100F00001720FFF7F7FE1120FFF7F4FE0020FFF790
:100F1000F1FEE120FFF7EAFE0020FFF7EBFE1620CE
:100F2000FFF7E8FE1B20FFF7E5FE0420FFF7E2FED7
:100F30001120FFF7DFFE0720FFF7DCFE3120FFF76F
:100F4000D9FE3320FFF7D6FE4220FFF7D3FE05205F
:100F5000FFF7D0FE0C20FFF7CDFE0A20FFF7CAFEF8
:100F60002820FFF7C7FE2F20FFF7C4FE0F20FFF752
:100F7000C1FE1120FFF7BAFEC82000F019F92920A0
:100F8000FFF7B4FE2C20FFF7B1FE08BD00B589B015
:100F900000210191124B5A6C42F480125A645A6C2F
:100FA00002F480120192019A02911A6B42F020021F
:100FB0001A631B6B03F020030293029B4FF46073D0
:100FC00003930223049305930123069305230793B8
:100FD00003A9044800F098FF09B05DF804FB00BFC6
:100FE000003802400014024010B5104803F0A2FF80
:100FF00000B110BD0D4C0E4B23601823E36100239C
:10100000A36063612361A3620722E262E36023625B
:101010004FF40072A26163624FF4827363602046F2
:10102000FFF7B4FF204603F05CFEE2E788020020F1
:101030000050014008B5034803F093FEFFF7D4FFCA
:1010400008BD00BF8802002000B583B002A921F8C6
:10105000020D064B1B680122054803F098FE10B9EB
:1010600003B05DF804FBFFF7E5FFF9E7000000209F
:10107000880200202F4B93F8583003B170472DE9B8
:10108000F04188B001262B4B83F85860002500956D
:10109000294C236B43F008032363236B03F00803FD
:1010A0000093009B4FF400530393049605954FF073
:1010B0000208CDF81880214F03A9384600F024FF1C
:1010C0000195236B43F008032363236B03F00803AC
:1010D0000193019B4FF48053039304960595CDF83B
:1010E000188003A9384600F00FFF0295236B43F0E8
:1010F00004032363236B03F004030293029B04277E
:10110000039704960595CDF81880A4F5405403A9DB
:10111000204600F0F9FE2A463946204601F082F8C2
:1011200032463946204601F07DF8FFF75DFF08B0F2
:10113000BDE8F0818802002000380240000C024027
:1011400038B5054601224FF40051094801F06AF80C
:10115000084C00220421204601F064F82846FFF7DD
:1011600073FF01220421204601F05CF838BD00BF66
:10117000000C02400008024038B5054600224FF43A
:101180000051094801F04EF8084C00220421204685
:1011900001F048F82846FFF757FF012204212046B6
:1011A00001F040F838BD00BF000C024000080240CA
:1011B00008B500F0CBF908BD2DE9F04782B08246B2
:1011C0004FF00008CDF80480214C01262660082746
:1011D0006760A660C4F80C8004F110054FF6FF723A
:1011E0002146284603F0EDFC304600F0AFF902231B
:1011F00023606760A660C4F80C804FF6FF7221463A
:10120000284603F0DEFC0323236067604FF00409E7
:10121000C4F80890C4F80C804FF6FF7221462846A7
:1012200003F0CFFC4FF40C730193C4F80090676097
:10123000A660019BE3604FF6FF722146284603F04B
:10124000C0FC5146284603F0D9FC02B0BDE8F08747
:10125000E4020020002800F08E8030B58FB000241A
:101260000194454B9A6B42F001029A639A6B02F02B
:1012700001020192019A02941A6B42F480021A63ED
:101280001A6B02F480020292029A03941A6B42F0E3
:1012900002021A631A6B02F002020392039A049488
:1012A0001A6B42F004021A631A6B02F004020492F1
:1012B000049A05941A6B42F008021A631A6B02F042
:1012C00008020592059A06941A6B42F010021A63FE
:1012D0001A6B02F010020692069A07941A6B42F0FB
:1012E00020021A631A6B02F020020792079A0894F0
:1012F0001A6B42F040021A631B6B03F04003089321
:10130000089B02230A930C930B940C230D930EADB0
:10131000602345F8143D2946184800F0F5FD0123E7
:1013200009932946164800F0EFFD4CF20373099328
:101330002946144800F0E8FD4FF6837309932946C7
:10134000114800F0E1FD4FF63F03099329460F488D
:1013500000F0DAFD48F23313099329460C4800F0F7
:10136000D3FD22460F21382000F0A2FA382000F0E9
:10137000D3FA0FB030BD704700380240000402407D
:1013800000080240000C024000100240001402401D
:101390000018024038B51D4C1D4B236102236364C5
:1013A0000721A1640422E26421656365A365E36506
:1013B000012363610021A161E261102323624023C4
:1013C00063624FF4C073A362E1624FF4006323636E
:1013D00061634FF40053A36304F110052846FFF73F
:1013E00039FF04F14401284603F0CCFB48B9094B0E
:1013F00000221A7040F26A50FFF7DEFE054B1878A3
:1014000038BD044B01221A70F4E700BFE40200204B
:10141000400100A01400002030B583B00446324BD8
:101420005B681B698220984780B2208000284AD0E0
:101430002D4B5B685B6901AA0DF10601822098477C
:10144000BDF80430A3F5B4739BB2284AA2FB032372
:10145000DB0805D0244A52889A4201D2531E9BB21F
:10146000BDF8062040F6B8318A422ED8C2F5716226
:101470000E32ADF80620BDF806201D49A1FB021270
:10148000D20805D018490988914201D24A1E92B269
:101490001046154989688A421DD989B2521A92B2FA
:1014A0001D461149C9688B4219D989B25B1A9BB292
:1014B0001A44052A02DD0C4B9860DD600A4B9A68DD
:1014C0006280DB68A38003B030BDC2F56D62083274
:1014D000ADF80620CFE789B28A1A92B2E0E789B266
:1014E000CB1A9BB2E4E700BFA4030020A38B2EBA63
:1014F0008988888808B50B4B1A6842F400721A6014
:101500001A6842F480621A601A6842F480721A60A3
:10151000032000F0BBF9002008F084FA08F038FA44
:10152000002008BD003C0240034A1168034B1B78B1
:101530000B441360704700BF201A022018000020DF
:10154000014B1868704700BF201A022038B50446C6
:10155000FFF7F6FF0546B4F1FF3F02D0044B1B78BE
:101560001C44FFF7EDFF401BA042FAD338BD00BF7B
:1015700018000020494B5A6822F440325A605A68D9
:1015800041680A435A600268536823F480735360C9
:1015900002685368016943EA012353600268536893
:1015A00023F0407353600268536881680B435360B3
:1015B0000268936823F40063936002689368C168CB
:1015C0000B439360826A364B9A4249D00268936813
:1015D00023F07063936002689368816A0B439360A1
:1015E0000268936823F04053936002689368C16A6D
:1015F0000B4393600268936823F0020393600268D0
:101600009368816943EA41039360036A002B32D1F6
:101610000268536823F4006353600268D36A23F4BA
:101620007003D3620168CB6AC269013A43EA02538C
:10163000CB620268936823F4007393600268936836
:10164000016B43EA412393600268936823F480634B
:10165000936002689368416943EA8123936070470D
:101660000268936823F0706393600268936823F0C4
:1016700040539360BEE70268536843F400635360CD
:101680000268536823F46043536001684B68426A00
:10169000013A43EA42334B60BFE700BF00230140F9
:1016A0000100000F30B310B50446036C43B1236C46
:1016B00013F0100F0AD00120002384F83C3010BD35
:1016C000436480F83C3006F06FFFF0E7236C23F4AE
:1016D000885323F0020343F0020323642046FFF7FC
:1016E00049FF00206064236C23F0030343F00103EF
:1016F0002364E1E70120704730B482B000230193F6
:1017000090F83C30012B00F0B580012380F83C308C
:101710000B68092B3ED90568EA689BB203EB4303CB
:101720001E3B072404FA03F322EA0303EB60056877
:10173000EA688C680B8803EB43031E3B04FA03F34F
:101740001343EB604B68062B3AD805686A6B03EBD2
:101750008303053B1F2404FA03F322EA03036B63AC
:1017600005686A6B4B6803EB8303053B0C8804FA3E
:1017700003F313436B6302683F4B9A4250D00268F5
:101780003D4B9A4255D0002380F83C30184602B0B9
:1017900030BC704705682A699BB203EB43030724FA
:1017A00004FA03F322EA03032B6105682A698C68B3
:1017B0000B8803EB430304FA03F313432B61C1E7E4
:1017C0000C2B16D805682A6B03EB8303233B1F24DD
:1017D00004FA03F322EA03032B6305682A6B4B68C0
:1017E00003EB8303233B0C8804FA03F313432B63BB
:1017F000C1E70568EA6A03EB8303413B1F2404FA4F
:1018000003F322EA0303EB620568EA6A4B6803EB21
:101810008303413B0C8804FA03F31343EB62AAE70A
:101820000B68122BABD1154A536843F48003536005
:10183000A5E70B68124A934201D0112BA3D10F4A9E
:10184000536843F4000353600A680D4B9A429AD1DF
:101850000C4B1B680C4AA2FB03239B0C03EB83037A
:101860005A00019202E0019B013B0193019B002B76
:10187000F9D188E702208AE70020014000230140D7
:10188000120000102400002083DE1B43074AD368A7
:1018900023F4E0631B041B0C000200F4E060184317
:1018A00040F0BF6040F40030D060704700ED00E0D1
:1018B00030B4174BDB68C3F30223C3F10704042CD5
:1018C00028BF04241D1D062D18D9033B4FF0FF35FA
:1018D00005FA04F421EA0401994005FA03F322EA27
:1018E0000303194300280BDB0901C9B200F1604072
:1018F00000F5614080F8001330BC70470023E5E735
:1019000000F00F000901C9B2024B1954F4E700BFFF
:1019100000ED00E014ED00E000F01F02400901239B
:101920009340024A42F82030704700BF00E100E0D7
:101930000138B0F1807F0AD2064B5860064AF02188
:1019400082F823100020986007221A607047012057
:10195000704700BF10E000E000ED00E0042805D073
:10196000054A136823F0040313607047024A1368A2
:1019700043F004031360704710E000E0704708B5BF
:10198000FFF7FCFF08BD68B110B5044643792BB1E1
:101990000223637101236371002010BD037106F0FF
:1019A00089FEF5E70120704730B405682C6824F4FF
:1019B00080242C60046863608368402B05D0036832
:1019C00099600368DA6030BC704703689A60036806
:1019D000D960F8E70268D3B2103B0B49A1FB0313AF
:1019E0001B090A49C95CC165032B06D822F47F7222
:1019F00022F003028265806D704722F47F7222F02C
:101A0000030204328265F6E7ABAAAAAA446701087A
:101A1000836A826992B9012B0AD01BB1022B01D0D3
:101A200000207047C36A13F0807F2CD100207047DC
:101A3000C36AB3F1C07F28D000207047B2F5005FC1
:101A400005D0022B29D9032B15D000207047032B7A
:101A500003D8DFE803F01C041C0A00207047C36AA7
:101A600013F0807F15D100207047C36AB3F1C07FA7
:101A700011D000207047C36A13F0807F01D001208D
:101A800070470020704701207047012070470120F7
:101A90007047012070470120704701207047000007
:101AA00070B50446FFF74CFD002C5BD005460023C3
:101AB00084F83430022384F835302268136823F028
:101AC0000103136023681A6812F0010F0AD0FFF7B0
:101AD00037FD401B0528F5D920236365032084F8D2
:101AE000350070BD1A68204810406168A2680A433A
:101AF000E1680A4321690A4361690A43A1690A430B
:101B0000E1690A43216A0A430243616A04291ED03B
:101B10001A602668756925F00705636A1D43042B62
:101B200007D1A36A1D43E36A1BB12046FFF770FF8C
:101B300090B975612046FFF74DFFE26D3F2393405A
:101B4000836000206065012384F83530C9E7E16ACD
:101B5000206B01430A43DBE740236365012084F8DF
:101B60003500BEE70120BCE73F8010F038B5856D39
:101B700090F83440012C31D0012480F8344090F8A2
:101B80003540E4B2012C04D0002380F83430022028
:101B900038BD0446022084F83500002060652046E8
:101BA000FFF702FFE26D3F239340AB6022681368AA
:101BB00043F0160313602268536943F080035361B6
:101BC000236C23B12268136843F008031360226872
:101BD000136843F0010313600020D9E70220D7E720
:101BE00090F83530DBB2022B03D08023436501200F
:101BF0007047052380F835300268136823F001032D
:101C00001360002070470000F0B583B00446002345
:101C10000193724B1D68724BA3FB0535AD0A876DAE
:101C20003E68C26D08239340334210D003681A689F
:101C300012F0040F0BD01A6822F004021A60C26D71
:101C400008239340BB60436D43F001034365E26D9D
:101C500001239340334209D02268526912F0800F69
:101C600004D0BB60636D43F002036365E26D04233F
:101C70009340334209D02268126812F0020F04D058
:101C8000BB60636D43F004036365E26D1023934012
:101C9000334224D02268126812F0080F1FD0BB60B4
:101CA00023681A6812F4802F0DD01B6813F4002FDC
:101CB00004D1236C9BB12046984710E0A36C73B10C
:101CC000204698470BE01A6812F4807F03D11A6807
:101CD00022F008021A60236C0BB120469847E26D8F
:101CE00020239340334255D02268126812F0100F1F
:101CF00050D0BB6094F83530DBB2052B0ED0236892
:101D00001A6812F4802F33D01B6813F4002F2AD1E5
:101D1000636C002B3ED0204698473BE02268136856
:101D200023F0160313602268536923F08003536184
:101D3000236CA3B12268136823F008031360E26DDB
:101D40003F239340BB60002384F83430012384F8A0
:101D50003530236D002B3FD0204698473CE0A36CE4
:101D6000002BE7D1EBE7E36BA3B12046984711E0E6
:101D70001A6812F4807F09D11A6822F010021A60E2
:101D8000002384F83430012384F83530E36B0BB141
:101D900020469847636DFBB1636D13F0010F17D0B8
:101DA000052384F835302268136823F0010313609B
:101DB000019B01330193AB4204D823681B6813F0E5
:101DC000010FF5D1002384F83430012384F8353035
:101DD000E36C0BB12046984703B0F0BD240000200F
:101DE000B5814E1B48B310B5044690F83930FBB1AD
:101DF000022384F839302268136823F44033616881
:101E00000B4313602268536B23F00703A1680B4355
:101E100053632268136C23F47F5323F03F03E1687C
:101E20000B4313640020E063012384F8393010BDB4
:101E300080F8383006F0A6FCDAE701207047000091
:101E400090F83830012B5BD030B4012380F8383063
:101E5000022380F8393000EB0113DB69A3F109029A
:101E6000012A21D98A1C12018418825843EA0243AC
:101E7000626843EA026359BB0468656A214A2A40E2
:101E800013436362026800EB01139C699461DB6990
:101E9000093B012B13D9012380F83930002380F846
:101EA0003830184630BC70478A1C1201841882589A
:101EB00043EA0243626802F07F421343DBE70231E8
:101EC00000EB01114B68026823F07F439362E2E765
:101ED0000468E5690B4A2A401343E361026800EB9A
:101EE00001139C691461DB69093B012BD3D80231D2
:101EF00000EB01114B68026823F07F431362CAE7CD
:101F000002207047F0FFFC0000230F2B00F2E3805B
:101F1000F0B482B039E0092200E00022B2403A4336
:101F200002346D4E46F824206C4A1468EA4302EAF3
:101F300004064F6817F4803F01D045EA0406674C59
:101F40002660646802EA04064F6817F4003F01D077
:101F500045EA0406614C6660A46802EA04064F681C
:101F600017F4801F01D045EA04065C4CA660E468C3
:101F700022404E6816F4001F01D045EA0402574C77
:101F8000E26001330F2B00F2A38001229A400C681B
:101F900004EA0205AA42F4D14C68022C01D0122CAA
:101FA00010D1DE08083650F826C003F00704A70059
:101FB0000F24BC402CEA040C0C69BC4044EA0C041D
:101FC00040F8264004685F000326BE40F64306EA58
:101FD000040C4C6804F00304BC4044EA0C040460A4
:101FE0004C6804F1FF3CBCF1010F03D9112C01D066
:101FF000122C10D1846806EA040CCC68BC4044EA78
:102000000C048460446824EA02024C68C4F300149F
:102010009C4014434460C26816408A68BA40324308
:10202000C2604A6812F0805FABD0002201922C4A55
:10203000546C44F480445464526C02F48042019223
:10204000019A9C08A61C244A52F8267003F0030249
:1020500096000F22B24027EA0207224A90423FF43C
:102060005CAF02F58062904222D002F5806290421D
:1020700020D002F5806290421ED002F5806290422C
:102080001CD002F5806290421AD002F58062904224
:1020900018D002F58062904216D002F5806290421C
:1020A00014D002F5806290423FF435AF0A2235E742
:1020B000012233E7022231E703222FE704222DE732
:1020C00005222BE7062229E7072227E7082225E732
:1020D00002B0F0BC7047704700380140003C01403E
:1020E000003802400000024000230F2B00F29280D3
:1020F000F0B50AE0092500E0002505FA02F2A24247
:102100006FD001330F2B00F2848001229A4002EA43
:102110000106B242F5D105685F000324BC40E443E8
:10212000254005604FEAD30C0CF1080C50F82CE068
:1021300003F00705AD000F2707FA05F52EEA0505A0
:1021400040F82C50856825408560456825EA0202E4
:102150004260C2681440C4604FEA930C0CF1020460
:102160002D4A52F8244003F00302920097403C406D
:102170002A4DA842C0D005F58065A84221D005F5BA
:102180008065A8421FD005F58065A8421DD005F5E1
:102190008065A8421BD005F58065A84219D005F5D9
:1021A0008065A84217D005F58065A84215D005F5D1
:1021B0008065A84213D005F58065A8429AD00A250B
:1021C0009BE7012599E7022597E7032595E7042575
:1021D00093E7052591E706258FE707258DE7082575
:1021E0008BE70D4D0CF1020255F8224024EA070757
:1021F00045F822700A4C2568F24315402560656851
:1022000015406560A5681540A560E5682A40E26054
:1022100077E7F0BD704700BF003801400000024082
:10222000003C014012B90904816170478161704727
:10223000436959404161704790F83E30DBB2402B12
:1022400013D00369B3F5804F1ED0036D002B2DD042
:10225000036D012B33D1436CC3F3C813026803F041
:10226000060343F0F103136129E0036D2BB9436CBE
:10227000026803F0FE03136121E0436C026843F03F
:102280000103DBB213611AE090F83D30DBB2212B81
:1022900006D0436C026843F00103DBB213610EE029
:1022A000436C026803F0FE03136108E0436CC3F360
:1022B000C813026803F0060343F0F0031361002023
:1022C0007047436C0268DBB213610020704710B4A2
:1022D0008BB090F83E30DAB2C16A046B90F83D30B2
:1022E000DBB2222B0CD00023099303685A690992B0
:1022F0009B690993099B00200BB05DF8044B704764
:10230000036D0BB9402A17D0036D1BB90369B3F5F0
:10231000404F19D0438D9BB2002B25D10293036807
:102320005A6902929A690292029A1A6842F40072F9
:102330001A6000230365DEE7009303685A69009280
:102340009B690093009BD6E70023019303685A69B9
:1023500001929A690192019A1A6842F480721A6095
:10236000036D01330365C6E7438D9BB2012B1AD081
:10237000438D9BB2022B6BD00268136843F48063D9
:10238000136003685A6812F4006F03D05A6842F46D
:1023900080525A600023089303685A6908929B6927
:1023A0000893089BC5E711F5803F16D004293DD05E
:1023B00008293BD0122C39D0C36A022B30D00268D6
:1023C000136823F4806313600023059303685A693C
:1023D00005929B690593059BABE70268136823F49C
:1023E0008063136003685A6812F4006F0CD01A6897
:1023F00022F480621A600023039303685A690392EF
:102400009B690393039B94E7002204925A69049208
:102410009A690492049A1A6842F400721A6088E772
:102420000268136843F480631360CDE702681368A1
:1024300023F4806313600023069303685A690692AD
:102440009A690692069A1A6842F400721A6070E756
:10245000C36A022B1BD00268136823F480631360E5
:102460000268136843F40063136003685A6812F447
:10247000006F03D05A6842F480525A6000230793D9
:1024800003685A6907929B690793079B51E70268A3
:10249000136843F480631360E7E7438D9BB24BB14D
:1024A000436A5A1C426202681B781361438D013BE8
:1024B0009BB2438500207047438D9BB24BB10368AC
:1024C0001A69436A591C41621A70438D013B9BB2E1
:1024D00043850020704770477047704708B590F8F3
:1024E0003D30DAB2438D9BB273B1436A591C4162ED
:1024F00001681B780B61438D013B9BB24385438D83
:102500009BB20BB9292A01D0002008BD026853688C
:1025100023F48063536021230363282380F83D3034
:10252000FFF7DBFFF0E7704790F83D30DAB2438DFC
:102530009BB2F3B110B503681969436A5C1C44622D
:102540001970438D013B9BB24385438D9BB20BB900
:102550002A2A01D0002010BD0268536823F480634A
:10256000536022230363282380F83D30FFF7DBFF0D
:10257000F0E700207047704708B503689A6912F0C9
:10258000040F09D000219B6913F0800F06D0028B45
:10259000FFF7F1FF002008BD0121F4E78289F7E78A
:1025A0007047000008B590F83D30DBB2C26A042ADB
:1025B00001D0082A01D1282B07D0212B1FD0036876
:1025C0006FF480625A61002008BD1A4BC362026832
:1025D000536823F4E063536003686FF480625A61C8
:1025E0000268136823F480631360002303632022CE
:1025F00080F83D2080F83E30FFF7D2FFE3E70D4B37
:10260000C36221230363202380F83D30002380F838
:102610003E300268536823F4E063536003686FF44C
:1026200080625A610268136823F480631360FFF7C5
:1026300054FFC8E70000FFFF704710B590F83D3029
:10264000DBB290F83E20D2B2C46A018D09B9212BC9
:1026500005D0212B3CD0402A38D0002010BD042CBE
:1026600004D0082C02D014F5803F19D102685368B9
:1026700023F4E06353600268136843F4007313604B
:1026800000230363202380F83D3090F83E30DBB216
:10269000402B15D0002380F83E30FFF71CFFDCE70D
:1026A0000268536823F4E06353601123036300233B
:1026B00080F83E30202380F83D30FFF70CFFCCE758
:1026C000002380F83E30FFF7B7FFC6E7222BC4D1C6
:1026D000438D9BB27BB190F83E30DBB2402B10D0E3
:1026E000436A5A1C426202681B781361438D013BA6
:1026F0009BB24385B1E70268536823F4806353605B
:10270000ABE7036D9BB9C36C012B08D0836CC3F39B
:10271000072302681361036D013303659DE7836C32
:102720000268DBB21361036D0233036595E7036D45
:10273000012B17D0036D022B8FD190F83D30DBB207
:10274000222B17D090F83D30DBB2212B85D1436A84
:102750005A1C426202681B781361438D013B9BB295
:1027600043857AE7836C0268DBB21361036D013342
:10277000036572E70268136843F4807313606CE7C3
:1027800008B5C26A90F83D30DBB2212B01D00020A1
:1027900008BD438D9BB203BB042A04D0082A02D093
:1027A00012F5803F24D10268536823F4E06353603C
:1027B0000268136843F4007313600023036320234B
:1027C00080F83D3090F83E30DBB2402B20D0002323
:1027D00080F83E30FFF77FFED9E7436A5A1C426219
:1027E00002681B781361438D013B9BB24385CEE7A2
:1027F0000268536823F4E0635360112303630023EA
:1028000080F83E30202380F83D30FFF764FEBEE7BD
:10281000002380F83E30FFF70FFFB8E7704708B598
:1028200090F83D30DBB2222B01D0002008BD438D53
:102830009BB2032B13D903681A69436A591C41627E
:102840001A70438D013B9BB24385438D9BB2032B92
:10285000EBD10268536823F480635360E5E7012BF2
:10286000E3D80268136823F4806313600268536836
:1028700023F4E063536003681A69436A591C416298
:102880001A70438D013B9BB24385202380F83D3075
:102890000023036390F83E30DBB2402B05D00023C9
:1028A00080F83E30FFF718FEBFE7002380F83E3087
:1028B000FFF7B4FFB9E708B5C26A438D9BB2042B9A
:1028C00013D0438D9BB2032B1FD0438D9BB2022BA1
:1028D00030D003681A69436A591C41621A70438DEB
:1028E000013B9BB24385002008BD0268536823F476
:1028F0008063536003681A69436A591C41621A7005
:10290000438D013B9BB24385EDE70268536823F496
:10291000806353600268136823F480631360036864
:102920001A69436A591C41621A70438D013B9BB27C
:102930004385D8E7013A012A2DD90268136843F488
:102940000073136003681A69436A591C41621A7064
:10295000438D013B9BB2438503681A69436A591C46
:1029600041621A70438D013B9BB2438502685368F4
:1029700023F440735360202380F83D300023036329
:1029800090F83E30DBB2402B10D0002380F83E3070
:10299000FFF7A2FDA7E70268136823F480631360C2
:1029A0000268136843F480731360CBE7002380F858
:1029B0003E30FFF733FF96E77047704710B5044687
:1029C00090F83D30293B012B37D990F83D30DBB2F0
:1029D000602B07D003685B6813F4006F02D12023DB
:1029E00080F83D300023236384F83E30226813686A
:1029F00023F40063136023685A6812F4006F3FD019
:102A00005A6822F400625A60626B92F83530DBB289
:102A1000012B18D03A4B1365606BFFF7E1F80028E3
:102A20003FD02268136823F001031360202384F849
:102A30003D30606B036D984733E000230363282328
:102A400080F83D30D2E7A36B2D4A1A65A06BFFF7E3
:102A5000C7F830B323685A6912F0400F04D01A69DE
:102A6000636A591C61621A702268136823F00103BB
:102A70001360202384F83D30A06B036D984710E06D
:102A800094F83D20D2B2602A11D05A6912F0400F5A
:102A900004D01A69636A591C61621A702046FFF7F4
:102AA0008BFF94F83D30DBB2282B17D010BD2022CD
:102AB00084F83D20002222645A6912F0400F04D0AD
:102AC0001A69636A591C61621A702268136823F0DC
:102AD000010313602046FFF770FFE2E7236C13F059
:102AE000040FE3D0074BE36200232363202284F822
:102AF0003D2084F83E302046FFF752FDD6E700BF68
:102B0000452E00080000FFFF10B582B090F83D3060
:102B1000DBB201684A6822F4E0624A600022019256
:102B2000026851690191116841F001011160019A37
:102B300001680A6822F480620A6001684A6812F437
:102B4000006F14D090F83D20D2B2222A0AD090F81B
:102B50003D20D2B22A2A05D0426B1268526892B246
:102B6000428504E0826B1268526892B24285428DBF
:102B700092B2F2B14A6912F0040F08D00969426AB0
:102B8000541C44621170428D013A92B2428502682F
:102B9000516911F0400F08D01169426A541C446217
:102BA0001170428D013A92B24285026C42F00402E9
:102BB0000264026CA2B9282B15D02A2B13D0292B22
:102BC00011D0026B222A01D0222B17D100230363DC
:102BD000202280F83D2080F83E30FFF7A4FC0DE075
:102BE000FFF7ECFE0AE0074BC362002303632022D9
:102BF00080F83D2080F83E30FFF7D2FC002002B084
:102C000010BD00BF0000FFFFF8B5054603689F69CF
:102C10005C695E6890F83E30DBB2102B25D0402B0B
:102C200023D04C4B234013B116F4007F6ED14A4B96
:102C3000234013B116F4007F6BD1484B3B40002B6F
:102C40006FD0474B234033B116F4806F03D0454B10
:102C50002340002B61D0434B234053B316F4007F35
:102C600027D02846FFF719FC23E014F0011F02D0FB
:102C700016F4007F1ED13C4B234013B116F4007FA5
:102C80001CD1344B234013B116F4007F1AD1334BBF
:102C90003B401BB3324B23402BB116F4806F02D064
:102CA000304B234093B12F4B234013B116F4007FD8
:102CB00010D1F8BD2846FFF7BFFAE8E72846FFF72E
:102CC00000FBE4E72846FFF702FBE0E72846FFF7B2
:102CD000B4FCEEE72846FFF753FDEAE7234B234019
:102CE0002BB116F4806F02D01E4B234053B11D4B05
:102CF0002340002BDDD016F4007FDAD02846FFF702
:102D0000DAFDD6E72846FFF78AFDD2E7FFF734FC65
:102D1000CFE72846FFF7F8FECBE72846FFF7DEFBB4
:102D2000C7E7124B23402BB116F4806F02D00D4B36
:102D3000234053B10B4B2340002BBAD016F4007F35
:102D4000B7D02846FFF7B8FBB3E72846FFF7ECFB00
:102D5000AFE700BF020001001000010004001000F6
:102D60008000010004000100080001004000010093
:102D700070B5044603685D695E68314A154209D042
:102D800016F4807F06D0026C42F0010202646FF4F8
:102D900080725A6115F4813F0AD016F4807F07D003
:102DA000236C43F00203236423686FF400725A61BA
:102DB00015F4823F1AD016F4807F17D094F83E3075
:102DC000DBB2628D91B294F83D20D2B2206B202B01
:102DD0001DD0236C43F00403236494F83E30DBB22F
:102DE000102B22D023686FF480625A6115F4843F5F
:102DF0000AD016F4807F07D0236C43F008032364C5
:102E000023686FF400625A61236CA3B970BD002976
:102E1000DFD1212A05D0292A03D0282AD9D1212877
:102E2000D7D12046FFF7BEFBE0E72268136843F4E2
:102E300000731360D6E72046FFF7C0FDE6E700BF4A
:102E40000001010008B5806B0268136823F48063F9
:102E5000136000234385426B1365826B136590F802
:102E60003D30DBB2602B0DD0202380F83D300023B5
:102E700080F83E300268136823F001031360FFF707
:102E80009BFD08BD202380F83D30002380F83E30B4
:102E900003640268136823F001031360FFF78DFDDC
:102EA000EFE7F0B44D680468E368C3F30B431D44D7
:102EB000D2011444D4F8883003F47043C4F8883045
:102EC0000B680468E668C6F30B46334401331444C8
:102ED00043EA0543C4F88830CD680468E368C3F367
:102EE0000A031D441444D4F88C3003F47043C4F82E
:102EF0008C308B680468E668C6F30A0633440133F5
:102F0000144443EA0543C4F88C3003681344D3F8EF
:102F1000944024F00704C3F89440036813440C69F8
:102F2000C3F8944091F831C091F832708E69056809
:102F30001544D5F89C300024C5F89C4091F83030F9
:102F400043EA0C2343EA07430568154443EA066352
:102F5000C5F89C3003681344D3F8985025F0FF055A
:102F6000C3F89850036813444D69C3F89850036838
:102F70001344D3F8A05025F4E06525F00705C3F805
:102F8000A050CD690E6A036813443543C3F8A050BE
:102F900003681344D3F8AC50C3F8AC40036813443F
:102FA0004C6AC3F8AC400B696BB1012B3CD0042BCD
:102FB0003CD0022B08D0032B3AD0072B01D00123A1
:102FC00002E0022300E0042304681444D4F8B05063
:102FD00005F0E025C4F8B0508C6A03FB04F54C689A
:102FE0000E68A41B03FB04F303330468144443EA90
:102FF0000543C4F8B03003681344D3F8B44024F454
:10300000FF6424F00704C3F8B44003681344C96A9A
:10301000C3F8B41003681A44D2F8843043F00103B3
:10302000C2F88430F0BC70470323CDE70223CBE71E
:103030000223C9E7002872D038B5044690F8A130C1
:10304000002B67D0022384F8A1302268936923F013
:103050007043936121688A696368A0680343E068EC
:1030600003432069034313438B6121688A682D4B16
:103070001A408A60656920688268A16941EA054151
:103080000A4382602168CA681A40CA60E5692068FC
:10309000C268216A41EA05410A43C26021680A699F
:1030A0001A400A61656A20680269A16A41EA05411D
:1030B0000A43026121684A6913404B61E06A216852
:1030C0004B69226B42EA004213434B6194F835008E
:1030D00094F836301B042168CA6A02F07F42CA6243
:1030E0002168CA6A43EA002394F834000343134377
:1030F000CB622268536B43F00603536322689369E3
:1031000043F0010393610020C4F8A400012384F874
:10311000A13038BD80F8A03005F086FE92E701208E
:10312000704700BF00F800F010B5044605F000FF3E
:103130000020C4F8A40084F8A10084F8A00010BD09
:1031400090F8A030012B27D02DE9F04194460F468E
:1031500006464FF0010880F8A080022380F8A130D5
:10316000342404FB020438340D460FCD0FC40FCDB8
:103170000FC40FCD0FC42B6823606246394630461A
:10318000FFF78FFE3368C3F8248086F8A180002003
:1031900086F8A000BDE8F0810220704790F8A030CA
:1031A000012B1DD030B4012480F8A040022380F808
:1031B000A1300368D2011344D3F8905005F07F4545
:1031C000C3F8905003681A44C2F8901003685C6218
:1031D00080F8A140002380F8A030184630BC70472A
:1031E00002207047F0B490F8A040012C36D00124A2
:1031F00080F8A040022480F8A140002612E006EBEF
:1032000006140F68FDB245EA046407F47F452C43B9
:1032100007F47F073C430431056805EBC315C5F887
:10322000C4400136964210D2342404FB0304A46C3B
:10323000062CE4D00D68ECB244EA066405F47F473E
:103240003C4305F47F052C43E5E7012380F8A130DA
:10325000002380F8A0301846F0BC70470220FBE73E
:1032600090F8A030012B17D0012280F8A020022373
:1032700080F8A130036803EBC111D1F8843043F02A
:103280000203C1F8843003685A6280F8A120002349
:1032900080F8A030184670470220704790F8A030A0
:1032A000012B17D0012280F8A020022380F8A13042
:1032B000036803EBC111D1F8843023F00203C1F895
:1032C000843003685A6280F8A120002380F8A0307F
:1032D000184670470220704790F8A030012B17D095
:1032E000012280F8A020022380F8A130036803EBBC
:1032F000C111D1F8843043F01003C1F88430036861
:103300005A6280F8A120002380F8A0301846704748
:1033100002207047F8B590F8A040012C21D0044657
:10332000012580F8A050022084F8A100342000FB81
:1033300003F000F1380720448163066E0E44C66333
:103340000264466E324442641A46E1192046FFF791
:10335000A8FD23685D6284F8A150002084F8A000D5
:10336000F8BD0220FCE738B590F8A030012B19D049
:103370000446012580F8A050022380F8A1303423B0
:1033800003FB02F303F138002344D96421182046DB
:10339000FFF787FD23685D6284F8A150002084F860
:1033A000A00038BD0220FCE738B590F8A030012B12
:1033B00019D00446012580F8A050022380F8A130DE
:1033C000342303FB02F303F138002344D9652118A9
:1033D0002046FFF766FD23685D6284F8A150002057
:1033E00084F8A00038BD0220FCE7000090F8A0306F
:1033F000012B1AD010B4012280F8A020022380F8FB
:10340000A1300468636B23F001036363084B196404
:1034100001684B6B13434B6380F8A120002380F8B5
:10342000A03018465DF8044B70470220704700BF7B
:1034300000680140002800F0BB8170B582B00446EE
:10344000036813F0010F3BD0A74B9B6803F00C03FC
:10345000042B2CD0A44B9B6803F00C03082B21D029
:103460006368B3F5803F4FD0B3F5A02F52D09E4B89
:103470001A6822F480321A601A6822F480221A60D4
:103480006368002B50D0FEF75BF80546964B1B682F
:1034900013F4003F14D1FEF753F8401B6428F5D90C
:1034A00003208AE1904B5B6813F4800FD8D08E4BD9
:1034B0001B6813F4003F03D06368002B00F07A818F
:1034C000236813F0020F55D0874B9B6813F00C0F45
:1034D0003ED0854B9B6803F00C03082B33D0E36888
:1034E000002B68D0814B01221A60FEF729F80546AF
:1034F0007D4B1B6813F0020F54D1FEF721F8401BDF
:103500000228F5D9032058E1774A136843F4803341
:103510001360B5E7744B1A6842F480221A601A6887
:1035200042F480321A60ABE7FEF70AF805466E4BAC
:103530001B6813F4003FC3D0FEF702F8401B642859
:10354000F5D9032039E1684B5B6813F4800FC6D1CD
:10355000654B1B6813F0020F04D0E368012B01D008
:1035600001202AE1604A136823F0F803216943EA45
:10357000C1031360236813F0080F40D0636963B37D
:103580005B4B01221A60FDF7DBFF0546564B5B6F74
:1035900013F0020F33D1FDF7D3FF401B0228F5D9FA
:1035A00003200AE1504A136823F0F803216943EA33
:1035B000C1031360DEE74D4B00221A60FDF7C0FF28
:1035C0000546494B1B6813F0020FD3D0FDF7B8FF37
:1035D000401B0228F5D90320EFE0454B00221A607A
:1035E000FDF7AEFF0546404B5B6F13F0020F06D0B0
:1035F000FDF7A6FF401B0228F5D90320DDE0236874
:1036000013F0040F79D0384B1B6C13F0805F33D16B
:1036100000230193344B1A6C42F080521A641B6CE5
:1036200003F080530193019B0125324B1B6813F477
:10363000807F23D0A368012B34D0052B38D02A4BB0
:103640001A6F22F001021A671A6F22F004021A6739
:10365000A368002B36D0FDF773FF0646224B1B6F85
:1036600013F0020F48D1FDF76BFF801B41F2883346
:103670009842F3D90320A0E00025D6E71D4A13683D
:1036800043F480731360FDF75BFF0646194B1B681C
:1036900013F4807FCED1FDF753FF801B0228F5D9AC
:1036A00003208AE0104A136F43F001031367CFE74A
:1036B0000D4B1A6F42F004021A671A6F42F00102B2
:1036C0001A67C5E7FDF73CFF0646074B1B6F13F073
:1036D000020F11D0FDF734FF801B41F2883398426E
:1036E000F3D9032069E000BF0038024000004742E0
:1036F000800E474200700040E5B9A369002B5BD003
:10370000304A926802F00C02082A58D0022B17D0D7
:103710002D4B00221A60FDF713FF0446294B1B684E
:1037200013F0007F42D0FDF70BFF001B0228F5D9F4
:10373000032042E0234A136C23F080531364DCE738
:10374000214B00221A60FDF7FBFE05461D4B1B684E
:1037500013F0007F06D0FDF7F3FE401B0228F5D9D9
:1037600003202AE0E369226A1343626A43EA821370
:10377000A26A5208013A43EA0243E26A43EA026358
:10378000104A5360104B01221A60FDF7D9FE04461F
:103790000C4B1B6813F0007F06D1FDF7D1FE001B18
:1037A0000228F5D9032008E0002006E0002004E00C
:1037B00001207047012000E0002002B070BD012010
:1037C000FBE700BF0038024060004742324B9B6875
:1037D00003F00C03042B5CD0082B01D02F4870475A
:1037E0002DE9F04B2C4B5A6802F03F025B6813F452
:1037F000800F2BD0284B5B68C3F388131E4600272D
:103800005C010025E41A65EB0705A90141EA946112
:10381000A001001B61EB0501CB0043EA5073C4001B
:10382000A01943EB07014B0243EAD0534402204660
:1038300019460023FDF7D2F8174B5B68C3F3014329
:1038400001335B00B0FBF3F0BDE8F08B124B5B681B
:10385000C3F388131E4600275C010025E41A65EBBC
:103860000705A90141EA9461A001001B61EB050174
:10387000CB0043EA5073C400A01943EB07018B024D
:1038800043EA90538402204619460023FDF7A6F828
:10389000D2E70348704700BF003802400024F4001C
:1038A00000127A00002800F09D8070B504464F4B4E
:1038B0001B6803F00F038B4209D2CBB24B4A137043
:1038C000136803F00F038B4201D0012070BD236801
:1038D00013F0020F17D013F0040F04D0444A93687A
:1038E00043F4E0539360236813F0080F04D0404A78
:1038F000936843F4604393603D4A936823F0F00378
:10390000A068034393600D46236813F0010F32D083
:103910006368012B21D09A1E012A25D9344A1268E6
:1039200012F0020F60D032498A6822F0030213437A
:103930008B60FDF705FE06462D4B9B6803F00C03DC
:103940006268B3EB820F16D0FDF7FAFD801B41F2DF
:1039500088339842F0D90320B8E7254A126812F458
:10396000003FE0D10120B1E7214A126812F0007F48
:10397000D9D10120AAE71D4B1B6803F00F03AB420E
:1039800009D9EAB2194B1A701B6803F00F03AB4256
:1039900001D001209AE7236813F0040F06D0144ADF
:1039A000936823F4E053E1680B439360236813F0BA
:1039B000080F07D00E4A936823F46043216943EA55
:1039C000C1039360FFF702FF094B9B68C3F3031326
:1039D000084AD35CD840084B1860002006F022F853
:1039E000002073E70120704701206FE7003C024090
:1039F00000380240B468010824000020014B186818
:103A0000704700BF2400002008B5FFF7F7FF044B04
:103A10009B68C3F38223034AD35CD84008BD00BF30
:103A200000380240C468010808B5FFF7E7FF044BFF
:103A30009B68C3F34233034AD35CD84008BD00BF40
:103A400000380240C46801080F2303600B4B9A68DA
:103A500002F0030242609A6802F0F00282609A6803
:103A600002F4E052C2609B68DB0803F4E053036198
:103A7000034B1B6803F00F030B60704700380240D4
:103A8000003C024030B583B00446036813F0030FD6
:103A900014D1236813F00C0F5AD1236813F0200FB0
:103AA00040F0AF80236813F0100F00F0118194F8FC
:103AB0002C20884B1A60002003B030BD864B0022BA
:103AC0001A60FDF73DFD0546844B1B6813F0006F3F
:103AD00006D0FDF735FD401B0228F5D90320EBE7A2
:103AE000236813F0010F07D06268A3681B0743EA3D
:103AF00082137A4AC2F88430236813F0020F15D07B
:103B0000764AD2F884106068E3681B0643EA8013A3
:103B100001F0E0410B43C2F88430D2F88C3023F03E
:103B20001F03E16901390B43C2F88C306A4B012253
:103B30001A60FDF705FD0546684B1B6813F0006F22
:103B4000A7D1FDF7FDFC401B0228F5D90320B3E700
:103B5000634B00221A60FDF7F3FC05465F4B1B68C0
:103B600013F0005F06D0FDF7EBFC401B0228F5D9EF
:103B70000320A1E7236813F0040F16D0574AD2F8A8
:103B80008810206963691B0643EA801301F0E04155
:103B90000B43C2F88830D2F88C3023F4F853216AF2
:103BA000013943EA0123C2F88C30236813F0080F6F
:103BB00014D04A4AD2F88830216903F0706343EA8E
:103BC0008113A16943EA0173C2F88830D2F88C30BE
:103BD00023F44033616A0B43C2F88C30404B01221E
:103BE0001A60FDF7ADFC05463C4B1B6813F0005F07
:103BF0007FF453AFFDF7A4FC401B0228F4D9032047
:103C00005AE700230193354B1A6C42F080521A6434
:103C10001B6C03F080530193019B324A136843F4F9
:103C200080731360FDF78CFC05462E4B1B6813F464
:103C3000807F06D1FDF784FC401B0228F5D90320C4
:103C40003AE7264B1B6F13F4407312D0A26A02F4BA
:103C500040729A420DD0214B1A6F22F440722249D1
:103C600001200860002008601A671B6F13F0010F25
:103C700012D1A36A03F44072B2F5407F1DD0174AF7
:103C8000936823F4F813936014490B6FA26AC2F38C
:103C90000B0213430B6705E7FDF752FC05460F4B7C
:103CA0001B6F13F0020FE4D1FDF74AFC401B41F2F9
:103CB00088339842F3D90320FEE608498A6822F443
:103CC000F81223F0704323F4407313438B60DBE757
:103CD0000020F1E6E0114742680047420038024008
:103CE0007000474200700040400E474201290AD050
:103CF0000123426B082A08D04268023A012A0CD9F3
:103D000043F0040070470923F3E74268032A01D017
:103D1000012AF1D143F01003EEE743F06000704751
:103D20000E4B1B680E4AA2FB03231B0B9B00016872
:103D30000A6822F480320A605A1E3BB1036819688F
:103D4000134611F4803FF7D100207047D0F884303B
:103D500043F04003C0F88430032070472400002063
:103D60001BECCB95002800F0AD8070B5044690F8B0
:103D700081309BB1022384F881302046FFF7D0FFC9
:103D8000204600F051F9236A6BB963681BB3022B1C
:103D900021D0236C012B2ED0002621E080F880302A
:103DA00005F03EFBE6E7204600F04EF900EB800010
:103DB0004100236A5B02B1FBF3F1434BA3FB0123F8
:103DC000DB08636203EB830042008A1A082ADCD90D
:103DD00001336362D9E7236C012B0AD04FF40076DC
:103DE000A268012A6BD04AB1032A07D84FF40060B9
:103DF00005E00026F4E74FF40076F1E700202168A3
:103E00000B68324A1A400A6021680A686368656B69
:103E10002B43A56B2B43E56B2B4333430343A06A32
:103E200003432069034360690343606A43EA005324
:103E300013430B602268536823F4604323F00F039D
:103E4000536021684A68A369E06A0343206B034317
:103E500013434B60226891681D4B0B4093602068B0
:103E60008268636C013B616D0B43E16C0B43216D18
:103E70000B43A16C013943EA012313438360226899
:103E8000D36823F47D6323F00F031B041B0CD36062
:103E90002068C268A36DE16D0B43616E43EA014384
:103EA000216E013943EA01231343C3600020C4F8A3
:103EB0008400012384F8813084F8800070BD4FF4C1
:103EC00080609CE701207047CDCCCCCC10C005FFB2
:103ED0000080F8FF38B500294ED0002A4ED090F867
:103EE0008130DBB2012B4CD190F88030012B4AD0CD
:103EF0000B460446012180F880108366A0F86C20F0
:103F0000A0F86E200023C0F88430122280F88120AF
:103F1000026F1E491164026F1D49D163026F1D4972
:103F2000D164026F13650268B0F86C301C32816E88
:103F3000006FFDF71BFE0546C8B923681A6812F426
:103F4000803F03D11A6842F480321A600021204673
:103F5000FFF7CCFE226813691843106122681368CA
:103F600043F400331360002384F8803007E000231B
:103F700084F88030012502E0012500E00125284673
:103F800038BD0225FBE70225F9E700BFD93F00084D
:103F90009B3F0008E53F0008704710B5846B03683D
:103FA0001B6813F4807F12D10021A4F86E102268E0
:103FB000136823F4003313602046FFF797FE22684E
:103FC000136923EA00001061012384F88130204640
:103FD000FFF7E2FF10BD704708B5806BFFF7FBFFEE
:103FE00008BD704710B5846BD4F8843043F080036B
:103FF000C4F88430236F5B6D012B03D0636F5B6D5E
:10400000012B0DD12268136823F40033136020467E
:10401000FFF786FE012384F881300023A4F86E3078
:104020002046FFF7DEFF10BDC368012B07D0022B2F
:1040300003D00022034B1A6070472022FAE71022B7
:10404000F8E700BF0058014002682F4B9A422FD07A
:104050002E4AD2F88C3023F44003C16943EA81032D
:10406000C2F88C30294B5B6813F4800F2AD1274BA0
:104070005A6802F03F02264BB3FBF2F3C2694AB31F
:10408000B2F5801F3BD1214AD2F88410C1F30361FD
:10409000D2F88400C0F3881003FB00F0B0FBF1F00D
:1040A000D2F88C3003F01F030133B0FBF3F07047FC
:1040B000164AD2F88C3023F44013C1690B43C2F87E
:1040C0008C30CFE7114B5A6802F03F02114BB3FB23
:1040D000F2F3D3E70D4AD2F88810C1F30361D2F8A6
:1040E0008800C0F3881003FB00F0B0FBF1F0D2F8B9
:1040F0008C30C3F304230133B0FBF3F07047064B5D
:1041000001221A60054870470458014000380240F7
:104110000024F40000127A005C0147420080BB00DA
:10412000836B1A68D36B43F48073D363704770B5A5
:1041300082B0044600230193006801F04DFE05465D
:1041400010B1284602B070BD206801F058FE064646
:1041500010B30023A3642E46DEB9019B5A1C0192C2
:104160004FF6FF72934244D00021206801F05EFEBA
:10417000002841D10021206801F070FE0646002889
:104180003DD10021206801F066FCC00FE4D0064656
:10419000E2E700236364D4E70123A3640546EDB995
:1041A000019B5A1C01924FF6FF7293422AD00021C4
:1041B000206801F03BFE05460028C2D14FF0804147
:1041C000206801F04BFE05460028BAD10021206886
:1041D00001F041FCC30FE2D01D46E0E710F0804F34
:1041E00003D1002363643546ABE70123636435469E
:1041F000A7E74FF08075A4E74FF08055A1E74FF097
:1042000080559EE74FF080759BE770B50546866A3E
:10421000002405E0286801F0F9FB46F82400013489
:10422000072CF7D9AB6A2033AB62002070BD70B5A4
:104230000546066A002405E006EB8401286801F0C3
:10424000E8FB0134072CF7D92B6A20332B620020BE
:1042500070BD70B581B10D460446016D090400685A
:1042600001F057FE064608B1304670BD00212068B7
:1042700001F0F1FB2860F7E74FF00066F4E700007B
:10428000F0B587B0044699B115461E460A4690F827
:104290003430DBB2012B6FD100238363AB19C16DC6
:1042A0008B420BD9836B43F000738363012064E07E
:1042B000836B43F00063836301205EE0032380F897
:1042C000343003680021D9620068C36B43F49573EE
:1042D000C363E36B2B48D863E36B2B48D864E36B71
:1042E000196521687702BB088031E06BFDF73EFC61
:1042F000264B01221A60636C934200D06D024FF08E
:10430000FF3300930197902302930223039300232A
:104310000493012305936946206801F0A1FC4FF442
:104320000071206801F0AEFC034698B9012E1CD93B
:10433000822323632946206801F0D4FCF8B1236866
:1043400040F2FF529A63A36B1843A063012084F8E4
:10435000340012E0226840F2FF519163A06B1843D1
:10436000A063012084F8340007E0812323632946F9
:10437000206801F09FFCE1E7022007B0F0BD0020BB
:10438000FBE700BFAB440008BD4800088C85254210
:104390002DE9F04186B0044600293FD015461E465F
:1043A0000F4690F83430DBB2012B73D100238363C6
:1043B0009319C26D934237D8032380F834300368D1
:1043C0000022DA620168CB6B43F01A03CB63036C03
:1043D0003249D963036C3249D964036C1A65436C62
:1043E000012B00D06D024FF40071206801F04AFCEF
:1043F0000346F8B9012E28D9A02323632946206853
:1044000001F0A0FC40B3236840F2FF529A63A36B13
:104410001843A063012084F834003CE0836B43F030
:1044200000638363012036E0836B43F00073836392
:10443000012030E0226840F2FF519163A06B1843E5
:10444000A063012084F8340025E0902323632946EB
:10445000206801F05FFCD5E74FF00108114BC3F86D
:10446000008022687602B30880323946206CFDF75E
:104470007DFB4FF0FF3300930196902302930025BC
:1044800003950495CDF814806946206801F0E8FB97
:10449000284600E0022006B0BDE8F0812141000876
:1044A000BD4800088C852542704710B5846B236B8E
:1044B000822B0FD02268D36A23F00803D3622368CB
:1044C00040F2FF529A63012384F83430204604F00E
:1044D000C2F810BD206801F04DFC03460028E9D069
:1044E000A06B1843A0632046FFF7DEFFE2E730B47D
:1044F000436E9A0F0A70C3F383624A70C3F3016379
:104500008B7090F86630CB7090F865300B7190F836
:1045100064304B7190F86B301B01CB80B0F86A307F
:10452000CC88C3F303122243CA8003F00F030B723B
:1045300090F86930DA094A72C3F380128A72C3F3C1
:104540004012CA72C3F300120A7300224A73426C0B
:10455000002A40F092809B0203F440630B61836E5B
:104560000A699B0003F47F7313430B61C36E0A69EE
:1045700042EA93720A61C3F3C2620A75C3F302632B
:104580004B75C26EC2F30743C2F342548C75C2F33B
:104590008242CA755B0003F006030B76C26EC2F35B
:1045A00007230C7EC2F3C03222430A760A69013225
:1045B00042650C7E023402FA04F444650A7AD5B2EC
:1045C0000122AA408265520A02FB04F2C2654FF43E
:1045D00000720266C3F380124A765B0003F07E032A
:1045E0008B76C36E8A7EC3F3C01422438A7603F0AF
:1045F0007F03CB76036F1A0EDC0F0C77C3F3417485
:104600004C77C3F382638B77930003F00C03CB7773
:10461000036FCA7FC3F381542243CA77C3F3405266
:1046200081F82020002281F82120C3F3004381F883
:104630002230036FC3F3C03481F82340C3F38034C6
:1046400081F82440C3F3403481F82540C3F300349B
:1046500081F82640C3F3812481F82740C3F3012366
:1046600081F82830036FC3F3460381F82930012312
:1046700081F82A30104630BC7047012A0CD00368FC
:1046800040F2FF529A63836B43F0805383630122AD
:1046900080F834201046EEE7836E1B0403F47C138D
:1046A0000B6190F86F200B6943EA02230B610A69E2
:1046B00090F86E3013430B6190F86D300A69013247
:1046C00092024265C2654FF400728265026681E71C
:1046D00070B590B004460123ADF81230006801F0C7
:1046E000A1F900286AD0636C032B43D1636C032BC0
:1046F0005BD1636C032B1DD0BDF81210216509043A
:10470000206801F0D9FB0546002859D10021206816
:1047100001F0A1F960660421206801F09CF9A0660F
:104720000821206801F097F9E0660C21206801F06B
:1047300092F920670421206801F08DF9000DE064F2
:1047400005A92046FFF7D3FE226D1204002320683E
:1047500001F02AFB054698BB234653F8106B93E8FB
:1047600007008DE80700043494E80E00304601F09D
:1047700031F925E0206801F08AFB054600BB0021E5
:10478000206801F068F960670421206801F063F98E
:10479000A0670821206801F05EF9E0670C2120681D
:1047A00001F059F9C4F88000A0E70DF1120120686A
:1047B00001F097FB054600289BD001E04FF0806593
:1047C000284610B070BD000070B58AB005460024C0
:1047D00004940594069407940894762309930AABED
:1047E00013E907008DE8070004AB0ECB286801F041
:1047F000F1F8124E3460286801F010F9012333609B
:104800000220FCF7A3FE2846FFF791FC40B10246C8
:10481000012085F83400AB6B1343AB630AB070BD65
:104820002846FFF755FF024630B1012085F83400D5
:10483000AB6B1343AB63F1E70020EFE7A0802542A9
:10484000A8B110B5044690F8343063B1032384F85E
:1048500034302046FFF7B8FF0020A0632063012317
:1048600084F8343010BD037704F040FFEEE70120F8
:104870007047436C0B60836C4B60C36C8B60036D43
:10488000CB60436D0B61836D4B61C36D8B61036EB8
:10489000CB610020704710B582B0044602A9002306
:1048A00041F8043DFFF7D5FC18B10346A06B18434F
:1048B000A0630198C0F3432002B010BD10B5846B13
:1048C000E36B5B6D012B03D0236C5B6D012B16D169
:1048D000236840F2FF529A632268D36B23F49D73DE
:1048E000D363A36B43F08043A3632046FFF7D3FF5A
:1048F0000538C0B2012806D9012384F83430204697
:10490000FFF7D2FD10BD206801F034FAA36B184305
:10491000A063F1E710B5846B236C0BB10023236413
:10492000E36B03B110BD2046FFF7B5FF0023A3637F
:10493000012384F834300538C0B29842F2D8206898
:1049400001F018FAA36B1843A063A36B1BB92046B0
:10495000FFF7AAFDE6E7204603F075FEE2E710B593
:10496000846BE36B0BB10023E363236C03B110BDD5
:104970002046FFF790FF0023A363012384F834301F
:104980000538C0B29842F2D8206801F0F3F9A36B61
:104990001843A063A36B1BB92046FFF785FDE6E72C
:1049A000204603F050FEE2E710B5044603685A6B58
:1049B00012F4807F61D04FF480729A630268D36BE7
:1049C00023F44E7323F00203D363036B13F0080F39
:1049D0002AD0036B13F0020F03D1036B13F0200FE7
:1049E00004D0206801F0C6F9034690B9236840F26C
:1049F000FF529A63012384F83430236B13F0010FC4
:104A000003D1236B13F0020F0AD0204603F023FEDC
:104A100010BDA26B1343A3632046FFF745FDE5E7F6
:104A2000204603F014FEF3E7036B13F0800FEFD082
:104A3000036B13F0200F13D1236B13F0010FE7D199
:104A4000236B13F0020FE3D12268D36A23F008032B
:104A5000D362012384F83430204603F0F8FDD7E711
:104A6000006801F087F903460028E5D0A26B1343E4
:104A7000A3632046FFF718FDDEE75A6B12F4804F60
:104A80004CD15A6B12F4004F4ED1596B40F23A227E
:104A90001142BDD05A6B12F0020F03D0826B42F06C
:104AA000020282635A6B12F0080F03D0A26B42F02D
:104AB0000802A2635A6B12F0200F03D0A26B42F0DF
:104AC0002002A2635A6B12F0100F03D0A26B42F0C7
:104AD0001002A2635A6B12F4007F03D0A26B42F063
:104AE0000802A26340F2FF729A632268D36B23F438
:104AF0004E7323F00203D363236B13F0800F30D087
:104B0000236CBBB11D4A1A65206CFDF769F80028BB
:104B10003FF47EAF206CFFF7FDFE79E74FF4804253
:104B20009A63FFF784FB73E74FF400429A63FFF741
:104B30006CFB6DE7E36B5BB1114A1A65E06BFDF747
:104B40004FF800283FF464AFE06BFFF708FF5FE722
:104B50000023A363012384F83430204603F073FD5F
:104B600056E7236B13F0080F3FF452AF012384F88C
:104B700034302046FFF798FC4AE700BF154900088B
:104B80005F490008D8B138B504460D4690F82C307E
:104B900083B1022384F82C30211D206800F0C7FD6A
:104BA00062682946206800F0FEFD012384F82C305D
:104BB000002038BD80F82D3003F0AAFFE9E701207E
:104BC000704738B590F82C30DBB2022B14D00D466C
:104BD0000446022380F82C30006800F02FFE2B687A
:104BE000022B04D0012384F82C30002038BD05238B
:104BF00084F82C300020F9E70220F7E790F82C30F9
:104C0000DBB2022B0CD010B50446022380F82C3006
:104C1000006800F03DFE012384F82C30002010BD18
:104C200002207047F8B505460F4616461C463BE085
:104C30002CB1FCF785FC069BC01AA04234D32A682D
:104C4000536823F0E00353606B68B3F5827F0BD0A9
:104C5000AB6AB3F5005F14D0012385F8513000230F
:104C600085F85030032027E0AB68B3F5004F02D041
:104C7000B3F5806FECD12A68136823F0400313600A
:104C8000E6E72A68136823F400531B041B0C136027
:104C90002A68136843F400531360DDE70123B3422D
:104CA00009D0B4F1FF3FC3D12B689B6837EA0303F7
:104CB000F4D00023F3E70020F8BD10B582B004461D
:104CC00000920B4600228021FFF7ACFF034610B98B
:104CD000184602B010BD636D43F0200363650323E3
:104CE000F6E700283BD010B504460023836290F815
:104CF0005130002B2ED0022384F8513022681368E3
:104D000023F0400313606368A2681343E26813430F
:104D10002269134362691343A26902F400721343C8
:104D2000E2691343226A1343A16A22680B431360AA
:104D3000638B03F00403616A22680B4353602268AB
:104D4000D36923F40063D36100206065012384F8F4
:104D5000513010BD80F8503004F0D8FDCBE7012071
:104D6000704790B110B50446022380F851300268B4
:104D7000136823F04003136004F0F2FD0020606527
:104D800084F8510084F8500010BD012070472DE9CF
:104D9000F04184B01E4690F85030012B00F0C880DE
:104DA00004460D469046012380F85030FCF7C8FBBE
:104DB000074694F85130DBB2012B0AD002230122BE
:104DC00084F85120002284F85020184604B0BDE831
:104DD000F081002D00F0A480B8F1000F00F0A28057
:104DE000032384F85130002363652563A4F83480DD
:104DF000A4F83680A363A387E38763642364A3686E
:104E0000B3F5004F1BD023681A6812F0400F03D18E
:104E10001A6842F040021A60E368B3F5006F14D0DC
:104E200063681BB1E38E9BB2012B3ED1236815F85A
:104E3000012B1A73E38E013B9BB2E38635E02268B7
:104E4000136843F480431360DDE763681BB1E38EAE
:104E50009BB2012B0DD1236835F8022BDA60E38E6B
:104E6000013B9BB2E38604E0002E5DD0B6F1FF3F2C
:104E70000FD1E38E9BB27BB323689A6812F0020FC6
:104E8000F2D035F8022BDA60E38E013B9BB2E38669
:104E9000EFE7FCF755FBC01BB042EAD303238EE7D4
:104EA000002E43D0B6F1FF3F0FD1E38E9BB29BB1F2
:104EB00023689A6812F0020FF2D015F8012B1A73CA
:104EC000E38E013B9BB2E386EFE7FCF739FBC01BA7
:104ED000B042EAD3032372E700973346012202214E
:104EE0002046FFF79FFE08B1032368E73A463146A4
:104EF0002046FFF7E2FE034618B120236365012335
:104F00005DE7A26832B903922268D1680391926882
:104F10000392039A626D002A3FF451AF01234EE7DA
:104F200001234CE701234AE7032348E7032346E72D
:104F300002234AE790F85100704710B4036A046AEC
:104F400024F001040462846924F0F00444EA0212AB
:104F500023F00A030B43826103625DF8044B704740
:104F600010B4036A23F0100303628469036A24F413
:104F7000704444EA023223F0A00343EA0113826141
:104F800003625DF8044B7047836823F0700341F0BF
:104F9000070119438160704710B4846824F47F448A
:104FA00042EA03230B43234383605DF8044B7047BD
:104FB0000268D36843F00103D3600268136843F0CA
:104FC000010313600020704790F83830012B7DD02A
:104FD00010B50446012380F83830022380F83930B8
:104FE0000268936823F47F4323F0770393600B6890
:104FF000402B57D010D9702B3ED01FD8502B47D004
:10500000602B32D1CA6849680068FFF7A9FF6021A8
:105010002068FFF7B9FF28E0102B4DD008D9202BCE
:105020004FD0302B21D130210068FFF7ADFF1CE0BD
:10503000DBB900210068FFF7A7FF16E0B3F5805F3A
:105040000ED0B3F5005F10D1CB684A68896800685C
:10505000FFF7A2FF2268936843F48043936004E063
:105060000268936823F007039360012384F83930C2
:10507000002084F8380010BDCB684A688968006851
:10508000FFF78AFF2268936843F077039360ECE7A9
:10509000CA6849680068FFF750FF50212068FFF791
:1050A00073FFE2E7CA6849680068FFF746FF4021DE
:1050B0002068FFF769FFD8E710210068FFF764FF59
:1050C000D3E720210068FFF75FFFCEE7022070479B
:1050D000704770477047704710B5044603681A69F7
:1050E00012F0020F11D0DA6812F0020F0DD06FF03B
:1050F00002021A610123037603689B6913F0030F10
:1051000070D0FFF7E6FF0023237623681A6912F0B8
:10511000040F12D0DA6812F0040F0ED06FF0040200
:105120001A610223237623689B6913F4407F5FD0C2
:105130002046FFF7CEFF0023237623681A6912F07A
:10514000080F12D0DA6812F0080F0ED06FF00802C4
:105150001A61042323762368DB6913F0030F4ED012
:105160002046FFF7B6FF0023237623681A6912F062
:10517000100F12D0DA6812F0100F0ED06FF010027C
:105180001A61082323762368DB6913F4407F3DD03E
:105190002046FFF79EFF0023237623681A6912F04A
:1051A000010F03D0DA6812F0010F36D123681A69B3
:1051B00012F0800F03D0DA6812F0800F34D1236828
:1051C0001A6912F0400F03D0DA6812F0400F32D1A2
:1051D00023681A6912F0200F03D0DA6812F0200F4A
:1051E00030D110BDFFF774FF2046FFF773FF8AE749
:1051F0002046FFF76DFF2046FFF76CFF9BE7204638
:10520000FFF766FF2046FFF765FFACE72046FFF794
:105210005FFF2046FFF75EFFBDE76FF001021A61F6
:10522000204603F0BFFEC1E76FF080021A612046FE
:1052300000F0B3F8C3E76FF040021A612046FFF7B1
:105240004AFFC5E76FF020021A61204600F0A4F87B
:10525000C7E7000003682E4A904212D0B0F1804F99
:105260000FD0A2F57C4290420BD002F580629042B2
:1052700007D002F58062904203D002F57842904256
:1052800003D123F070034A681343214A90422AD085
:10529000B0F1804F27D0A2F57C42904223D002F596
:1052A000806290421FD002F5806290421BD002F5CE
:1052B0007842904217D002F57052904213D002F516
:1052C000806290420FD002F5806290420BD0A2F52E
:1052D0009832904207D002F58062904203D002F5E6
:1052E0008062904203D123F44073CA681343036081
:1052F0008B68C3620B688362054B984203D003F549
:105300008063984201D10B690363012343617047B5
:1053100000000140A8B110B5044690F839305BB1E7
:10532000022384F83930211D2068FFF793FF012301
:1053300084F83930002010BD80F8383004F0EEFCDD
:10534000EEE70120704790F83830012B22D030B4BE
:10535000012280F83820022380F83930046863681D
:1053600023F070036360046863680D682B43636017
:105370000468A36823F08003A3600468A3684968F5
:105380000B43A36080F83920002380F8383018469A
:1053900030BC704702207047704770472DE9F843D2
:1053A000044601680A6922F44052C36813430B6142
:1053B0000168CA6822F4164222F00C028368006970
:1053C000034360690343E06903431343CB602168EF
:1053D0004A6922F44072A36913434B61E369B3F550
:1053E000004F60D02368B84A934200F0148102F560
:1053F0008062934200F00F81FEF706FB00EB800015
:1054000000EB80006568AD00B0FBF5F5AF4FA7FB82
:1054100005356D092E01FEF7F7FA00EB800000EB71
:1054200080006568AD00B0FBF5F9FEF7EDFA00EB22
:10543000800000EB80006568AD00B0FBF5F5A7FBD0
:1054400005356D094FF0640808FB15952D013235BF
:10545000A7FB05356D0905F0F0053544FEF7D4FAD4
:1054600000EB800000EB80006668B600B0FBF6F64B
:10547000FEF7CAFA00EB800000EB800063689B0037
:10548000B0FBF3F0A7FB0030400908FB10684FEABF
:10549000081808F13208A7FB0837C7F34317236839
:1054A0002F449F600DE12368874A93425BD002F549
:1054B0008062934257D0FEF7A7FA00EB800000EB22
:1054C000800065686D00B0FBF5F5804FA7FB0535E2
:1054D0006D092E01FEF798FA00EB800000EB8000CA
:1054E00065686D00B0FBF5F9FEF78EFA00EB800001
:1054F00000EB800065686D00B0FBF5F5A7FB053596
:105500006D094FF0640808FB1595ED003235A7FBD7
:1055100005356D096D0005F4F8753544FEF774FA2C
:1055200000EB800000EB800066687600B0FBF6F6CA
:10553000FEF76AFA00EB800000EB800063685B0016
:10554000B0FBF3F3A7FB03235B0908FB13684FEAE7
:10555000C80808F13208A7FB0837C7F342172368C9
:105560002F449F60ADE0FEF75FFA00EB800000EB98
:10557000800065686D00B0FBF5F5544FA7FB05355D
:105580006D092E01FEF750FA00EB800000EB800061
:1055900065686D00B0FBF5F9FEF746FA00EB800098
:1055A00000EB800065686D00B0FBF5F5A7FB0535E5
:1055B0006D094FF0640808FB1595ED003235A7FB27
:1055C00005356D096D0005F4F8753544FEF72CFAC4
:1055D00000EB800000EB800066687600B0FBF6F61A
:1055E000FEF722FA00EB800000EB800063685B00AE
:1055F000B0FBF3F3A7FB03235B0908FB13684FEA37
:10560000C80808F13208A7FB0837C7F34217236818
:105610002F449F6055E0FEF707FA00EB800000EB97
:1056200080006568AD00B0FBF5F5284FA7FB053598
:105630006D092E01FEF7F8F900EB800000EB800009
:105640006568AD00B0FBF5F9FEF7EEF900EB800000
:1056500000EB80006568AD00B0FBF5F5A7FB0535F4
:105660006D094FF0640808FB15952D013235A7FB35
:1056700005356D0905F0F0053544FEF7D5F900EB69
:10568000800000EB80006668B600B0FBF6F6FEF71F
:10569000CBF900EB800000EB800063689B00B0FB5F
:1056A000F3F0A7FB0030400908FB10684FEA081828
:1056B00008F13208A7FB0837C7F3431723682F44C4
:1056C0009F60BDE8F88300BF001001401F85EB51CB
:1056D00058B310B5044690F839300BB3242384F83E
:1056E00039302268D36823F40053D3602046FFF793
:1056F00055FE2268136923F49043136122685369AD
:1057000023F02A0353612268D36843F40053D36023
:105710000020E063202384F8393084F83A3010BD4B
:1057200080F8383004F064FBD8E70120704730B4CB
:105730000B68012B1AD0026822F4FF4222F07F028C
:105740004B688C682343CC6823430C6923434C6922
:1057500023438C692343CC6923430C6A2343496A5E
:105760000B4313430360002030BC7047026822F4EF
:10577000F842CB690C6A1C434B6A1C4314434268D1
:1057800022F4FF4222F07F024B688D682B43CD68E4
:105790002B430D692B434D692B4389690B431343FD
:1057A00004604360DFE730B4012A21D0826802F050
:1057B00070420B68013B4C68013C43EA04138C685F
:1057C000013C43EA0423CC68013C43EA04330C69FE
:1057D000013C43EA04434C69013C43EA04538969B0
:1057E000013943EA016313438360002030BC7047F2
:1057F000846824F4700424F47044CA68551E4B690C
:105800005A1E120542EA05322243C46804F070446D
:105810000B68013B4D68013D43EA05138D68013D6E
:1058200043EA05230D69013D43EA054389690139CE
:1058300043EA016323438260C360D6E770B582B058
:1058400004461546002301930B684A6813438A688F
:10585000013A43EA4213CA6843EA42230193019B97
:105860000361FBF76DFE0646A36913F0200F0AD013
:10587000B5F1FF3FF8D04DB1FBF762FE801BA842A7
:10588000F2D9032000E0002002B070BD0320FBE746
:10589000436943EA41014161002070470C4B1B689A
:1058A0000C4AA2FB03235A0A41F2883303FB02F39A
:1058B0005A1E4BB1416B134611F0800FF8D040F2E5
:1058C000FF538363002070474FF00040704700BFD4
:1058D00024000020D34D6210144B1B68144AA2FB15
:1058E00003235A0A41F2883303FB02F35A1ECBB159
:1058F000416B134611F0450FF8D0436B13F0040FC2
:1059000008D1436B13F0010F08D140F2FF538363BA
:105910000020704704238363184670470123836384
:10592000184670474FF00040704700BF2400002029
:10593000D34D6210104B1B68104AA2FB03235A0A76
:1059400041F2883303FB02F35A1E8BB1416B1346BD
:1059500011F0450FF8D0436B13F0040F04D140F25F
:10596000FF53836300207047042383631846704706
:105970004FF00040704700BF24000020D34D62105C
:10598000124B1B68124AA2FB03235A0A41F28833C6
:1059900003FB02F35A1EA3B1416B134611F0450FEE
:1059A000F8D0436B13F0040F07D1436B13F0400F93
:1059B0000AD0402383630020704740238363042080
:1059C00070474FF0004070470020704724000020CF
:1059D000D34D621084B010B402AC84E80E000B46C4
:1059E000039A1343049A1343059A1343069A1343E5
:1059F000079A1343426822F4FD4222F07F021343C8
:105A0000436000205DF8044B04B07047D0F880007C
:105A100070470B68C0F88030002070470323036094
:105A200000207047006800F0030070470B68836037
:105A30004B688A681343CA6813430A691343C268F0
:105A400022F47F6222F00F021343C36000207047EC
:105A50000069C0B2704782B0002301931430014442
:105A60000191019B186802B07047000038B5514B96
:105A70001B68514CA4FB03435B0A02FB03F2531E59
:105A8000002A5ED0446B1A4614F0450FF7D0436BE2
:105A900013F0040F07D1436B13F0010F07D001235C
:105AA000836318464FE00423836318464BE00D469A
:105AB0000446FFF7CDFFA84201D0012043E040F2A9
:105AC000FF53A36300212046FFF7C5FF3B4B034074
:105AD000D3B300283ADB10F0804F3AD110F0005FCA
