:020000040800F2
:1000000000000320FD7700084D7800084D780008B7
:100010004D7800084D7800084D7800080000000079
:1000200000000000000000000000000099740008BB
:100030004D780008000000009B7400089D740008C3
:100040004D7800084D7800084D7800084D7800087C
:100050004D7800084D7800084D7800084D7800086C
:100060004D7800084D7800084D7800084D7800085C
:100070004D7800084D7800084D7800084D7800084C
:100080004D7800084D7800084D7800084D7800083C
:100090004D7800084D7800084D7800084D7800082C
:1000A0004D7800084D7800084D7800084D7800081C
:1000B0004D780008A57400084D7800084D780008B8
:1000C0004D7800084D7800084D7800084D780008FC
:1000D0004D7800084D7800084D7800084D780008EC
:1000E0004D7800084D7800084D7800084D780008DC
:1000F0004D7800084D7800084D7800084D780008CC
:100100004D7800084D7800084D7800084D780008BB
:100110004D7800084D780008C1740008D1740008BB
:100120004D7800084D7800084D7800084D7800089B
:100130004D7800084D7800084D7800084D7800088B
:100140004D7800084D7800084D7800084D7800087B
:100150004D7800084D7800084D7800084D7800086B
:1001600015750008257500084D7800084D780008C1
:100170004D7800084D7800084D7800080000000018
:100180004D7800084D7800084D7800084D7800083B
:100190004D7800084D7800084D7800084D7800082B
:0C01A0004D7800084D7800084D780008EC
:1001AC0010B5054C237833B9044B13B10448AFF3A5
:1001BC0000800123237010BDBC0200200000000051
:1001CC001487010808B5034B1BB103490348AFF36F
:1001DC00008008BD00000000C00200201487010848
:1001EC0053B94AB9002908BF00281CBF4FF0FF3192
:1001FC004FF0FF3000F072B9ADF1080C6DE904CE90
:10020C0000F006F8DDF804E0DDE9022304B07047E5
:10021C002DE9F047089E04468846002B4BD18A42B4
:10022C00154667D9B2FA82F24AB1C2F1200701FA37
:10023C0002F320FA07F7954047EA030894404FEA87
:10024C00154E230CB8FBFEF71FFA85FC0EFB178826
:10025C0043EA084307FB0CF1994209D9EB1807F163
:10026C00FF3080F01B81994240F21881023F2B44F1
:10027C005B1AA4B2B3FBFEF00EFB103344EA03444A
:10028C0000FB0CFCA44509D92C1900F1FF3380F0BC
:10029C000781A44540F2048102382C4440EA07400F
:1002AC00A4EB0C0400271EB1D4400023C6E9004384
:1002BC003946BDE8F0878B4209D9002E00F0EB805F
:1002CC000027C6E9000138463946BDE8F087B3FA85
:1002DC0083F7002F47D18B4202D3824200F2FA807F
:1002EC00841A61EB030301209846002EE0D0C6E986
:1002FC000048DDE702B9FFDEB2FA82F2002A40F0D4
:10030C008F80491B4FEA154E1FFA85F80127B1FB68
:10031C00FEFC230C0EFB1C1143EA014308FB0CF101
:10032C00994207D9EB180CF1FF3002D2994200F236
:10033C00CD808446591AA3B2B1FBFEF00EFB10140B
:10034C0043EA044408FB00F8A04507D92C1900F136
:10035C00FF3302D2A04500F2B6801846A4EB080485
:10036C0040EA0C409FE7C7F1200CBB4022FA0CFE80
:10037C004EEA030E01FA07F420FA0CF521FA0CF3FD
:10038C004FEA1E482543B3FBF8F92C0C08FB193334
:10039C001FFA8EFA44EA034309FB0AF49C4202FA60
:1003AC0007F200FA07F10BD91EEB030309F1FF303A
:1003BC0080F087809C4240F28480A9F1020973444A
:1003CC001B1BADB2B3FBF8F008FB103345EA03443A
:1003DC0000FB0AFAA24508D91EEB040400F1FF3316
:1003EC006BD2A24569D90238744440EA0940A0FB9B
:1003FC000289A4EB0A044C45C2464B4654D351D057
:10040C00002E69D0B1EB0A0564EB030404FA0CFC72
:10041C00FD40FC404CEA0505C6E90054002747E7BF
:10042C00C2F1200320FA03F7954001FA02F021FAF9
:10043C0003F34FEA154E3843010CB3FBFEF71FFADA
:10044C0085F80EFB173341EA034107FB08F38B4297
:10045C0004FA02F407D9691807F1FF3C2FD28B423A
:10046C002DD9023F2944CB1A81B2B3FBFEF00EFB0F
:10047C00103341EA034100FB08F38B4207D969189A
:10048C0000F1FF3C17D28B4215D902382944C91A06
:10049C0040EA07473BE73746304609E70746E7E6B9
:1004AC001846FBE64145ABD2B8EB020A69EB0E02EB
:1004BC0001381346A4E76046E9E7184695E7674616
:1004CC00D1E781467CE702382C4447E7ACF1020CBB
:1004DC002B442FE7384608E73746E9E6704700BF5C
:1004EC00034613F8012B002AFBD1181A0138704768
:1004FC0008B500F0F9FD08BD08B500F0D9FD08BD40
:10050C0008B500F06FFDCA20FFF7F2FFC320FFF71C
:10051C00F3FF0820FFF7F0FF5020FFF7EDFFCF208F
:10052C00FFF7E6FF0020FFF7E7FFC120FFF7E4FF2E
:10053C003020FFF7E1FFED20FFF7DAFF6420FFF733
:10054C00DBFF0320FFF7D8FF1220FFF7D5FF812038
:10055C00FFF7D2FFE820FFF7CBFF8520FFF7CCFF9A
:10056C000020FFF7C9FF7820FFF7C6FFCB20FFF76D
:10057C00BFFF3920FFF7C0FF2C20FFF7BDFF002085
:10058C00FFF7BAFF3420FFF7B7FF0220FFF7B4FFE5
:10059C00F720FFF7ADFF2020FFF7AEFFEA20FFF7B3
:1005AC00A7FF0020FFF7A8FF0020FFF7A5FFB12051
:1005BC00FFF79EFF0020FFF79FFF1B20FFF79CFF1C
:1005CC00B620FFF795FF0A20FFF796FFA220FFF752
:1005DC0093FFC020FFF78CFF1020FFF78DFFC12089
:1005EC00FFF786FF1020FFF787FFC520FFF780FF7E
:1005FC004520FFF781FF1520FFF77EFFC720FFF78F
:10060C0077FF9020FFF778FF3620FFF771FFC820A7
:10061C00FFF772FFF220FFF76BFF0020FFF76CFF74
:10062C00B020FFF765FFC220FFF766FFB620FFF78B
:10063C005FFF0A20FFF760FFA720FFF75DFF272071
:10064C00FFF75AFF0420FFF757FF2A20FFF750FF50
:10065C000020FFF751FF0020FFF74EFF0020FFF7AF
:10066C004BFFEF20FFF748FF2B20FFF741FF002047
:10067C00FFF742FF0020FFF73FFF0120FFF73CFF91
:10068C003F20FFF739FFF620FFF732FF0120FFF77D
:10069C0033FF0020FFF730FF0620FFF72DFF2C2043
:1006AC00FFF726FFC82000F03BFD2620FFF720FFB8
:1006BC000120FFF721FFE020FFF71AFF0F20FFF7C3
:1006CC001BFF2920FFF718FF2420FFF715FF0C2034
:1006DC00FFF712FF0E20FFF70FFF0920FFF70CFFAB
:1006EC004E20FFF709FF7820FFF706FF3C20FFF7AD
:1006FC0003FF0920FFF700FF1320FFF7FDFE052085
:10070C00FFF7FAFE1720FFF7F7FE1120FFF7F4FEB4
:10071C000020FFF7F1FEE120FFF7EAFE0020FFF7D3
:10072C00EBFE1620FFF7E8FE1B20FFF7E5FE04208A
:10073C00FFF7E2FE1120FFF7DFFE0720FFF7DCFEDC
:10074C003120FFF7D9FE3320FFF7D6FE4220FFF70A
:10075C00D3FE0520FFF7D0FE0C20FFF7CDFE0A20BC
:10076C00FFF7CAFE2820FFF7C7FE2F20FFF7C4FEB5
:10077C000F20FFF7C1FE1120FFF7BAFEC82000F0D2
:10078C00CFFC2920FFF7B4FE2C20FFF7B1FE08BDEB
:10079C000023012B06D8054AD25C824203D00133D8
:1007AC00DBB2F6E7FF231846704700BFD8020020E3
:1007BC0008B52AB9CAB21121C0B200F0BDFC08BDFF
:1007CC00CAB21021C0B200F0B7FCF8E710B5C4B241
:1007DC0002220321204600F0AFFC0A2000F0B8FCF6
:1007EC0000220321204600F0A7FC022000F0B0FC00
:1007FC0010BD000010B50446FFF7CAFFFF2800D05B
:10080C0010BD0020FFF7C4FF0128F9D8034B1C547E
:10081C0000F08AFC2046FFF7D9FFF1E7D802002050
:10082C0038B5044600F080FCE4B20021204600F00C
:10083C0087FC05020121204600F082FC00B228430F
:10084C0080B238BD10B50C461221C0B200F078FC55
:10085C00E4B2204010BD10B50C460D21C0B200F022
:10086C006FFCE4B2204010BD10B5C4B2402120464C
:10087C0000F066FC10F0800F0CD101224B212046B9
:10088C0000F05AFC00224B21204600F055FC0023BE
:10089C00184610BD4C21204600F052FC034600289F
:1008AC00F6D00123F4E770B582B00E461546C4B2FB
:1008BC0004230DEB0302D721204600F045FC9DF8E4
:1008CC0004209DF805301B0443EA02639DF80620C2
:1008DC0043EA02239DF8072013431A0D3280C3F319
:1008EC000B232B8001224B21204600F025FC0022FB
:1008FC004B21204600F020FC02B070BD10B5C4B2F4
:10090C000921204600F01CFC40F00102D2B2092162
:10091C00204600F011FC10BD10B5C4B209212046D0
:10092C0000F00EFC00F0FE020921204600F004FC51
:10093C0010BD38B50C46C5B20A21284600F000FCA3
:10094C0040EA0402D2B20A21284600F0F5FB38BD79
:10095C0010B5044600F0ECFB80212046FFF7E9FFC0
:10096C002046FFF7CBFF10BD10B5044600F0E0FBAE
:10097C001F212046FFF7DDFF2046FFF7BFFF10BD0C
:10098C0038B50C46C5B20A21284600F0D9FB20EA3E
:10099C000402D2B20A21284600F0CEFB38BD10B5B5
:1009AC000446FFF7B9FF80212046FFF7E9FF10BD91
:1009BC0010B50446FFF7B0FF1F212046FFF7E0FFFC
:1009CC0010BD38B50D46C4B20921204600F0B8FB65
:1009DC0000F0FB022A430921204600F0ADFB38BD94
:1009EC0038B50D46C4B20921204600F0A9FB00F031
:1009FC00FD022A430921204600F09EFB38BD10B5AC
:100A0C000C460B21C0B200F09BFB204010BD08B57A
:100A1C001F21FFF7F4FF08BD08B50A460B21C0B231
:100A2C0000F08AFB08BD38B504460D468021FFF75F
:100A3C00F3FFE4B2EDB22A460D21204600F07CFB18
:100A4C002A461421204600F077FB2A461521204621
:100A5C0000F072FB2A461621204600F06DFB38BDD3
:100A6C0008B51F21FFF7D8FF08BD70B50C46164618
:100A7C00C5B21321284600F063FB3EB920EA0402FC
:100A8C00D2B21321284600F057FB70BDE2B20243EC
:100A9C00D2B2F6E738B50C46C5B21721284600F09D
:100AAC004FFBE4B20443E2B21721284600F044FBAA
:100ABC0038BD70B504460E46C5B20421284600F078
:100ACC003FFB00F0FA020421284600F035FBF1B29E
:100ADC002046FFF7DFFF70BD38B50C46C5B21721B5
:100AEC00284600F02DFB20EA0402D2B2172128463A
:100AFC0000F022FB38BD70B50646C4B20421204676
:100B0C0000F01EFB054600F0FB020421204600F01D
:100B1C0013FBF0213046FFF7DFFF05F0F80204214C
:100B2C00204600F009FB49222021204600F004FB5E
:100B3C00022000F00DFB01222121204600F0FCFADE
:100B4C009A224121204600F0F7FA01224A21204640
:100B5C0000F0F2FA01224B21204600F0EDFA0022BF
:100B6C004B21204600F0E8FA01225621204600F0E5
:100B7C00E3FA01225821204600F0DEFA012240213E
:100B8C00204600F0D9FAFF220B21204600F0D4FABF
:100B9C00022000F0DDFA70BD2DE9F0410E4617463B
:100BAC00C5B21621284600F0CBFA804615212846FE
:100BBC0000F0C6FAF44364B204EA0802D2B204406C
:100BCC00E4B217F0010F01D0F3B21A4317F0020F81
:100BDC0001D0F6B234431621284600F0ADFA224675
:100BEC001521284600F0A8FABDE8F08138B50C466E
:100BFC00C5B20C21284600F0A3FAE4B20443E2B2D9
:100C0C000C21284600F098FA38BD38B504460D463C
:100C1C00052A64D8DFE802F003080D23394E0022C0
:100C2C00FFF723FF002038BD0122FFF71EFF002035
:100C3C00F9E7FFF78DFE29462046FFF7D7FF002284
:100C4C0029462046FFF711FF02212046FFF7C8FE78
:100C5C00022229462046FFF79FFF0020E3E7FFF71B
:100C6C0077FE29462046FFF7C1FF00222946204681
:100C7C00FFF7FBFE02212046FFF7B2FE01222946B8
:100C8C002046FFF789FF0020CDE7FFF761FE2946DC
:100C9C002046FFF7ABFF002229462046FFF7E5FE72
:100CAC0000212046FFF79CFE00212046FFF789FE1D
:100CBC000020B8E7FFF74CFE29462046FFF796FFC9
:100CCC00002229462046FFF7D0FE00212046FFF7E0
:100CDC0087FE04212046FFF774FE0020A3E7104690
:100CEC00A1E7000000B589B000210191124B5A6CAC
:100CFC0042F480125A645A6C02F480120192019AE6
:100D0C0002911A6B42F020021A631B6B03F0200352
:100D1C000293029B4FF46073039302230493059395
:100D2C00012306930523079303A9044800F0EAFC6A
:100D3C0009B05DF804FB00BF00380240001402400B
:100D4C0002682A4B9A4200D0704730B589B0002512
:100D5C000095274C236B43F004032363236B03F0B0
:100D6C0004030093009B0195236B43F00103236361
:100D7C00236B03F001030193019B4FF480730393E6
:100D8C00122304930595022306930423079303A9C6
:100D9C00184800F0B7FC4FF40073039303A91648EE
:100DAC0000F0B0FC0295236C43F400032364236C25
:100DBC0003F400030293029B236A43F400032362AF
:100DCC00236A23F4000323622A460F21482000F0F3
:100DDC00D1FB482000F002FC2A460F21492000F0EC
:100DEC00C9FB492000F0FAFB09B030BD005C0040A3
:100DFC0000380240000002400008024010B586B0E6
:100E0C00002400940F4B1A6B42F001021A631B6B07
:100E1C0003F001030093009B4FF400430193012363
:100E2C0003930494084B029301A9084800F06AFC50
:100E3C0022460F21282000F09DFB282000F0CEFB3D
:100E4C0006B010BD00380240000021100000024026
:100E5C0010B50D4802F001FD00B110BD0A4C0B4B52
:100E6C0023600B4B63600023A360E3604FF480426C
:100E7C0022616361A361E36123622046FFF760FF97
:100E8C00204601F02FFAE8E780910220005C004038
:100E9C00A086010010B5104804F006F800B110BD92
:100EAC000D4C0E4B23601823E3610023A360636198
:100EBC002361A3620722E262E36023624FF40072B3
:100ECC00A26163624FF4827363602046FFF70AFFEE
:100EDC00204603F0C0FEE2E7DC0200200050014097
:100EEC0008B5034803F0F7FEFFF7D4FF08BD00BFB9
:100EFC00DC02002000B583B002A921F8020D064BDC
:100F0C001B680122054803F0FCFE10B903B05DF824
:100F1C0004FBFFF7E5FFF9E754000020DC0200209A
:100F2C0010B5064C204601F06BFAFFF791FF2268D2
:100F3C00536843F48073536010BD00BF809102204E
:100F4C0010B586B006AC04F8012D084B1B69029352
:100F5C000123019300940A460146054801F0A0FCC8
:100F6C0008B906B010BDFFF7DBFFFAE7540000200C
:100F7C008091022000B587B006AA002302F8013D3B
:100F8C00094B1B6902930123019300920A46014607
:100F9C00064801F043FD20B99DF8170007B05DF835
:100FAC0004FBFFF7BDFFF7E75400002080910220FF
:100FBC0010B584B0094C246902940193009201236A
:100FCC000A460146064801F029FD10B9002004B07C
:100FDC0010BDFFF7A5FF0120F9E700BF540000206A
:100FEC00809102202F4B93F8583003B170472DE9B4
:100FFC00F04188B001262B4B83F8586000250095F2
:10100C00294C236B43F008032363236B03F0080381
:10101C000093009B4FF400530393049605954FF0F7
:10102C000208CDF81880214F03A9384600F06AFB5E
:10103C000195236B43F008032363236B03F0080330
:10104C000193019B4FF48053039304960595CDF8BF
:10105C00188003A9384600F055FB0295236B43F02A
:10106C0004032363236B03F004030293029B042702
:10107C00039704960595CDF81880A4F5405403A960
:10108C00204600F03FFB2A463946204600F0C8FCBB
:10109C0032463946204600F0C3FCFFF7FBFE08B091
:1010AC00BDE8F081DC02002000380240000C024058
:1010BC0038B5054601224FF40051094800F0B0FC48
:1010CC00084C00220421204600F0AAFC2846FFF719
:1010DC0011FF01220421204600F0A2FC38BD00BF04
:1010EC00000C02400008024038B5054600224FF4BF
:1010FC000051094800F094FC084C002204212046C1
:10110C0000F08EFC2846FFF7F5FE01220421204654
:10111C0000F086FC38BD00BF000C02400008024005
:10112C0008B500F001FA08BD08B5FFF791FE08BD3F
:10113C0008B5FFF763FE08BD08B5FFF701FF08BD52
:10114C0008B5FFF717FF08BD08B5FFF731FF08BD5D
:10115C0008B500F0E9F908BD2DE9F04782B08246E8
:10116C004FF00008CDF80480214C0126266008279A
:10117C006760A660C4F80C8004F110054FF6FF728E
:10118C002146284603F0D7FC304600F0CDF9022367
:10119C0023606760A660C4F80C804FF6FF7221468E
:1011AC00284603F0C8FC0323236067604FF0040952
:1011BC00C4F80890C4F80C804FF6FF7221462846FC
:1011CC0003F0B9FC4FF40C730193C4F80090676002
:1011DC00A660019BE3604FF6FF722146284603F0A0
:1011EC00AAFC5146284603F0C3FC02B0BDE8F087C8
:1011FC0038030020002800F08E8030B58FB000241A
:10120C000194454B9A6B42F001029A639A6B02F07F
:10121C0001020192019A02941A6B42F480021A6341
:10122C001A6B02F480020292029A03941A6B42F037
:10123C0002021A631A6B02F002020392039A0494DC
:10124C001A6B42F004021A631A6B02F00402049245
:10125C00049A05941A6B42F008021A631A6B02F096
:10126C0008020592059A06941A6B42F010021A6352
:10127C001A6B02F010020692069A07941A6B42F04F
:10128C0020021A631A6B02F020020792079A089444
:10129C001A6B42F040021A631B6B03F04003089375
:1012AC00089B02230A930C930B940C230D930EAD05
:1012BC00602345F8143D2946184800F023FA012311
:1012CC0009932946164800F01DFA4CF20373099352
:1012DC002946144800F016FA4FF6837309932946F1
:1012EC00114800F00FFA4FF63F03099329460F48B7
:1012FC0000F008FA48F23313099329460C4800F021
:10130C0001FA22460F21382000F034F9382000F081
:10131C0065F90FB030BD7047003802400004024040
:10132C0000080240000C0240001002400014024071
:10133C000018024038B51D4C1D4B23610223636419
:10134C000721A1640422E26421656365A365E3655A
:10135C00012363610021A161E26110232362402318
:10136C0063624FF4C073A362E1624FF400632363C2
:10137C0061634FF40053A36304F110052846FFF793
:10138C0039FF04F14401284603F0B6FB48B9094B78
:10139C0000221A7040F26A50FFF7DEFE054B1878F7
:1013AC0038BD044B01221A70F4E700BF380300204B
:1013BC00400100A06800002010B50C4B188059802B
:1013CC000B4B5B688220984740F6110398420BD177
:1013DC00064C074B63601B68822098476368DB6888
:1013EC0082209847002010BD0120FCE7F803002064
:1013FC002C00002030B583B00446324B5B681B696F
:10140C008220984780B2208000284AD02D4B5B6800
:10141C005B6901AA0DF1060182209847BDF80430E2
:10142C00A3F5B4739BB2284AA2FB0323DB0805D0B7
:10143C00244A52889A4201D2531E9BB2BDF8062010
:10144C0040F6B8318A422ED8C2F571620E32ADF830
:10145C000620BDF806201D49A1FB0212D20805D0BA
:10146C0018490988914201D24A1E92B21046154978
:10147C0089688A421DD989B2521A92B21D46114905
:10148C00C9688B4219D989B25B1A9BB21A44052AD6
:10149C0002DD0C4B9860DD600A4B9A686280DB6859
:1014AC00A38003B030BDC2F56D620832ADF80620E2
:1014BC00CFE789B28A1A92B2E0E789B2CB1A9BB213
:1014CC00E4E700BFF8030020A38B2EBA8988888834
:1014DC0008B50B4B1A6842F400721A601A6842F491
:1014EC0080621A601A6842F480721A60032000F05D
:1014FC002FF8002005F08CFF05F040FF002008BD00
:10150C00003C0240034A1168034B1B780B441360E8
:10151C00704700BF3C9002206C000020014B186803
:10152C00704700BF3C90022038B50446FFF7F6FF29
:10153C000546B4F1FF3F02D0044B1B781C44FFF767
:10154C00EDFF401BA042FAD338BD00BF6C00002059
:10155C00074AD36823F4E0631B041B0C000200F45D
:10156C00E060184340F0BF6040F40030D06070473A
:10157C0000ED00E030B4174BDB68C3F30223C3F17A
:10158C000704042C28BF04241D1D062D18D9033B69
:10159C004FF0FF3505FA04F421EA0401994005FAED
:1015AC0003F322EA0303194300280BDB0901C9B238
:1015BC0000F1604000F5614080F8001330BC7047CA
:1015CC000023E5E700F00F000901C9B2024B1954E2
:1015DC00F4E700BF00ED00E014ED00E000F01F02A6
:1015EC00400901239340024A42F82030704700BF63
:1015FC0000E100E000F01F0240090123934020307D
:10160C00014A42F82030704700E100E00138B0F1A7
:10161C00807F0AD2064B5860064AF02182F82310CC
:10162C000020986007221A6070470120704700BFA5
:10163C0010E000E000ED00E0042805D0054A136836
:10164C0023F0040313607047024A136843F0040349
:10165C001360704710E000E0704708B5FFF7FCFF1F
:10166C0008BD68B110B5044643792BB102236371F0
:10167C0001236371002010BD037105F0A3F8F5E799
:10168C000120704790F83530DBB2022B03D0802359
:10169C00436501207047052380F8353002681368D4
:1016AC0023F0010313600020704748B310B50446C3
:1016BC0090F83930FBB1022384F839302268136872
:1016CC0023F4403361680B4313602268536B23F09F
:1016DC000703A1680B4353632268136C23F47F53F5
:1016EC0023F03F03E1680B4313640020E063012304
:1016FC0084F8393010BD80F8383005F07BF8DAE723
:10170C000120704700230F2B00F2E380F0B482B06D
:10171C0039E0092200E00022B2403A4302346D4E17
:10172C0046F824206C4A1468EA4302EA04064F681F
:10173C0017F4803F01D045EA0406674C26606468C4
:10174C0002EA04064F6817F4003F01D045EA04068C
:10175C00614C6660A46802EA04064F6817F4801FA7
:10176C0001D045EA04065C4CA660E46822404E6851
:10177C0016F4001F01D045EA0402574CE260013315
:10178C000F2B00F2A38001229A400C6804EA020598
:10179C00AA42F4D14C68022C01D0122C10D1DE08D4
:1017AC00083650F826C003F00704A7000F24BC40ED
:1017BC002CEA040C0C69BC4044EA0C0440F82640AA
:1017CC0004685F000326BE40F64306EA040C4C682E
:1017DC0004F00304BC4044EA0C0404604C6804F1BB
:1017EC00FF3CBCF1010F03D9112C01D0122C10D1EC
:1017FC00846806EA040CCC68BC4044EA0C0484609F
:10180C00446824EA02024C68C4F300149C4014435C
:10181C004460C26816408A68BA403243C2604A6863
:10182C0012F0805FABD0002201922C4A546C44F42D
:10183C0080445464526C02F480420192019A9C08D8
:10184C00A61C244A52F8267003F0030296000F22BD
:10185C00B24027EA0207224A90423FF45CAF02F5FD
:10186C008062904222D002F58062904220D002F534
:10187C00806290421ED002F5806290421CD002F52C
:10188C00806290421AD002F58062904218D002F524
:10189C008062904216D002F58062904214D002F51C
:1018AC00806290423FF435AF0A2235E7012233E7DC
:1018BC00022231E703222FE704222DE705222BE732
:1018CC00062229E7072227E7082225E702B0F0BC09
:1018DC007047704700380140003C0140003802401E
:1018EC000000024000230F2B00F29280F0B50AE0BA
:1018FC00092500E0002505FA02F2A2426FD001335F
:10190C000F2B00F2848001229A4002EA0106B242B7
:10191C00F5D105685F000324BC40E4432540056015
:10192C004FEAD30C0CF1080C50F82CE003F007052F
:10193C00AD000F2707FA05F52EEA050540F82C50E7
:10194C00856825408560456825EA02024260C268C8
:10195C001440C4604FEA930C0CF102042D4A52F867
:10196C00244003F00302920097403C402A4DA842C9
:10197C00C0D005F58065A84221D005F58065A84248
:10198C001FD005F58065A8421DD005F58065A842DD
:10199C001BD005F58065A84219D005F58065A842D5
:1019AC0017D005F58065A84215D005F58065A842CD
:1019BC0013D005F58065A8429AD00A259BE701252E
:1019CC0099E7022597E7032595E7042593E7052575
:1019DC0091E706258FE707258DE708258BE70D4D49
:1019EC000CF1020255F8224024EA070745F8227050
:1019FC000A4C2568F2431540256065681540656002
:101A0C00A5681540A560E5682A40E26077E7F0BD5F
:101A1C00704700BF0038014000000240003C01400C
:101A2C0012B90904816170478161704790F83E30AA
:101A3C00DBB2402B13D00369B3F5804F1ED0036D7E
:101A4C00002B2DD0036D012B33D1436CC3F3C81382
:101A5C00026803F0060343F0F103136129E0036D00
:101A6C002BB9436C026803F0FE03136121E0436C55
:101A7C00026843F00103DBB213611AE090F83D30C9
:101A8C00DBB2212B06D0436C026843F00103DBB2BE
:101A9C0013610EE0436C026803F0FE03136108E06F
:101AAC00436CC3F3C813026803F0060343F0F0035E
:101ABC00136100207047436C0268DBB21361002095
:101ACC00704710B48BB090F83E30DAB2C16A046B38
:101ADC0090F83D30DBB2222B0CD000230993036825
:101AEC005A6909929B690993099B00200BB05DF818
:101AFC00044B7047036D0BB9402A17D0036D1BB90B
:101B0C000369B3F5404F19D0438D9BB2002B25D1FF
:101B1C00029303685A6902929A690292029A1A68AD
:101B2C0042F400721A6000230365DEE70093036839
:101B3C005A6900929B690093009BD6E7002301939E
:101B4C0003685A6901929A690192019A1A6842F4DF
:101B5C0080721A60036D01330365C6E7438D9BB237
:101B6C00012B1AD0438D9BB2022B6BD002681368E9
:101B7C0043F48063136003685A6812F4006F03D057
:101B8C005A6842F480525A600023089303685A69D9
:101B9C0008929B690893089BC5E711F5803F16D006
:101BAC0004293DD008293BD0122C39D0C36A022B12
:101BBC0030D00268136823F480631360002305930C
:101BCC0003685A6905929B690593059BABE702680C
:101BDC00136823F48063136003685A6812F4006F6F
:101BEC000CD01A6822F480621A60002303930368F5
:101BFC005A6903929B690393039B94E70022049216
:101C0C005A6904929A690492049A1A6842F400720E
:101C1C001A6088E70268136843F480631360CDE7A9
:101C2C000268136823F4806313600023069303682F
:101C3C005A6906929A690692069A1A6842F40072D8
:101C4C001A6070E7C36A022B1BD00268136823F476
:101C5C00806313600268136843F4006313600368C5
:101C6C005A6812F4006F03D05A6842F480525A60DA
:101C7C000023079303685A6907929B690793079B94
:101C8C0051E70268136843F480631360E7E7438D00
:101C9C009BB24BB1436A5A1C426202681B781361B7
:101CAC00438D013B9BB2438500207047438D9BB213
:101CBC004BB103681A69436A591C41621A70438D0F
:101CCC00013B9BB243850020704703685A6912F4AC
:101CDC00806F0DD06FF480625A610423036400237B
:101CEC000363202280F83D2080F83C3001207047AF
:101CFC0000207047F8B506460C4617461D461EE0F8
:101D0C002DB1FFF70BFC069BC01AA84217D9002374
:101D1C003363202286F83D2086F83E3086F83C302E
:101D2C0003201AE033685B6924EA03039BB2B3FA1D
:101D3C0083F35B099F420FD1B5F1FF3FE0D1C4F3B0
:101D4C000743012BEED033689B6924EA03039BB253
:101D5C00B3FA83F35B09EDE70020F8BDF8B5044650
:101D6C000D4616461F4632E01A6842F400721A609D
:101D7C0023686FF480625A61042323640023236375
:101D8C00202284F83D2084F83C3001202DE026B13F
:101D9C00FFF7C4FBC01BB04219D9002323632022D8
:101DAC0084F83D2084F83C3003201EE023685B69F6
:101DBC0025EA03039BB2003318BF0123A3B12368A8
:101DCC005A6912F4806FCFD1B6F1FF3FDFD1C5F362
:101DDC000743012BEAD023689B6925EA03039BB2D6
:101DEC00003318BF0123E9E70020F8BDF0B583B03C
:101DFC0004460D4616461F46C36A042B0DD0012B14
:101E0C000BD013F5803F08D0036B122B0AD102685C
:101E1C00136843F48073136004E02268136843F47E
:101E2C00807313600097334600224FF00111204657
:101E3C00FFF760FF58BB2369B3F5804F10D12368BF
:101E4C0005F0FE051D613B46324615492046FFF75D
:101E5C0085FF0346E0B1236C042B1ED1012317E050
:101E6C00EB11226803F0060343F0F00313613B46C9
:101E7C0032460C492046FFF771FF20B1236C042B2E
:101E8C0009D1012304E02368EDB21D61DBE70323D4
:101E9C00184603B0F0BD0323FAE70323F8E700BFAD
:101EAC0002000100080001002DE9F04184B0044655
:101EBC000D4616461F46C26A01680B6843F48063E0
:101ECC000B60042A0DD0012A0BD012F5803F08D0EC
:101EDC00036B112B0AD10268136843F480731360EF
:101EEC0004E02268136843F4807313600097334650
:101EFC0000224FF001112046FFF7FCFE002852D1C2
:101F0C002369B3F5804F12D1236845F00105EDB27A
:101F1C001D613B4632462A492046FFF71FFF034608
:101F2C00002841D0236C042B48D101233CE04FEA1C
:101F3C00E51808F00608236848F0F0021A613B46E1
:101F4C00324620492046FFF709FF20B1236C042BB1
:101F5C002ED1012328E02368EDB21D613B463246A9
:101F6C0017492046FFF7FAFE20B1236C042B21D130
:101F7C00012319E00022039223685969039199699E
:101F8C0003910399196841F48071196000973346E5
:101F9C004FF001112046FFF7ADFE68B9226848F0FA
:101FAC00F1031361B5E70323184604B0BDE8F081D3
:101FBC000323F9E70323F7E70323F5E70323F3E709
:101FCC00020001000800010070B504460D461646DB
:101FDC0023685B6913F0800F19D12046FFF775FE5B
:101FEC00B8B9B5F1FF3FF3D025B1FFF797FA801BD5
:101FFC00A842EDD9236C43F0200323640023236310
:10200C00202284F83D2084F83C30032000E000209E
:10201C0070BD0120FCE700002DE9F04184B00446BE
:10202C000E46174698460B9D0268136843F480735E
:10203C00136000950A9B00224FF00111FFF75AFE26
:10204C00002847D1236806F0FE061E612B460A9A2B
:10205C0026492046FFF782FE20B1236C042B3ED18B
:10206C00012338E00023039323685A6903929B6988
:10207C000393039B2A460A992046FFF7A5FF0346C4
:10208C0048B1236C042B2CD12268136843F40073E1
:10209C00136001231FE0B8F1010F13D023683A0A33
:1020AC001A612A460A992046FFF78EFF034668B14B
:1020BC00236C042B17D12268136843F4007313604C
:1020CC00012308E02268FFB2176104E02268FFB226
:1020DC00176100E00323184604B0BDE8F081032328
:1020EC00F9E70323F7E70323F5E700BF020001003C
:1020FC002DE9F04184B004460E46174698460B9DD8
:10210C000268136843F4806313600268136843F435
:10211C008073136000950A9B00224FF00111FFF7AA
:10212C00E9FD002874D1F6B2236806F0FE021A61AC
:10213C002B460A9A3F492046FFF710FE20B1236C2C
:10214C00042B6AD1012364E00023039323685A69AA
:10215C0003929B690393039B2A460A992046FFF737
:10216C0033FF48B1236C042B59D12268136843F414
:10217C000073136001234CE0B8F1010F12D12368F6
:10218C00FFB21F612A460A992046FFF71DFF00B3D4
:10219C00236C042B47D12268136843F4007313603B
:1021AC00012336E023683A0A1A612A460A99204626
:1021BC00FFF70AFF48B1236C042B32D12268136855
:1021CC0043F400731360012323E02368FFB21F6103
:1021DC00D8E72268136843F48073136000950A9B58
:1021EC0000224FF001112046FFF784FDE8B9236867
:1021FC0046F001061E612B460A9A0E492046FFF74F
:10220C00ADFD034628B1236C042B10D1012300E053
:10221C000323184604B0BDE8F0810323F9E7032338
:10222C00F7E70323F5E70323F3E70323F1E703239E
:10223C00EFE700BF0200010070B504460D461646DC
:10224C0023685B6913F0040F19D12046FFF73DFD9D
:10225C00B8B9B5F1FF3FF3D025B1FFF75FF9801B9B
:10226C00A842EDD9236C43F020032364002323639D
:10227C00202284F83D2084F83C30032000E000202C
:10228C0070BD0120FCE770B505460C4616462B6860
:10229C005A6912F0400F22D15A6912F0100F11D165
:1022AC0024B1FFF73BF9801BA042F0D92B6C43F013
:1022BC0020032B64202385F83D30002385F83C3027
:1022CC00032070BD6FF010025A6100232B642B6346
:1022DC00202285F83D2085F83C300120F1E70020D4
:1022EC00EFE70000002800F0828010B5044690F85B
:1022FC003D30002B41D0242384F83D3022681368F4
:10230C0023F00103136002F05FF83A4BA3FB0023A8
:10231C009B0C226853606168374A914232D8013372
:10232C00226813626368344A934235D85B00B0FB71
:10233C00F3F0C0F30B03032B00D804202368D861FF
:10234C00E369216A22680B4313602369E168226800
:10235C000B4393606369A16922680B43D3602268C5
:10236C00136843F00103136000202064202384F8D9
:10237C003D30206384F83E0010BD80F83C3004F002
:10238C00B3FCB8E74FF4967202FB03F31B4AA2FBB3
:10239C0003239B090133C3E7A16889B903EB43020B
:1023AC00B0FBF2F2C2F30B02B2FA82F25209E2B9BA
:1023BC0091B903EB4303B0FBF3F040F40040BDE7ED
:1023CC0003EB830202EB8202B0FBF2F2C2F30B02CC
:1023DC00B2FA82F25209EAE703EB830303EB8303BD
:1023EC00B0FBF3F040F44040A8E70120A6E7012041
:1023FC00704700BF83DE1B43A0860100D34D6210E3
:10240C00A8B110B50446242380F83D300268136847
:10241C0023F00103136004F0B1FC0020206484F865
:10242C003D00206384F83E0084F83C0010BD012080
:10243C00704700002DE9F04184B004460E469046EA
:10244C001F46FFF76BF894F83D30DBB2202B04D01D
:10245C000226304604B0BDE8F081054600901923F1
:10246C00012254492046FFF745FC002840F0998092
:10247C0094F83C30012B00F09680012384F83C301A
:10248C0023681A6812F0010F03D11A6842F0010296
:10249C001A602268136823F400631360212384F804
:1024AC003D30102384F83E3000232364C4F824808C
:1024BC006785A3F58033E362638D23852B460A9AE7
:1024CC0031462046FFF792FC064660B1236C042B84
:1024DC0004D1002384F83C300126BAE7002384F8A9
:1024EC003C300326B5E70023039323685A69039213
:1024FC009B690393039B10E0236C042B55D122683A
:10250C00136843F4007313600126A2E72A460A9964
:10251C002046FFF791FE00282BD1238D002B32D0C3
:10252C002A460A992046FFF74FFD0028E4D1636A3A
:10253C005A1C626222681B781361638D013B9BB24B
:10254C006385238D013B9BB223852268516911F071
:10255C00040FDBD0002BD9D0636A591C61621B7845
:10256C001361638D013B9BB26385238D013B2385F6
:10257C00CCE7236C042B1AD12268136843F4007344
:10258C001360012665E72268136843F40073136037
:10259C00202384F83D30002384F83E3084F83C300E
:1025AC0057E7022655E7022653E7032651E7032691
:1025BC004FE700BF020010002DE9F04186B0044641
:1025CC000E4690461F46FEF7A9FF94F83D30DBB24D
:1025DC00202B04D00226304606B0BDE8F08105461B
:1025EC000090192301228C492046FFF783FB002819
:1025FC0040F04B8194F83C30012B00F048810123D2
:10260C0084F83C3023681A6812F0010F03D11A6861
:10261C0042F001021A602268136823F4006313600D
:10262C00222384F83D30102384F83E3000232364A9
:10263C00C4F824806785A3F58033E362638D23851A
:10264C002B460C9A31462046FFF72EFC064660B10D
:10265C00236C042B04D1002384F83C300126BAE708
:10266C00002384F83C300326B5E7238D5BB9029335
:10267C0023685A6902929A690292029A1A6842F481
:10268C0000721A607AE0012B0FD0022B1FD0226847
:10269C00136843F4806313600023059323685A691D
:1026AC0005929B690593059B68E02268136823F4E7
:1026BC00806313600023039323685A6903929A6919
:1026CC000392039A1A6842F400721A6056E0226868
:1026DC00136823F4806313602268136843F4006367
:1026EC0013600023049323685A6904929B69049332
:1026FC00049B43E02A460C992046FFF7C4FD68B9B9
:10270C0023681A69636A591C61621A70238D013B34
:10271C002385638D013B9BB263852FE0236C202BBB
:10272C0001D0012657E7032655E700950C9B0022A4
:10273C003A492046FFF7DEFA002840F0AA802268CA
:10274C00136843F40073136023681A69636A591C95
:10275C0061621A70238D013B2385638D013B9BB213
:10276C00638523681A69636A591C61621A70238D28
:10277C00013B2385638D013B9BB26385238D002B2D
:10278C007AD0032B4CD8012BB4D0022BCDD0009592
:10279C000C9B002221492046FFF7ACFA00287AD185
:1027AC002268136823F48063136023681A69636AD0
:1027BC00591C61621A70238D013B2385638D013B8B
:1027CC009BB2638500950C9B002214492046FFF7B1
:1027DC0091FA002861D12268136843F400731360E6
:1027EC0023681A69636A591C61621A70238D013B54
:1027FC002385638D013B9BB2638523681A69636AE9
:10280C00591C61621A70238D013B2385638D013B3A
:10281C009BB26385B2E700BF020010000400010008
:10282C002A460C992046FFF72EFDF0B923681A6949
:10283C00636A591C61621A70238D013B2385638D79
:10284C00013B9BB2638523685A6912F0040F95D043
:10285C001A69636A591C61621A70238D013B2385C6
:10286C00638D013B9BB2638588E7236C202B01D0E1
:10287C000126B0E60326AEE6202384F83D30002383
:10288C0084F83E3084F83C30A5E60226A3E6022606
:10289C00A1E603269FE603269DE603269BE600BFE2
:1028AC002DE9F04182B004460E4617469846FEF7D5
:1028BC0035FE94F83D30DBB2202B04D002231846B1
:1028CC0002B0BDE8F0810546009019230122514960
:1028DC002046FFF70FFA002840F0938094F83C3024
:1028EC00012B00F09080012384F83C3023681A6897
:1028FC0012F0010F03D11A6842F001021A6022682B
:10290C00136823F400631360212384F83D304023C3
:10291C0084F83E3000232364089B6362BDF82430A6
:10292C0063853D4BE362638D238501950A9B009380
:10293C0043463A4631462046FFF76EFBB0B1236C56
:10294C00042B04D1002384F83C300123B7E7002387
:10295C0084F83C300323B2E7236C042B55D1226856
:10296C00136843F4007313600123A8E7238D002B35
:10297C0028D02A460A992046FFF726FB0028EBD1DF
:10298C00636A5A1C626222681B781361238D013BB7
:10299C009BB22385628D013A92B26285226851699D
:1029AC0011F0040FE2D0002BE0D0636A591C616275
:1029BC001B781361238D013B2385638D013B9BB2F7
:1029CC006385D3E72A460A992046FFF735FC034670
:1029DC0048B1236C042B1AD12268136843F400739A
:1029EC00136001236BE721680A6842F400720A60E5
:1029FC00202284F83D20002284F83E2084F83C20DC
:102A0C005DE702235BE7022359E7032357E7032320
:102A1C0055E700BF020010000000FFFF2DE9F04158
:102A2C0086B004460E4617469846FEF777FD94F896
:102A3C003D30DBB2202B04D00226304606B0BDE878
:102A4C00F08105460090192301228B492046FFF79F
:102A5C0051F9002840F04B8194F83C30012B00F0E8
:102A6C004881012384F83C3023681A6812F0010F66
:102A7C0003D11A6842F001021A602268136823F429
:102A8C0000631360222384F83D30402384F83E30E9
:102A9C00002323640C9B6362BDF834306385774B51
:102AAC00E362638D238501950E9B009343463A4662
:102ABC0031462046FFF71CFB064660B1236C042B05
:102ACC0004D1002384F83C300126B6E7002384F8B7
:102ADC003C300326B1E7238D5BB9029323685A6916
:102AEC0002929A690292029A1A6842F400721A606F
:102AFC0075E0012B0AD0022B1AD000230593236812
:102B0C005A6905929B690593059B68E022681368D6
:102B1C0023F4806313600023039323685A690392A0
:102B2C009A690392039A1A6842F400721A6056E08A
:102B3C002268136823F4806313602268136843F4DB
:102B4C00006313600023049323685A6904929B6901
:102B5C000493049B43E02A460E992046FFF793FB0F
:102B6C0068B923681A69636A591C61621A70238DEB
:102B7C00013B2385638D013B9BB263852FE0236C66
:102B8C00202B01D0012658E7032656E700950E9B13
:102B9C0000223B492046FFF7ADF8002840F0AB80FF
:102BAC002268136843F40073136023681A69636A1C
:102BBC00591C61621A70238D013B2385638D013B87
:102BCC009BB2638523681A69636A591C61621A7027
:102BDC00238D013B2385638D013B9BB26385238D44
:102BEC00002B7BD0032B4DD8012BB4D0022BCDD096
:102BFC0000950E9B002222492046FFF77BF8002807
:102C0C007BD12268136823F48063136023681A69EC
:102C1C00636A591C61621A70238D013B2385638D95
:102C2C00013B9BB2638500950E9B00221449204604
:102C3C00FFF760F8002862D12268136843F4007330
:102C4C00136023681A69636A591C61621A70238DB8
:102C5C00013B2385638D013B9BB2638523681A6915
:102C6C00636A591C61621A70238D013B2385638D45
:102C7C00013B9BB26385B2E7020010000000FFFF2E
:102C8C00040001002A460E992046FFF7FCFAF0B921
:102C9C0023681A69636A591C61621A70238D013B9F
:102CAC002385638D013B9BB2638523685A6912F0BF
:102CBC00040F94D01A69636A591C61621A70238DCF
:102CCC00013B2385638D013B9BB2638587E7236CB6
:102CDC00202B01D00126B0E60326AEE6202384F893
:102CEC003D30002384F83E3084F83C30A5E60226C3
:102CFC00A3E60226A1E603269FE603269DE603260D
:102D0C009BE600BF2DE9F04385B00446884691460A
:102D1C001D46FEF703FC94F83D30DBB2202B04D0AB
:102D2C000223184605B0BDE8F0830646009019232F
:102D3C00012256492046FEF7DDFF002840F09B801B
:102D4C0094F83C30012B00F09880012384F83C303F
:102D5C0023681A6812F0010F03D11A6842F00102BD
:102D6C001A602268136823F400631360242384F828
:102D7C003D3000232364A3F58033E362012735E063
:102D8C00A02384F83D3022685369C3F34003526991
:102D9C00C2F3802294F83D10C9B253B94AB9A029A4
:102DAC0007D0002DECD0FEF7B9FB801BA842EAD966
:102DBC00E6E7202384F83D3023685A6912F0020FAD
:102DCC0035D11A6842F400721A6023686FF480627D
:102DDC005A610096192301222C492046FEF78AFFDE
:102DEC00002850D17B1C4F453DD21F4622681368EA
:102DFC0043F48073136000962B4600224FF00111B0
:102E0C002046FEF777FF002839D1236808F0FE0230
:102E1C001A61FEF783FB064622685369C3F340032D
:102E2C005269C2F3802294F83D10C9B2B5E71A6812
:102E3C0042F400721A600023039323685A690392C8
:102E4C009B690393039B0096192301220F4920468B
:102E5C00FEF750FF0346A0B9202284F83D20002243
:102E6C0084F83C205DE7202384F83D30002384F86F
:102E7C003C30012355E7022353E7022351E7032398
:102E8C004FE703234DE703234BE700BF020010007D
:102E9C0070477047704708B590F83D30DAB2438DF3
:102EAC009BB273B1436A591C416201681B780B6178
:102EBC00438D013B9BB24385438D9BB20BB9292AB1
:102ECC0001D0002008BD0268536823F4806353606E
:102EDC0021230363282380F83D30FFF7DBFFF0E765
:102EEC00704790F83D30DAB2438D9BB2F3B110B518
:102EFC0003681969436A5C1C44621970438D013B79
:102F0C009BB24385438D9BB20BB92A2A01D000207A
:102F1C0010BD0268536823F480635360222303635B
:102F2C00282380F83D30FFF7DBFFF0E700207047E7
:102F3C00704708B503689A6912F0040F09D0002194
:102F4C009B6913F0800F06D0028BFFF7F1FF002076
:102F5C0008BD0121F4E78289F7E7704708B590F8BE
:102F6C003D30DBB2C26A042A01D0082A01D1282BD9
:102F7C0007D0212B1FD003686FF480625A610020A8
:102F8C0008BD1A4BC3620268536823F4E0635360B4
:102F9C0003686FF480625A610268136823F48063DB
:102FAC00136000230363202280F83D2080F83E301C
:102FBC00FFF7D3FFE3E70D4BC36221230363202309
:102FCC0080F83D30002380F83E300268536823F4CB
:102FDC00E063536003686FF480625A61026813689F
:102FEC0023F480631360FFF755FFC8E70000FFFF71
:102FFC00704710B590F83D30DBB290F83E20D2B25D
:10300C00C46A018D09B9212B05D0212B3CD0402A53
:10301C0038D0002010BD042C04D0082C02D014F59C
:10302C00803F19D10268536823F4E063536002684F
:10303C00136843F40073136000230363202380F8A8
:10304C003D3090F83E30DBB2402B15D0002380F899
:10305C003E30FFF71DFFDCE70268536823F4E063A2
:10306C00536011230363002380F83E30202380F843
:10307C003D30FFF70DFFCCE7002380F83E30FFF723
:10308C00B7FFC6E7222BC4D1438D9BB27BB190F81E
:10309C003E30DBB2402B10D0436A5A1C42620268AD
:1030AC001B781361438D013B9BB24385B1E70268EA
:1030BC00536823F480635360ABE7036D9BB9C36C17
:1030CC00012B08D0836CC3F3072302681361036DD3
:1030DC00013303659DE7836C0268DBB21361036DFA
:1030EC000233036595E7036D012B17D0036D022B9B
:1030FC008FD190F83D30DBB2222B17D090F83D30B9
:10310C00DBB2212B85D1436A5A1C426202681B78C0
:10311C001361438D013B9BB243857AE7836C026854
:10312C00DBB21361036D0133036572E70268136848
:10313C0043F4807313606CE708B5C26A90F83D30B5
:10314C00DBB2212B01D0002008BD438D9BB203BB09
:10315C00042A04D0082A02D012F5803F24D1026838
:10316C00536823F4E06353600268136843F40073FC
:10317C00136000230363202380F83D3090F83E3029
:10318C00DBB2402B20D0002380F83E30FFF780FECE
:10319C00D9E7436A5A1C426202681B781361438D5B
:1031AC00013B9BB24385CEE70268536823F4E0638E
:1031BC00536011230363002380F83E30202380F8F2
:1031CC003D30FFF765FEBEE7002380F83E30FFF789
:1031DC000FFFB8E7704708B590F83D30DBB2222BF3
:1031EC0001D0002008BD438D9BB2032B13D903687B
:1031FC001A69436A591C41621A70438D013B9BB298
:10320C004385438D9BB2032BEBD10268536823F4A7
:10321C0080635360E5E7012BE3D80268136823F45D
:10322C00806313600268536823F4E063536003689F
:10323C001A69436A591C41621A70438D013B9BB257
:10324C004385202380F83D300023036390F83E3003
:10325C00DBB2402B05D0002380F83E30FFF719FE7F
:10326C00BFE7002380F83E30FFF7B4FFB9E708B59D
:10327C00C26A438D9BB2042B13D0438D9BB2032B9C
:10328C001FD0438D9BB2022B30D003681A69436A5E
:10329C00591C41621A70438D013B9BB2438500203F
:1032AC0008BD0268536823F48063536003681A698D
:1032BC00436A591C41621A70438D013B9BB2438592
:1032CC00EDE70268536823F4806353600268136867
:1032DC0023F48063136003681A69436A591C4162C2
:1032EC001A70438D013B9BB24385D8E7013A012A02
:1032FC002DD90268136843F40073136003681A69CC
:10330C00436A591C41621A70438D013B9BB2438541
:10331C0003681A69436A591C41621A70438D013B58
:10332C009BB243850268536823F440735360202397
:10333C0080F83D300023036390F83E30DBB2402B25
:10334C0010D0002380F83E30FFF7A3FDA7E70268FA
:10335C00136823F4806313600268136843F480736A
:10336C001360CBE7002380F83E30FFF733FF96E77E
:10337C007047704710B5044690F83D30293B012B3F
:10338C0037D990F83D30DBB2602B07D003685B680F
:10339C0013F4006F02D1202380F83D300023236307
:1033AC0084F83E302268136823F4006313602368AA
:1033BC005A6812F4006F3FD05A6822F400625A60C7
:1033CC00626B92F83530DBB2012B18D03A4B136597
:1033DC00606BFEF757F900283FD02268136823F082
:1033EC0001031360202384F83D30606B036D984714
:1033FC0033E000230363282380F83D30D2E7A36B2E
:10340C002D4A1A65A06BFEF73DF930B323685A6953
:10341C0012F0400F04D01A69636A591C61621A7069
:10342C002268136823F001031360202384F83D30D5
:10343C00A06B036D984710E094F83D20D2B2602A3F
:10344C0011D05A6912F0400F04D01A69636A591CE2
:10345C0061621A702046FFF78BFF94F83D30DBB2A7
:10346C00282B17D010BD202284F83D200022226486
:10347C005A6912F0400F04D01A69636A591C6162D0
:10348C001A702268136823F0010313602046FFF7BB
:10349C0070FFE2E7236C13F0040FE3D0074BE362F9
:1034AC0000232363202284F83D2084F83E302046FC
:1034BC00FFF753FDD6E700BF093800080000FFFFF7
:1034CC0010B582B090F83D30DBB201684A6822F446
:1034DC00E0624A6000220192026851690191116810
:1034EC0041F001011160019A01680A6822F48062BE
:1034FC000A6001684A6812F4006F14D090F83D20FD
:10350C00D2B2222A0AD090F83D20D2B22A2A05D073
:10351C00426B1268526892B2428504E0826B126868
:10352C00526892B24285428D92B2F2B14A6912F05F
:10353C00040F08D00969426A541C44621170428D10
:10354C00013A92B242850268516911F0400F08D0DD
:10355C001169426A541C44621170428D013A92B254
:10356C004285026C42F004020264026CA2B9282B60
:10357C0015D02A2B13D0292B11D0026B222A01D063
:10358C00222B17D100230363202280F83D2080F8E2
:10359C003E30FFF7A5FC0DE0FFF7ECFE0AE0074B11
:1035AC00C36200230363202280F83D2080F83E3064
:1035BC00FFF7D3FC002002B010BD00BF0000FFFFDE
:1035CC00F8B5054603689F695C695E6890F83E3003
:1035DC00DBB2102B25D0402B23D04C4B234013B106
:1035EC0016F4007F6ED14A4B234013B116F4007FC2
:1035FC006BD1484B3B40002B6FD0474B234033B132
:10360C0016F4806F03D0454B2340002B61D0434B05
:10361C00234053B316F4007F27D02846FEF737FB20
:10362C0023E014F0011F02D016F4007F1ED13C4B96
:10363C00234013B116F4007F1CD1344B234013B13B
:10364C0016F4007F1AD1334B3B401BB3324B234053
:10365C002BB116F4806F02D0304B234093B12F4B1B
:10366C00234013B116F4007F10D1F8BD2846FEF7A5
:10367C00DDF9E8E72846FEF71EFAE4E72846FEF7F0
:10368C0020FAE0E72846FFF7B4FCEEE72846FFF700
:10369C0053FDEAE7234B23402BB116F4806F02D085
:1036AC001E4B234053B11D4B2340002BDDD016F491
:1036BC00007FDAD02846FFF7DAFDD6E72846FFF779
:1036CC008AFDD2E7FFF735FCCFE72846FFF7F8FE77
:1036DC00CBE72846FFF7DFFBC7E7124B23402BB1A4
:1036EC0016F4806F02D00D4B234053B10B4B23408B
:1036FC00002BBAD016F4007FB7D02846FEF7D6FAC6
:10370C00B3E72846FFF7EDFBAFE700BF020001006F
:10371C0010000100040010008000010004000100F2
:10372C00080001004000010070B5044603685D69A3
:10373C005E68314A154209D016F4807F06D0026CBF
:10374C0042F0010202646FF480725A6115F4813FF9
:10375C000AD016F4807F07D0236C43F00203236455
:10376C0023686FF400725A6115F4823F1AD016F474
:10377C00807F17D094F83E30DBB2628D91B294F812
:10378C003D20D2B2206B202B1DD0236C43F00403C0
:10379C00236494F83E30DBB2102B22D023686FF4F4
:1037AC0080625A6115F4843F0AD016F4807F07D0EA
:1037BC00236C43F00803236423686FF400625A619E
:1037CC00236CA3B970BD0029DFD1212A05D0292A89
:1037DC0003D0282AD9D12128D7D12046FFF7BEFB08
:1037EC00E0E72268136843F400731360D6E72046C1
:1037FC00FFF7C0FDE6E700BF0001010008B5806BD4
:10380C000268136823F48063136000234385426BC2
:10381C001365826B136590F83D30DBB2602B0DD0D5
:10382C00202380F83D30002380F83E300268136876
:10383C0023F001031360FFF79BFD08BD202380F8E4
:10384C003D30002380F83E3003640268136823F097
:10385C0001031360FFF78DFDEFE790F83D00704713
:10386C00F0B44D680468E368C3F30B431D44D20104
:10387C001444D4F8883003F47043C4F888300B68CF
:10388C000468E668C6F30B4633440133144443EA38
:10389C000543C4F88830CD680468E368C3F30A03B1
:1038AC001D441444D4F88C3003F47043C4F88C30A9
:1038BC008B680468E668C6F30A0633440133144483
:1038CC0043EA0543C4F88C3003681344D3F894409E
:1038DC0024F00704C3F89440036813440C69C3F83C
:1038EC00944091F831C091F832708E690568154496
:1038FC00D5F89C300024C5F89C4091F8303043EA50
:10390C000C2343EA07430568154443EA0663C5F8EC
:10391C009C3003681344D3F8985025F0FF05C3F886
:10392C009850036813444D69C3F8985003681344C6
:10393C00D3F8A05025F4E06525F00705C3F8A05096
:10394C00CD690E6A036813443543C3F8A05003686D
:10395C001344D3F8AC50C3F8AC40036813444C6A1E
:10396C00C3F8AC400B696BB1012B3CD0042B3CD0A1
:10397C00022B08D0032B3AD0072B01D0012302E0F5
:10398C00022300E0042304681444D4F8B05005F07A
:10399C00E025C4F8B0508C6A03FB04F54C680E6843
:1039AC00A41B03FB04F303330468144443EA0543E8
:1039BC00C4F8B03003681344D3F8B44024F4FF6463
:1039CC0024F00704C3F8B44003681344C96AC3F86D
:1039DC00B41003681A44D2F8843043F00103C2F8DF
:1039EC008430F0BC70470323CDE70223CBE70223DE
:1039FC00C9E70000002872D038B5044690F8A13011
:103A0C00002B67D0022384F8A1302268936923F03D
:103A1C007043936121688A696368A0680343E06816
:103A2C0003432069034313438B6121688A682D4B40
:103A3C001A408A60656920688268A16941EA05417B
:103A4C000A4382602168CA681A40CA60E569206826
:103A5C00C268216A41EA05410A43C26021680A69C9
:103A6C001A400A61656A20680269A16A41EA054147
:103A7C000A43026121684A6913404B61E06A21687C
:103A8C004B69226B42EA004213434B6194F83500B8
:103A9C0094F836301B042168CA6A02F07F42CA626D
:103AAC002168CA6A43EA002394F8340003431343A1
:103ABC00CB622268536B43F006035363226893690D
:103ACC0043F0010393610020C4F8A400012384F89F
:103ADC00A13038BD80F8A03003F074F992E70120D2
:103AEC00704700BF00F800F010B5044603F0EEF983
:103AFC000020C4F8A40084F8A10084F8A00010BD34
:103B0C0090F8A030012B27D02DE9F04194460F46B8
:103B1C0006464FF0010880F8A080022380F8A130FF
:103B2C00342404FB020438340D460FCD0FC40FCDE2
:103B3C000FC40FCD0FC42B68236062463946304644
:103B4C00FFF78EFE3368C3F8248086F8A18000202E
:103B5C0086F8A000BDE8F0810220704790F8A030F4
:103B6C00012B1DD030B4012480F8A040022380F832
:103B7C00A1300368D2011344D3F8905005F07F456F
:103B8C00C3F8905003681A44C2F8901003685C6242
:103B9C0080F8A140002380F8A030184630BC704754
:103BAC0002207047F0B490F8A040012C36D00124CC
:103BBC0080F8A040022480F8A140002612E006EB19
:103BCC0006140F68FDB245EA046407F47F452C43E4
:103BDC0007F47F073C430431056805EBC315C5F8B2
:103BEC00C4400136964210D2342404FB0304A46C66
:103BFC00062CE4D00D68ECB244EA066405F47F4769
:103C0C003C4305F47F052C43E5E7012380F8A13004
:103C1C00002380F8A0301846F0BC70470220FBE768
:103C2C0090F8A030012B17D0012280F8A02002239D
:103C3C0080F8A130036803EBC111D1F8843043F054
:103C4C000203C1F8843003685A6280F8A120002373
:103C5C0080F8A030184670470220704790F8A030CA
:103C6C00012B17D0012280F8A020022380F8A1306C
:103C7C00036803EBC111D1F8843023F00203C1F8BF
:103C8C00843003685A6280F8A120002380F8A030A9
:103C9C00184670470220704790F8A030012B17D0BF
:103CAC00012280F8A020022380F8A130036803EBE6
:103CBC00C111D1F8843043F01003C1F8843003688B
:103CCC005A6280F8A120002380F8A0301846704773
:103CDC0002207047F8B590F8A040012C21D0044682
:103CEC00012580F8A050022084F8A100342000FBAC
:103CFC0003F000F1380720448163066E0E44C6635E
:103D0C000264466E324442641A46E1192046FFF7BB
:103D1C00A7FD23685D6284F8A150002084F8A00000
:103D2C00F8BD0220FCE738B590F8A030012B19D073
:103D3C000446012580F8A050022380F8A1303423DA
:103D4C0003FB02F303F138002344D9642118204605
:103D5C00FFF786FD23685D6284F8A150002084F88B
:103D6C00A00038BD0220FCE738B590F8A030012B3C
:103D7C0019D00446012580F8A050022380F8A13008
:103D8C00342303FB02F303F138002344D9652118D3
:103D9C002046FFF765FD23685D6284F8A150002082
:103DAC0084F8A00038BD0220FCE7000090F8A03099
:103DBC00012B1AD010B4012280F8A020022380F825
:103DCC00A1300468636B23F001036363084B19642F
:103DDC0001684B6B13434B6380F8A120002380F8E0
:103DEC00A03018465DF8044B70470220704700BFA6
:103DFC0000680140002800F0BB8170B582B0044619
:103E0C00036813F0010F3BD0A74B9B6803F00C0326
:103E1C00042B2CD0A44B9B6803F00C03082B21D053
:103E2C006368B3F5803F4FD0B3F5A02F52D09E4BB3
:103E3C001A6822F480321A601A6822F480221A60FE
:103E4C006368002B50D0FDF769FB0546964B1B6849
:103E5C0013F4003F14D1FDF761FB401B6428F5D926
:103E6C0003208AE1904B5B6813F4800FD8D08E4B03
:103E7C001B6813F4003F03D06368002B00F07A81B9
:103E8C00236813F0020F55D0874B9B6813F00C0F6F
:103E9C003ED0854B9B6803F00C03082B33D0E368B2
:103EAC00002B68D0814B01221A60FDF737FB0546C9
:103EBC007D4B1B6813F0020F54D1FDF72FFB401BF9
:103ECC000228F5D9032058E1774A136843F480336C
:103EDC001360B5E7744B1A6842F480221A601A68B2
:103EEC0042F480321A60ABE7FDF718FB05466E4BC7
:103EFC001B6813F4003FC3D0FDF710FB401B642874
:103F0C00F5D9032039E1684B5B6813F4800FC6D1F7
:103F1C00654B1B6813F0020F04D0E368012B01D032
:103F2C0001202AE1604A136823F0F803216943EA6F
:103F3C00C1031360236813F0080F40D0636963B3A7
:103F4C005B4B01221A60FDF7E9FA0546564B5B6F95
:103F5C0013F0020F33D1FDF7E1FA401B0228F5D91B
:103F6C0003200AE1504A136823F0F803216943EA5D
:103F7C00C1031360DEE74D4B00221A60FDF7CEFA49
:103F8C000546494B1B6813F0020FD3D0FDF7C6FA58
:103F9C00401B0228F5D90320EFE0454B00221A60A4
:103FAC00FDF7BCFA0546404B5B6F13F0020F06D0D1
:103FBC00FDF7B4FA401B0228F5D90320DDE0236895
:103FCC0013F0040F79D0384B1B6C13F0805F33D196
:103FDC0000230193344B1A6C42F080521A641B6C10
:103FEC0003F080530193019B0125324B1B6813F4A2
:103FFC00807F23D0A368012B34D0052B38D02A4BDB
:10400C001A6F22F001021A671A6F22F004021A6763
:10401C00A368002B36D0FDF781FA0646224B1B6FA6
:10402C0013F0020F48D1FDF779FA801B41F2883367
:10403C009842F3D90320A0E00025D6E71D4A136867
:10404C0043F480731360FDF769FA0646194B1B683D
:10405C0013F4807FCED1FDF761FA801B0228F5D9CD
:10406C0003208AE0104A136F43F001031367CFE774
:10407C000D4B1A6F42F004021A671A6F42F00102DC
:10408C001A67C5E7FDF74AFA0646074B1B6F13F094
:10409C00020F11D0FDF742FA801B41F2883398428F
:1040AC00F3D9032069E000BF00380240000047420A
:1040BC00800E474200700040E5B9A369002B5BD02D
:1040CC00304A926802F00C02082A58D0022B17D002
:1040DC002D4B00221A60FDF721FA0446294B1B6870
:1040EC0013F0007F42D0FDF719FA001B0228F5D916
:1040FC00032042E0234A136C23F080531364DCE763
:10410C00214B00221A60FDF709FA05461D4B1B686E
:10411C0013F0007F06D0FDF701FA401B0228F5D9F9
:10412C0003202AE0E369226A1343626A43EA82139A
:10413C00A26A5208013A43EA0243E26A43EA026382
:10414C00104A5360104B01221A60FDF7E7F9044640
:10415C000C4B1B6813F0007F06D1FDF7DFF9001B39
:10416C000228F5D9032008E0002006E0002004E036
:10417C0001207047012000E0002002B070BD01203A
:10418C00FBE700BF0038024060004742324B9B689F
:10419C0003F00C03042B5CD0082B01D02F48704784
:1041AC002DE9F04B2C4B5A6802F03F025B6813F47C
:1041BC00800F2BD0284B5B68C3F388131E46002757
:1041CC005C010025E41A65EB0705A90141EA94613D
:1041DC00A001001B61EB0501CB0043EA5073C40046
:1041EC00A01943EB07014B0243EAD053440220468B
:1041FC0019460023FBF7F4FF174B5B68C3F301432D
:10420C0001335B00B0FBF3F0BDE8F08B124B5B6845
:10421C00C3F388131E4600275C010025E41A65EBE6
:10422C000705A90141EA9461A001001B61EB05019E
:10423C00CB0043EA5073C400A01943EB07018B0277
:10424C0043EA90538402204619460023FBF7C8FF2B
:10425C00D2E70348704700BF003802400024F40046
:10426C0000127A00002800F09D8070B504464F4B78
:10427C001B6803F00F038B4209D2CBB24B4A13706D
:10428C00136803F00F038B4201D0012070BD23682B
:10429C0013F0020F17D013F0040F04D0444A9368A4
:1042AC0043F4E0539360236813F0080F04D0404AA2
:1042BC00936843F4604393603D4A936823F0F003A2
:1042CC00A068034393600D46236813F0010F32D0AE
:1042DC006368012B21D09A1E012A25D9344A126811
:1042EC0012F0020F60D032498A6822F003021343A5
:1042FC008B60FDF713F906462D4B9B6803F00C03FE
:10430C006268B3EB820F16D0FDF708F9801B41F2FF
:10431C0088339842F0D90320B8E7254A126812F482
:10432C00003FE0D10120B1E7214A126812F0007F72
:10433C00D9D10120AAE71D4B1B6803F00F03AB4238
:10434C0009D9EAB2194B1A701B6803F00F03AB4280
:10435C0001D001209AE7236813F0040F06D0144A09
:10436C00936823F4E053E1680B439360236813F0E4
:10437C00080F07D00E4A936823F46043216943EA7F
:10438C00C1039360FFF702FF094B9B68C3F3031350
:10439C00084AD35CD840084B1860002003F038F86A
:1043AC00002073E70120704701206FE7003C0240BA
:1043BC0000380240D487010874000020014B1868B3
:1043CC00704700BF7400002008B5FFF7F7FF044BDF
:1043DC009B68C3F38223034AD35CD84008BD00BF5B
:1043EC0000380240E487010808B5FFF7E7FF044BEB
:1043FC009B68C3F34233034AD35CD84008BD00BF6B
:10440C0000380240E48701080F2303600B4B9A68C5
:10441C0002F0030242609A6802F0F00282609A682D
:10442C0002F4E052C2609B68DB0803F4E0530361C2
:10443C00034B1B6803F00F030B60704700380240FE
:10444C00003C024030B583B00446036813F0030F00
:10445C0014D1236813F00C0F5AD1236813F0200FDA
:10446C0040F0AF80236813F0100F00F0118194F826
:10447C002C20884B1A60002003B030BD864B0022E4
:10448C001A60FDF74BF80546844B1B6813F0006F60
:10449C0006D0FDF743F8401B0228F5D90320EBE7C3
:1044AC00236813F0010F07D06268A3681B0743EA67
:1044BC0082137A4AC2F88430236813F0020F15D0A5
:1044CC00764AD2F884106068E3681B0643EA8013CE
:1044DC0001F0E0410B43C2F88430D2F88C3023F069
:1044EC001F03E16901390B43C2F88C306A4B01227E
:1044FC001A60FDF713F80546684B1B6813F0006F44
:10450C00A7D1FDF70BF8401B0228F5D90320B3E720
:10451C00634B00221A60FDF701F805465F4B1B68E0
:10452C0013F0005F06D0FCF7F9FF401B0228F5D909
:10453C000320A1E7236813F0040F16D0574AD2F8D2
:10454C008810206963691B0643EA801301F0E0417F
:10455C000B43C2F88830D2F88C3023F4F853216A1C
:10456C00013943EA0123C2F88C30236813F0080F99
:10457C0014D04A4AD2F88830216903F0706343EAB8
:10458C008113A16943EA0173C2F88830D2F88C30E8
:10459C0023F44033616A0B43C2F88C30404B012248
:1045AC001A60FCF7BBFF05463C4B1B6813F0005F21
:1045BC007FF453AFFCF7B2FF401B0228F4D9032061
:1045CC005AE700230193354B1A6C42F080521A645F
:1045DC001B6C03F080530193019B324A136843F424
:1045EC0080731360FCF79AFF05462E4B1B6813F47F
:1045FC00807F06D1FCF792FF401B0228F5D90320DF
:10460C003AE7264B1B6F13F4407312D0A26A02F4E4
:10461C0040729A420DD0214B1A6F22F440722249FB
:10462C0001200860002008601A671B6F13F0010F4F
:10463C0012D1A36A03F44072B2F5407F1DD0174A21
:10464C00936823F4F813936014490B6FA26AC2F3B6
:10465C000B0213430B6705E7FCF760FF05460F4B96
:10466C001B6F13F0020FE4D1FCF758FF401B41F213
:10467C0088339842F3D90320FEE608498A6822F46D
:10468C00F81223F0704323F4407313438B60DBE781
:10469C000020F1E6E0114742680047420038024032
:1046AC007000474200700040400E474230B4002476
:1046BC004463C463446824B1022C02D00124046412
:1046CC0001E0002404644FF48034C4644FF6FF749A
:1046DC00446600248465036613F0010F4AD139B196
:1046EC0002294AD84FF4003404650024446504E0E0
:1046FC00002404654FF480244465032A3FD8DFE886
:10470C0002F0020F1822802484635B085C0144646D
:10471C001B0183644023C36502291ED000202AE0BC
:10472C00802484635B089D0145645B018364C465DC
:10473C00F2E7C02484635B089C0144645B018364DE
:10474C008023C365E8E7E02484635B089C01446430
:10475C005B0183648023C365DEE7012A03D0022A50
:10476C0004D0002007E010238365F8E70823836555
:10477C00002000E0012030BC70470120FBE7012045
:10478C00F9E730B400244463C463446824B1022CB8
:10479C0002D00024046401E0012404640024C464F5
:1047AC004FF4003505654FF4802545658465036637
:1047BC004FF6FF744466032909D0042929D101213D
:1047CC008164032A28D8DFE802F0050D141C0D21A2
:1047DC008164F6E7802282631B0143644023C36536
:1047EC00002017E0802282635B014364C2650020D5
:1047FC0010E0C02282635B0143648023C365002008
:10480C0008E0E02282635B0143648023C3650020DF
:10481C0000E0012030BC70470120FBE70E4B1B6809
:10482C000E4AA2FB03231B0B9B0001680A6822F4AF
:10483C0080320A605A1E3BB103681968134611F4A2
:10484C00803FF7D100207047D0F8843043F040030C
:10485C00C0F8843003207047740000201BECCB950B
:10486C00002800F0AD8070B5044690F881309BB103
:10487C00022384F881302046FFF7D0FF204600F059
:10488C00BFF8236A6BB963681BB3022B21D0236C6E
:10489C00012B2ED0002621E080F8803002F0FAFCAB
:1048AC00E6E7204600F0BCF800EB80004100236AEC
:1048BC005B02B1FBF3F1434BA3FB0123DB08636207
:1048CC0003EB830042008A1A082ADCD901336362A5
:1048DC00D9E7236C012B0AD04FF40076A268012A89
:1048EC006BD04AB1032A07D84FF4006005E00026CC
:1048FC00F4E74FF40076F1E7002021680B68324AA8
:10490C001A400A6021680A686368656B2B43A56BC3
:10491C002B43E56B2B4333430343A06A03432069CA
:10492C00034360690343606A43EA005313430B601B
:10493C002268536823F4604323F00F03536021680B
:10494C004A68A369E06A0343206B034313434B603B
:10495C00226891681D4B0B40936020688268636CE1
:10496C00013B616D0B43E16C0B43216D0B43A16C5F
:10497C00013943EA0123134383602268D36823F48B
:10498C007D6323F00F031B041B0CD3602068C268EB
:10499C00A36DE16D0B43616E43EA0143216E013956
:1049AC0043EA01231343C3600020C4F884000123AD
:1049BC0084F8813084F8800070BD4FF480609CE7EF
:1049CC0001207047CDCCCCCC10C005FF0080F8FF87
:1049DC0010B50446042911D8DFE801F003030308DD
:1049EC0008002046FFF762FE20B110BD2046FFF7FD
:1049FC00C8FEF9E72046FFF733FFF6E70120F4E79E
:104A0C00C368012B07D0022B03D00022034B1A6082
:104A1C0070472022FAE71022F8E700BF0058014047
:104A2C0002682F4B9A422FD02E4AD2F88C3023F4A6
:104A3C004003C16943EA8103C2F88C30294B5B689F
:104A4C0013F4800F2AD1274B5A6802F03F02264BF1
:104A5C00B3FBF2F3C2694AB3B2F5801F3BD1214AD2
:104A6C00D2F88410C1F30361D2F88400C0F388102B
:104A7C0003FB00F0B0FBF1F0D2F88C3003F01F0315
:104A8C000133B0FBF3F07047164AD2F88C3023F4A4
:104A9C004013C1690B43C2F88C30CFE7114B5A68F5
:104AAC0002F03F02114BB3FBF2F3D3E70D4AD2F8FD
:104ABC008810C1F30361D2F88800C0F3881003FB9F
:104ACC0000F0B0FBF1F0D2F88C30C3F304230133C7
:104ADC00B0FBF3F07047064B01221A600548704793
:104AEC0004580140003802400024F40000127A00FF
:104AFC005C0147420080BB00D8B138B504460D4676
:104B0C0090F82C3083B1022384F82C30211D2068BE
:104B1C0000F0C7FD62682946206800F0FEFD012305
:104B2C0084F82C30002038BD80F82D3001F0E0FFE7
:104B3C00E9E70120704738B590F82C30DBB2022B36
:104B4C0014D00D460446022380F82C30006800F087
:104B5C002FFE2B68022B04D0012384F82C3000206C
:104B6C0038BD052384F82C300020F9E70220F7E744
:104B7C0090F82C30DBB2022B0CD010B5044602237B
:104B8C0080F82C30006800F03DFE012384F82C30B6
:104B9C00002010BD02207047F8B505460F4616469A
:104BAC001C463BE02CB1FCF7B9FC069BC01AA0429A
:104BBC0034D32A68536823F0E00353606B68B3F571
:104BCC00827F0BD0AB6AB3F5005F14D0012385F85C
:104BDC005130002385F85030032027E0AB68B3F543
:104BEC00004F02D0B3F5806FECD12A68136823F024
:104BFC0040031360E6E72A68136823F400531B0490
:104C0C001B0C13602A68136843F400531360DDE730
:104C1C000123B34209D0B4F1FF3FC3D12B689B6889
:104C2C0037EA0303F4D00023F3E70020F8BD10B5F6
:104C3C0082B0044600920B4600228021FFF7ACFFA5
:104C4C00034610B9184602B010BD636D43F0200343
:104C5C0063650323F6E700283BD010B50446002318
:104C6C00836290F85130002B2ED0022384F85130FF
:104C7C002268136823F0400313606368A26813432F
:104C8C00E26813432269134362691343A26902F475
:104C9C0000721343E2691343226A1343A16A226828
:104CAC000B431360638B03F00403616A22680B43AC
:104CBC0053602268D36923F40063D36100206065DC
:104CCC00012384F8513010BD80F8503002F014FBF1
:104CDC00CBE70120704790B110B50446022380F851
:104CEC0051300268136823F04003136002F02EFB6E
:104CFC000020606584F8510084F8500010BD01203C
:104D0C0070472DE9F04184B01E4690F85030012BCD
:104D1C0000F0C88004460D469046012380F85030C0
:104D2C00FCF7FCFB074694F85130DBB2012B0AD0A0
:104D3C000223012284F85120002284F850201846C6
:104D4C0004B0BDE8F081002D00F0A480B8F1000F94
:104D5C0000F0A280032384F851300023636525639F
:104D6C00A4F83480A4F83680A363A387E387636434
:104D7C002364A368B3F5004F1BD023681A6812F0A4
:104D8C00400F03D11A6842F040021A60E368B3F591
:104D9C00006F14D063681BB1E38E9BB2012B3ED124
:104DAC00236815F8012B1A73E38E013B9BB2E38643
:104DBC0035E02268136843F480431360DDE76368D1
:104DCC001BB1E38E9BB2012B0DD1236835F8022B5E
:104DDC00DA60E38E013B9BB2E38604E0002E5DD0EB
:104DEC00B6F1FF3F0FD1E38E9BB27BB323689A6879
:104DFC0012F0020FF2D035F8022BDA60E38E013B91
:104E0C009BB2E386EFE7FCF789FBC01BB042EAD309
:104E1C0003238EE7002E43D0B6F1FF3F0FD1E38E74
:104E2C009BB29BB123689A6812F0020FF2D015F86E
:104E3C00012B1A73E38E013B9BB2E386EFE7FCF781
:104E4C006DFBC01BB042EAD3032372E700973346D5
:104E5C00012202212046FFF79FFE08B1032368E7D9
:104E6C003A4631462046FFF7E2FE034618B12023AE
:104E7C00636501235DE7A26832B903922268D168A9
:104E8C00039192680392039A626D002A3FF451AF2A
:104E9C0001234EE701234CE701234AE7032348E7AC
:104EAC00032346E702234AE790F85100704710B4F9
:104EBC00036A046A24F001040462846924F0F00497
:104ECC0044EA021223F00A030B43826103625DF889
:104EDC00044B704710B4036A23F010030362846917
:104EEC00036A24F4704444EA023223F0A00343EA38
:104EFC000113826103625DF8044B7047836823F0F1
:104F0C00700341F0070119438160704710B4846845
:104F1C0024F47F4442EA03230B43234383605DF86C
:104F2C00044B70470268D36843F00103D3600268F6
:104F3C00136843F0010313600020704790F8383079
:104F4C00012B7DD010B50446012380F838300223A4
:104F5C0080F839300268936823F47F4323F0770399
:104F6C0093600B68402B57D010D9702B3ED01FD8B4
:104F7C00502B47D0602B32D1CA6849680068FFF7C4
:104F8C00A9FF60212068FFF7B9FF28E0102B4DD056
:104F9C0008D9202B4FD0302B21D130210068FFF7BE
:104FAC00ADFF1CE0DBB900210068FFF7A7FF16E09E
:104FBC00B3F5805F0ED0B3F5005F10D1CB684A68B3
:104FCC0089680068FFF7A2FF2268936843F4804366
:104FDC00936004E00268936823F007039360012355
:104FEC0084F83930002084F8380010BDCB684A684A
:104FFC0089680068FFF78AFF2268936843F077039B
:10500C009360ECE7CA6849680068FFF750FF5021CD
:10501C002068FFF773FFE2E7CA6849680068FFF78A
:10502C0046FF40212068FFF769FFD8E71021006890
:10503C00FFF764FFD3E720210068FFF75FFFCEE79F
:10504C0002207047704770477047704710B5044690
:10505C0003681A6912F0020F11D0DA6812F0020F0D
:10506C000DD06FF002021A610123037603689B696D
:10507C0013F0030F70D0FFF7E6FF002323762368AD
:10508C001A6912F0040F12D0DA6812F0040F0ED065
:10509C006FF004021A610223237623689B6913F4D0
:1050AC00407F5FD02046FFF7CEFF00232376236896
:1050BC001A6912F0080F12D0DA6812F0080F0ED02D
:1050CC006FF008021A61042323762368DB6913F05E
:1050DC00030F4ED02046FFF7B6FF0023237623683C
:1050EC001A6912F0100F12D0DA6812F0100F0ED0ED
:1050FC006FF010021A61082323762368DB6913F41E
:10510C00407F3DD02046FFF79EFF00232376236887
:10511C001A6912F0010F03D0DA6812F0010F36D1C0
:10512C0023681A6912F0800F03D0DA6812F0800F2E
:10513C0034D123681A6912F0400F03D0DA6812F0E8
:10514C00400F32D123681A6912F0200F03D0DA68AD
:10515C0012F0200F30D110BDFFF774FF2046FFF77F
:10516C0073FF8AE72046FFF76DFF2046FFF76CFFC1
:10517C009BE72046FFF766FF2046FFF765FFACE78D
:10518C002046FFF75FFF2046FFF75EFFBDE76FF09D
:10519C0001021A61204601F0D3FEC1E76FF08002D4
:1051AC001A61204600F0B3F8C3E76FF040021A61B1
:1051BC002046FFF74AFFC5E76FF020021A61204630
:1051CC0000F0A4F8C7E7000003682E4A904212D002
:1051DC00B0F1804F0FD0A2F57C4290420BD002F57B
:1051EC008062904207D002F58062904203D002F5B3
:1051FC007842904203D123F070034A681343214A4A
:10520C0090422AD0B0F1804F27D0A2F57C42904238
:10521C0023D002F5806290421FD002F5806290424A
:10522C001BD002F57842904217D002F57052904292
:10523C0013D002F5806290420FD002F5806290424A
:10524C000BD0A2F59832904207D002F580629042C2
:10525C0003D002F58062904203D123F44073CA68F4
:10526C00134303608B68C3620B688362054B9842DF
:10527C0003D003F58063984201D10B6903630123CA
:10528C004361704700000140A8B110B5044690F886
:10529C0039305BB1022384F83930211D2068FFF7C7
:1052AC0093FF012384F83930002010BD80F838308A
:1052BC0002F008FAEEE70120704790F83830012B25
:1052CC0022D030B4012280F83820022380F8393003
:1052DC000468636823F070036360046863680D6896
:1052EC002B4363600468A36823F08003A360046805
:1052FC00A36849680B43A36080F83920002380F829
:10530C003830184630BC70470220704770477047E1
:10531C002DE9F843044601680A6922F44052C36837
:10532C0013430B610168CA6822F4164222F00C0286
:10533C0083680069034360690343E06903431343D3
:10534C00CB6021684A6922F44072A36913434B6114
:10535C00E369B3F5004F60D02368B84A934200F07C
:10536C00148102F58062934200F00F81FFF72CF854
:10537C0000EB800000EB80006568AD00B0FBF5F53C
:10538C00AF4FA7FB05356D092E01FFF71DF800EB9C
:10539C00800000EB80006568AD00B0FBF5F9FFF70D
:1053AC0013F800EB800000EB80006568AD00B0FBEB
:1053BC00F5F5A7FB05356D094FF0640808FB15954D
:1053CC002D013235A7FB05356D0905F0F005354487
:1053DC00FEF7FAFF00EB800000EB80006668B60079
:1053EC00B0FBF6F6FEF7F0FF00EB800000EB800060
:1053FC0063689B00B0FBF3F0A7FB0030400908FB8F
:10540C0010684FEA081808F13208A7FB0837C7F3F1
:10541C00431723682F449F600DE12368874A93420A
:10542C005BD002F58062934257D0FEF7CDFF00EBC4
:10543C00800000EB800065686D00B0FBF5F5804FD7
:10544C00A7FB05356D092E01FEF7BEFF00EB8000B2
:10545C0000EB800065686D00B0FBF5F9FEF7B4FF5A
:10546C0000EB800000EB800065686D00B0FBF5F58B
:10547C00A7FB05356D094FF0640808FB1595ED0089
:10548C003235A7FB05356D096D0005F4F87535440B
:10549C00FEF79AFF00EB800000EB80006668760058
:1054AC00B0FBF6F6FEF790FF00EB800000EB8000FF
:1054BC0063685B00B0FBF3F3A7FB03235B0908FBFA
:1054CC0013684FEAC80808F13208A7FB0837C7F37E
:1054DC00421723682F449F60ADE0FEF785FF00EB79
:1054EC00800000EB800065686D00B0FBF5F5544F53
:1054FC00A7FB05356D092E01FEF776FF00EB80004A
:10550C0000EB800065686D00B0FBF5F9FEF76CFFF1
:10551C0000EB800000EB800065686D00B0FBF5F5DA
:10552C00A7FB05356D094FF0640808FB1595ED00D8
:10553C003235A7FB05356D096D0005F4F87535445A
:10554C00FEF752FF00EB800000EB800066687600EF
:10555C00B0FBF6F6FEF748FF00EB800000EB800096
:10556C0063685B00B0FBF3F3A7FB03235B0908FB49
:10557C0013684FEAC80808F13208A7FB0837C7F3CD
:10558C00421723682F449F6055E0FEF72DFF00EB78
:10559C00800000EB80006568AD00B0FBF5F5284F8E
:1055AC00A7FB05356D092E01FEF71EFF00EB8000F1
:1055BC0000EB80006568AD00B0FBF5F9FEF714FF59
:1055CC0000EB800000EB80006568AD00B0FBF5F5EA
:1055DC00A7FB05356D094FF0640808FB15952D01E7
:1055EC003235A7FB05356D0905F0F0053544FEF79E
:1055FC00FBFE00EB800000EB80006668B600B0FBA1
:10560C00F6F6FEF7F1FE00EB800000EB800063681D
:10561C009B00B0FBF3F0A7FB0030400908FB1068BF
:10562C004FEA081808F13208A7FB0837C7F34317ED
:10563C0023682F449F60BDE8F88300BF0010014031
:10564C001F85EB5158B310B5044690F839300BB3A5
:10565C00242384F839302268D36823F40053D360B0
:10566C002046FFF755FE2268136923F4904313611B
:10567C002268536923F02A0353612268D36843F4E8
:10568C000053D3600020E063202384F8393084F881
:10569C003A3010BD80F8383002F07EF8D8E701209F
:1056AC00704730B40B68012B1AD0026822F4FF4209
:1056BC0022F07F024B688C682343CC6823430C692F
:1056CC0023434C6923438C692343CC6923430C6AE1
:1056DC002343496A0B4313430360002030BC7047DB
:1056EC00026822F4F842CB690C6A1C434B6A1C43D7
:1056FC001443426822F4FF4222F07F024B688D680B
:10570C002B43CD682B430D692B434D692B43896982
:10571C000B43134304604360DFE730B4012A21D00C
:10572C00826802F070420B68013B4C68013C43EA12
:10573C0004138C68013C43EA0423CC68013C43EA23
:10574C0004330C69013C43EA04434C69013C43EAD1
:10575C0004538969013943EA0163134383600020D0
:10576C0030BC7047846824F4700424F47044CA6814
:10577C00551E4B695A1E120542EA05322243C46873
:10578C0004F070440B68013B4D68013D43EA05137E
:10579C008D68013D43EA05230D69013D43EA05434C
:1057AC008969013943EA016323438260C360D6E708
:1057BC0070B582B004461546002301930B684A6805
:1057CC0013438A68013A43EA4213CA6843EA422304
:1057DC000193019B0361FBF7A1FE0646A36913F03D
:1057EC00200F0AD0B5F1FF3FF8D04DB1FBF796FE74
:1057FC00801BA842F2D9032000E0002002B070BD4B
:10580C000320FBE7436943EA4101416100207047F3
:10581C007047000008B54FF4163103480CF0C6FD74
:10582C0002480BF097F808BD080400200489010811
:10583C0010B582B00024009400F0A6FD02B010BD9B
:10584C0010B582B00024009400F084FD02B010BDAD
:10585C0010B582B00024009400F096FD02B010BD8B
:10586C0010B582B00024009400F074FD02B010BD9D
:10587C0010B582B00224009400F086FD02B010BD79
:10588C0010B582B00224009400F064FD02B010BD8B
:10589C0010B582B00324009400F076FD02B010BD68
:1058AC0010B582B00324009400F054FD02B010BD7A
:1058BC0010B582B00424009400F066FD02B010BD57
:1058CC0010B582B00424009400F044FD02B010BD69
:1058DC0030B587B0284B1B78012B03D00BF0F2F9B5
:1058EC0007B030BD01A8FBF785FDBDF804008DF8AD
:1058FC001400BDF80640BDF80830C3F5A0739BB288
:10590C00ADF80630ADF808401C4AB2F86E2B934245
:10591C002CD2D21A92B21949B1F8701BA14228D9D3
:10592C00091B89B2A8B1154DB5F86C5BA84203D11F
:10593C00032A01D803290CD9114A01A903C982E809
:10594C00030000228DF815200393049403A80AF099
:10595C00C3FBBDF80430002BC0D1084AB2F86C2B45
:10596C009342BBD003A80AF0B7FBB7E79A1A92B2DE
:10597C00D1E7611A89B2D5E7A88D0220F87D022003
:10598C006489022070B500F0CFF900231A46414912
:10599C0041480AF03FFF002008F05EFF88B1F0227A
:1059AC004FF4A071002008F065FEF0224FF4A071B6
:1059BC00002008F045FE394B394A1A6400246CB1BA
:1059CC0070BD4FF4A072F021002008F053FE4FF48C
:1059DC00A072F021002008F033FEECE7E3001B1B63
:1059EC009A002E4D15442B4BAB654FF0FF336B6477
:1059FC002646296C204608F00BFE204608F0F4FEE3
:105A0C00C0106865274A2121204608F09BFE264AD3
:105A1C002321204608F096FE204600F0DFF90428EA
:105A2C0026D9204600F0DAF902282CD01F4920484C
:105A3C000CF0E2FF1F4920480CF01CFE1F492048C7
:105A4C000CF048FF1F4920480CF07EFD1F492048F0
:105A5C000CF098FE1F480AF049FA1F480AF074FF30
:105A6C001E480AF04BFA1E480AF050FA0134A6E719
:105A7C001C4A1921204608F065FE1B4A25212046A8
:105A8C0008F060FECDE7194A2421304608F05AFE92
:105A9C00CCE700BF1C9B01088C990108085C022014
:105AAC00000020D0255F00086D5F0008AD5800088D
:105ABC009D5800088D5800087D580008CD580008E6
:105ACC00BD5800086D5800085D5800084D58000876
